:020000021000EC
:1000000028C7012005490100F3840300F1480100DD
:10001000F1480100F1480100F1480100F1480100F8
:10002000000000000000000000000000F14A010094
:10003000F148010000000000A94A0100F148010058
:10004000A54C0100A54C0100A54C0100A54C0100E8
:10005000A54C0100A54C0100A54C0100A54C0100D8
:10006000A54C0100A54C0100A54C0100A54C0100C8
:10007000A54C0100A54C0100A54C0100A54C0100B8
:10008000A54C0100A54C0100A54C0100A54C0100A8
:10009000A54C0100A54C0100A54C0100A54C010098
:1000A000A54C0100A54C0100A54C0100A54C010088
:1000B000A54C0100A54C0100A54C0100A54C010078
:1000C000A54C0100A54C0100A54C0100A54C010068
:1000D000A54C0100A54C0100A54C0100A54C010058
:1000E000A54C0100A54C0100A54C0100A54C010048
:1000F000A54C0100A54C0100A54C0100A54C010038
:10010000A54C0100A54C0100A54C0100A54C010027
:10011000A54C0100A54C0100A54C0100A54C010017
:10012000A54C0100A54C0100A54C0100A54C010007
:10013000A54C0100A54C0100A54C0100A54C0100F7
:04014000A54C0100C9
:1001480081F0004102E000BF83F0004330B54FEA80
:1001580041044FEA430594EA050F08BF90EA020FED
:100168001FBF54EA000C55EA020C7FEA645C7FEA80
:10017800655C00F0E2804FEA5454D4EB5555B8BFA3
:100188006D420CDD2C4480EA020281EA030382EA14
:10019800000083EA010180EA020281EA0303362DA6
:1001A80088BF30BD11F0004F4FEA01314FF4801C79
:1001B8004CEA113102D0404261EB410113F0004F8B
:1001C8004FEA03334CEA133302D0524263EB430342
:1001D80094EA050F00F0A780A4F10104D5F1200EE0
:1001E8000DDB02FA0EFC22FA05F2801841F100013B
:1001F80003FA0EF2801843FA05F359410EE0A5F10F
:1002080020050EF1200E012A03FA0EFC28BF4CF03F
:10021800020C43FA05F3C01851EBE37101F00045F5
:1002280007D54FF0000EDCF1000C7EEB00006EEB02
:100238000101B1F5801F1BD3B1F5001F0CD349088C
:100248005FEA30004FEA3C0C04F101044FEA4452E3
:1002580012F5800F80F09A80BCF1004F08BF5FEA6A
:10026800500C50F1000041EB045141EA050130BD4A
:100278005FEA4C0C404141EB0101013C28BFB1F55C
:10028800801FE9D291F0000F04BF01460020B1FAA7
:1002980081F308BF2033A3F10B03B3F120020CDA7A
:1002A8000C3208DD02F1140CC2F10C0201FA0CF058
:1002B80021FA02F10CE002F11402D8BFC2F1200CBD
:1002C80001FA02F120FA0CFCDCBF41EA0C01904073
:1002D800E41AA2BF01EB0451294330BD6FEA0404BC
:1002E8001F3C1CDA0C340EDC04F11404C4F12002A7
:1002F80020FA04F001FA02F340EA030021FA04F3B9
:1003080045EA030130BDC4F10C04C4F1200220FA0F
:1003180002F001FA04F340EA0300294630BD21FA4D
:1003280004F0294630BD94F0000F83F4801306BF13
:1003380081F480110134013D4EE77FEA645C18BF07
:100348007FEA655C29D094EA050F08BF90EA020F9E
:1003580005D054EA000C04BF1946104630BD91EA96
:10036800030F1EBF0021002030BD5FEA545C05D199
:100378004000494128BF41F0004130BD14F58004D8
:100388003CBF01F5801130BD01F0004545F0FE414C
:1003980041F470014FF0000030BD7FEA645C1ABF81
:1003A800194610467FEA655C1CBF0B46024650EAB8
:1003B800013406BF52EA033591EA030F41F40021E4
:1003C80030BD00BF90F0000F04BF0021704730B56A
:1003D8004FF4806404F132044FF000054FF000013F
:1003E80050E700BF90F0000F04BF0021704730B500
:1003F8004FF4806404F1320410F0004548BF4042D5
:100408004FF000013EE700BF42004FEAE2014FEA29
:1004180031014FEA02701FBF12F07F4393F07F4F04
:1004280081F06051704732F07F4208BF704793F007
:100438007F4F04BF41F40021704730B54FF460741A
:1004480001F0004521F000411CE700BF50EA01021D
:1004580008BF704730B54FF000050AE050EA0102C6
:1004680008BF704730B511F0004502D5404261EB36
:1004780041014FF4806404F132045FEA915C3FF477
:10048800D8AE4FF003025FEADC0C18BF03325FEA14
:10049800DC0C18BF033202EBDC02C2F1200300FAC5
:1004A80003FC20FA02F001FA03FE40EA0E0021FAEA
:1004B80002F11444BDE600BF70B54FF0FF0C4CF4D8
:1004C800E06C1CEA11541DBF1CEA135594EA0C0F8A
:1004D80095EA0C0F00F0DEF82C4481EA030621EAC5
:1004E8004C5123EA4C5350EA013518BF52EA033500
:1004F80041F4801143F4801338D0A0FB02CE4FF0B2
:100508000005E1FB02E506F00042E0FB03E54FF0E1
:100518000006E1FB03569CF0000F18BF4EF0010ED9
:10052800A4F1FF04B6F5007F64F5407404D25FEAD5
:100538004E0E6D4146EB060642EAC62141EA555188
:100548004FEAC52040EA5E504FEACE2EB4F1FD0CCA
:1005580088BFBCF5E06F1ED8BEF1004F08BF5FEA48
:10056800500E50F1000041EB045170BD06F00046FA
:1005780046EA010140EA020081EA0301B4EB5C04A7
:10058800C2BFD4EB0C0541EA045170BD41F480119F
:100598004FF0000E013C00F3AB8014F1360FDEBFC4
:1005A800002001F0004170BDC4F10004203C35DAA0
:1005B8000C341BDC04F11404C4F1200500FA05F323
:1005C80020FA04F001FA05F240EA020001F00042C4
:1005D80021F0004110EBD37021FA04F642EB06013A
:1005E8005EEA430E08BF20EAD37070BDC4F10C0464
:1005F800C4F1200500FA04F320FA05F001FA04F228
:1006080040EA020001F0004110EBD37041F1000113
:100618005EEA430E08BF20EAD37070BDC4F120051E
:1006280000FA05F24EEA020E20FA04F301FA05F286
:1006380043EA020321FA04F001F0004121FA04F22E
:1006480020EA020000EBD3705EEA430E08BF20EAFE
:10065800D37070BD94F0000F0FD101F00046400038
:1006680041EB010111F4801F08BF013CF7D041EABA
:10067800060195F0000F18BF704703F000465200BE
:1006880043EB030313F4801F08BF013DF7D043EA8F
:100698000603704794EA0C0F0CEA135518BF95EA45
:1006A8000C0F0CD050EA410618BF52EA4306D1D1CC
:1006B80081EA030101F000414FF0000070BD50EAEB
:1006C800410606BF1046194652EA430619D094EA75
:1006D8000C0F02D150EA013613D195EA0C0F05D15F
:1006E80052EA03361CBF104619460AD181EA0301B3
:1006F80001F0004141F0FE4141F470014FF000006B
:1007080070BD41F0FE4141F4780170BD70B54FF005
:10071800FF0C4CF4E06C1CEA11541DBF1CEA135585
:1007280094EA0C0F95EA0C0F00F0A7F8A4EB050467
:1007380081EA030E52EA03354FEA013100F088805E
:100748004FEA03334FF0805545EA131343EA126327
:100758004FEA022245EA111545EA10654FEA0026DC
:100768000EF000419D4208BF964244F1FD0404F595
:10077800407402D25B084FEA3202B61A65EB0305F1
:100788005B084FEA32024FF480104FF4002CB6EBAE
:10079800020E75EB030E22BFB61A754640EA0C002E
:1007A8005B084FEA3202B6EB020E75EB030E22BF6E
:1007B800B61A754640EA5C005B084FEA3202B6EBAF
:1007C800020E75EB030E22BFB61A754640EA9C006E
:1007D8005B084FEA3202B6EB020E75EB030E22BF3E
:1007E800B61A754640EADC0055EA060E18D04FEAFC
:1007F800051545EA16754FEA06164FEAC30343EA9C
:1008080052734FEAC2025FEA1C1CC0D111F4801F68
:100818000BD141EA00014FF000004FF0004CB6E761
:1008280011F4801F04BF01430020B4F1FD0C88BF00
:10083800BCF5E06F3FF6AFAEB5EB030C04BFB6EB0B
:10084800020C5FEA500C50F1000041EB045170BDFE
:100858000EF0004E4EEA113114EB5C04C2BFD4EB2B
:100868000C0541EA045170BD41F480114FF0000EAF
:10087800013C90E645EA060E8DE60CEA135594EA2B
:100888000C0F08BF95EA0C0F3FF43BAF94EA0C0F2E
:100898000AD150EA01347FF434AF95EA0C0F7FF4A3
:1008A80025AF104619462CE795EA0C0F06D152EAF7
:1008B80003353FF4FDAE1046194622E750EA4106DB
:1008C80018BF52EA43067FF4C5AE50EA41047FF4EC
:1008D8000DAF52EA43057FF4EBAE12E77BB972B96C
:1008E8000029BEBF00204FF0004106E008BF0028E5
:1008F8001CBF6FF000414FF0FF3000F057B8ADF16A
:10090800080C6DE904CE002909DB002B1ADB00F086
:1009180069F8DDF804E0DDE9022304B070474042DD
:1009280061EB4101002B1BDB00F05CF8DDF804E013
:10093800DDE9022304B0404261EB4101524263EB1E
:1009480043037047524263EB430300F04BF8DDF872
:1009580004E0DDE9022304B0404261EB4101704745
:10096800524263EB430300F03DF8DDF804E0DDE9B3
:10097800022304B0524263EB4303704753B94AB9A8
:10098800002908BF00281CBF4FF0FF314FF0FF308F
:1009980000F00CB8ADF1080C6DE904CE00F022F8B7
:1009A800DDF804E0DDE9022304B07047704700BFBA
:1009B80010F8012B11F8013B012A28BF9A42F7D001
:1009C800D01A7047034611F8012B03F8012B002AAF
:1009D800F9D17047034613F8012B002AFBD1181AE6
:1009E800013870472DE9F04786468C460846089E30
:1009F800154674461946002B40F0C1808542B2FA6C
:100A080082F245D94AB1C2F1200300FA02FC9540AE
:100A180094402EFA03F343EA0C0C4FEA154EA8B2A1
:100A2800230CBCFBFEF80EFB18CC08FB00F943EACC
:100A38000C43994528D9EB1808F1FF3704D299459A
:100A480002D9A8F102072B44A3EB0903A4B2B3FB14
:100A5800FEFC0EFB1C330CFB00F044EA0344A042EE
:100A680014D92C190CF1FF3304D2A04202D9ACF1ED
:100A780002032C44241A43EA07401EB1D440002341
:100A880034607360BDE8F0874746DDE76346F1E709
:100A980092BB431B01214FEA154EAFB2200CB3FBAA
:100AA800FEFC0EFB1C330CFB07F840EA0343984599
:100AB80061D9EB180CF1FF3004D2984502D9ACF19A
:100AC80002002B44A3EB0803A4B2B3FBFEFC0EFB0D
:100AD8001C330CFB07F744EA0344A7424DD92C19F1
:100AE8000CF1FF3304D2A74202D9ACF102032C4423
:100AF800E41B43EA0040C0E7C2F12003954094405C
:100B080020FA03F12EFA03F34FEA154E9040AFB2E4
:100B18000343B1FBFEFC0EFB1C10190C0CFB07F881
:100B280041EA0041884522D969180CF1FF3004D206
:100B3800884502D9ACF102002944A1EB08019BB217
:100B4800B1FBFEFC0EFB1C110CFB07F743EA01434B
:100B58009F420ED9EB180CF1FF3104D29F4202D903
:100B6800ACF102012B44DB1B41EA004193E76046EC
:100B7800E3E76146F7E76046A4E76346B8E78342E0
:100B880006D916B9002108467CE7C6E900E0F9E76E
:100B9800B3FA83F78FB9834201D3724508D8BEEB05
:100BA800020460EB030301209C461EB9002169E79B
:100BB8003846FAE7C6E9004CF8E7C7F1200CBB4015
:100BC8000EFA07F522FA0CF42EFA0CF1BA401C437F
:100BD80020FA0CF3B8404FEA144901431FFA84FE87
:100BE800B3FBF9F809FB18300B0C08FB0EFA43EAC3
:100BF80000439A4540D9E31808F1FF3004D29A45DA
:100C080002D9A8F102002344A3EB0A0389B2B3FB7B
:100C1800F9F809FB183308FB0EFE41EA03418E453B
:100C28002CD9611808F1FF3304D28E4502D9A8F1F6
:100C38000203214443EA0040A1EB0E01A0FB029805
:100C48004145CE46434602D306D14D4504D201382C
:100C5800B9EB020E68EB0403002EA7D0B5EB0E0229
:100C680061EB030101FA0CFC22FA07F3F9404CEAA4
:100C78000303C6E9003199E74046C5E74346D9E78B
:100C88002DE9F04F8DB004468368DB683C21984716
:100C9800374A13680133136010F14D0F00D028B99B
:100CA800A3681B6906AA032120469847002853DB3E
:100CB8002F4B1D6825F0B0FA04460698FFF792FB03
:100CC80006460F460798FFF78DFB27A3D3E90023B5
:100CD800FFF71CFD02460B4630463946FFF736FA49
:100CE80082468B460898FFF77DFB06460F46099813
:100CF800FFF778FB1CA3D3E90023FFF707FD0246A3
:100D08000B4630463946FFF721FA06460F460A9841
:100D1800FFF768FB804689460B98FFF763FB12A331
:100D2800D3E90023FFF7F2FC02460B46404649464A
:100D3800FFF70CFACDE90401CDE90267CDE900AB74
:100D48000C4B224629460C4824F01CFE0A2024F0AD
:100D58002BFE0DB0BDE8F08F0146084824F012FEC6
:100D6800F4E700BFAFF300800000000080842E414C
:100D7800D0150120FCB10400C0AA0400A4AA0400F4
:100D88002DE9F04F8DB009900D46174638F0DFFF7A
:100D98004B0143EAD0634401241A63EB01039B002F
:100DA80043EA9473A400241843EB0101C90041EA03
:100DB8005471C4F3103444EA41444FEAD139012D47
:100DC80065D07D6829463C48FFF7F2FD28B12946E1
:100DD8003A48FFF7EDFD002861D135A3D3E9002398
:100DE80020464946FFF77AFD80460A9130A3D3E9A9
:100DF800002320464946FFF771FD15461C46304A38
:100E0800002328462146FFF769FD06460F462C4A6F
:100E1800002328462146FFF761FD15461C464EF67D
:100E28006022002328462146FFF758FD81460B9192
:100E38004EF66022002328462146FFF74FFD15464F
:100E48001C464FF47A72002328462146FFF746FDD8
:100E580083468A464FF47A72002328462146FFF7D4
:100E68003DFDCDE90623CDF810B0CDF814A0CDF89E
:100E780008900B9A03920096019742460A9B1149E3
:100E8800099826F0E0FE00200DB0BDE8F08F22465C
:100E98004B460D49099826F0D6FE0020F4E72A466D
:100EA8000A49099826F0EDFE6FF00400ECE700BF50
:100EB800005C260500000000B8AF0400BCAF0400C9
:100EC80080EE3600E0AF0400A4AF0400C8AF040011
:100ED80038B50446002A43D0072A45D11D68E917CA
:100EE8004A0142EAD5624FEA451CBCEB050C62EBAD
:100EF8000102520242EADC524FEA4C2C1CEB050C70
:100F080041EB02004FEA801E4EEA9C6E4FEA8C12BB
:100F1800B2EB0C026EEB000E521941EB0E01586851
:100F2800131841EBE071012B71F100020DDB12483F
:100F380018180FA3D3E9002341F10001FFF7CEFCF5
:100F48000146204605F0CAFC10E00C48181808A312
:100F5800D3E9002361F10001FFF7C0FC0146F0E787
:100F6800198828F0A7F901E06FF0850038BD00BFA7
:100F78003AA39500000000009DD14A00632EB5FFFA
:100F880008B500F011F8074B186800F089F81AF056
:100F9800DDFB044B186825F059F94FF4FA6025F089
:100FA800B4F8F4E720CA002038B5344838F03BFBE1
:100FB80000285BD04FF4D011314825F0EDF801221C
:100FC80008212E4825F003F92E4838F02CFB00287C
:100FD80050D02D4825F09FFE25F018F943F23F35F3
:100FE800002229462CF011FC25F010F90022FF21DF
:100FF8002CF012FC254C204634F059FC244920469C
:1010080034F0ACFD4FF000016FF304016FF34A11A7
:101018006FF3CF21204634F09BFD2946204634F05B
:101028000DFDFF21204634F00FFD0A21204625F052
:10103800DBF80A21204634F0A3FD25F0E7F81DF07F
:10104800F1FF0546002221462CF0F1F91149284606
:101058001EF0BEFC00231A46092128462AF0CCFEC1
:101068001AF074FB074825F066F838BD0A4825F0E1
:1010780052FEFAE7094825F04EFEF6E754A50400AB
:101088009CAA0400B8A5040078AA0400C815012089
:10109800B42B05008CAA040038AA04005CAA04003A
:1010A80010B520B1044638F0BEFA20B110BD04488E
:1010B80024F080FCFAE72168024824F063FCF5E795
:1010C800E4AA0400FCAA04002DE9F04184B0044617
:1010D80088468268B2F5004F12D308270837A2EB7A
:1010E800D7070137B7FA87F7C7F120073B462146EC
:1010F800554825F010FE554825F00DFE00262FE036
:101108000427EBE755880AE0D268914212D00133F0
:1011180004EBC202A068B0F5004FF3D355684FEA5C
:10112800550EBCEB550F00D8F446B0F5004FEBD286
:10113800D288EAE79BB10122B240B0F5004F1AD33A
:10114800082101F1080002EBD002C1EBCC010191AA
:10115800CDF800C0013A31463D4825F0DCFD0136A6
:10116800BE420ADA331D54F823100029F7D00A4684
:1011780000239C46CBE70421E3E7B8F1000F26D112
:1011880003AA02A9204625F0DBFCA368DC00B3F51E
:10119800004F56D308231C440399631A029A9B1ADA
:1011A80060084FF47A7505FB0300B0FBF4F0294C96
:1011B800A4FB0054E40804EB8405A0EB450001906F
:1011C8000094254825F0A7FD04B0BDE8F081234828
:1011D80025F0A1FD002518E073881EE02A225B088F
:1011E800B1F5004F29D32158691AE81801900091E8
:1011F80029461B4825F08FFDA368AB42C0D0B3F544
:10120800004F1CD3736805EB5305E80004EBC506D3
:10121800A168B1F5004FDFD3736813F0010FDDD17A
:10122800B1F5004F05D372685208012A03D02D2268
:10123800D5E72D22D3E72E22D1E7215AD4E77388A8
:10124800E1E70423A7E700BF14AB040044AB0400A4
:1012580000AC0400CDCCCCCC5CAC04001CAC0400CD
:101268002CAC04002DE9F04F91B00592029313467F
:1012780002F004020092C3F3C20210F003030193C8
:1012880040F02D8280468A460132041D00284FD046
:10129800B8F1000F05D0A4EB08030433534500F25E
:1012A8002182029B5D1E019B0493069303930026F3
:1012B8004FF0FF3B0427B946B8F1000F01D0029B5D
:1012C8002360531E0793002A40F35F81059B13F0A8
:1012D800020228D00120A4EB08018B081AB1B1F54D
:1012E800007F80F0058203990F2900F20482B8F18B
:1012F800000F00F06281DBB201F140026A4402F89B
:10130800103C02F820BC002800F0538163F07F03F2
:1013180001F140026A4402F8103C049B0133049333
:10132800039B0133039304340022CC4640463DE03E
:1013380001F0070A5444CAF1080AA9E7002634E074
:10134800002632E0002630E00827BC462DE025299B
:101358002BD10BF1010B01260427BC4625E04729B8
:10136800EED82A2914D32A39C9B24FF0010E0EFA41
:1013780001F14FF6DA7E11EA0E0F16D111F0625F15
:1013880040F0C18011F0010F40F08C8000260CE085
:10139800252903D10BF1FF3B002606E001D90026E1
:1013A80003E0202901D02329CCD11D466B1C697884
:1013B800002900F01B81002EC9D07A29BED84C29FB
:1013C800CDD34C392E2961D80FF2040E5EF821F0E6
:1013D800B313010095140100951401009514010040
:1013E800951401009514010095140100951401004D
:1013F800951401009514010095140100951401003D
:10140800A51401009514010095140100951401001C
:10141800951401009514010095140100951401001C
:10142800951401000F15010095140100A514010081
:10143800A51401000F1501000F1501000F1501007B
:10144800B3130100A5140100511301009514010004
:10145800B3130100951401006B150100A5140100D8
:101468006B15010095140100951401007315010016
:101478009F140100A51401009514010095140100A2
:10148800A5140100951401009914010000268CE7A9
:101498000427BC4689E70427BC4686E729786C29D7
:1014A80025D000263C44013CB4FBF7F407FB04F4C8
:1014B800254620B1211A6144514500F21681002ABF
:1014C80058D1BCF1040F00F08980BCF1080F40F03E
:1014D80015811A99073121F0070101F108051A95BC
:1014E800D1E9008908B1C4E9008908345DE713F837
:1014F800021C6C2903D000260427BC46D2E700262C
:101508000827BC46CEE729784C291AD01A99073102
:1015180021F0070101F108061A96D1E9006707349E
:1015280024F0070440B1211A0831514513D829780D
:101538004C2913D0C4E90067083400260827BC46A4
:1015480033E71A99073121F0070101F108061A96C5
:10155800D1E90067E3E76FF01B00BDE0C4E900676D
:10156800EAE700260427BC469CE732460026042703
:10157800BC4697E72C46E14680461A9A111D1A91F7
:1015880012680292079A1D4696E6624B029A9A42A0
:1015980004D3614B9A420AD3002300E00023002BB6
:1015A8007FF494AE059B03F00202002093E601232A
:1015B800F5E7069B01330693B2E610B10AF1010A7A
:1015C800AEE6009B13B10AF1020AA9E60298FFF7FA
:1015D80001FA00EB0A0303F1020AA1E61A990D1DAC
:1015E8001A95096800B121600434DEE68046231AA2
:1015F800B3F5806F80F0858090B1002202609B086F
:101608000370009B83B1069BC370049B88F802306B
:101618001BBB019DDDF80C90DDF810B0029F3DE08A
:101628005344A3F1080057E0069B4370EDE70133EC
:101638009842EED903F140026A4412F8101C12F9DC
:10164800102C002AF3DA01F07F01A4EB0802013222
:10165800524559D804F8011BE9E7019B0398E7E7CD
:10166800009B43B305F140036B4413F8203C04F896
:10167800013B019EA4EB080333440133534546D88C
:1016880005F140036B4413F8103C04F8013B324663
:101698003946204638F0FDFD34440135A94519D9AD
:1016A800BBF1000FDCD005F140036B4413F9103C8B
:1016B800002BD5DAF1E705F140036B4413F8103C31
:1016C80058F82370002248F823203846FFF782F99B
:1016D800461CCFE7A4EB080011B0BDE8F08F6FF00F
:1016E8000D00F9E76FF01B00F6E76FF01B00F3E75A
:1016F8006FF01500F0E76FF01500EDE76FF01500DB
:10170800EAE76FF01500E7E76FF01B00E4E76FF01A
:101718001B00E1E798A404004CD605002DE9F04F22
:1017280097B000AF8346BA613B61D7F88030C3F306
:10173800C0033B62F96011B925F065FAF8609BF8BF
:101748000260B14636B1D7F8803013F0010F0DD1E1
:10175800002300E000239BF803207A6242B1D7F807
:10176800802012F0020F22D1002202E00123F2E7CA
:10177800002202B9EBB19BF80050AA00BA60DBF86E
:1017880004207A610BEB8505BA69F2B1002B40F0B1
:101798000581B9F1000F00F01081D7F8803013F0FF
:1017A800040F40F00E810020F8610646FAE001229D
:1017B800DFE7BB691BB13A69F96858469847FC6886
:1017C80020465C37BD46BDE8F08FFC6853BB4D44EE
:1017D8004FF00008D7F8803003F00503FB604FF0A6
:1017E800000AC7F81080A046C7F81CB0D7F804B0A4
:1017F800BEE00444013501364E45EBD22A78002379
:101808005BF822201946B86925F012FABAF1000FE0
:10181800EFD0D7F888309845EBD22AF8180008F1AD
:101828000108E6E70026B046D7F884A0E4E70025DB
:101838003B6A7BB9002D7DD0D7F8803013F0010FBB
:101848007DD1FB68002B73D10223A8EB03088CE041
:101858000125EDE74946786925F030FA0028E9D0F6
:10186800BB4B1B6813F0060F40D06C46002387F86B
:101878002C30022387F82D308AB0694611F1100206
:1018880037D012251AB1042D01DDB24B4B6100236C
:1018980087F82830022387F829306ABB112D44DDE8
:1018A800122362B1042087F82C00002087F82D004D
:1018B80087F82E00012087F82F00F86A08616FF377
:1018C800000B6FF3410B6FF3820B6FF3C50B022113
:1018D80061F3881BC3F30A0363F3532B6FF31F5B96
:1018E800002359469A4800F0CFFDA546A8F1020802
:1018F8003BE06FF00045C5E72B46082D01DD786910
:1019080088610C2B01DDC1F81C9001F12003002037
:101918000128C3D800F1300C07F1280EF4441CF854
:1019280030CC03F801CB0130F2E76FF01B03B8E7C6
:1019380001238AE7D7F8803013F0020F15D000236F
:1019480022461946B86925F073F9D7F8843053B19F
:101958003B69D7F88820934205D2D7F8842022F82B
:10196800130001333B61013880440AF1010A35460E
:101978007B6A9A4510D22E4616F8029B6B78FA6954
:1019880052F82340744B9C42FFF451AF734B9C4276
:10199800FFF45EAF00254BE7444611E707F144002A
:1019A8000023FB6118B14A46294638F072FC4D44C1
:1019B8004FF00008C7F804901EE00020F8610646C2
:1019C800F0E7FE6107F134000026EBE700253B6AEB
:1019D80033BB002D3BD0D7F8803013F0010F26D051
:1019E800731C06F1300207F12801561806F8149CFA
:1019F800DEB208F1010825467B6A98454AD22C4692
:101A080014F802AB95F801905BF82930524A9342DA
:101A1800DCD3524A934201D30025D8E70125D6E703
:101A28005146786925F04AF90028D2D0E1E7D7F87D
:101A3800803013F0040FDCD0FA69531C303207F100
:101A480028010A4402F8249CDBB2FB61D1E7D7F8ED
:101A5800803013F0020F09D0731C06F1300207F131
:101A68002801561806F8149CDEB2C2E7F869431C30
:101A780000F1300107F128028A1802F824AC024666
:101A88000232D2B2FA6107F1580252FA83F303F82C
:101A9800249CAEE7D7F804909BF8003087F85430C0
:101AA8009BF80130334487F85530D7F8803013F06D
:101AB800020F0ED1FB69C3F3470387F85730D7F8F5
:101AC800803013F0010F06D113F0040F48D1002322
:101AD80002E00023F1E7002387F85630DBF8000026
:101AE8003863786DCBF80000D7F810804246B968A3
:101AF8005846D7F818A0D047041EFFF661AE386BD9
:101B0800CBF80000C7F810804246F96907F13400A5
:101B1800D047002857DB04EB0008B96849447B6AC2
:101B280001EB4301D7F810904A46FB68591A28463A
:101B3800D047041EFFF644AE08EB04054FF000083A
:101B48007E62C7F820B05646D7F884B01FE000BFC1
:101B5800F0CC0020A4AC040098A404004CD60500E6
:101B6800FB69B9E74FF0000A4A46012107F12C004A
:101B7800B047002829DB05445346224649463046EB
:101B880025F056F8002822DB054408F101087B6A95
:101B9800984511D208F1300307F12802134413F8CD
:101BA800143C87F82C303A6A52F82340BBF1000FF6
:101BB800D8D03BF818A0D7E73A6900210846BB6996
:101BC80098472C46FCE50446FAE50446F8E5044641
:101BD800F6E500BF014B1860704700BF24CA00201B
:101BE80080B505460E461746984623F003FA034685
:101BF80038F044FC0446DFF8189049F800304246B3
:101C080039463046A84754F8090002F0EBFE00BFF9
:101C1800080000002DE9F04383B004460846154645
:101C2800238B13F0080F05D103F007060023009358
:101C3800019354E0012909D043F02003238385F35D
:101C48001188BFF36F8F03B0BDE8F08343F0100332
:101C58002383F4E7204625F09FFB42E0D4F8149054
:101C68004A466946204625F0B0FB4FF00008238B12
:101C780003F00707B74269D0A268002A66D001229C
:101C880043F00803238385F31188BFF36F8F002A7D
:101C980064D1009B2BB14B463A466946204625F055
:101CA8000DFCB8F1000F02D034492046C047EFF3CD
:101CB8001185202383F31288BFF36F8F238B23F0C2
:101CC80008032383238B13F0100F4DD023F0100348
:101CD80023830120268B06F007060028AFD00228B0
:101CE800B8D00028ABD0013804282BD801A353F86A
:101CF80020F000BF651C01004D1D0100111D0100F1
:101D0800251D0100391D01002369D3F80080062133
:101D1800204625F017FB4FF00009A8E72369D3F800
:101D280004800421204625F00DFB4FF000099EE7B2
:101D38002369D3F808800521204625F003FB4FF0DE
:101D4800000994E74FF00008C14690E7009A0AB1ED
:101D5800002295E7B8F1000F92D1B3E74A46394619
:101D6800204625F0F7FA94E713F0200F04D023F06B
:101D7800200323830220ADE70020ABE7F3740300C0
:101D880070B506460D46084C04E02A463146204602
:101D980098471034054B9C4204D223689B69002B5A
:101DA800F3D1F6E770BD00BF9CA80400ACA80400FE
:101DB8002DE9F041074605460AE007EA0807144BF3
:101DC80003EB06135B6804221968204600F02CFB1D
:101DD800D5B195FAA5F6B6FA86F60D4C04EB0614BD
:101DE8000123B3406FEA030825EA0305237B002B90
:101DF800EED03301064AD3581B69002BDDD02046AC
:101E080098470028E4D1D8E73846BDE8F08100BFFC
:101E18009CA804002DE9F04180460F461E4BD3E8EC
:101E2800EF5F6A1CC3E8E12F0029F8D1002D2FD1FC
:101E38001A4C002607E0636804221968204600F05F
:101E4800F3FA01361034164B9C4213D2237B002B35
:101E5800F7D02368DB680BB12046984723681B69D5
:101E6800002BE8D0204698470028E4D00123B3404F
:101E78001D43E6E7B8F1000F0BD055B12846FFF730
:101E880097FF0546002FF8D00A2025F007FCF4E755
:101E980000252846BDE8F081E81501209CA804002B
:101EA800ACA8040008B5064B186018B1054B1B68B0
:101EB800092B00DC08BD044822F006FCFAE700BF45
:101EC800DC150120E415012078CD002008B5024872
:101ED80022F0FAFB08BD00BF78CD002038B50546D2
:101EE8000B4C00E010340B4B9C420FD263685B79BB
:101EF800002BF7D02946204625F0E6FB0028F1D034
:101F080023681B68294620469847EBE738BD00BF81
:101F18009CA80400ACA8040030B589B000220F4981
:101F28000F4837F083FF0F4D00220023CDE9062329
:101F3800002404940E2303930294019400940A4B02
:101F48004FF440720949284637F09EFC0849284654
:101F580022F02EFC204609B030BD00BFD51E01007E
:101F680050D2002090CD0020A9220100789B0120AA
:101F78005CAD0400014B53F82000704778AD0400B5
:101F880048B108B5054A1060054B1960084600F0CD
:101F98007BFD002008BD6FF01500704728CA00209F
:101FA800D815012008B5054B1B781BB1034B01223E
:101FB8001A7008BD024822F087FBF7E74C9B012006
:101FC80078CD002008B50C4BD3E8EF1F0131C3E8EA
:101FD800E21F002AF8D130B9084837F033FF084823
:101FE80022F072FB08BD074BD3E8EF1F0139C3E8A5
:101FF800E21F002AF0D0F7E7E015012050D20020B8
:1020080078CD0020E4150120044B00200146D3E8D8
:10201800EF0FC3E8E21F002AF9D17047E01501204D
:1020280038B5FFF7F1FF0546094C00E01034094BBD
:102038009C420BD263685B79002BF7D023685B68FE
:10204800002BF3D0294620469847EFE738BD00BF5C
:102058009CA80400ACA80400034B18680028D4BF4F
:1020680000200120704700BFE015012010B5044C86
:102078000449204624F0B4FF034B1C6010BD00BF88
:10208800A8CC002064AD0400D415012008B50023B5
:10209800074A1370074A1360074A13604FF4004158
:1020A8000648FFF76DFFFFF7E1FF00F063F908BD91
:1020B8004D9B0120E0150120E41501209D760300C9
:1020C80008B50146014825F021FB08BDA8CC002031
:1020D80008B5024825F065F808BD00BFA8CC002067
:1020E80008B50146024B186825F016FB08BD00BF6D
:1020F800D415012008B5024825F012FB08BD00BF21
:10210800A8CC002010B582B000220023CDE900231E
:10211800264B187808B902B010BD684625F018FBA0
:10212800044668B1224BD3E8EF1F0139C3E8E21F28
:10213800002AF8D12046FFF7D1FE2046FFF7D0FF4E
:10214800FFF78AFF58B91B4A1368516813F57A7369
:1021580041F1000113605160FFF7CCFFDBE737F076
:10216800F6FD4A0142EAD06243011B1A62EB010202
:10217800920042EA93729B001B1842EB0102D200C4
:1021880042EA5372C3F3103343EA4243D20B09487D
:10219800016840685B1A62EB000240F2E9318B4249
:1021A80072F10002CFD3FFF73BFFCCE74C9B012035
:1021B800E415012048D200200F4B1B7803B170476B
:1021C80010B500210120FFF725FE0C4C00E010346B
:1021D8000B4B9C4208D263685B79002BF7D02368CD
:1021E8009B6820469847F2E7FFF78CFF0028FBD151
:1021F800014B01221A7010BD4D9B01209CA80400C0
:10220800ACA8040010B582B0184BD3E8EF2F511CCE
:10221800C3E8E01F0028F8D1154B1B7863B9154BAC
:102228001B68B3B1BAB1092A13D1134837F00AFEB3
:10223800124822F049FA0CE0EFF31184202383F3CB
:102248001288BFF36F8FFFF75DFF84F31188BFF328
:102258006F8F02B010BD00220023CDE900234FF498
:1022680000420023044823F079F9F2E7E41501203D
:102278004D9B0120DC15012050D2002078CD002094
:1022880010B50446044B1B689847A06021460348D4
:1022980025F062FA10BD00BF28CA0020A8CC002093
:1022A8002DE9F04100210846FFF7B4FD804650B102
:1022B80040F26766002738F0E1F8154B1858FFF729
:1022C800F1FD002515E04FF0FF364FF0FF37F2E73C
:1022D8004046FFF76DFD804670B94FF0FF364FF06E
:1022E800FF3709E02C4632463B460A4822F014FAEA
:1022F8002546B8F1000FEBD1FFF704FF044600288C
:10230800F6D1002DEED000210846FFF739FDEAE7A7
:102318000800000078CD0020014800EB81007047DC
:10232800ECCC00200248034BC01AC008704700BF1D
:102338009CA80400FCA7040010B50C46FFF7F2FFA8
:10234800A04203D9024B53F8340010BD0020FCE72B
:10235800FCA7040010B50C46FFF7E4FFA04204D91F
:10236800034B03EBC403187910BD0020FCE700BF42
:10237800FCA7040010B5002410E021460020FFF758
:10238800E9FF0A4A52F8243023F0070342F82430C0
:1023980000F00700034342F824300134044B054A97
:1023A8009B1AB4EBD30FE8D310BD00BFECCC0020D0
:1023B8009CA80400FCA704002DE9F8430D46164626
:1023C8009846002812DBC4B20023204625F0FEF907
:1023D800074610B1404500D947463B463246E9B268
:1023E800204625F0D3F93846BDE8F8830C4B0D4A52
:1023F800A3EB02094FEA1919002427460DE0094BFF
:1024080003EB041358684346324629460079FFF720
:10241800D3FF874238BF074601344C45EFD3E2E784
:10242800ACA804009CA8040038B504460D46114623
:10243800084BC31A1B110133426813714368997121
:1024480025F000FA63681D60636801225A71FFF77E
:10245800A9FD38BD9CA8040000B589B00592069373
:102468000023079362B1074A0C9B02930B9B0193CD
:102478000A9B009305ABFFF751F909B05DF804FB1F
:102488000022F1E7897803002DE9F04F8BB004AF03
:1024980005461E468846C1F34A24002C00F08F806A
:1024A80091460022FA603A617A6104230293FB188C
:1024B80001930A23009307F10C0321464846FFF7CE
:1024C8002DF9B0F5006F5ED3464B1B6813F0060F6D
:1024D80000F08480D9F804106D4600233B73022372
:1024E8007B738AB004AC14F1100221D012201AB107
:1024F800042801DD3C4B636100233B7002237B70A1
:10250800CAB10346082800DDA1610C2B02DD40F2A8
:10251800FF73E36104F12003002101290BD801F1C5
:1025280018063E4416F8186C03F8016B0131F4E7FD
:102538006FF00040DBE7112822DD122342B10421AD
:10254800397300217973B9730121F973F86820612F
:1025580000216FF300016FF341016FF382016FF304
:10256800C501022060F38811C3F30A0363F3532102
:102578000023C1F313011B4825F002FAAD462DE0F4
:102588006FF01B03DAE760F35328C0F30A0A0AEB7B
:102598001850173020F007008008FFF791FD834698
:1025A800B0B104230293FB1801930A230093534606
:1025B80000F1100221464846FFF74EFF08E004EB01
:1025C8001154173424F00704A008FFF779FD834657
:1025D800334642462946584625F068F91C37BD4619
:1025E800BDE8F08F14CD002098AD04002DE9F04F20
:1025F80085B080460D4617461E46DDF838B0DDF832
:102608004090B9F1000F46D0119B039300934B46BD
:102618000F9A10210020FEF725FEB0F5006F2DD28D
:1026280082460BEB0003173323F0070300246FF3F4
:1026380000046FF341046FF3820468F3C50467F381
:10264800881460F353246BF31F549808FFF738FD80
:10265800074650B11030B9F1000F06D0119B009316
:102668004B460F9A5146FEF7FDFD33462246294652
:10267800384625F01BF905B0BDE8F08F074B1B68FD
:1026880013F0060FF7D040F2FF73054A0221034802
:1026980025F05EF9EFE70020C2E700BF14CD002067
:1026A800D8AD0400406820B1034BC01A40F38F0036
:1026B80070474FF0FF307047ECCC00200EB400B5E7
:1026C80082B0014603AB53F8042B0193034802F090
:1026D80029FD02B05DF804EB03B07047BF79030031
:1026E80030B585B011F0440F05D01A4B1C6834B9C9
:1026F800002005B030BD1849FFF7E0FFF9E7174B98
:102708001968B2FBF1F1B1FBF4FC154AA2FB0C32DB
:10271800D20A4FF4616E0EFB12CE124BA3FB0E537E
:102728005B0904FB1C114FF47A7C0CFB01F1B1FB33
:10273800F4F504FB15110CFB01F1B1FBF4F1029166
:102748000195C3EB0311AEEB810100910649FFF738
:10275800B5FFCEE7F015012010AE0400EC150120FE
:10276800C5B3A291898888881CAE040061B108B5F8
:102778002AB1064A52F8232012B9054A00E0044A51
:102788000449FFF79BFF08BD704700BFB8AE0400BF
:1027980038AE0400A4E304002DE9F04105461746CD
:1027A800069EDDF81C8081B900242EB132461149FD
:1027B8002846FFF783FF0444B8F1000F14D06FB127
:1027C800099B042B13D00C4909E00C4B099A53F8C8
:1027D80022200B49FFF772FF0446E6E70649424606
:1027E8002846FFF76BFF04442046BDE8F081054901
:1027F800F5E700BF54AE040044AE0400CCAE0400BC
:102808004CAE040040AE04002DE9F04F87B00546F9
:102818000C46049205939DF84C7001F0020B01F0F0
:10282800010AC1F3C00801F4807924F09BFF18B3B2
:10283800024616492846FFF741FF0646BBF1000F3E
:102848001CD13A465146284625F0DCF8B9F1000F6C
:1028580001D0002311930397129B0293119B0193BC
:10286800109B00930023049A41462846FFF794FFE3
:10287800304407B0BDE8F08F0026DFE7059A21460F
:102888002846FFF72DFF0644DBE700BF58AE0400DB
:1028980011F0100F0BD108B511F0200F03D0044927
:1028A800FFF70CFF08BD0349FFF708FFFAE7704779
:1028B800ACC204005CAE04002DE9F04105460F46A9
:1028C800164698460699FFF7E3FF0024444505DAC3
:1028D80024492846FFF7F2FE0134F7E7002409E00F
:1028E80020492846FFF7EAFE0BE01F492846FFF774
:1028F800E5FE01340F2C0CDC002C02DD14F0070F70
:10290800EED0B442F1D23A5D18492846FFF7D6FE18
:10291800EFE717492846FFF7D1FE002409E01149DF
:102928002846FFF7CBFE0BE012492846FFF7C6FE04
:1029380001340F2C13DC002C02DD14F0070FEED04D
:10294800B44207D23A5D0C4B9B5C13F0970FEBD166
:102958002E22E9E703492846FFF7B0FEE8E7BDE87D
:10296800F08100BF50AE040068AE040060AE040001
:102978006CAE0400E4B804002BD505002DE9F04145
:1029880084B004469DF82C500C9F0E9E95B9012BDF
:102998001ED019484FF0000827B13B462246174978
:1029A80024F05CF9C6B905BB204624F0EDFF04B05D
:1029B800BDE8F08103950A980290019300920B46B6
:1029C80000220F992046FFF71FFF80460C48E3E7D7
:1029D8000B484FF00008DFE70F9B00934346324651
:1029E8000D99204625F026F8DDE72A460F9920465E
:1029F80025F014F8D8E700BFEF7903002D51010046
:102A0800BF7903002DE9F04383B00646056842F21A
:102A18000F738B4228BF0B46184A0521684622F0DF
:102A2800E9FF04467368D3F804900B27DFF8508059
:102A380005E04A4639464046A8473F1A8044002FD9
:102A4800F7D17368D3F804806F4605E04246214603
:102A58003846A847241A0744002CF7D173685F68E2
:102A68001B24084E05E03A4621463046A847241A5A
:102A78000644002CF7D103B0BDE8F08360C304001E
:102A88008CAE040070AE0400074B01221A6004E00B
:102A98004008054A13685B001360044B9842F7D856
:102AA800034B1860704700BFEC15012040420F002F
:102AB800F0150120034B01221A70034B034A1A60D8
:102AC800704700BF4E9B01201C16012020160120D4
:102AD80008B5034B01221A70024824F0F9FF08BD1B
:102AE8004F9B01200CAF0400014B19600020704778
:102AF8000816012008B518B9074B00221A7008BD3E
:102B0800064B1B7823B141F2883036F086FDF6E794
:102B1800052024F0F4FFF2E74E9B01204F9B012093
:102B280038B504460A4B01221A700A4B1B782BB998
:102B380038BD651E2046FFF7DDFF2C46002020F03B
:102B4800DFF90028F4D0024B1B78002BF1D1EFE716
:102B58004E9B01204F9B0120F8B506460D460427E1
:102B68000DE02A463146002020F014F9044614E00E
:102B78003846FFF7D5FFDCB9114B1B78C3B1114BB1
:102B88001B78002BEDD120F0CBF92A4631460020E6
:102B980020F000F9044620F0CFF9002CE8D1084BCA
:102BA8001B78002BE7D0013F3846FFF7A3FFE2E789
:102BB80014B9034B1B7803B92C462046F8BD00BF57
:102BC8004E9B01204F9B012008B50248FFF71AFFD2
:102BD80008BD00BF0CAF040010B50C46044B1868C4
:102BE800FFF7C8F903460F2221460248984710BD4F
:102BF800081601200CAF0400014B03600020704749
:102C08001CAF040010B5044626F0AFFE0246034987
:102C1800204625F018F8002010BD00BF48AF04007A
:102C280030B583B0054613460022019201AA0A2155
:102C3800586800F03FFD019C24B924F076FF204637
:102C480003B030BD22460349284625F01AF8019CF6
:102C5800F5E700BF78AF040008B5034A034924F03C
:102C6800F2FF002008BD00BF78B0040080B0040067
:102C78002DE9F04182B0064615460023019301AACA
:102C88000A21A86800F016FD019C9CB98046C3B2D1
:102C9800042B16D8686824F0B1FD071E1BDB3AB276
:102CA8005FFA88F30021084624F0C2FD204602B0EE
:102CB800BDE8F08122460B49304624F0E2FF019C32
:102CC800F4E7C2B20849304624F0DBFF304625F06D
:102CD80019F80124EAE76A680449304624F0D1FF6C
:102CE800DDE700BFACB00400D4B00400ECB00400D1
:102CF80010B5044604F028FE02460749204624F091
:102D0800A2FF0649204624F09EFF2146044822F0EF
:102D18003FFA002010BD00BF50B1040070B104009C
:102D28002D2D010070B58EB004460D46D0F89C607C
:102D380036F099FD034637F0A1FB214A1258944218
:102D480029D0204A4BB3009323461F49284624F034
:102D58007AFFD4E90A23CDE9002394F90E30227BC7
:102D68001A49284624F06FFF202205A9204621F0A1
:102D780031FD0246636E1649284624F064FF0DA90A
:102D8800204636F0B4FD024648B11249284624F0E0
:102D98005AFF0EB070BD104AD4E7104BD3E70D9B15
:102DA800F11A642201FB02F2B2FBF6F202920196DA
:102DB800009132460A49284624F045FFE9E700BF5A
:102DC8000800000050AE040080B104008CB104007B
:102DD800B8B10400D0B10400ECC504007CB1040013
:102DE80000B2040070B590B0054600240894099418
:102DF8000A940B940C940D940E940F944FF0203376
:102E0800089309930A930B930C930D93ADF83830FC
:102E18000146144822F0BCF914B1002010B070BD6E
:102E2800114E06EBC42607AA4FF40061304636F06F
:102E38004DFD079AC2F50061642301FB03F3DB0A29
:102E480005934FF40063049303910292019308AB36
:102E58000093234632460549284624F0F4FE0134FF
:102E6800DAE700BF792E0100789E012058B20400ED
:102E7800F0B589B004460D46D0F89C6007A936F035
:102E880036FDB8B9204636F0EEFC0799771A642269
:102E980007FB02F2B2FBF6F2034688B104920396EE
:102EA80002970191009622460649284624F0CBFE57
:102EB80009B0F0BD02460449284624F0C4FEF7E7ED
:102EC800024BEBE7A4B20400D0B104007CB10400CB
:102ED80010B503460C461146006808B1027822B9BD
:102EE800024A204622F086FD204610BD0CB304009D
:102EF80070B586B0054605A821F056F800EB8000AD
:102F0800059E06EB8006124A0821284624F08DFE0D
:102F1800059C06E00F4B104A0821284624F085FE40
:102F28001434B44211D2142269462046FFF7D0FF68
:102F380003460A4A0821284624F077FE204636F040
:102F480072FB0028E6D0064BE5E7002006B070BD0E
:102F580028B304001CB304003CB3040034B30400D9
:102F680014B3040008B5102A12D0202A13D0082A56
:102F780006D00A4A082124F058FE6FF0150006E032
:102F88000B78DBB2064A082124F04FFE002008BD6A
:102F98000B889BB2F6E70B68F4E700BFB4B30400F4
:102FA800CCB3040008B5029B102A0ED0202A10D0FA
:102FB800082A06D0084A082124F037FE6FF01500C9
:102FC80002E0DBB20B70002008BD9BB20B80002032
:102FD800FAE70B600020F7E7B4B304002DE9F041ED
:102FE80082B004460D46164610220021706822F071
:102FF800A3FD0746022D20D84FF020084346164A65
:103008000821204624F011FE032D1ED9102200218C
:10301800F06822F091FD05460346104A0821204633
:1030280024F003FE009500230193424639462046CA
:10303800FFF7B8FF02B0BDE8F0810A220021B068AE
:1030480022F07AFD5FFA80F8D8E7424639462046F2
:10305800FFF788FFEEE700BFE0B30400F8B3040011
:1030680038B504460D4611B10E4B1B785BB90D4AB5
:10307800137883F0010313705BB92946204624F0C6
:103088005DFE002038BD084924F0FBFD6FF00F00FD
:10309800F8E70649204624F0D6FD024B01221A70B3
:1030A800EBE700BF509B01200CB4040048B40400B7
:1030B800F8B507460E4615460023244A1370244ADD
:1030C8001360244A13600CE000231C4402222249A6
:1030D800204637F01DF998B91C4B01221A700435A7
:1030E800013E012E1DD96C6802221C49204637F08A
:1030F8000FF90028E8D1A378002BE6D00123E4E7F4
:1031080016492046FDF754FC50B123782D2B08D1E1
:10311800637833B122461249384624F094FDDEE73D
:10312800043500221146686822F090FC0D4B1860A7
:1031380000221146686822F089FC0B4B18600B4985
:103148003846FFF78DFF0020F8BD00BF529B0120D5
:103158003C1601204016012078B4040074B4040021
:103168007CB404004816012044160120793101007E
:1031780038B50546554B1B78182B01D0002305E0C0
:103188000B78112B32D0002300E0013302F1FF3C11
:103198009E469C4509D9CC5C182CF6D18E449EF8E5
:1031A80001001128F1D1012300E00023F3B911F83F
:1031B8000C20464B1A700A78A2F13003DBB2092BB7
:1031C80009D9A2F16103DBB2052B04D9A2F14103AD
:1031D800DBB2052B05D83E490B683E48C254013383
:1031E8000B603B4B1B68022B5DD038BD3A4B1A680D
:1031F8003A49284624F027FD00212846FFF730FFEA
:10320800374B1B78002BF0D113E0364D2A68106835
:10321800030A03F47F4343EA1063040204F47F04BF
:10322800234343EA006342F8043B2A6004392A4BEB
:103238001960294B19680429E7DC11F0030F0FD135
:10324800284B18680268130A03F47F4343EA1263A1
:10325800110201F47F010B4343EA02630360C4E7F0
:103268004B4201F0030103F0030358BF59420229FE
:103278000FD00329B9D11B4B19680B68C3F3074258
:1032880003F47F4002431B0403F47F0313430B60E2
:10329800ABE7144B19680B68C3F307221B029BB2F8
:1032A80013430B60A1E7102200210A4822F044FCD6
:1032B8000D4A136803F8010B1360074A13680133BA
:1032C8001360034B00221A608FE700BF519B012057
:1032D8003C160120381601204016012094B4040041
:1032E800529B012044160120481601202DE9F04385
:1032F80085B080460F4615461C46DE08002D5DD079
:103308004FF0000C08E01CF807300CF110010DEB31
:10331800010C0CF8103C9446B54240D30CEB060265
:10332800102A3CD8102C0DD0202C1BD0082CEAD009
:10333800234A0821404624F078FC6FF0150005B0B8
:10334800BDE8F0833CF807300CF11001694401F83E
:10335800103CC3F307230CF111010DEB010C0CF821
:10336800103CD8E75CF807300CF11001694401F80B
:10337800103CC3F307200CF11101694401F8100C4B
:10338800C3F307400CF11201694401F8100C1B0E3D
:103398000CF113010DEB010C0CF8103CBBE7A9462E
:1033A800102D28BF4FF010094B466A463946404653
:1033B80000F0D2F81037A5EB09059FE70020BEE71B
:1033C800B4B304002DE9F84306460D461446404BB5
:1033D80001221A6001F0D2FE4FF0FF374FF02009AA
:1033E800B8463C4A2146284601F0ECFEB0F1FF3FC2
:1033F80051D073281FD0772835D0612803D06FF0BB
:103408001500BDE8F88310220021334B186822F01C
:1034180093FB07460028E4D137F030F82F4B1B58B0
:10342800162BDED12C4B1A682D49304624F029FC86
:103438006FF01500E5E700221146274B186822F0C7
:103448007BFB80460028CCD137F018F8234B1B585B
:10345800162BC6D1204B1A682249304624F011FC9D
:103468006FF01500CDE7002211461B4B186822F0BB
:1034780063FB81460028B4D137F000F8174B1B587E
:10348800162BAED1144B1A681749304624F0F9FBB5
:103498006FF01500B5E7B7F1FF3F0AD0B8F1FF3F6D
:1034A8000ED05FFA89F3424639463046FFF71EFFD1
:1034B800A7E70E49304624F0E4FB6FF01500A0E7BB
:1034C8000B49304624F0DDFB6FF0150099E700BF8B
:1034D80054CA0020ECB40400D41601200C000000EB
:1034E800B0B40400C4B40400D8B40400F4B40400B4
:1034F80014B5040010B504468168183100F0BEFA0E
:10350800A168034A1831204624F067FD10BD00BFAA
:10351800D8B6040010B504460A4924F094FB0A49B9
:10352800204624F090FB0949204624F08CFB0849EA
:10353800204624F088FB074A0021204624F04DFD50
:10354800002010BDE8B6040028B7040088B70400BE
:10355800DCB7040078B80400F8B5054617461E46DF
:103568000A46244924F06FFB002409E02249284632
:1035780024F069FB0BE02149284624F064FB013460
:103588000F2C0CDC002C02DD14F0070FEED0B44237
:10359800F1D23A5D1A49284624F055FBEFE719495C
:1035A800284624F050FB002409E01349284624F05B
:1035B8004AFB0BE01449284624F045FB01340F2C44
:1035C80013DC002C02DD14F0070FEED0B44207D252
:1035D8003A5D0E4B9B5C13F0970FEBD12E22E9E777
:1035E8000549284624F02FFBE8E70949284624F036
:1035F8002AFBF8BD90B8040050AE040068AE040081
:1036080060AE04006CAE0400E4B804002BD50500DD
:1036180098B8040010B5044613460A460146054802
:1036280001F080FD23691B7903B910BD204624F001
:103638008DFBFAE76D7D03008C46034688B110B513
:103648001446806820B3154B984214D3144B984203
:1036580011D203681146604698472068C0B12046D9
:1036680016E01049104A521ABCEB920F01D251F8D9
:103678002C30184670470D4B984202D30C4B984299
:1036880007D300680CEB8C0C00EB8C0003681BB1B3
:1036980010BD0CF1010CF5E71846F9E7B4A90400D0
:1036A800B4A90400ACA80400D8A80400D8A8040051
:1036B800B4A90400F0B583B015460023019303783C
:1036C8002D2B19D0044636F0D9FE0646104F00239C
:1036D800C3510A4601A9204622F02EFAF359222B9B
:1036E80010D023B9019BA34201D01B7843B16FF0DE
:1036F80015032B60002003E06FF015031360002012
:1037080003B0F0BD6FF021032B600020F8E700BF85
:103718000C00000008B58368D3F8743213F0200F4A
:1037280000D108BD0249406924F058FBF9E700BF01
:10373800C4A90400082915D814D008B5836893F8DB
:103748003F208A4207D083F83F108368D3F8743249
:1037580013F0200F00D108BD0A460349406924F040
:103768003DFBF8E7704700BFD4B8040008B50A1E4F
:1037780009DD4123002A0ADB8168D1F8741211F0AF
:10378800200F06D108BD002AFCD04223F2E752429E
:10379800F2E70249406924F021FBF3E7E0B80400AE
:1037A80008B50A1E09DD4323002A0ADB8168D1F81F
:1037B800741211F0200F06D108BD002AFCD0442352
:1037C800F2E75242F2E70249406924F007FBF3E7C7
:1037D800E0B80400F8B505468468B4F85020B4F899
:1037E800521004F1300024F0DDFAA78EE68E284648
:1037F80024F002FB70B9B74211D0E18EA38EC91A2A
:103808002846FFF7B3FF218E638EC91A2846FFF7B3
:10381800C7FFF8BD0549686924F0E0FAEBE7218E97
:10382800638EC91A2846FFF7BBFFF2E7ACC2040053
:103838002DE9F8430546846814F1560006D0FDF7D3
:10384800C9F886B294F83C7000231BE00026F9E71B
:103858001C44224492F856904FF0000882F8568093
:10386800AA6850331A4406320F49686924F0B6FA38
:10387800AB68234483F85690AB685B8FDB1BF61A62
:1038880023464746AA68548FE41BB442E0DB002E67
:1038980001DCBDE8F88350331A44063203496869ED
:1038A80024F09CFAF5E700BFDCAF0400A4E30400B1
:1038B800082921D808B5836893F83E208A4209D0A0
:1038C80083F83E1008290CD08368D3F8743213F0BB
:1038D800200F00D108BD0A460849406924F07EFA45
:1038E800F8E78368D3F8743213F0200FF2D0044954
:1038F800406924F073FAEDE7704700BFE8B80400A8
:10390800D0A9040008B58368024A022124F037FBD5
:1039180008BD00BFA4E30400002979D02DE9F843CD
:10392800804616460D460BB9002404E01146FFF701
:1039380037FFF9E701342B5D364AD35C13F0080FE3
:10394800F8D156E0D8F8140024F000FA3A462919BC
:10395800404624F0C3FA09F101042F49D8F81400AD
:1039680024F02DFB31464046FFF71AFF2919D8F8F5
:10397800140024F024FB2849D8F8140024F01FFB75
:10398800BDE8F88300278742F0D204EB070915F851
:1039980009300A2BD6D00137F5E79A1996450DD983
:1039A8000133E218A95C1B4A12F801C01CF0080F89
:1039B800F3D00A2901D01F46EFE71F46D8F81400B4
:1039C80024F0C4F93A462919404624F087FA3C44C1
:1039D80000E001342B5D0F4AD35C13F0080FF8D1D7
:1039E8000D49D8F8140024F0EAFA31464046FFF7AA
:1039F800D7FE2846FCF7EEFF80B2001BD8F8083047
:103A0800B3F83AE0AEEB06078742BBD20023C8E71B
:103A1800704700BF2BD50500ACC2040021B370B5B8
:103A280082B004461D46931D9EB20B46097809B91B
:103A380002B070BD019300920C4B0D4A082124F08E
:103A48009EFA65B1094B0B4A0821204624F097FAE3
:103A58000023324629462046FFF75EFFE8E706497D
:103A6800606924F0ACFAE3E7704700BF08B90400C6
:103A7800F4B8040044AE0400ACC20400F0B583B04E
:103A880005460E460F68AFB13846FCF7A3FF84B26F
:103A98000334A4B2084B00933B46084A0821284641
:103AA80024F06DFA0023224671682846FFF734FF98
:103AB80003B0F0BD0024EBE704B90400FCB804002F
:103AC80010B504468368D3F8743213F0200F07D179
:103AD800A368D3F8743213F0200F06D1002010BD6C
:103AE8000449406924F0B8FAF2E70349606924F010
:103AF800B3FAF3E7D8A90400E0A9040008B583687D
:103B0800D3F8743213F0200F00D108BD0249406980
:103B180024F0A2FAF9E700BFE8A9040008B5836811
:103B2800D3F8743213F0200F00D108BD0249406960
:103B380024F092FAF9E700BFECA9040010B5044696
:103B48008368D3F8743213F0200F07D1A36850228A
:103B58005A87A36818221A87002010BD02494069B5
:103B680024F07AFAF2E700BFF0A9040008B58369E7
:103B78001A68024924F067F8002008BD0CB904004F
:103B880070B582B006460B4924F05DF80A4C002255
:103B98000AE0551CADB2636A0093A3680749304632
:103BA80024F051F830342A46054B9C42F1D30020CA
:103BB80002B070BD1CB90400ACA8040034B90400FC
:103BC800ACA8040000B583B002290DD08368D3F8EF
:103BD800743213F0020F11D0094A0A4924F033F85D
:103BE800002003B05DF804FB53680093064B12688D
:103BF800064924F046F86FF01500F2E7044AECE7AE
:103C0800A4C5040070B904004CB9040064B90400E8
:103C180048B9040008B5024924F042F8002008BD5C
:103C2800FCB1040070B582B00446002509E06E1CA2
:103C3800A36803F5AB732A460B49204624F003F822
:103C48003546A2680DF1060302F5AB720121E06862
:103C580024F0CDFABDF80630002BE8D1A368002087
:103C680083F8560102B070BD84B904002DE9F04311
:103C780083B004460E46154600278DF803700F8062
:103C8800178080684FF48072394600F5AB7036F0C3
:103C98000DFB4849606924F0DFF9606924F056F8A3
:103CA800B846B8F57A7F15D36FF073007BE04FF410
:103CB8007A7035F0B2FC08F101081FFA88F8F0E7CD
:103CC800522B1DD0A2683A4482F856310137BFB250
:103CD800092F62D860680368D3F8109001AB0122FD
:103CE8000DF10301C847019B002BE0D09DF803307C
:103CF8001B2BE5D0A26892F856211B2AE0D0E9E7F1
:103D0800A3683B44002283F85621A36893F85721FF
:103D18005B2A15D10222A368134493F856113B2954
:103D280014D02B8803EB83035B009BB2013292B261
:103D38000B44303B2B80FF2AEDD96FF0790032E03D
:103D4800002283F856216FF004002CE0013292B271
:103D5800FF2A2BD8A368134493F8561171B13388FE
:103D680003EB83035B009BB2013292B20B44303BFE
:103D78003380FF2AEED96FF0790014E03388FA2BEC
:103D880001D9FA2333802B88FA2B01D9FA232B8007
:103D9800A368002083F8560105E0A368002283F891
:103DA80056216FF00B0003B0BDE8F0836FF00400FC
:103DB800F9E700BFD0B9040010B582B00446012964
:103DC80004D124F0EDF958B902B010BD536800933E
:103DD8000A4B12680A4923F054FF6FF01500F3E705
:103DE800A36850225A87A36818221A8705492046D3
:103DF80023F038FF6FF00700E6E700BF4CB9040076
:103E080064B9040090B9040010B5044623F08EFF8D
:103E180002460349204623F016FF002010BD00BFCC
:103E2800CCB9040070B545680669286835F0FBFB15
:103E380000B3686850B135F0F6FB002840D04FF465
:103E48000031281D24F02EFA041E21DBE86858B141
:103E580035F0E9FB002836D04FF4B01105F10C001D
:103E680024F020FA041E1FDB304635F0B6FC00248F
:103E7800204670BD154B1B6813F0070F02D16FF079
:103E88001204F5E7124A0121104823F057FDF6E71E
:103E98000E4B1B6813F0070FEAD023460D4A012189
:103EA8000A4823F055FDE3E7084B1B6813F0070F9A
:103EB800DED02346084A0121044823F049FDD7E70C
:103EC8006FF01204D4E76FF01204D1E720CD002080
:103ED8009CC10400B4C10400E0C1040008B5034853
:103EE80022F019FF024822F016FF08BD48C204005C
:103EF80080C204002DE9F04182B000AF04465C4B5B
:103F08001B6813F0070F43D0D0F800E0D0F804C0C6
:103F180086686D468AB06B4613F1100200F08E80F9
:103F280014218AB10846042903DDDFF84881C3F863
:103F38001480082801DDC3F818E00C2801DDC3F857
:103F48001CC0102800DD1E6213297ADD4FF0140C06
:103F58003AB10521397100217971B971F97178681F
:103F6800186100216FF300016FF341016FF38201C3
:103F78006FF3C501012363F38811CCF30A0C6CF3CA
:103F880053216FF31F5100233948FEF77DFAAD46E0
:103F9800374B1B6813F0070F42D0D4F80CE0D4F865
:103FA80010C066696D468AB06B4613F110024BD09B
:103FB80014218AB10846042903DDDFF8BC80C3F860
:103FC8001480082801DDC3F818E00C2801DDC3F8C7
:103FD8001CC0102800DD1E62132938DD4FF0140CB8
:103FE8003AB10521397100217971B971F97178688F
:103FF800186100216FF300016FF341016FF3820133
:104008006FF3C501012363F38811CCF30A0C6CF339
:1040180053216FF31F5100231548FEF735FAAD46BB
:10402800134B1B6813F0070F14D1114B1B6813F0C7
:10403800070F16D10837BD46BDE8F0816FF0004183
:104048006FE76FF01B0C83E76FF00041B1E76FF08B
:104058001B0CC5E7E369094A0121054823F078FCF0
:10406800E3E7A369064A0121014823F071FCE1E76F
:1040780030CD0020B0C20400E0C2040010C3040028
:1040880020C3040038B504460D4611B10846FFF7B1
:1040980031FF012C04D0294620461FF0DBFF38BD34
:1040A800EFF30583103B054A126812F0070FF2D0B0
:1040B800034A0121014823F04BFCECE730CD0020F6
:1040C80050C3040030BFFFF7FDBF00BF38B504463A
:1040D800054D2A46054936F0DCF8054A00216019E5
:1040E80036F0E4F838BD00BF00000000B4A90400B1
:1040F8000800000070B50646064D074B1D444C1BD2
:104108002046FFF7E3FF083CC6F8A84005F1080081
:1041180070BD00BF0000000008000000074B9B684E
:1041280093F90E20002A08DB044A5269934204D00E
:10413800034A536843F0805353607047E09A012064
:1041480000ED00E081690D4B5A6942F480725A61B2
:10415800BFF34F8FBFF36F8F31F8021C5A6922F4F7
:1041680080725A61BFF34F8FBFF36F8F4DF60273A2
:10417800994201D0002070470120704700ED00E00F
:10418800F8B51D4600232B7002F07F43B3F17F4F33
:1041980028D106460F46144612F0010F24D112F01A
:1041A800400F13D0114B1B6813F0070F05D114F003
:1041B800040F08D0384601230AE00D4A01210B48B4
:1041C80023F0BCFBF3E73046012301E0002003465F
:1041D8004BB914F0080F01D0384604E030460123EB
:1041E8002B7000E00020F8BD0020FCE730CD002057
:1041F80064C3040008B5494B1B6813F0070F0BD1C3
:10420800474B9B6A13F0007F13D0444B1B6813F095
:10421800070F07D11E200DE0424A01213F4823F035
:104228008DFBEDE7404A01213C4823F087FB1E2027
:1042380000E01D203A4B9B6A13F0807F05D0374B76
:104248001B6813F0070F3FD11F20354B9B6A13F4EF
:10425800801F05D0314B1B6813F0070F3BD102209C
:104268002F4B9B6A13F4002F05D02C4B1B6813F0BF
:10427800070F37D121202A4B9B6A13F4802F05D0D2
:10428800264B1B6813F0070F33D12220244B9B6A5F
:1042980013F4003F05D0214B1B6813F0070F2FD1F3
:1042A80023201F4B9B6A13F4803F05D01B4B1B68D0
:1042B80013F0070F2BD12420194A936A6FEA03439E
:1042C8006FEA1343936208BD184A0121134823F08B
:1042D80035FB1F20B9E7164A0121104823F02EFBB1
:1042E8000220BDE7134A01210C4823F027FB2120B7
:1042F800C1E7114A0121094823F020FB2220C5E724
:104308000E4A0121054823F019FB2320C9E70C4A6E
:104318000121024823F012FB2420CDE730CD0020F4
:1043280000ED00E088C30400A0C30400B4C3040087
:10433800D0C30400FCC304001CC4040044C404002B
:1043480060C4040008B500230B70064B1B6813F00B
:10435800070F00D108BD044A0121024823F0EEFAF4
:10436800F8E700BF30CD00208CC40400354B1B6833
:1043780013F0070F64D0B0B582B000AF0F2924DC6A
:10438800314D10396C4600233B7102237B718AB092
:10439800EC461CF110021AD0122022B1042802DDCA
:1043A8002A4BCCF8143000233B7002237B70E2B117
:1043B8000346082801DDCCF818500C2B01DDCCF899
:1043C8001C100CF1200300210DE0214DD9E76FF0FE
:1043D8000040E2E701F1080505EB070E1EF808ECBE
:1043E80003F801EB01310129F4D9112825DD122345
:1043F8004AB10421397100217971B9710121F9712A
:104408007868CCF8100000216FF300016FF34101C8
:104418006FF382016FF3C501012060F38811C3F3C4
:104428000A0363F353216FF31F5100230548FEF776
:104438002BF8A5460837BD46B0BD6FF01B03D7E77C
:10444800704700BF30CD0020B0C40400E4C40400AD
:10445800C8C40400F8B506460F4615464F4B1B68FE
:1044680013F0070F0BD14E4B9B6A13F0100F13D0AC
:104478004A4B1B6813F0070F07D111240DE0494A76
:104488000121464823F05AFAEDE7474A01214348FB
:1044980023F054FA112400E01024414B9B6A13F0D6
:1044A800080F05D03D4B1B6813F0070F1ED11224CF
:1044B8003B4B9B6A13F0020F2CD0384B1B6813F050
:1044C800070F1AD1364A536B926A12F0800F20D028
:1044D800324A126812F0070F15D1002F4DD0304A1A
:1044E800936A23F080039362132413E02F4A012177
:1044F8002A4823F023FA1224DAE72D4A0121274813
:1045080023F01CFADEE72B4A0121244823F020FA85
:10451800E3E71324224B9B6A13F0010F05D01F4BCE
:104528001B6813F0070F2AD114241D4B9B6A13F044
:10453800200F05D0194B1B6813F0070F26D115243F
:10454800174B9B6A13F0100F01D1154B9B6A144B44
:104558009B6A13F0200F04D0114A536A23F40053C6
:1045680053620F4A936A43F0FF0393620121304676
:1045780023F0C1FF28702046F8BD1324CAE70E4A6D
:104588000121064823F0DAF91424CEE70B4A012169
:10459800024823F0D3F91524D2E700BF30CD00201C
:1045A80000ED00E0F8C4040010C5040044C5040090
:1045B80058C5040070C5040088C50400A8C50400D7
:1045C800F8B506460F461546504B1B6813F0070F03
:1045D8000BD14F4B9B6A13F4805F13D04B4B1B6876
:1045E80013F0070F07D117240DE04A4A0121474865
:1045F80023F0A4F9EDE7484A0121444823F09EF945
:10460800172400E01624424B9B6A13F4006F05D070
:104618003E4B1B6813F0070F1ED118243C4B9B6AB6
:1046280013F4007F2CD0394B1B6813F0070F1AD1F5
:10463800374A936B926A12F4004F20D0334A1268BB
:1046480012F0070F15D1002F3CD0314A936A23F49A
:1046580000439362192413E0304A01212B4823F0C8
:104668006DF91824DAE72E4A0121284823F066F963
:10467800DEE72C4A0121254823F06AF9E3E71924EB
:10468800234B9B6A13F4806F05D0204B1B6813F0F3
:10469800070F19D11A241E4B9B6A13F4807F21D06F
:1046A8001A4B1B6813F0070F15D11B24184A936A7D
:1046B80043F47F4393620121304623F01CFF2870A6
:1046C8002046F8BD1924DBE7174A01210F4823F0DB
:1046D80035F91A24DFE7154A01210C4823F02EF991
:1046E8001B24E3E70A4B9B6A13F4005FDED0074BF9
:1046F8001B6813F0070F01D11C24D7E70C4A0121CE
:10470800024823F01BF91C24D0E700BF30CD00205D
:1047180000ED00E0D8C50400F0C5040044C504005D
:1047280004C6040020C6040038C6040054C60400A9
:10473800A8C5040070B506460D46384B1B6813F033
:10474800070F0CD100232B70354BDC6A14F00204E0
:1047580012D0324B186810F0070006D170BD314AEC
:1047680001212E4823F0EAF8ECE72F4A01211846E8
:1047780023F0E4F80020F1E7294BDB6A002B14DB77
:10478800274BD86A10F08040E8D0244B1B6813F000
:10479800070F16D13046FFF7D5FCF8B11F4B1B6841
:1047A80013F0070F13D13068D8E71C4B186810F0C6
:1047B8000700D3D01D4A0121184623F0BFF8204630
:1047C800CCE71B4A0121154823F0B8F8E2E7336823
:1047D800184A0121114823F0BBF8E4E7104B9B6A03
:1047E80013F0FF0F0DD10E4B986A10F47F400ED1D5
:1047F8000B4B9B6AB3F5803FB0D33046FFF7FAFC0A
:10480800ACE72A4601213046FFF724FEA6E72A46F0
:1048180001213046FFF7D4FEA0E700BF30CD0020CD
:1048280000ED00E06CC6040084C60400A8C60400BD
:10483800B8C60400D8C6040030B58BB0204B5D68FC
:10484800C5F30805002383F31188BFF36F8F0DF1BB
:104858002603FFF795FC04461A4B18600DF1270252
:10486800294623F04AFE9DF827300BB10BB030BD26
:1048780005460DF1040C20686168A268E368ACE89D
:104888000F0020696169A269E369ACE80F009DF82F
:1048980026304BB1089BC3F308025AB96FEA532379
:1048A8006FEA4323089305E0089B23F4FF7323F082
:1048B8000103089301A92846FFF7E4FBD6E700BFE8
:1048C80000ED00E0AC160120064B5A6942F01002D8
:1048D8005A615A6942F480625A615A6922F00802A0
:1048E8005A61704700ED00E0EFF30880EFF30981AB
:1048F80001B57246FFF7A0FF01BD00BF002080F39D
:104908001488BFF36F8F002080F30A8880F30B8828
:1049180025F099F9002011490860BFF34F8F10481E
:1049280080F3088800F034F8202080F311880D48BF
:104938004FF0AA014FF4006234F0A5FE09484FF485
:104948000061401880F30988EFF3148002210843BE
:1049580080F31488BFF36F8F00F018F994ED00E02E
:1049680028C70120789E0120084BD3F89000C0F397
:104978000720002306E0054AC2F898300021C2F853
:10498800A01001338342F6DB704700BF00ED00E062
:1049980010B572B6002484F31388FFF7E5FF2346A9
:1049A80008E003F120010E4A4FF0FF3042F82100E1
:1049B8000133DBB20F2BF4D9002308E003F16001C7
:1049C800074A4FF0FF3042F821000133DBB20F2BCA
:1049D800F4D962B6BFF34F8FBFF36F8F10BD00BF1E
:1049E80000E100E008B50A4B9B68834202D035F02D
:1049F800FDF808BDEFF30583002BF8D0054B5A6886
:104A080042F080525A605A6A22F400425A62EEE733
:104A1800E09A012000ED00E00A4A9368C3F8AC0070
:104A28006FF00A01C3F8B01007494B6843F0805390
:104A38004B60002383F31188BFF36F8F9368D3F81B
:104A4800B0007047E09A012000ED00E0114A936839
:104A580083F8B500EFF31183202383F31288BFF3A3
:104A68006F8F536993600C4A4FF000615160D3F81F
:104A7800A8100A4A116020F0FF0093F8B5201043EF
:104A8800D3F8AC200021C3F8AC1082F31188BFF32F
:104A98006F8F7047E09A012000ED00E06416012056
:104AA80010498A6882F8B5E04FF030001044EFF3FF
:104AB800098C80E8F01F74467046FFF7C7FFA646CA
:104AC80008498A68864602F1300090E8F01F8CF3A6
:104AD800098802F1000004B523F04CFDBDE804404C
:104AE80070470000E09A01201EF0040F0CBFEFF39E
:104AF8000880EFF30980816911F8021C0229FFD0B0
:104B080001B523F0ECFC01BD002807DB00F01F0213
:104B1800400901239340024A42F82030704700BF01
:104B280000E100E000280CDB00F01F02400901232F
:104B380093402030034A42F82030BFF34F8FBFF331
:104B48006F8F704700E100E0002808DB4901C9B217
:104B580000F1604000F5614080F80013704700F0F4
:104B68000F004901C9B2014B1954704714ED00E018
:104B78004209054B53F8222000F01F00012303FAD5
:104B880000F01040704700BF00E100E008B50B4B93
:104B98000B4A22F07F029A60BFF34F8FBFF36F8FEB
:104BA800D3F8882022F47002C3F888201FF014FC80
:104BB80020F014FB00F058F81FF06AFC00ED00E04C
:104BC8000000010010B4A2F12004104942F8081CAA
:104BD80021F0010142F8081C42F8203C019B42F8F0
:104BE8001C3C029B42F8183C039B42F8143C4FF0D3
:104BF800807342F8043C04650023C0F8AC30C0F868
:104C0800B430BC2380F8B53010BC7047E91B0100F4
:104C180000B50E4615460D4B9860D0F8A8200C4BF1
:104C28001A60D0F8983083F30B882C4686F30988ED
:104C38004FF00000074B984720464FF000014FF017
:104C480000024FF00003044C204700BFE09A012007
:104C58006416012087850300E91B0100014B10221F
:104C68001A61704700ED00E0002206E003F00F0330
:104C78000949194420230B760132402A0ADC53B231
:104C8800002BF3DB03F1604303F56143202183F834
:104C98000013F1E7704700BFFCEC00E008B5EFF344
:104CA8000583103B044A02EBC301496852F83300FC
:104CB8008847FFF733FA08BDF4A5040070B582B041
:104CC8000346164A92E8030000908DF8041013B3C7
:104CD8001D46134C442632460021204635F0E6FA9C
:104CE8002B6823606B686360AB68A360EB68E36064
:104CF8002B6923616B696361AB69A361EB69E3614C
:104D0800084B1B6823620521684600F055FB3146B5
:104D1800204600F051FB02B070BD00BFF8A90400A6
:104D280068160120AC16012010B584B00A4C234641
:104D38000A4A01210A4823F01DFD0023019302932A
:104D48000393084B0193E41A0294012101A823F06C
:104D580015FD04B010BD00BF0000042080C5002070
:104D6800F4C6040090CD0020024B034AC3F8C020CB
:104D7800704700BF00ED00E0AAFF4400034BC3F8F2
:104D88009800C3F89C10C3F8A020704700ED00E01D
:104D98000E4BC3F89800C3F89800D3F89C000A7A21
:104DA80060F304020A72D3F8A020C2F34202087A20
:104DB80062F347100872D3F89C2022F01F020A60A1
:104DC800D3F8A03023F01F03CB60704700ED00E05C
:104DD80070B505460E46002400E00134A6421EDDEB
:104DE80004EB44039A0005EB830359680029F4D0C7
:104DF800A85823F019FC04EB84030B4A42F823005B
:104E080010F1160F0CD0094B1B78984209DA04EB05
:104E1800840302EB83010431FFF7BAFFDDE70020CA
:104E280070BD6FF01500FBE7B0160120539B012001
:104E380010B504460D4BD3F89030C3F30723013B5C
:104E4800984203D823F0CAFB204610BD084B1B68C4
:104E580013F0070F02D16FF01500F6E70346054A75
:104E68000121034822F074FDF5E700BF00ED00E0E2
:104E780028CD002004C704002DE9F04F87B08146F3
:104E8800009101931446002654E0684B1B6813F008
:104E9800070F02D16FF015040DE03346644A012173
:104EA800624822F055FDF5E7604B1B6813F0070FC9
:104EB80005D16FF01504204607B0BDE8F08F3B46DA
:104EC8005C4A0121594822F043FDF2E7D84564D1F4
:104ED8002946C0B223F0B9FB2BE0574AC2F89870B4
:104EE800D2F89C3003F01F0321F01F010B43C2F8D6
:104EF8009C302946E0B223F0A8FB044610F1160FB7
:104F0800D9D0013415E0013B4B49C1F89870D1F86C
:104F1800A02002F01F0223F01F031343C1F8A030A2
:104F28002946E0B223F091FB044610F1160FC2D0D7
:104F380001340136009B9E42BDDA06EB46054FEA76
:104F4800850A09EB85056F68002FF2D0019B23B114
:104F5800284623F057FB002897D0394659F80A000D
:104F680023F062FB074610F1160F9DD084429BDDAB
:104F7800314BC3F89800D3F89C2022F01F02C3F8E5
:104F88009800D3F8A03043F01F0859F80A30696830
:104F9800194401F1FF3B9A4298D09A429DD0D845D6
:104FA800B1D0013B2449C1F89870D1F8A02002F093
:104FB8001F0223F01F031343C1F8A0302946E0B2B3
:104FC80023F043FB044610F1160F3FF474AF013091
:104FD800194BC3F89870D3F89C109DF8102061F312
:104FE80004028DF81020D3F8A030C3F34203D2B2E4
:104FF80063F347128DF8102059F80A306A68134491
:10500800029323F01F03A8EB0B084344013B23F052
:105018001F03059302A9C0B2FFF70AFF044610F167
:10502800160F3FF448AF013483E700BF28CD0020B6
:105038002CC7040050C7040000ED00E010B5034C75
:1050480001232278FFF718FF207010BD539B012021
:10505800044B0522C3F89420BFF34F8FBFF36F8F23
:10506800704700BF00ED00E0BFF35F8F024B0022E6
:10507800C3F89420704700BF00ED00E038B51C4B22
:105088001D681C4BD3F89030C3F307239D422BD8DF
:10509800FFF7EAFFFFF768FE002407E0144B5968A2
:1050A80001EB0411204623F099FA0134A542F5D802
:1050B8001148057023F0E8FA10F1160F13D00E4BC3
:1050C8001A780C4BD3F89030C3F307239A4207DAC7
:1050D800084BC3F898200021C3F8A0100132F0E76C
:1050E800FFF7B6FF002038BD4FF0FF30FBE700BFE9
:1050F80074C7040000ED00E0539B012008B5024B83
:105108001B689847002008BDC4160120034B18608F
:10511800034A937843F0020393707047C416012042
:105128002CCA002030B587B00D46114600240094E3
:105138000194029403940494059402228DF80220A9
:10514800044A0192049005951A46684620F05AFDD3
:1051580007B030BD8D87030008B5064921F0070167
:10516800C1F1005202F58022034821F06BFC0020B7
:1051780008BD00BF2FCD0120C816012008B500F0DA
:10518800D3F801220260426000238360C360036198
:105198000649416106490A6006490A60064A1360E1
:1051A800064A1360064A136008BD00BFFCB104003C
:1051B80058CA002054CA0020DC160120D816012045
:1051C800D41601202DE9F04106460F46154600F099
:1051D800ABF80446C3681BB943691A78002A54D14E
:1051E8000023E360616857F821306361B14231DA26
:1051F8005A1C62611A782D2A2CD19A1C62615A783D
:10520800A2602D2A2ED04AB9394B63612D21284638
:1052180035F054F8002832D02D23A360D4F8088044
:105228004146284635F04AF8B8F13A0F32D00028FE
:1052380030D043783A2B38D00023236163691B7838
:1052480013B9636801336360204600F053F8A0681F
:10525800BDE8F081264B6361204600F04BF84FF023
:10526800FF30F5E79B78002BCDD101316160204BF1
:105278006361204600F03EF84FF0FF30E8E7204633
:1052880000F038F84FF0FF30E2E75A1C42611B7813
:105298008360C3E763691B7813B96368013363608C
:1052A800204600F027F83F20D2E763691A7832B128
:1052B80023610F4B6361636801336360C4E763680C
:1052C80001336360B34203DA57F823302361F0E710
:1052D800074B63612B783A2B04D0204600F00AF87C
:1052E8003F20B5E7204600F005F83A20B0E700BFB8
:1052F800FCB104000268074B1A604268064B1A604A
:105308008268064B1A60C268054B1A600269054B31
:105318001A60704758CA002054CA0020DC160120C1
:10532800D8160120D4160120004870473CCA002036
:10533800024B0122C3F8402500207047009003402B
:1053480030B108B5034B800143F00103984708BD0D
:10535800704700BF30AA040000B585B00023019350
:105368000293039344F25A53ADF804300223ADF884
:105378000630039005238DF80A3023F023F9ADF8A1
:105388000800044B9B680C2101A8984705B05DF8FC
:1053980004FB00BF6CCA002008B5024B1B68984785
:1053A80008BD00BF6CCA002008B5024B5B6898476F
:1053B80008BD00BF6CCA002028B108B511B1024A67
:1053C8009268904708BD70476CCA002010B5002449
:1053D80005E0064B53F8340023F0DFF90134034BA2
:1053E80003EBC40359680029F3D110BD5CCA00203F
:1053F80010B9034B186870476FF08500704700BFFD
:10540800E016012010B9034B186070476FF0850053
:10541800704700BFE01601202DE9F04383B000AFCC
:10542800814608B10E4621B94B4B6FF015021A6040
:10543800002600252C463BE0474B6FF015021A600A
:105448000C37BD46BDE8F083434B6FF015021A6078
:10545800F6E76FF0004C5DE000233B7002237B70A1
:10546800002A5FD1BCF10D0F70DD0E2342B103207D
:10547800387100207871B8710120F8717868086176
:105488006FF300086FF341086FF382086FF3C508E4
:10549800012161F38818C3F30A0363F353286FF3F8
:1054A8001F58002341462D48FCF7EEFFA54600246F
:1054B800002EC5D019F8050029492144000921F01A
:1054C80032FF0028B8DB611C19F80500244B53FA99
:1054D80081F100F00F0021F026FF0028B4DB023430
:1054E800E4B20135013E3F2C01D8002EE0D11C4B1F
:1054F80000221A55194B1B6813F0070F29D06C4668
:105508003A7102237B7188B0694611F11002A0D06C
:105518004FF00E0C002A9FD0BCF1040F9CDD114BFC
:105528004B6199E7BCF1080F01DD0D4B8B6101F16F
:105538001C03002007E000F1080EBE441EF808EC2A
:1055480003F801EB01300128F5D98BE76FF01B0355
:105558008CE70024ACE700BFE0160120F8CC00205F
:10556800E4160120BCC7040008B50D4B1B6823B125
:105578000C4B1B6813F0070F05D10A4B1B6813F07F
:10558800070F06D108BD084A0121064822F0D6F9BE
:10559800F3E7064A0121034822F0D0F9F2E700BFF9
:1055A800E0160120F8CC0020C4C70400DCC70400C2
:1055B80008B50A4B00221A60FCF7A4FD0028FBD1AD
:1055C800FCF7FAFD064B1B6813F0070F00D108BD66
:1055D800044A0121024822F0B1F9F8E7E016012057
:1055E800F8CC0020E8C70400004870477C17012069
:1055F800034BC01A8010034B03FB00F0704700BF39
:105608003C170120B76DDBB638B505460C46FFF7E9
:10561800EFFF01464022034823F081F9014628465E
:10562800A04738BD40A5040030B583B005460C46F8
:10563800FFF7DEFF0146402300932346054A06484C
:1056480023F087F9011E01DB03B030BD2846A047CF
:10565800FAE700BFA389030040A5040008B510B10C
:1056680001280DD008BD0021084823F0E4F883681C
:1056780013F0070FF6D10021044823F03EF9F1E7B3
:105688000121024823F039F9ECE700BF40A50400E6
:1056980010B582B0EFF31184202383F31288BFF38F
:1056A8006F8F144A136843F00201116013F0010F61
:1056B80009D1002384F31188BFF36F8FABB923F0AE
:1056C80074F902B010BD0DF1070201210A4823F058
:1056D80096F89DF80730012B01D00023EAE7FFF781
:1056E80083FF23F0F8F80123E4E70021034823F0BF
:1056F80004F9E6E78C1701200050004040A504009B
:1057080010B5EFF31184202383F31288BFF36F8F52
:10571800074A136823F00201116013F0010F04D047
:1057280084F31188BFF36F8F10BD23F048F9F7E7B2
:105738008C17012070B582B00546012806D12D4B83
:10574800D3F81C3403F00303022B33D034F085F86C
:10575800044610B9284B1B786BB9EFF31186202348
:1057680083F31288BFF36F8F012484B9214B02227F
:10577800C3F808230BE00026F7E7ECB1304622F027
:1057880012FF1C4BD3F81835DBB2012B18D00DF1E2
:1057980007020021174823F032F80028EDD09DF8C1
:1057A8000730022B01D0012DE7D1F4B186F311881F
:1057B800BFF36F8F02B070BD012023F00AF9E0E754
:1057C8000C4BD3F80431002BE1D00A4B0022C3F86C
:1057D8000421D3F804210222C3F81825074A2021FE
:1057E800C2F8801101229A60D1E7024B0222C3F865
:1057F8000423DFE700500040749B012000E100E033
:1058080000B587B0CDF800D0CDF804D000230293BE
:105818000123039304AB049305936B46064A23F0D4
:10582800B4F8002805DB4FF48042002368461EF0D8
:1058380073FF07B05DF804FB078A030070B50646DE
:1058480000220121052022F089FE114802F04CFDBA
:10585800104B984219D102F059FD0024012C12D89E
:105868002146304622F0E7FF05462146304622F021
:10587800EFFF094921F047FE002805DB0123AB6053
:105888001C44E4B2EAE7002070BD6FF00400FBE7B7
:10589800655601000000AD0B00C8040010B50446B1
:1058A8000E4B0121D3E8EF2FC3E8E01F0028F9D100
:1058B8001AB1631E012B0DD910BD094822F0C8FF8B
:1058C800084900234B608B60CB6001238B6021F07B
:1058D80037FEEEE72046FFF72DFFEDE738170120EA
:1058E80040A504002817012010B5044C2046FCF7F9
:1058F80071F92046FFF70AFC002010BD0959010084
:1059080030B583B005468DF80700022401220DF159
:10591800070100201DF0DCFA38B9094B1B785BB190
:105928003CB123F087F8013CF0E7054B01221A70DF
:1059380002E0034B00221A70284603B030BD00BFB6
:10594800549B012070B582B00C460569102912D00D
:10595800012915D166238DF80730032601230DF19F
:1059680007023A2123F0B2F8002802DB6C702E708F
:10597800002002B070BD55238DF807300226EDE7F0
:10598800064B1B6813F0070F02D16FF08500F0E794
:10599800034A0121014821F0D1FFF6E700CD00209C
:1059A8006CC8040038B505464368586833F03BFEB8
:1059B800E8B1284623F07DF800231A46012128463D
:1059C80023F084F8041E20DBA42000211FF0E4FA51
:1059D800284623F06CF9284623F070F9041E22DBD0
:1059E800284623F09EF9041E29DB002412E01A4BF6
:1059F8001B6813F0070F02D16FF012040AE0174A70
:105A08000121154821F09AFFF6E7134B1B6813F0A4
:105A1800070F01D1204638BD2346114A01210E48FF
:105A280021F096FFF6E70C4B1B6813F0070FF1D037
:105A380023460C4A0121084821F08AFFEAE7064B71
:105A48001B6813F0070FE5D02346074A01210248D7
:105A580021F07EFFDEE700BF00CD002088C80400EB
:105A6800A8C80400D4C80400F8C80400F0B51C464F
:105A7800059F069E00F01F0C400934D1274D0CF1FC
:105A8800800355F8233081B3012082B34FF0020E12
:105A980040EA0E0074B34FF00C0E40EA0E0067B3F4
:105AA8004FF4E06E40EA0E0056B34FF4403E40EA31
:105AB8000E0023EA000031B30B7832B3127852009B
:105AC800134324B322789200134317B33A7812028F
