:020000021000EC
:10000000C8C90120014101003FCE0300ED400100BD
:10001000ED400100ED400100ED400100ED40010028
:10002000000000000000000000000000ED420100A0
:10003000ED40010000000000A5420100ED4001007C
:10004000A1440100A1440100A1440100A144010018
:10005000A1440100A1440100A1440100A144010008
:10006000A1440100A1440100A1440100A1440100F8
:10007000A1440100A1440100A1440100A1440100E8
:10008000A1440100A1440100A1440100A1440100D8
:10009000A1440100A1440100A1440100A1440100C8
:1000A000A1440100A1440100A1440100A1440100B8
:1000B000A1440100A1440100A1440100A1440100A8
:1000C000A1440100A1440100A1440100A144010098
:1000D000A1440100A1440100A1440100A144010088
:1000E000A1440100A1440100A1440100A144010078
:1000F000A1440100A1440100A1440100A144010068
:10010000A1440100A1440100A1440100A144010057
:10011000A1440100A1440100A1440100A144010047
:10012000A1440100A1440100A1440100A144010037
:10013000A1440100A1440100A1440100A144010027
:04014000A1440100D5
:100148007BB972B90029BEBF00204FF0004106E01C
:1001580008BF00281CBF6FF000414FF0FF3000F0CF
:1001680057B8ADF1080C6DE904CE002909DB002B66
:100178001ADB00F07CF8DDF804E0DDE9022304B0C6
:100188007047404261EB4101002B1BDB00F06FF828
:10019800DDF804E0DDE9022304B0404261EB4101EF
:1001A800524263EB43037047524263EB430300F050
:1001B8005EF8DDF804E0DDE9022304B0404261EBBB
:1001C80041017047524263EB430300F050F8DDF8F9
:1001D80004E0DDE9022304B0524263EB43037047B5
:1001E80053B94AB9002908BF00281CBF4FF0FF3196
:1001F8004FF0FF3000F00CB8ADF1080C6DE904CEFB
:1002080000F035F8DDF804E0DDE9022304B07047BA
:10021800704700BF10F8012B11F8013B012A28BFD5
:100228009A42F7D0D01A7047034611F8012B03F809
:10023800012B002AF9D17047034613F8012B002A35
:10024800FBD1181A01387047430803F05533C01A18
:1002580000F03333800800F0333018444FF0013396
:1002680000EB101000F00F305843000E70472DE9D6
:10027800F04786468C460846089E15467446194639
:10028800002B40F0C1808542B2FA82F245D94AB1CA
:10029800C2F1200300FA02FC954094402EFA03F3C1
:1002A80043EA0C0C4FEA154EA8B2230CBCFBFEF82F
:1002B8000EFB18CC08FB00F943EA0C43994528D9F2
:1002C800EB1808F1FF3704D2994502D9A8F10207C3
:1002D8002B44A3EB0903A4B2B3FBFEFC0EFB1C33B7
:1002E8000CFB00F044EA0344A04214D92C190CF189
:1002F800FF3304D2A04202D9ACF102032C44241AE1
:1003080043EA07401EB1D440002334607360BDE85F
:10031800F0874746DDE76346F1E792BB431B0121BF
:100328004FEA154EAFB2200CB3FBFEFC0EFB1C339C
:100338000CFB07F840EA0343984561D9EB180CF128
:10034800FF3004D2984502D9ACF102002B44A3EB4C
:100358000803A4B2B3FBFEFC0EFB1C330CFB07F72F
:1003680044EA0344A7424DD92C190CF1FF3304D2B7
:10037800A74202D9ACF102032C44E41B43EA004033
:10038800C0E7C2F120039540944020FA03F12EFA09
:1003980003F34FEA154E9040AFB20343B1FBFEFCA6
:1003A8000EFB1C10190C0CFB07F841EA00418845AC
:1003B80022D969180CF1FF3004D2884502D9ACF172
:1003C80002002944A1EB08019BB2B1FBFEFC0EFB25
:1003D8001C110CFB07F743EA01439F420ED9EB18A7
:1003E8000CF1FF3104D29F4202D9ACF102012B4437
:1003F800DB1B41EA004193E76046E3E76146F7E724
:100408006046A4E76346B8E7834206D916B90021D7
:1004180008467CE7C6E900E0F9E7B3FA83F78FB945
:10042800834201D3724508D8BEEB020460EB030394
:1004380001209C461EB9002169E73846FAE7C6E95B
:10044800004CF8E7C7F1200CBB400EFA07F522FA7A
:100458000CF42EFA0CF1BA401C4320FA0CF3B84005
:100468004FEA144901431FFA84FEB3FBF9F809FB6C
:1004780018300B0C08FB0EFA43EA00439A4540D9A2
:10048800E31808F1FF3004D29A4502D9A8F1020016
:100498002344A3EB0A0389B2B3FBF9F809FB183329
:1004A80008FB0EFE41EA03418E452CD9611808F17C
:1004B800FF3304D28E4502D9A8F10203214443EA4E
:1004C8000040A1EB0E01A0FB02984145CE464346F1
:1004D80002D306D14D4504D20138B9EB020E68EBC0
:1004E8000403002EA7D0B5EB0E0261EB030101FA5D
:1004F8000CFC22FA07F3F9404CEA0303C6E9003181
:1005080099E74046C5E74346D9E7000000000000E8
:100518002DE9F04F8DB009900D46174640F039FA95
:100528004B0143EAD0634401241A63EB01039B00A7
:1005380043EA9473A400241843EB0101C90041EA7B
:100548005471C4F3103444EA41444FEAD139012DBF
:1005580065D07D6829463C48FFF75CFE28B12946EE
:100568003A48FFF757FE002861D135A3D3E90023A5
:1005780020464946FFF7E4FD80460A9130A3D3E9B7
:10058800002320464946FFF7DBFD15461C46304A46
:10059800002328462146FFF7D3FD06460F462C4A7E
:1005A800002328462146FFF7CBFD15461C464EF68C
:1005B8006022002328462146FFF7C2FD81460B91A1
:1005C8004EF66022002328462146FFF7B9FD15465E
:1005D8001C464FF47A72002328462146FFF7B0FDE7
:1005E80083468A464FF47A72002328462146FFF74D
:1005F800A7FDCDE90623CDF810B0CDF814A0CDF8AD
:1006080008900B9A03920096019742460A9B11495B
:1006180009982BF0ADFF00200DB0BDE8F08F224601
:100628004B460D4909982BF0A3FF0020F4E72A4612
:100638000A4909982BF0BAFF6FF00400ECE700BFF5
:10064800005C260500000000C81C0500CC1C050045
:1006580080EE3600F01C0500B41C0500D81C05000F
:1006680038B50446002A43D0072A45D11D68E91742
:100678004A0142EAD5624FEA451CBCEB050C62EB25
:100688000102520242EADC524FEA4C2C1CEB050CE8
:1006980041EB02004FEA801E4EEA9C6E4FEA8C1234
:1006A800B2EB0C026EEB000E521941EB0E015868CA
:1006B800131841EBE071012B71F100020DDB1248B8
:1006C80018180FA3D3E9002341F10001FFF738FD03
:1006D8000146204606F06CFF10E00C48181808A3E5
:1006E800D3E9002361F10001FFF72AFD0146F0E795
:1006F80019882EF044F801E06FF0850038BD00BF7E
:100708003AA39500000000009DD14A00632EB5FF72
:1007180000B583B0084B019300F010F801A800F071
:1007280089F830B91FF010FC4FF4FA602AF04FF93D
:10073800F8E703B05DF804FB9412050038B53448B7
:100748003FF050FD00285BD04FF4D01131482AF01B
:1007580085F9012208212E482AF09BF92E483FF0FE
:1007680041FD002850D02D482AF019FF2AF0B0F991
:1007780043F23F350022294633F040FD2AF0A8F91C
:100788000022FF2133F041FD254C20463BF08EFD31
:10079800244920463BF0E1FE4FF000016FF30401CD
:1007A8006FF34A116FF3CF2120463BF0D0FE294664
:1007B80020463BF042FEFF2120463BF044FE0A2142
:1007C80020462AF073F90A2120463BF0D8FE2AF089
:1007D8007FF923F025F805460022214633F020FB57
:1007E8001149284623F0F2FC00231A46092128461D
:1007F80031F0FBFF1FF0A8FB07482AF0FEF838BDD0
:100808000A482AF0CCFEFAE709482AF0C8FEF6E7BB
:10081800F41105009C1705008012050078170500E3
:100828006816012030A105008C170500381705004F
:100838005C17050008B53FF0D5FC20B1054829F044
:100848001BFD002008BD044829F016FD6FF01200BA
:10085800F8E700BFE0170500B41705002DE9F041DF
:1008680084B0044688468268B2F5004F12D3082740
:100878000837A2EBD7070137B7FA87F7C7F1200780
:100888003B46214655482AF08AFE55482AF087FEFD
:1008980000262FE00427EBE755880AE0D26891424A
:1008A80012D0013304EBC202A068B0F5004FF3D3B5
:1008B80055684FEA550EBCEB550F00D8F446B0F515
:1008C800004FEBD2D288EAE79BB10122B240B0F5E3
:1008D800004F1AD3082101F1080002EBD002C1EB46
:1008E800CC010191CDF800C0013A31463D482AF0CB
:1008F80056FE0136BE420ADA331D54F82310002989
:10090800F7D00A4600239C46CBE70421E3E7B8F179
:10091800000F26D103AA02A920462AF055FDA36894
:10092800DC00B3F5004F56D308231C440399631A1F
:10093800029A9B1A60084FF47A7505FB0300B0FB16
:10094800F4F0294CA4FB0054E40804EB8405A0EB64
:1009580045000190009425482AF021FE04B0BDE826
:10096800F08123482AF01BFE002518E073881EE05A
:100978002A225B08B1F5004F29D32158691AE818D3
:100988000190009129461B482AF009FEA368AB4252
:10099800C0D0B3F5004F1CD3736805EB5305E800CE
:1009A80004EBC506A168B1F5004FDFD3736813F0F7
:1009B800010FDDD1B1F5004F05D372685208012A45
:1009C80003D02D22D5E72D22D3E72E22D1E7215AB5
:1009D800D4E77388E1E70423A7E700BF18180500E8
:1009E8004818050004190500CDCCCCCC60190500C9
:1009F80020190500301905002DE9F04F91B0059236
:100A08000293134602F004020092C3F3C20210F0EC
:100A18000303019340F02D8280468A460132041D6B
:100A280000284FD0B8F1000F05D0A4EB0803043319
:100A3800534500F22182029B5D1E019B049306939D
:100A4800039300264FF0FF3B0427B946B8F1000F87
:100A580001D0029B2360531E0793002A40F35F8155
:100A6800059B13F0020228D00120A4EB08018B0893
:100A78001AB1B1F5007F80F0058203990F2900F2C1
:100A88000482B8F1000F00F06281DBB201F140028C
:100A98006A4402F8103C02F820BC002800F0538198
:100AA80063F07F0301F140026A4402F8103C049BA2
:100AB80001330493039B0133039304340022CC468F
:100AC80040463DE001F0070A5444CAF1080AA9E784
:100AD800002634E0002632E0002630E00827BC4635
:100AE8002DE025292BD10BF1010B01260427BC464B
:100AF80025E04729EED82A2914D32A39C9B24FF05C
:100B0800010E0EFA01F14FF6DA7E11EA0E0F16D138
:100B180011F0625F40F0C18011F0010F40F08C804D
:100B280000260CE0252903D10BF1FF3B002606E047
:100B380001D9002603E0202901D02329CCD11D4664
:100B48006B1C6978002900F01B81002EC9D07A2916
:100B5800BED84C29CDD34C392E2961D80FF2040EBA
:100B68005EF821F0470B0100290C0100290C010057
:100B7800290C0100290C0100290C0100290C010095
:100B8800290C0100290C0100290C0100290C010085
:100B9800290C0100390C0100290C0100290C010065
:100BA800290C0100290C0100290C0100290C010065
:100BB800290C0100290C0100A30C0100290C0100DB
:100BC800390C0100390C0100A30C0100A30C010031
:100BD800A30C0100470B0100390C0100E50A0100D4
:100BE800290C0100470B0100290C0100FF0C010032
:100BF800390C0100FF0C0100290C0100290C01002F
:100C0800070D0100330C0100390C0100290C01000B
:100C1800290C0100390C0100290C01002D0C0100E0
:100C280000268CE70427BC4689E70427BC4686E7EC
:100C380029786C2925D000263C44013CB4FBF7F404
:100C480007FB04F4254620B1211A6144514500F2FE
:100C58001681002A58D1BCF1040F00F08980BCF13C
:100C6800080F40F015811A99073121F0070101F1A9
:100C780008051A95D1E9008908B1C4E90089083442
:100C88005DE713F8021C6C2903D000260427BC4634
:100C9800D2E700260827BC46CEE729784C291AD087
:100CA8001A99073121F0070101F108061A96D1E9CE
:100CB8000067073424F0070440B1211A0831514570
:100CC80013D829784C2913D0C4E9006708340026C2
:100CD8000827BC4633E71A99073121F0070101F1CB
:100CE80008061A96D1E90067E3E76FF01B00BDE03C
:100CF800C4E90067EAE700260427BC469CE73246B9
:100D080000260427BC4697E72C46E14680461A9AF7
:100D1800111D1A9112680292079A1D4696E6624BB7
:100D2800029A9A4204D3614B9A420AD3002300E004
:100D38000023002B7FF494AE059B03F002020020F1
:100D480093E60123F5E7069B01330693B2E610B15B
:100D58000AF1010AAEE6009B13B10AF1020AA9E6FC
:100D68000298FFF769FA00EB0A0303F1020AA1E609
:100D78001A990D1D1A95096800B121600434DEE640
:100D88008046231AB3F5806F80F0858090B10022E9
:100D980002609B080370009B83B1069BC370049B91
:100DA80088F802301BBB019DDDF80C90DDF810B00F
:100DB800029F3DE05344A3F1080057E0069B4370AF
:100DC800EDE701339842EED903F140026A4412F884
:100DD800101C12F9102C002AF3DA01F07F01A4EBA1
:100DE80008020132524559D804F8011BE9E7019B72
:100DF8000398E7E7009B43B305F140036B4413F8FE
:100E0800203C04F8013B019EA4EB08033344013362
:100E1800534546D805F140036B4413F8103C04F8D9
:100E2800013B32463946204640F055F834440135F6
:100E3800A94519D9BBF1000FDCD005F140036B447B
:100E480013F9103C002BD5DAF1E705F140036B44A8
:100E580013F8103C58F82370002248F8232038462D
:100E6800FFF7EAF9461CCFE7A4EB080011B0BDE88C
:100E7800F08F6FF00D00F9E76FF01B00F6E76FF0E9
:100E88001B00F3E76FF01500F0E76FF01500EDE7D2
:100E98006FF01500EAE76FF01500E7E76FF01B0049
:100EA800E4E76FF01B00E1E718110500EC4B0600C2
:100EB8002DE9F04F97B000AF8346BA613B61D7F890
:100EC8008030C3F3C0033B62F96011B92AF0DFFA3E
:100ED800F8609BF80260B14636B1D7F8803013F05D
:100EE800010F0DD1002300E000239BF803207A6254
:100EF80042B1D7F8802012F0020F22D1002202E07E
:100F08000123F2E7002202B9EBB19BF80050AA00D6
:100F1800BA60DBF804207A610BEB8505BA69F2B197
:100F2800002B40F00581B9F1000F00F01081D7F8CF
:100F3800803013F0040F40F00E810020F86106465F
:100F4800FAE00122DFE7BB691BB13A69F968584644
:100F58009847FC6820465C37BD46BDE8F08FFC68C2
:100F680053BB4D444FF00008D7F8803003F0050319
:100F7800FB604FF0000AC7F81080A046C7F81CB005
:100F8800D7F804B0BEE00444013501364E45EBD233
:100F98002A7800235BF822201946B8692AF08CFACF
:100FA800BAF1000FEFD0D7F888309845EBD22AF87D
:100FB800180008F10108E6E70026B046D7F884A033
:100FC800E4E700253B6A7BB9002D7DD0D7F8803057
:100FD80013F0010F7DD1FB68002B73D10223A8EB1E
:100FE80003088CE00125EDE7494678692AF0AAFA5A
:100FF8000028E9D0BB4B1B6813F0060F40D06C46A5
:10100800002387F82C30022387F82D308AB06946F0
:1010180011F1100237D012251AB1042D01DDB24B9F
:101028004B61002387F82830022387F829306ABBF0
:10103800112D44DD122362B1042087F82C00002012
:1010480087F82D0087F82E00012087F82F00F86A0E
:1010580008616FF3000B6FF3410B6FF3820B6FF3B3
:10106800C50B022161F3881BC3F30A0363F3532BF7
:101078006FF31F5B002359469A4800F0CFFDA54641
:10108800A8F102083BE06FF00045C5E72B46082DA4
:1010980001DD786988610C2B01DDC1F81C9001F134
:1010A800200300200128C3D800F1300C07F1280ED6
:1010B800F4441CF830CC03F801CB0130F2E76FF0B0
:1010C8001B03B8E701238AE7D7F8803013F0020F33
:1010D80015D0002322461946B8692AF0EDF9D7F849
:1010E800843053B13B69D7F88820934205D2D7F8AA
:1010F800842022F8130001333B61013880440AF14F
:10110800010A35467B6A9A4510D22E4616F8029B8C
:101118006B78FA6952F82340744B9C42FFF451AF44
:10112800734B9C42FFF45EAF00254BE7444611E742
:1011380007F144000023FB6118B14A4629463FF0F5
:10114800CAFE4D444FF00008C7F804901EE0002086
:10115800F8610646F0E7FE6107F134000026EBE788
:1011680000253B6A33BB002D3BD0D7F8803013F005
:10117800010F26D0731C06F1300207F1280156181A
:1011880006F8149CDEB208F1010825467B6A9845EA
:101198004AD22C4614F802AB95F801905BF8293036
:1011A800524A9342DCD3524A934201D30025D8E7EE
:1011B8000125D6E7514678692AF0C4F90028D2D02B
:1011C800E1E7D7F8803013F0040FDCD0FA69531C3C
:1011D800303207F128010A4402F8249CDBB2FB6193
:1011E800D1E7D7F8803013F0020F09D0731C06F14D
:1011F800300207F12801561806F8149CDEB2C2E73F
:10120800F869431C00F1300107F128028A1802F836
:1012180024AC02460232D2B2FA6107F1580252FAFD
:1012280083F303F8249CAEE7D7F804909BF80030CA
:1012380087F854309BF80130334487F85530D7F895
:10124800803013F0020F0ED1FB69C3F3470387F810
:101258005730D7F8803013F0010F06D113F0040F80
:1012680048D1002302E00023F1E7002387F8563035
:10127800DBF800003863786DCBF80000D7F81080F1
:101288004246B9685846D7F818A0D047041EFFF65A
:1012980061AE386BCBF80000C7F810804246F96998
:1012A80007F13400D047002857DB04EB0008B96881
:1012B80049447B6A01EB4301D7F810904A46FB6822
:1012C800591A2846D047041EFFF644AE08EB040519
:1012D8004FF000087E62C7F820B05646D7F884B0B1
:1012E8001FE000BF18CD0020A8190500181105003F
:1012F800EC4B0600FB69B9E74FF0000A4A460121AA
:1013080007F12C00B047002829DB05445346224644
:10131800494630462AF0D0F8002822DB054408F177
:1013280001087B6A984511D208F1300307F12802B9
:10133800134413F8143C87F82C303A6A52F82340C7
:10134800BBF1000FD8D03BF818A0D7E73A690021C5
:101358000846BB6998472C46FCE50446FAE504466E
:10136800F8E50446F6E500BF014B1860704700BF7A
:1013780020CA002080B505460E461746984628F034
:10138800B3FA03463FF0BAFE0446DFF8189049F86E
:101398000030424639463046A84754F8090002F062
:1013A8001FFF00BF080000002DE9F04383B004468A
:1013B80008461546238B13F0080F05D103F00706DE
:1013C80000230093019354E0012909D043F020033E
:1013D800238385F31188BFF36F8F03B0BDE8F083D3
:1013E80043F010032383F4E720462AF019FC42E077
:1013F800D4F814904A46694620462AF02AFC4FF051
:101408000008238B03F00707B74269D0A268002AB7
:1014180066D0012243F00803238385F31188BFF3C4
:101428006F8F002A64D1009B2BB14B463A46694620
:1014380020462AF087FCB8F1000F02D03449204634
:10144800C047EFF31185202383F31288BFF36F8F12
:10145800238B23F008032383238B13F0100F4DD025
:1014680023F0100323830120268B06F007060028AB
:10147800AFD00228B8D00028ABD0013804282BD828
:1014880001A353F820F000BFF9130100E114010093
:10149800A5140100B9140100CD1401002369D3F883
:1014A8000080062120462AF091FB4FF00009A8E7AA
:1014B8002369D3F80480042120462AF087FB4FF0E3
:1014C80000099EE72369D3F80880052120462AF001
:1014D8007DFB4FF0000994E74FF00008C14690E704
:1014E800009A0AB1002295E7B8F1000F92D1B3E74C
:1014F8004A46394620462AF071FB94E713F0200F3C
:1015080004D023F0200323830220ADE70020ABE7BB
:101518007BBD030070B506460D46084C04E02A461C
:101528003146204698471034054B9C4204D2236824
:101538009B69002BF3D1F6E770BD00BFA415050029
:10154800B41505002DE9F041074605460AE007EA0B
:101558000807144B03EB06135B680422196820463E
:1015680000F02CFBD5B195FAA5F6B6FA86F60D4C27
:1015780004EB06140123B3406FEA030825EA0305C8
:10158800237B002BEED03301064AD3581B69002B6E
:10159800DDD0204698470028E4D1D8E73846BDE892
:1015A800F08100BFA41505002DE9F04180460F46E3
:1015B8001E4BD3E8EF5F6A1CC3E8E12F0029F8D17E
:1015C800002D2FD11A4C002607E063680422196801
:1015D800204600F0F3FA01361034164B9C4213D221
:1015E800237B002BF7D02368DB680BB12046984794
:1015F80023681B69002BE8D0204698470028E4D0D0
:101608000123B3401D43E6E7B8F1000F0BD055B1F5
:101618002846FFF797FF0546002FF8D00A202AF042
:1016280081FCF4E700252846BDE8F08184160120F6
:10163800A4150500B415050008B5064B186018B1C7
:10164800054B1B68092B00DC08BD044827F0B6FCD5
:10165800FAE700BF781601208016012018CE002076
:1016680008B5024827F0AAFC08BD00BF18CE002024
:1016780038B505460B4C00E010340B4B9C420FD29A
:1016880063685B79002BF7D0294620462AF060FC76
:101698000028F1D023681B68294620469847EBE7C5
:1016A80038BD00BFA4150500B415050030B589B0D4
:1016B80000220F490F483FF0DBF90F4D00220023AD
:1016C800CDE90623002404940E2303930294019485
:1016D80000940A4B4FF44072094928463EF0F6FE42
:1016E8000849284627F0DEFC204609B030BD00BF77
:1016F80069160100F0D2002030CE00203D1A01000A
:10170800989C0120601A0500014B53F8200070478F
:101718007C1A050048B108B5054A1060054B1960E8
:10172800084600F07BFD002008BD6FF015007047EB
:1017380024CA00207416012008B5054B1B781BB17C
:10174800034B01221A7008BD024827F037FCF7E75F
:10175800689C012018CE002008B50C4BD3E8EF1F79
:101768000131C3E8E21F002AF8D130B908483FF038
:101778008BF9084827F022FC08BD074BD3E8EF1F78
:101788000139C3E8E21F002AF0D0F7E77C160120F0
:10179800F0D2002018CE002080160120044B002033
:1017A8000146D3E8EF0FC3E8E21F002AF9D17047DA
:1017B8007C16012038B5FFF7F1FF0546094C00E01B
:1017C8001034094B9C420BD263685B79002BF7D02D
:1017D80023685B68002BF3D0294620469847EFE73B
:1017E80038BD00BFA4150500B4150500034B1868E3
:1017F8000028D4BF00200120704700BF7C160120BC
:1018080010B5044C044920462AF02EF8034B1C60FE
:1018180010BD00BFC8CC0020681A05007016012052
:1018280008B50023074A1370074A1360074A136074
:101838004FF400410648FFF76DFFFFF7E1FF00F0A6
:1018480063F908BD699C01207C16012080160120DF
:1018580025BF030008B5014601482AF09BFB08BDD7
:10186800C8CC002008B502482AF0DFF808BD00BF40
:10187800C8CC002008B50146024B18682AF090FB36
:1018880008BD00BF7016012008B502482AF08CFB7D
:1018980008BD00BFC8CC002010B582B000220023CC
:1018A800CDE90023264B187808B902B010BD684668
:1018B8002AF092FB044668B1224BD3E8EF1F0139A6
:1018C800C3E8E21F002AF8D12046FFF7D1FE2046E0
:1018D800FFF7D0FFFFF78AFF58B91B4A1368516812
:1018E80013F57A7341F1000113605160FFF7CCFFE3
:1018F800DBE73FF04EF84A0142EAD06243011B1A87
:1019080062EB0102920042EA93729B001B1842EBC1
:101918000102D20042EA5372C3F3103343EA42434E
:10192800D20B0948016840685B1A62EB000240F27A
:10193800E9318B4272F10002CFD3FFF73BFFCCE7CE
:10194800689C012080160120E8D200200F4B1B78EC
:1019580003B1704710B500210120FFF725FE0C4C9C
:1019680000E010340B4B9C4208D263685B79002B73
:10197800F7D023689B6820469847F2E7FFF78CFF6B
:101988000028FBD1014B01221A7010BD699C01206F
:10199800A4150500B415050010B582B0184BD3E89E
:1019A800EF2F511CC3E8E01F0028F8D1154B1B7816
:1019B80063B9154B1B68B3B1BAB1092A13D11348DF
:1019C8003FF062F8124827F0F9FA0CE0EFF31184BF
:1019D800202383F31288BFF36F8FFFF75DFF84F333
:1019E8001188BFF36F8F02B010BD00220023CDE92C
:1019F80000234FF400420023044828F029FAF2E7B4
:101A080080160120699C012078160120F0D2002060
:101A180018CE002010B50446044B1B689847A060F8
:101A2800214603482AF0DCFA10BD00BF24CA002072
:101A3800C8CC00202DE9F04100210846FFF7B4FD8D
:101A4800804650B140F2676600273FF057FB154BC0
:101A58001858FFF7F1FD002515E04FF0FF364FF05D
:101A6800FF37F2E74046FFF76DFD804670B94FF04B
:101A7800FF364FF0FF3709E02C4632463B460A480E
:101A880027F0C4FA2546B8F1000FEBD1FFF704FFA1
:101A980004460028F6D1002DEED000210846FFF7B5
:101AA80039FDEAE70800000018CE0020014800EBE5
:101AB800810070470CCD00200248034BC01AC008B3
:101AC800704700BFA4150500C414050010B50C46E6
:101AD800FFF7F2FFA04203D9024B53F8340010BDC0
:101AE8000020FCE7C414050010B50C46FFF7E4FF1E
:101AF800A04204D9034B03EBC403187910BD00209E
:101B0800FCE700BFC414050010B5002410E021460E
:101B18000020FFF7E9FF0A4A52F8243023F00703B0
:101B280042F8243000F00700034342F8243001341F
:101B3800044B054A9B1AB4EBD30FE8D310BD00BF82
:101B48000CCD0020A4150500C41405002DE9F843A8
:101B58000D4616469846002812DBC4B200232046DC
:101B68002AF078FA074610B1404500D947463B4667
:101B78003246E9B220462AF04DFA3846BDE8F883E5
:101B88000C4B0D4AA3EB02094FEA1919002427460A
:101B98000DE0094B03EB04135868434632462946C7
:101BA8000079FFF7D3FF874238BF074601344C4519
:101BB800EFD3E2E7B4150500A415050038B50446CF
:101BC8000D461146084BC31A1B11013342681371A5
:101BD800436899712AF07AFA63681D606368012284
:101BE8005A71FFF7A9FD38BDA415050000B589B0E5
:101BF800059206930023079362B1074A0C9B029350
:101C08000B9B01930A9B009305ABFFF751F909B0B1
:101C18005DF804FB0022F1E711C103002DE9F04F44
:101C28008BB004AF05461E468846C1F34A24002CF3
:101C380000F08F8091460022FA603A617A610423AD
:101C48000293FB1801930A23009307F10C03214622
:101C58004846FFF72DF9B0F5006F5ED3464B1B6879
:101C680013F0060F00F08480D9F804106D460023A5
:101C78003B7302237B738AB004AC14F1100221D0A9
:101C880012201AB1042801DD3C4B636100233B702C
:101C980002237B70CAB10346082800DDA1610C2B22
:101CA80002DD40F2FF73E36104F120030021012902
:101CB8000BD801F118063E4416F8186C03F8016BAE
:101CC8000131F4E76FF00040DBE7112822DD122331
:101CD80042B10421397300217973B9730121F97371
:101CE800F868206100216FF300016FF341016FF381
:101CF80082016FF3C501022060F38811C3F30A0360
:101D080063F353210023C1F313011B482AF07CFA23
:101D1800AD462DE06FF01B03DAE760F35328C0F3FC
:101D28000A0A0AEB1850173020F007008008FFF75E
:101D380091FD8346B0B104230293FB1801930A2353
:101D48000093534600F1100221464846FFF74EFF24
:101D580008E004EB1154173424F00704A008FFF737
:101D680079FD834633464246294658462AF0E2F929
:101D78001C37BD46BDE8F08F4CCD00209C1A0500ED
:101D88002DE9F04F85B080460D4617461E46DDF812
:101D980038B0DDF84090B9F1000F46D0119B03939D
:101DA80000934B460F9A10210020FEF725FEB0F550
:101DB800006F2DD282460BEB0003173323F0070385
:101DC80000246FF300046FF341046FF3820468F397
:101DD800C50467F3881460F353246BF31F54980801
:101DE800FFF738FD074650B11030B9F1000F06D0A3
:101DF800119B00934B460F9A5146FEF7FDFD334663
:101E08002246294638462AF095F905B0BDE8F08FF4
:101E1800074B1B6813F0060FF7D040F2FF73054A13
:101E2800022103482AF0D8F9EFE70020C2E700BFF3
:101E38004CCD0020DC1A0500406820B1034BC01AC5
:101E480040F38F0070474FF0FF3070470CCD0020F3
:101E58000EB400B582B0014603AB53F8042B0193CE
:101E6800034802F05DFD02B05DF804EB03B0704773
:101E780047C2030030B585B011F0440F05D01A4BA6
:101E88001C6834B9002005B030BD1849FFF7E0FFE1
:101E9800F9E7174B1968B2FBF1F1B1FBF4FC154AED
:101EA800A2FB0C32D20A4FF4616E0EFB12CE124B1B
:101EB800A3FB0E535B0904FB1C114FF47A7C0CFB4B
:101EC80001F1B1FBF4F504FB15110CFB01F1B1FBB9
:101ED800F4F102910195C3EB0311AEEB810100917E
:101EE8000649FFF7B5FFCEE78C160120141B050045
:101EF80088160120C5B3A29189888888201B05000F
:101F080061B108B52AB1064A52F8232012B9054A28
:101F180000E0044A0449FFF79BFF08BD704700BF73
:101F2800BC1B05003C1B0500543705002DE9F0419A
:101F380005461746069EDDF81C8081B900242EB19F
:101F4800324611492846FFF783FF0444B8F1000FD1
:101F580014D06FB1099B042B13D00C4909E00C4B2A
:101F6800099A53F822200B49FFF772FF0446E6E767
:101F7800064942462846FFF76BFF04442046BDE861
:101F8800F0810549F5E700BF581B0500481B05000F
:101F9800D01B0500501B0500441B05002DE9F04F20
:101FA80087B005460C46049205939DF84C7001F0E5
:101FB800020B01F0010AC1F3C00801F480792AF08C
:101FC80015F818B3024616492846FFF741FF06469A
:101FD800BBF1000F1CD13A46514628462AF056F963
:101FE800B9F1000F01D0002311930397129B0293BC
:101FF800119B0193109B00930023049A41462846A5
:10200800FFF794FF304407B0BDE8F08F0026DFE704
:10201800059A21462846FFF72DFF0644DBE700BF57
:102028005C1B050011F0100F0BD108B511F0200F43
:1020380003D00449FFF70CFF08BD0349FFF708FF69
:10204800FAE77047C42F0500601B05002DE9F04131
:1020580005460F46164698460699FFF7E3FF002403
:10206800444505DA24492846FFF7F2FE0134F7E72C
:10207800002409E020492846FFF7EAFE0BE01F4943
:102088002846FFF7E5FE01340F2C0CDC002C02DD9E
:1020980014F0070FEED0B442F1D23A5D1849284641
:1020A800FFF7D6FEEFE717492846FFF7D1FE0024D1
:1020B80009E011492846FFF7CBFE0BE012492846F4
:1020C800FFF7C6FE01340F2C13DC002C02DD14F0E0
:1020D800070FEED0B44207D23A5D0C4B9B5C13F06D
:1020E800970FEBD12E22E9E703492846FFF7B0FE08
:1020F800E8E7BDE8F08100BF541B05006C1B050034
:10210800641B0500701B0500F4250500CB4A06007A
:102118002DE9F04184B004469DF82C500C9F0E9E8A
:1021280095B9012B1ED019484FF0000827B13B463E
:102138002246174929F0D6F9C6B905BB20462AF028
:1021480067F804B0BDE8F08103950A9802900193FE
:1021580000920B4600220F992046FFF71FFF80468A
:102168000C48E3E70B484FF00008DFE70F9B0093AC
:10217800434632460D9920462AF0A0F8DDE72A4664
:102188000F9920462AF08EF8D8E700BF77C20300DF
:102198002949010047C203002DE9F04383B00646F0
:1021A800056842F20F738B4228BF0B46184A052177
:1021B800684628F081F804467368D3F804900B2722
:1021C800DFF8508005E04A4639464046A8473F1A9E
:1021D8008044002FF7D17368D3F804806F4605E078
:1021E800424621463846A847241A0744002CF7D10E
:1021F80073685F681B24084E05E03A46214630465E
:10220800A847241A0644002CF7D103B0BDE8F08390
:10221800EC300500901B0500741B0500074B0122DC
:102228001A6004E04008054A13685B001360044B19
:102238009842F7D8034B1860704700BF88160120F2
:1022480040420F008C160120034B01221A70034BE9
:10225800034A1A60704700BF6A9C0120B816012023
:10226800BC16012008B5034B01221A7002482AF057
:1022780073F808BD6B9C0120101C0500014B196008
:1022880000207047A416012008B518B9074B002292
:102298001A7008BD064B1B7823B141F288303DF017
:1022A8009BFFF6E705202AF06EF8F2E76A9C01200A
:1022B8006B9C012038B504460A4B01221A700A4B60
:1022C8001B782BB938BD651E2046FFF7DDFF2C466D
:1022D800002025F04BFA0028F4D0024B1B78002B85
:1022E800F1D1EFE76A9C01206B9C0120F8B5064606
:1022F8000D4604270DE02A463146002025F080F9D6
:10230800044614E03846FFF7D5FFDCB9114B1B78BB
:10231800C3B1114B1B78002BEDD125F037FA2A46B3
:102328003146002025F06CF9044625F03BFA002CD4
:10233800E8D1084B1B78002BE7D0013F3846FFF760
:10234800A3FFE2E714B9034B1B7803B92C462046D8
:10235800F8BD00BF6A9C01206B9C012008B50248AB
:10236800FFF71AFF08BD00BF101C050010B50C468A
:10237800044B1868FFF7C8F903460F2221460248A4
:10238800984710BDA4160120101C0500014B0360DE
:1023980000207047201C05008446002300E001331C
:1023A800074A12689A4208DD1A010649096801EBD2
:1023B80003108A5C6245F2D100E00020704700BF3C
:1023C800C82F050028CA002038B50C4B1B687BB104
:1023D8000C46FFF7E1FF054668B1C06828B13DF03B
:1023E80001FF10B12560002038BD6FF01200FBE737
:1023F8006FF00C00F8E76FF00100F5E728CA00203D
:1024080010B504462CF016FD0246034920462AF072
:10241800AFF8002010BD00BF581C050030B583B0D0
:10242800054613460022019201AA0A21586800F0C5
:102438003FFD019C24B92AF00DF8204603B030BDB9
:102448002246034928462AF0B1F8019CF5E700BF67
:10245800881C050008B5034A03492AF089F80020BA
:1024680008BD00BF881D0500901D05002DE9F0413D
:1024780082B0064615460023019301AA0A21A868DE
:1024880000F016FD019C9CB98046C3B2042B16D8F7
:10249800686829F0F7FD071E1BDB3AB25FFA88F37C
:1024A8000021084629F008FE204602B0BDE8F08168
:1024B80022460B4930462AF079F8019CF4E7C2B26B
:1024C800084930462AF072F830462AF0B0F801245C
:1024D800EAE76A68044930462AF068F8DDE700BF91
:1024E800BC1D0500E41D0500FC1D050010B50446D3
:1024F80006F094F80246074920462AF039F80649BA
:1025080020462AF035F82146044827F0BBFA002077
:1025180010BD00BF601E0500801E050029250100B2
:1025280070B58EB004460D46D0F89C603DF0BDFFF6
:1025380003463EF0E3FD214A1258944229D0204A2E
:102548004BB3009323461F4928462AF011F8D4E9D3
:102558000A23CDE9002394F90E30227B1A49284634
:102568002AF006F8202205A9204626F0ADFD0246ED
:10257800636E1649284629F0FBFF0DA920463DF059
:10258800D8FF024648B11249284629F0F1FF0EB09B
:1025980070BD104AD4E7104BD3E70D9BF11A6422A3
:1025A80001FB02F2B2FBF6F202920196009132466A
:1025B8000A49284629F0DCFFE9E700BF08000000C7
:1025C800541B0500901E05009C1E0500C81E050032
:1025D800E01E0500783305008C1E0500101F05005D
:1025E80070B590B005460024089409940A940B9499
:1025F8000C940D940E940F944FF020330893099384
:102608000A930B930C930D93ADF838300146144898
:1026180027F038FA14B1002010B070BD114E06EB47
:10262800C42607AA4FF4006130463DF071FF079AAF
:10263800C2F50061642301FB03F3DB0A05934FF441
:102648000063049303910292019308AB009323461D
:1026580032460549284629F08BFF0134DAE700BFE6
:102668007526010018A10120681F0500F0B589B082
:1026780004460D46D0F89C6007A93DF05AFFB8B94A
:1026880020463DF012FF0799771A642207FB02F2F1
:10269800B2FBF6F2034688B10492039602970191C1
:1026A800009622460649284629F062FF09B0F0BD87
:1026B80002460449284629F05BFFF7E7024BEBE79F
:1026C800B41F0500E01E05008C1E050010B503466A
:1026D8000C461146006808B1027822B9024A204621
:1026E80027F0EAFD204610BD1C20050070B586B015
:1026F800054605A826F08EF800EB8000059E06EB3F
:102708008006124A0821284629F024FF059C06E085
:102718000F4B104A0821284629F01CFF1434B442F4
:1027280011D2142269462046FFF7D0FF03460A4A11
:102738000821284629F00EFF20463DF053FD0028C9
:10274800E6D0064BE5E7002006B070BD382005004E
:102758002C2005004C2005004420050024200500FD
:1027680008B5102A12D0202A13D0082A06D00A4AFF
:10277800082129F0EFFE6FF0150006E00B78DBB2B8
:10278800064A082129F0E6FE002008BD0B889BB206
:10279800F6E70B68F4E700BFC4200500DC2005005D
:1027A80008B5029B102A0ED0202A10D0082A06D07D
:1027B800084A082129F0CEFE6FF0150002E0DBB2CE
:1027C8000B70002008BD9BB20B800020FAE70B605D
:1027D8000020F7E7C42005002DE9F04182B0044647
:1027E8000D46164610220021706827F007FE07469E
:1027F800022D20D84FF020084346164A08212046CB
:1028080029F0A8FE032D1ED910220021F06827F018
:10281800F5FD05460346104A0821204629F09AFE90
:10282800009500230193424639462046FFF7B8FF3A
:1028380002B0BDE8F0810A220021B06827F0DEFD71
:102848005FFA80F8D8E7424639462046FFF788FF06
:10285800EEE700BFF02005000821050038B5044662
:102868000D4611B10E4B1B785BB90D4A137883F0F6
:10287800010313705BB92946204629F0F4FE0020B5
:1028880038BD084929F092FE6FF00F00F8E70649B5
:10289800204629F06DFE024B01221A70EBE700BFBB
:1028A8006C9C01201C21050058210500F8B507463D
:1028B8000E4615460023244A1370244A1360244AFE
:1028C80013600CE000231C440222224920463EF0FB
:1028D80062FB98B91C4B01221A700435013E012E87
:1028E8001DD96C6802221C4920463EF054FB002882
:1028F800E8D1A378002BE6D00123E4E71649204667
:10290800FDF788FC50B123782D2B08D1637833B1BB
:1029180022461249384629F02BFEDEE7043500220C
:102928001146686827F0F4FC0D4B18600022114628
:10293800686827F0EDFC0B4B18600B493846FFF729
:102948008DFF0020F8BD00BF6E9C0120D816012025
:10295800DC16012088210500842105008C21050052
:10296800E4160120E01601207529010038B5054656
:10297800554B1B78182B01D0002305E00B78112B41
:1029880032D0002300E0013302F1FF3C9E469C4513
:1029980009D9CC5C182CF6D18E449EF80100112878
:1029A800F1D1012300E00023F3B911F80C20464BC4
:1029B8001A700A78A2F13003DBB2092B09D9A2F107
:1029C8006103DBB2052B04D9A2F14103DBB2052B6D
:1029D80005D83E490B683E48C25401330B603B4B57
:1029E8001B68022B5DD038BD3A4B1A683A49284615
:1029F80029F0BEFD00212846FFF730FF374B1B7832
:102A0800002BF0D113E0364D2A681068030A03F44E
:102A18007F4343EA1063040204F47F04234343EA38
:102A2800006342F8043B2A6004392A4B1960294B99
:102A380019680429E7DC11F0030F0FD1284B186837
:102A48000268130A03F47F4343EA1263110201F494
:102A58007F010B4343EA02630360C4E74B4201F082
:102A6800030103F0030358BF594202290FD0032979
:102A7800B9D11B4B19680B68C3F3074203F47F40B5
:102A880002431B0403F47F0313430B60ABE7144BAF
:102A980019680B68C3F307221B029BB213430B6030
:102AA800A1E7102200210A4827F0A8FC0D4A136864
:102AB80003F8010B1360074A136801331360034BD3
:102AC80000221A608FE700BF6D9C0120D8160120F4
:102AD800D4160120DC160120A42105006E9C0120DB
:102AE800E0160120E41601202DE9F04385B0804668
:102AF8000F4615461C46DE08002D5DD04FF0000C31
:102B080008E01CF807300CF110010DEB010C0CF873
:102B1800103C9446B54240D30CEB0602102A3CD830
:102B2800102C0DD0202C1BD0082CEAD0234A0821C9
:102B3800404629F00FFD6FF0150005B0BDE8F083A1
:102B48003CF807300CF11001694401F8103CC3F35C
:102B580007230CF111010DEB010C0CF8103CD8E720
:102B68005CF807300CF11001694401F8103CC3F31C
:102B780007200CF11101694401F8100CC3F3074058
:102B88000CF11201694401F8100C1B0E0CF1130131
:102B98000DEB010C0CF8103CBBE7A946102D28BF23
:102BA8004FF010094B466A463946404600F0D2F8C5
:102BB8001037A5EB09059FE70020BEE7C4200500F4
:102BC8002DE9F84306460D461446404B01221A608B
:102BD80001F00CFF4FF0FF374FF02009B8463C4A90
:102BE8002146284601F026FFB0F1FF3F51D0732857
:102BF8001FD0772835D0612803D06FF01500BDE8C5
:102C0800F88310220021334B186827F0F7FB07469A
:102C18000028E4D13EF072FA2F4B1B58162BDED158
:102C28002C4B1A682D49304629F0C0FC6FF015006E
:102C3800E5E700221146274B186827F0DFFB80469E
:102C48000028CCD13EF05AFA234B1B58162BC6D17C
:102C5800204B1A682249304629F0A8FC6FF015006D
:102C6800CDE7002211461B4B186827F0C7FB8146A9
:102C78000028B4D13EF042FA174B1B58162BAED1A0
:102C8800144B1A681749304629F090FC6FF015006C
:102C9800B5E7B7F1FF3F0AD0B8F1FF3F0ED05FFAB2
:102CA80089F3424639463046FFF71EFFA7E70E492B
:102CB800304629F07BFC6FF01500A0E70B49304641
:102CC80029F074FC6FF0150099E700BF68CA00206E
:102CD800FC210500701701200C000000C021050030
:102CE800D4210500E821050004220500242205005E
:102CF80010B504468168183100F0BEFAA168034A8D
:102D08001831204629F0FEFD10BD00BFE82305005C
:102D180010B504460A4929F02BFC0A49204629F037
:102D280027FC0949204629F023FC0849204629F0B8
:102D38001FFC074A0021204629F0E4FD002010BDB1
:102D4800F82305003824050098240500EC24050024
:102D580088250500F8B5054617461E460A46244943
:102D680029F006FC002409E02249284629F000FC45
:102D78000BE02149284629F0FBFB01340F2C0CDC21
:102D8800002C02DD14F0070FEED0B442F1D23A5D08
:102D98001A49284629F0ECFBEFE71949284629F09B
:102DA800E7FB002409E01349284629F0E1FB0BE082
:102DB8001449284629F0DCFB01340F2C13DC002CC5
:102DC80002DD14F0070FEED0B44207D23A5D0E4B85
:102DD8009B5C13F0970FEBD12E22E9E705492846B3
:102DE80029F0C6FBE8E70949284629F0C1FBF8BDE8
:102DF800A0250500541B05006C1B0500641B05007D
:102E0800701B0500F4250500CB4A0600A82505001F
:102E180010B5044613460A460146054801F080FDF0
:102E280023691B7903B910BD204629F024FCFAE771
:102E380097C603008C46034688B110B514468068CF
:102E480020B3154B984214D3144B984211D20368FF
:102E58001146604698472068C0B1204616E01049E0
:102E6800104A521ABCEB920F01D251F82C30184676
:102E780070470D4B984202D30C4B984207D3006819
:102E88000CEB8C0C00EB8C0003681BB110BD0CF133
:102E9800010CF5E71846F9E7BC160500BC16050055
:102EA800B4150500E0150500E0150500BC16050081
:102EB800F0B583B015460023019303782D2B19D064
:102EC80004463EF01BF90646104F0023C3510A463C
:102ED80001A9204627F092FAF359222B10D023B9E2
:102EE800019BA34201D01B7843B16FF015032B60FF
:102EF800002003E06FF015031360002003B0F0BD5D
:102F08006FF021032B600020F8E700BF0C000000E1
:102F180008B58368D3F8743213F0200F00D108BDC8
:102F28000249406929F0EFFBF9E700BFC416050024
:102F3800082915D814D008B5836893F83F208A4229
:102F480007D083F83F108368D3F8743213F0200F4A
:102F580000D108BD0A460349406929F0D4FBF8E7C7
:102F6800704700BFE425050008B50A1E09DD4123A6
:102F7800002A0ADB8168D1F8741211F0200F06D1FB
:102F880008BD002AFCD04223F2E75242F2E7024988
:102F9800406929F0B8FBF3E7F025050008B50A1EDB
:102FA80009DD4323002A0ADB8168D1F8741211F085
:102FB800200F06D108BD002AFCD04423F2E7524274
:102FC800F2E70249406929F09EFBF3E7F025050086
:102FD800F8B505468468B4F85020B4F8521004F1E6
:102FE800300029F074FBA78EE68E284629F099FB5D
:102FF80070B9B74211D0E18EA38EC91A2846FFF7DF
:10300800B3FF218E638EC91A2846FFF7C7FFF8BDA4
:103018000549686929F077FBEBE7218E638EC91AA9
:103028002846FFF7BBFFF2E7C42F05002DE9F84358
:103038000546846814F1560006D0FDF7FDF886B2FF
:1030480094F83C7000231BE00026F9E71C44224456
:1030580092F856904FF0000882F85680AA685033CC
:103068001A4406320F49686929F04DFBAB682344BE
:1030780083F85690AB685B8FDB1BF61A23464746EE
:10308800AA68548FE41BB442E0DB002E01DCBDE8E3
:10309800F88350331A4406320349686929F033FB30
:1030A800F5E700BFEC1C050054370500082921D8B6
:1030B80008B5836893F83E208A4209D083F83E1009
:1030C80008290CD08368D3F8743213F0200F00D18C
:1030D80008BD0A460849406929F015FBF8E78368E6
:1030E800D3F8743213F0200FF2D00449406929F064
:1030F8000AFBEDE7704700BFF8250500D01605006C
:1031080008B58368024A022129F0CEFB08BD00BF3A
:1031180054370500002979D02DE9F8438046164632
:103128000D460BB9002404E01146FFF737FFF9E715
:1031380001342B5D364AD35C13F0080FF8D156E002
:10314800D8F8140029F097FA3A462919404629F088
:103158005AFB09F101042F49D8F8140029F0C4FBDF
:1031680031464046FFF71AFF2919D8F8140029F00C
:10317800BBFB2849D8F8140029F0B6FBBDE8F88352
:1031880000278742F0D204EB070915F809300A2B0B
:10319800D6D00137F5E79A1996450DD90133E218CB
:1031A800A95C1B4A12F801C01CF0080FF3D00A29C9
:1031B80001D01F46EFE71F46D8F8140029F05BFA44
:1031C8003A462919404629F01EFB3C4400E00134E8
:1031D8002B5D0F4AD35C13F0080FF8D10D49D8F8CE
:1031E800140029F081FB31464046FFF7D7FE2846F8
:1031F800FDF722F880B2001BD8F80830B3F83AE09F
:10320800AEEB06078742BBD20023C8E7704700BF72
:10321800CB4A0600C42F050021B370B582B004461E
:103228001D46931D9EB20B46097809B902B070BDC0
:10323800019300920C4B0D4A082129F035FB65B12A
:10324800094B0B4A0821204629F02EFB0023324661
:1032580029462046FFF75EFFE8E70649606929F03E
:1032680043FBE3E7704700BF182605000426050066
:10327800481B0500C42F0500F0B583B005460E466F
:103288000F68AFB13846FCF7D7FF84B20334A4B255
:10329800084B00933B46084A0821284629F004FBBE
:1032A8000023224671682846FFF734FF03B0F0BDBB
:1032B8000024EBE7142605000C26050010B504468B
:1032C8008368D3F8743213F0200F07D1A368D3F8BA
:1032D800743213F0200F06D1002010BD0449406954
:1032E80029F04FFBF2E70349606929F04AFBF3E74D
:1032F800D8160500E016050008B58368D3F87432BF
:1033080013F0200F00D108BD0249406929F039FBAC
:10331800F9E700BFE816050008B58368D3F87432EA
:1033280013F0200F00D108BD0249406929F029FB9C
:10333800F9E700BFEC16050010B504468368D3F81A
:10334800743213F0200F07D1A36850225A87A3685C
:1033580018221A87002010BD0249406929F011FB84
:10336800F2E700BFF016050008B583691A6802493C
:1033780029F0FEF8002008BD1C26050070B582B0B3
:1033880006460B4929F0F4F80A4C00220AE0551CBD
:10339800ADB2636A0093A3680749304629F0E8F89C
:1033A80030342A46054B9C42F1D3002002B070BD50
:1033B8002C260500B415050044260500B4150500A3
:1033C80000B583B002290DD08368D3F8743213F0A6
:1033D800020F11D0094A0A4929F0CAF8002003B09F
:1033E8005DF804FB53680093064B1268064929F000
:1033F800DDF86FF01500F2E7044AECE7303305001A
:10340800802605005C260500742605005826050060
:1034180008B5024929F0D9F8002008BD0C1F05009D
:1034280070B582B00446002509E06E1CA36803F558
:10343800AB732A460B49204629F09AF83546A2680C
:103448000DF1060302F5AB720121E06829F064FB77
:10345800BDF80630002BE8D1A368002083F8560198
:1034680002B070BD942605002DE9F04383B00446F0
:103478000E46154600278DF803700F801780806868
:103488004FF48072394600F5AB703DF031FD484984
:10349800606929F076FA606929F0EDF8B846B8F560
:1034A8007A7F15D36FF073007BE04FF47A703CF0AD
:1034B80093FE08F101081FFA88F8F0E7522B1DD097
:1034C800A2683A4482F856310137BFB2092F62D850
:1034D80060680368D3F8109001AB01220DF1030175
:1034E800C847019B002BE0D09DF803301B2BE5D08B
:1034F800A26892F856211B2AE0D0E9E7A3683B446A
:10350800002283F85621A36893F857215B2A15D126
:103518000222A368134493F856113B2914D02B8830
:1035280003EB83035B009BB2013292B20B44303B46
:103538002B80FF2AEDD96FF0790032E0002283F862
:1035480056216FF004002CE0013292B2FF2A2BD8EA
:10355800A368134493F8561171B1338803EB8303BE
:103568005B009BB2013292B20B44303B3380FF2A9E
:10357800EED96FF0790014E03388FA2B01D9FA23D9
:1035880033802B88FA2B01D9FA232B80A3680020DB
:1035980083F8560105E0A368002283F856216FF0EE
:1035A8000B0003B0BDE8F0836FF00400F9E700BF3B
:1035B800E026050010B582B00446012904D129F09F
:1035C80084FA58B902B010BD536800930A4B1268C8
:1035D8000A4928F0EBFF6FF01500F3E7A3685022C3
:1035E8005A87A36818221A870549204628F0CFFF72
:1035F8006FF00700E6E700BF5C26050074260500AB
:10360800A026050010B5044629F025F8024603490E
:10361800204628F0ADFF002010BD00BFDC260500C5
:1036280070B54568066928683CF0DCFD00B3686839
:1036380050B13CF0D7FD002840D04FF40031281D90
:1036480029F0D6FA041E21DBE86858B13CF0CAFD1F
:10365800002836D04FF4B01105F10C0029F0C8FA53
:10366800041E1FDB30463CF0DAFE0024204670BD05
:10367800154B1B6813F0070F02D16FF01204F5E722
:10368800124A0121104828F09DFDF6E70E4B1B68F1
:1036980013F0070FEAD023460D4A01210A4828F003
:1036A8009BFDE3E7084B1B6813F0070FDED02346AA
:1036B800084A0121044828F08FFDD7E76FF012046B
:1036C800D4E76FF01204D1E758CD0020B42E0500DE
:1036D800CC2E0500F82E050008B5034827F05FFF3B
:1036E800024827F05CFF08BD602F0500982F0500F1
:1036F8002DE9F04182B000AF04465C4B1B6813F023
:10370800070F43D0D0F800E0D0F804C086686D46B3
:103718008AB06B4613F1100200F08E8014218AB132
:103728000846042903DDDFF84881C3F81480082817
:1037380001DDC3F818E00C2801DDC3F81CC010280F
:1037480000DD1E6213297ADD4FF0140C3AB1052111
:10375800397100217971B971F9717868186100219E
:103768006FF300016FF341016FF382016FF3C5013D
:10377800012363F38811CCF30A0C6CF353216FF324
:103788001F5100233948FEF749FAAD46374B1B68ED
:1037980013F0070F42D0D4F80CE0D4F810C06669D3
:1037A8006D468AB06B4613F110024BD014218AB1D2
:1037B8000846042903DDDFF8BC80C3F81480082814
:1037C80001DDC3F818E00C2801DDC3F81CC010287F
:1037D80000DD1E62132938DD4FF0140C3AB10521C3
:1037E800397100217971B971F9717868186100210E
:1037F8006FF300016FF341016FF382016FF3C501AD
:10380800012363F38811CCF30A0C6CF353216FF393
:103818001F5100231548FEF701FAAD46134B1B68EC
:1038280013F0070F14D1114B1B6813F0070F16D1B3
:103838000837BD46BDE8F0816FF000416FE76FF0D3
:103848001B0C83E76FF00041B1E76FF01B0CC5E775
:10385800E369094A0121054828F0BEFCE3E7A369AA
:10386800064A0121014828F0B7FCE1E768CD0020AD
:103878003C3005006C3005009C300500AC3005007C
:1038880038B504460D4611B10846FFF731FF012C43
:1038980004D02946204625F013F838BDEFF30583F8
:1038A800103B054A126812F0070FF2D0034A0121B3
:1038B800014828F091FCECE768CD0020DC300500D9
:1038C80030BFFFF7FDBF00BF38B50446054D2A4697
:1038D80005493DF000FB054A002160193DF008FB51
:1038E80038BD00BF00000000BC160500080000003D
:1038F80070B50646064D074B1D444C1B2046FFF786
:10390800E3FF083CC6F8A84005F1080070BD00BFF9
:103918000000000008000000074B9B6893F90E2088
:10392800002A08DB044A5269934204D0034A5368C8
:1039380043F0805353607047FC9B012000ED00E08A
:1039480081690D4B5A6942F480725A61BFF34F8FF7
:10395800BFF36F8F31F8021C5A6922F480725A61E2
:10396800BFF34F8FBFF36F8F4DF60273994201D0AB
:10397800002070470120704700ED00E0F8B51D46B3
:1039880000232B7002F07F43B3F17F4F28D1064606
:103998000F46144612F0010F24D112F0400F13D035
:1039A800114B1B6813F0070F05D114F0040F08D052
:1039B800384601230AE00D4A01210B4828F002FC91
:1039C800F3E73046012301E0002003464BB914F029
:1039D800080F01D0384604E0304601232B7000E080
:1039E8000020F8BD0020FCE768CD0020F03005007D
:1039F80008B5494B1B6813F0070F0BD1474B9B6A5F
:103A080013F0007F13D0444B1B6813F0070F07D146
:103A18001E200DE0424A01213F4828F0D3FBEDE784
:103A2800404A01213C4828F0CDFB1E2000E01D2023
:103A38003A4B9B6A13F0807F05D0374B1B6813F015
:103A4800070F3FD11F20354B9B6A13F4801F05D009
:103A5800314B1B6813F0070F3BD102202F4B9B6A99
:103A680013F4002F05D02C4B1B6813F0070F37D128
:103A780021202A4B9B6A13F4802F05D0264B1B6804
:103A880013F0070F33D12220244B9B6A13F4003F15
:103A980005D0214B1B6813F0070F2FD123201F4B94
:103AA8009B6A13F4803F05D01B4B1B6813F0070F6C
:103AB8002BD12420194A936A6FEA03436FEA134310
:103AC800936208BD184A0121134828F07BFB1F2088
:103AD800B9E7164A0121104828F074FB0220BDE717
:103AE800134A01210C4828F06DFB2120C1E7114A37
:103AF8000121094828F066FB2220C5E70E4A01216A
:103B0800054828F05FFB2320C9E70C4A0121024839
:103B180028F058FB2420CDE768CD002000ED00E018
:103B2800143105002C310500403105005C310500D9
:103B380088310500A8310500D0310500EC310500B9
:103B480008B500230B70064B1B6813F0070F00D154
:103B580008BD044A0121024828F034FBF8E700BFF9
:103B680068CD002018320500354B1B6813F0070F8D
:103B780064D0B0B582B000AF0F2924DC314D1039C4
:103B88006C4600233B7102237B718AB0EC461CF122
:103B980010021AD0122022B1042802DD2A4BCCF8D8
:103BA800143000233B7002237B70E2B103460828DF
:103BB80001DDCCF818500C2B01DDCCF81C100CF1F1
:103BC800200300210DE0214DD9E76FF00040E2E726
:103BD80001F1080505EB070E1EF808EC03F801EBE8
:103BE80001310129F4D9112825DD12234AB1042114
:103BF800397100217971B9710121F9717868CCF8AE
:103C0800100000216FF300016FF341016FF382018F
:103C18006FF3C501012060F38811C3F30A0363F34E
:103C280053216FF31F5100230548FDF7F7FFA54601
:103C38000837BD46B0BD6FF01B03D7E7704700BF1C
:103C480068CD00203C320500703205005432050072
:103C5800F8B506460F4615464F4B1B6813F0070F7D
:103C68000BD14E4B9B6A13F0100F13D04A4B1B68B5
:103C780013F0070F07D111240DE0494A01214648E6
:103C880028F0A0FAEDE7474A0121434828F09AFABC
:103C9800112400E01024414B9B6A13F0080F05D053
:103CA8003D4B1B6813F0070F1ED112243B4B9B6A38
:103CB80013F0020F2CD0384B1B6813F0070F1AD1E2
:103CC800364A536B926A12F0800F20D0324A12683B
:103CD80012F0070F15D1002F4DD0304A936A23F008
:103CE80080039362132413E02F4A01212A4828F005
:103CF80069FA1224DAE72D4A0121274828F062FAE6
:103D0800DEE72B4A0121244828F066FAE3E713246A
:103D1800224B9B6A13F0010F05D01F4B1B6813F051
:103D2800070F2AD114241D4B9B6A13F0200F05D0CE
:103D3800194B1B6813F0070F26D11524174B9B6AE4
:103D480013F0100F01D1154B9B6A144B9B6A13F0AB
:103D5800200F04D0114A536A23F4005353620F4AC8
:103D6800936A43F0FF0393620121304629F069F812
:103D780028702046F8BD1324CAE70E4A01210648D8
:103D880028F020FA1424CEE70B4A0121024828F033
:103D980019FA1524D2E700BF68CD002000ED00E035
:103DA800843205009C320500D0320500E43205005B
:103DB800FC3205001433050034330500F8B5064617
:103DC8000F461546504B1B6813F0070F0BD14F4B8E
:103DD8009B6A13F4805F13D04B4B1B6813F0070FDB
:103DE80007D117240DE04A4A0121474828F0EAF98B
:103DF800EDE7484A0121444828F0E4F9172400E097
:103E08001624424B9B6A13F4006F05D03E4B1B6887
:103E180013F0070F1ED118243C4B9B6A13F4007F44
:103E28002CD0394B1B6813F0070F1AD1374A936B04
:103E3800926A12F4004F20D0334A126812F0070F2A
:103E480015D1002F3CD0314A936A23F40043936282
:103E5800192413E0304A01212B4828F0B3F918241B
:103E6800DAE72E4A0121284828F0ACF9DEE72C4A87
:103E78000121254828F0B0F9E3E71924234B9B6A70
:103E880013F4806F05D0204B1B6813F0070F19D16E
:103E98001A241E4B9B6A13F4807F21D01A4B1B688F
:103EA80013F0070F15D11B24184A936A43F47F4374
:103EB80093620121304628F0C4FF28702046F8BDDF
:103EC8001924DBE7174A01210F4828F07BF91A2447
:103ED800DFE7154A01210C4828F074F91B24E3E7B1
:103EE8000A4B9B6A13F4005FDED0074B1B6813F084
:103EF800070F01D11C24D7E70C4A0121024828F0FA
:103F080061F91C24D0E700BF68CD002000ED00E077
:103F1800643305007C330500D0320500903305007A
:103F2800AC330500C4330500E03305003433050025
:103F380070B506460D46384B1B6813F0070F0CD1B9
:103F480000232B70354BDC6A14F0020412D0324B7C
:103F5800186810F0070006D170BD314A01212E48BB
:103F680028F030F9ECE72F4A0121184628F02AF901
:103F78000020F1E7294BDB6A002B14DB274BD86ABA
:103F880010F08040E8D0244B1B6813F0070F16D1BF
:103F98003046FFF7D5FCF8B11F4B1B6813F0070F2D
:103FA80013D13068D8E71C4B186810F00700D3D03D
:103FB8001D4A0121184628F005F92046CCE71B4A7E
:103FC8000121154828F0FEF8E2E73368184A012174
:103FD800114828F001F9E4E7104B9B6A13F0FF0F32
:103FE8000DD10E4B986A10F47F400ED10B4B9B6A93
:103FF800B3F5803FB0D33046FFF7FAFCACE72A466A
:1040080001213046FFF724FEA6E72A460121304663
:10401800FFF7D4FEA0E700BF68CD002000ED00E068
:10402800F833050010340500343405004434050025
:104038006434050030B58BB0204B5D68C5F30805C6
:10404800002383F31188BFF36F8F0DF12603FFF769
:1040580095FC04461A4B18600DF12702294628F0F2
:10406800F2FE9DF827300BB10BB030BD05460DF1BF
:10407800040C20686168A268E368ACE80F00206956
:104088006169A269E369ACE80F009DF826304BB17D
:10409800089BC3F308025AB96FEA53236FEA432314
:1040A800089305E0089B23F4FF7323F001030893AA
:1040B80001A92846FFF7E4FBD6E700BF00ED00E0C2
:1040C80048170120064B5A6942F010025A615A6992
:1040D80042F480625A615A6922F008025A617047B4
:1040E80000ED00E0EFF30880EFF3098101B57246B7
:1040F800FFF7A0FF01BD00BF002080F31488BFF3C5
:104108006F8F002080F30A8880F30B882BF017F854
:10411800002011490860BFF34F8F104880F30888CA
:1041280000F034F8202080F311880D484FF0AA01E0
:104138004FF400623CF086F809484FF400614018DB
:1041480080F30988EFF314800221084380F3148870
:10415800BFF36F8F00F018F994ED00E0C8C9012093
:1041680018A10120084BD3F89000C0F307200023C2
:1041780006E0054AC2F898300021C2F8A0100133C1
:104188008342F6DB704700BF00ED00E010B572B661
:10419800002484F31388FFF7E5FF234608E003F1C2
:1041A80020010E4A4FF0FF3042F821000133DBB204
:1041B8000F2BF4D9002308E003F16001074A4FF000
:1041C800FF3042F821000133DBB20F2BF4D962B67D
:1041D800BFF34F8FBFF36F8F10BD00BF00E100E04A
:1041E80008B50A4B9B68834202D03CF021FB08BD0E
:1041F800EFF30583002BF8D0054B5A6842F0805244
:104208005A605A6A22F400425A62EEE7FC9B012087
:1042180000ED00E00A4A9368C3F8AC006FF00A01A9
:10422800C3F8B01007494B6843F080534B60002334
:1042380083F31188BFF36F8F9368D3F8B00070478A
:10424800FC9B012000ED00E0114A936883F8B5005B
:10425800EFF31183202383F31288BFF36F8F536921
:1042680093600C4A4FF000615160D3F8A8100A4AD5
:10427800116020F0FF0093F8B5201043D3F8AC206C
:104288000021C3F8AC1082F31188BFF36F8F704719
:10429800FC9B012000ED00E00017012010498A680E
:1042A80082F8B5E04FF030001044EFF3098C80E855
:1042B800F01F74467046FFF7C7FFA64608498A688C
:1042C800864602F1300090E8F01F8CF3098802F16D
:1042D800000004B528F0F4FDBDE804407047000074
:1042E800FC9B01201EF0040F0CBFEFF30880EFF3D6
:1042F8000980816911F8021C0229FFD001B528F054
:1043080094FD01BD002807DB00F01F0240090123CE
:104318009340024A42F82030704700BF00E100E0B5
:1043280000280CDB00F01F024009012393402030D5
:10433800034A42F82030BFF34F8FBFF36F8F7047A7
:1043480000E100E0002808DB4901C9B200F1604043
:1043580000F5614080F80013704700F00F00490134
:10436800C9B2014B1954704714ED00E04209054BDE
:1043780053F8222000F01F00012303FA00F0104038
:10438800704700BF00E100E008B50B4B0B4A22F074
:104398007F029A60BFF34F8FBFF36F8FD3F88820E7
:1043A80022F47002C3F8882024F04CFC25F090FB1E
:1043B80000F058F824F0A2FC00ED00E00000010035
:1043C80010B4A2F12004104942F8081C21F00101A0
:1043D80042F8081C42F8203C019B42F81C3C029B16
:1043E80042F8183C039B42F8143C4FF0807342F8A3
:1043F800043C04650023C0F8AC30C0F8B430BC23DA
:1044080080F8B53010BC70477D13010000B50E462A
:1044180015460D4B9860D0F8A8200C4B1A60D0F8C0
:10442800983083F30B882C4686F309884FF00000F8
:10443800074B984720464FF000014FF000024FF01D
:104448000003044C204700BFFC9B012000170120FB
:10445800D3CE03007D130100014B10221A6170476F
:1044680000ED00E0002206E003F00F0309491944BB
:1044780020230B760132402A0ADC53B2002BF3DBEF
:1044880003F1604303F56143202183F80013F1E74A
:10449800704700BFFCEC00E008B5EFF30583103B64
:1044A800044A02EBC301496852F833008847FFF712
:1044B80033FA08BDBC12050070B582B00346164A2F
:1044C80092E8030000908DF8041013B31D46134CB6
:1044D80044263246002120463CF00AFD2B68236022
:1044E8006B686360AB68A360EB68E3602B6923616A
:1044F8006B696361AB69A361EB69E361084B1B6896
:1045080023620521684600F08FFB3146204600F003
:104518008BFB02B070BD00BFF81605000417012020
:104528004817012010B584B00A4C23460A4A0121D5
:104538000A4828F0C5FD0023019302930393084B12
:104548000193E41A0294012101A828F0BDFD04B0EA
:1045580010BD00BF0000042080C500208034050085
:1045680030CE0020024B034AC3F8C020704700BF7A
:1045780000ED00E0AAFF4400034BC3F89800C3F81D
:104588009C10C3F8A020704700ED00E00E4BC3F864
:104598009800C3F89800D3F89C000A7A60F30402E4
:1045A8000A72D3F8A020C2F34202087A62F34710D5
:1045B8000872D3F89C2022F01F020A60D3F8A030BA
:1045C80023F01F03CB60704700ED00E070B505468F
:1045D8000E46002400E00134A6421EDD04EB44032D
:1045E8009A0005EB830359680029F4D0A85828F0ED
:1045F800C1FC04EB84030B4A42F8230010F1160FA8
:104608000CD0094B1B78984209DA04EB840302EBBF
:1046180083010431FFF7BAFFDDE7002070BD6FF0BA
:104628001500FBE74C1701206F9C012010B50446CC
:104638000D4BD3F89030C3F30723013B984203D8BE
:1046480028F072FC204610BD084B1B6813F0070FBA
:1046580002D16FF01500F6E70346054A0121034829
:1046680027F0BAFDF5E700BF00ED00E060CD0020BF
:10467800903405002DE9F04F87B0814600910193F1
:104688001446002654E0684B1B6813F0070F02D14C
:104698006FF015040DE03346644A0121624827F0A3
:1046A8009BFDF5E7604B1B6813F0070F05D16FF012
:1046B8001504204607B0BDE8F08F3B465C4A01214F
:1046C800594827F089FDF2E7D84564D12946C0B298
:1046D80028F061FC2BE0574AC2F89870D2F89C3059
:1046E80003F01F0321F01F010B43C2F89C30294639
:1046F800E0B228F050FC044610F1160FD9D001346E
:1047080015E0013B4B49C1F89870D1F8A02002F0A0
:104718001F0223F01F031343C1F8A0302946E0B25B
:1047280028F039FC044610F1160FC2D001340136C6
:10473800009B9E42BDDA06EB46054FEA850A09EB67
:1047480085056F68002FF2D0019B23B1284628F019
:10475800FFFB002897D0394659F80A0028F00AFCD0
:10476800074610F1160F9DD084429BDD314BC3F8EC
:104778009800D3F89C2022F01F02C3F89800D3F8C1
:10478800A03043F01F0859F80A306968194401F14C
:10479800FF3B9A4298D09A429DD0D845B1D0013B70
:1047A8002449C1F89870D1F8A02002F01F0223F024
:1047B8001F031343C1F8A0302946E0B228F0EBFBF1
:1047C800044610F1160F3FF474AF0130194BC3F8CB
:1047D8009870D3F89C109DF8102061F304028DF8AE
:1047E8001020D3F8A030C3F34203D2B263F34712C8
:1047F8008DF8102059F80A306A681344029323F0A0
:104808001F03A8EB0B084344013B23F01F03059348
:1048180002A9C0B2FFF70AFF044610F1160F3FF4D1
:1048280048AF013483E700BF60CD0020B8340500ED
:10483800DC34050000ED00E010B5034C01232278BC
:10484800FFF718FF207010BD6F9C0120044B052254
:10485800C3F89420BFF34F8FBFF36F8F704700BF2B
:1048680000ED00E0BFF35F8F024B0022C3F89420F5
:10487800704700BF00ED00E038B51C4B1D681C4BAD
:10488800D3F89030C3F307239D422BD8FFF7EAFFF4
:10489800FFF768FE002407E0144B596801EB041188
:1048A800204628F041FB0134A542F5D8114805708F
:1048B80028F090FB10F1160F13D00E4B1A780C4B02
:1048C800D3F89030C3F307239A4207DA084BC3F8AA
:1048D80098200021C3F8A0100132F0E7FFF7B6FFD7
:1048E800002038BD4FF0FF30FBE700BF0035050062
:1048F80000ED00E06F9C012008B5024B1B6898474B
:10490800002008BD60170120034B1860034A937804
:1049180043F0020393707047601701202CCA0020EF
:1049280030B587B00D4611460024009401940294D6
:1049380003940494059402228DF80220044A0192FB
:10494800049005951A46684625F0BEFD07B030BDAF
:10495800D9D0030008B54FF0FF324FF0FF330248BB
:1049680028F0C1FB08BD00BF3CCA002008B50649B5
:1049780021F00701C1F1005202F58022034826F018
:10498800A5FC002008BD00BF2FD20120641701201C
:1049980038B50446FFF7DEFF22460821084826F00E
:1049A80045FB054620B1074824F0CAFA284638BD19
:1049B800002CF8D03CF0A2FB034B0C221A50F2E773
:1049C800641701203CCA00200C00000010B5044602
:1049D800FFF7C0FF2146034826F0D8FA024824F022
:1049E800AFFA10BD641701203CCA002008B500F0DA
:1049F800D3F801220260426000238360C360036130
:104A08000649416106490A6006490A60064A136078
:104A1800064A1360064A136008BD00BF0C1F050054
:104A28006CCA002068CA002078170120741701207A
:104A3800701701202DE9F04106460F46154600F093
:104A4800ABF80446C3681BB943691A78002A54D1E5
:104A58000023E360616857F821306361B14231DABD
:104A68005A1C62611A782D2A2CD19A1C62615A78D4
:104A7800A2602D2A2ED04AB9394B63612D212846D0
:104A88003CF04EFA002832D02D23A360D4F80880D9
:104A9800414628463CF044FAB8F13A0F32D0002893
:104AA80030D043783A2B38D00023236163691B78D0
:104AB80013B9636801336360204600F053F8A068B7
:104AC800BDE8F081264B6361204600F04BF84FF0BB
:104AD800FF30F5E79B78002BCDD101316160204B89
:104AE8006361204600F03EF84FF0FF30E8E72046CB
:104AF80000F038F84FF0FF30E2E75A1C42611B78AB
:104B08008360C3E763691B7813B963680133636023
:104B1800204600F027F83F20D2E763691A7832B1BF
:104B280023610F4B6361636801336360C4E76368A3
:104B380001336360B34203DA57F823302361F0E7A7
:104B4800074B63612B783A2B04D0204600F00AF813
:104B58003F20B5E7204600F005F83A20B0E700BF4F
:104B68000C1F05000268074B1A604268064B1A6062
:104B78008268064B1A60C268054B1A600269054BC9
:104B88001A6070476CCA002068CA00207817012094
:104B980074170120701701200048704750CA002080
:104BA800024B0122C3F840250020704700900340C3
:104BB80030B108B5034B800143F00103984708BDA5
:104BC800704700BF3017050000B585B0002301937A
:104BD8000293039344F25A53ADF804300223ADF81C
:104BE8000630039005238DF80A3028F091F9ADF8C6
:104BF8000800044B9B680C2101A8984705B05DF894
:104C080004FB00BF80CA002008B5024B1B68984708
:104C180008BD00BF80CA002008B5024B5B689847F2
:104C280008BD00BF80CA002028B108B511B1024AEA
:104C38009268904708BD704780CA002010B50024CC
:104C480005E0064B53F8340028F06DFA0134034BA5
:104C580003EBC40359680029F3D110BD70CA0020C2
:104C680010B9034B186870476FF08500704700BF94
:104C78007C17012010B9034B186070476FF085004E
:104C8800704700BF7C1701202DE9F04383B000AFC7
:104C9800814608B10E4621B94B4B6FF015021A60D8
:104CA800002600252C463BE0474B6FF015021A60A2
:104CB8000C37BD46BDE8F083434B6FF015021A6010
:104CC800F6E76FF0004C5DE000233B7002237B7039
:104CD800002A5FD1BCF10D0F70DD0E2342B1032015
:104CE800387100207871B8710120F871786808610E
:104CF8006FF300086FF341086FF382086FF3C5087C
:104D0800012161F38818C3F30A0363F353286FF38F
:104D18001F58002341462D48FCF780FFA546002474
:104D2800002EC5D019F8050029492144000926F0AC
:104D38003EFF0028B8DB611C19F80500244B53FA24
:104D480081F100F00F0026F032FF0028B4DB0234B6
:104D5800E4B20135013E3F2C01D8002EE0D11C4BB6
:104D680000221A55194B1B6813F0070F29D06C46FF
:104D78003A7102237B7188B0694611F11002A0D004
:104D88004FF00E0C002A9FD0BCF1040F9CDD114B94
:104D98004B6199E7BCF1080F01DD0D4B8B6101F107
:104DA8001C03002007E000F1080EBE441EF808ECC2
:104DB80003F801EB01300128F5D98BE76FF01B03ED
:104DC8008CE70024ACE700BF7C17012020CD002031
:104DD800801701204835050008B50D4B1B6823B125
:104DE8000C4B1B6813F0070F05D10A4B1B6813F017
:104DF800070F06D108BD084A0121064827F0E2F945
:104E0800F3E7064A0121034827F0DCF9F2E700BF7F
:104E18007C17012020CD002050350500683505009D
:104E280008B50A4B00221A60FCF736FD0028FBD1B2
:104E3800FCF78CFD064B1B6813F0070F00D108BD6B
:104E4800044A0121024827F0BDF9F8E77C17012040
:104E580020CD0020743505000023012B0ED8094A07
:104E680002EBC30252680AB10133F6E7054A42F879
:104E7800330002EBC3025160002070476FF01B0043
:104E8800704700BFC41701200146002300E001332A
:104E9800012B0BD8064800EBC3004268002AF6D065
:104EA800034A52F833208A42F1D100E000207047CB
:104EB800C41701202DE9F84F83460F46924608464D
:104EC800FBF7BAF980464FF0FF324FF0FF33204826
:104ED80023F0B6FF1F4B1C689C421DD00026B1462C
:104EE8000CE02A46E16838463CF055F808B92E46E9
:104EF800A146184B5B689C4210D0246884B1A56910
:104F0800AE42F6D8A845F4D3012DEAD97B5D2F2B04
:104F1800E7D0002BE5D0ECE70024DFE70024EDE73D
:104F28000B4824F00DF8B9F1000F0BD0CBF8009026
:104F3800BAF1000F09D0D9F81830CAF800300020AB
:104F4800BDE8F88F6FF00100FAE70020F8E700BF2E
:104F5800DCCD002094CA00202DE9F04182B069B36D
:104F6800054616460F460846FBF766F9012825D977
:104F78003B782F2B22D16B68002B40F08D800022CC
:104F8800394601A8FFF796FF041E25DB019B93F81D
:104F9800202012F0020F02D016F0120F7FD1DA692A
:104FA800116800297ED016F0400F3CD016F0020F91
:104FB8001DD052694AB34FF0010836E03B4B1B68DD
:104FC80013F0070F02D16FF0150443E0384A0121AE
:104FD800364827F0F7F8F6E7344B1B6813F0070F4D
:104FE80038D0344A0121314827F0ECF832E02F4B11
:104FF8001B6813F0070F02D16FF00C042AE02E4A49
:1050080001212A4827F0DEF8F6E7284B1B6813F041
:10501800070F02D16FF085041CE0284A01212348BC
:1050280027F0D0F8F6E74FF000086B60DB691B68E3
:105038003246394628469847041E0FDB2E72B8F1CF
:10504800000F07D0019BDB695B6900212846984760
:10505800041E12DB204602B0BDE8F081134B1B682A
:1050680013F0070F02D100236B60F3E72346144ABD
:1050780001210E4827F0B0F8F5E70C4B1B6813F038
:10508800070F02D100236B60E4E723460D4A012194
:10509800064827F0A1F8F5E76FF00F04DAE76FF09C
:1050A8001D04D7E76FF08504D4E700BF34CD002096
:1050B8008C350500A0350500B8350500E835050034
:1050C800083605002036050038B54368B3B10446F4
:1050D800DB69DB69A3B19847051E03DB0023636026
:1050E800284638BD084B1B6813F0070FF8D02B462D
:1050F800064A0121044827F06FF8F1E70025EFE799
:105108006FF08505ECE700BF34CD00203C36050084
:1051180010B543689BB1DB695B689BB19847041E77
:1051280001DB204610BD094B1B6813F0070FF8D0B0
:105138002346074A0121054827F04EF8F1E76FF0AA
:105148000804EEE76FF08504EBE700BF34CD0020DC
:105158005436050010B543689BB1DB699B689BB169
:105168009847041E01DB204610BD094B1B6813F04D
:10517800070FF8D02346074A0121054827F02CF8E5
:10518800F1E76FF00804EEE76FF08504EBE700BF86
:1051980034CD00206C36050010B543689BB1DB693F
:1051A800DB689BB19847041E01DB204610BD094B04
:1051B8001B6813F0070FF8D02346074A012105485A
:1051C80027F00AF8F1E76FF00804EEE76FF08504BE
:1051D800EBE700BF34CD00208436050010B54368E6
:1051E8009BB1DB691B699BB19847041E01DB204614
:1051F80010BD094B1B6813F0070FF8D02346074A68
:105208000121054826F0E8FFF1E76FF00804EEE712
:105218006FF08504EBE700BF34CD00209C36050015
:10522800F0B583B0002936D004460E460B78002B23
:1052380031D02F2B2FD14368002B5BD10768002F6B
:105248005BD131493046FAF7E5FF0546002830D0F2
:105258000022314601A8FFF72DFE051E3FDB019B0A
:10526800DA69126A002A4BD06360DB691B6A31462F
:1052780020469847051E2DDA002363602360234BE0
:105288001B6813F0070F25D02B46214A01211F4820
:1052980026F0A2FF1EE01D4B1B6813F0070F02D17A
:1052A8006FF0150516E01B4A0121184826F08AFF01
:1052B800F6E74FF0FF324FF0FF33174823F0C0FDF9
:1052C80000236360154A1368934206D0236012488E
:1052D80023F036FE284603B0F0BD3B46F6E70B4BFD
:1052E8001B6813F0070FF5D00D4A0121074826F077
:1052F80069FFEFE76FF00F05ECE76FF00F05E9E7DF
:105308006FF08505E6E700BFD036050034CD0020F4
:10531800D4360500B4360500DCCD002094CA002040
:10532800A035050038B50446436853B1DB699B6A6C
:10533800B3B19847051E07DB002363602360284646
:1053480038BD00250560FAE7074B1B6813F0070F07
:10535800F5D02B46054A0121034826F03DFFEEE72C
:105368006FF08505EBE700BF34CD0020F03605006F
:1053780038B504460D464FF0FF324FF0FF330A4868
:1053880023F05EFD204627F000FF48B92946204655
:10539800FFF762FD0446044823F0D2FD204638BDDD
:1053A8006FF07704F7E700BFDCCD0020034628B193
:1053B80029B18A6910449B5C13B1704770477047E4
:1053C80000487047D036050008B502490120FFF7AC
:1053D800CFFF08BDEC380500B0B582B000AF054678
:1053E8000469204627F073FF04F17C002BF083FD4D
:1053F80095F8203013F0080F29D00023C4F8FC30AA
:1054080004F5807023F09CFD2F4B1B6803F0070305
:10541800022B52D9E9686D4600233B7102237B7148
:1054280088B06C4614F1100216D00E201AB1042868
:1054380001DD264B636100233B7002237B70C2B100
:10544800082800DDA16104F11C0300210FE0D4F855
:10545800FC0026F0AEFFD0E76FF00040E6E701F170
:10546800080CBC441CF808CC03F801CB0131012915
:10547800F5D90D2825DD0E2342B10321397100210C
:105488007971B9710121F9717868206100216FF390
:1054980000016FF341016FF382016FF3C50103202F
:1054A80060F38811C3F30A0363F353216FF31F51A9
:1054B80000230548FCF7B2FBAD4600200837BD467F
:1054C800B0BD6FF01B03D7E748CD002010370500AB
:1054D800B0B582B000AF04460D4600F1FC01E8B259
:1054E800FCF772FF002809DBD4F8FC0030B126F085
:1054F800AFFF90B100200837BD46B0BD354B1B68E3
:1055080013F0070F02D16FF01200F4E72B46324A6E
:105518000121304826F060FEF5E72E4B1B6813F09A
:10552800070F50D0D4F8FC30DB6819686D460023AB
:105538003B7102237B7188B06C4614F1100211D0C4
:105548000E201AB1042801DD244B636100233B704F
:1055580002237B709AB1082800DDA16104F11C03C5
:1055680000210AE06FF00040EBE701F1080CBC44B1
:105578001CF808CC03F801CB01310129F5D90D2815
:1055880024DD0E2342B10321397100217971B971EB
:105598000121F9717868206100216FF300016FF330
:1055A80041016FF382016FF3C501012060F3881197
:1055B800C3F30A0363F353216FF31F510023054814
:1055C800FCF72CFBAD466FF0120094E76FF01B035D
:1055D800D8E700BF48CD0020203705003C3705003C
:1055E80008B512F0080F05D1FFF772FF002800DB9D
:1055F800002008BD074B1B6813F0070F02D16FF09E
:105608008500F6E71346044A0121024826F0E4FD26
:10561800F5E700BF48CD00205837050000B583B036
:1056280000900023019326F013FF6A46034928F0EF
:1056380071FE019803B05DF804FB00BFA1D203001E
:105648002DE9F04F87B000AF0446D0F814A0BAF1A6
:10565800000F01D14FF0100AD4F81890B9F1000FDB
:1056680001D14FF01009E569C1F3C00811F0080F26
:1056780007D1ADB1666AEEB1002E1DDC4FF0FF36E2
:105688001AE0874B1B6813F0070F02D16FF08500F3
:10569800F8E00B46834A0121814826F09DFDF5E795
:1056A800D4F8FC00FFF7BAFF05460028E2D16FF0F6
:1056B8001500E7E04FF40076D4F828B0BBF1000FEE
:1056C80001D14FF0400BE36AFB600BB92023FB606C
:1056D800D4F8FC008368B3FBF5F3BB6026F0B8FE92
:1056E8006F4B1B6803F00703022B6AD9D0F800E060
:1056F800D4F8FC30D3F804C0C7F804D000233B75B5
:1057080002237B758CB0694611F1100222D01E204D
:105718001AB1042801DD644B4B6100233B7402235A
:105728007B7442B30346082801DDC1F818E00C2B4E
:1057380001DDC1F81CC0102B03DDD7F808C0C1F883
:1057480020C0142B00DD4D62182B00DD8E6201F1A4
:105758002C030DE06FF00040DAE708F1080C07F1C0
:10576800100EF4441CF808CC03F801CB08F101082A
:10577800B8F1010FF1D91D2840F388801E2342B1EA
:105788000720387500207875B8750120F875786994
:10579800086100216FF300016FF341016FF382018B
:1057A8006FF3C501032060F38811C3F30A0363F3A1
:1057B80053216FF31F5100233948FCF72FFAD7F80C
:1057C80004D0374B1B6803F00703022B42D9E84685
:1057D8008AB06B4613F110025BD01820B2B10146B3
:1057E800042803DDDFF8C4C0C3F814C0082901DDAC
:1057F800C3F818A00C2901DDC3F81C90102901DD9D
:10580800C3F820B0142901DDF9685962172843DD6F
:105818004FF0180C3AB10621397500217975B97520
:10582800F9757869186100216FF300016FF3410180
:105838006FF382016FF3C501032363F38811CCF37F
:105848000A0C6CF353216FF31F5100231448FCF723
:10585800E5F9C546D4F8FC302360154B6360154B59
:10586800A360154BE360C4F814A0C4F81890C4F8FA
:1058780028B0FB68E362114B2361E561BB682362D2
:10588800666200201C37BD46BDE8F08F6FF01B0331
:1058980075E76FF00040A1E76FF01B0CBAE700BF97
:1058A80048CD002098370500D43705000838050092
:1058B8008BD403006FD403005BD4030081D20300B0
:1058C8002DE9F04182B000AF04460E461546364B2E
:1058D8001B6803F00703022B48D9E8468AB06B46D9
:1058E80013F1100257D01820E2B10146042803DD55
:1058F800DFF8B8C0C3F814C0082903DD4FF0020C64
:10590800C3F818C00C2903DD4FF0090CC3F81CC0FC
:10591800102903DD4FF0020CC3F820C0142901DD63
:1059280001215962172839DD4FF0180C3AB10621C8
:10593800397100217971B971F9717868186100219C
:105948006FF300016FF341016FF382016FF3C5013B
:10595800032363F38811CCF30A0C6CF353216FF320
:105968001F5100231048FCF759F9C546D4F8FC30FC
:10597800BBB92A4631462046FFF732FE002806DB2F
:1059880029462046FFF75CFE002800DB0020083788
:10599800BD46BDE8F0816FF00040A5E76FF01B0C35
:1059A800C4E76FF00F00F2E748CD0020303805005B
:1059B8002DE9F04383B000AF0546066906F5807807
:1059C80040463AF02CFD304627F081FC95F820201F
:1059D80069693046FFF774FF041EC0F2848006F13F
:1059E8007C04314620462BF082FA002876DA95F8B6
:1059F800203013F0010F71D113F0020F4FD15A4B21
:105A08001B6813F0060F32D1314620462BF06BFA93
:105A1800B0F1000932DB314620462BF068FA041E4B
:105A28004BDB514B1B6803F00703022B59D9E9687C
:105A38006D4600233B7102237B7188B0EC461CF154
:105A480010025BD00E2022B1042802DD474BCCF8AF
:105A5800143000233B7002237B70002A5BD0082897
:105A680001DDCCF818100CF11C03002151E00346AD
:105A78003F4A02213C4826F0AFFBC5E73A4B1B687A
:105A880013F0070F04D1484627F087FB044628E0A7
:105A98004B46384A0121344826F09EFBF3E7324B47
:105AA8001B6813F0070F02D16FF01D041BE0324A88
:105AB80001212D4826F086FBF6E72B4B1B6813F0D7
:105AC800070F04D1204627F068FB044609E0234667
