:10000000F0130120C9540000EB8C0200B55400002D
:10001000B5540000B5540000B554000000000000C5
:1000200000000000000000000000000095560000E5
:10003000B55400000000000061560000B5540000F7
:10004000855800008558000085580000855800003C
:10005000855800008558000085580000855800002C
:10006000855800008558000085580000855800001C
:10007000855800008558000085580000855800000C
:1000800085580000855800008558000085580000FC
:1000900085580000855800008558000085580000EC
:1000A00085580000855800008558000085580000DC
:1000B00085580000855800008558000085580000CC
:1000C00085580000855800008558000085580000BC
:1000D00085580000855800008558000085580000AC
:1000E000855800008558000085580000855800009C
:1000F000855800008558000085580000855800008C
:100100007BB972B90029BEBF00204FF0004106E064
:1001100008BF00281CBF6FF000414FF0FF3000F017
:1001200057B8ADF1080C6DE904CE002909DB002BAE
:100130001ADB00F069F8DDF804E0DDE9022304B021
:100140007047404261EB4101002B1BDB00F05CF883
:10015000DDF804E0DDE9022304B0404261EB410137
:10016000524263EB43037047524263EB430300F098
:100170004BF8DDF804E0DDE9022304B0404261EB16
:1001800041017047524263EB430300F03DF8DDF854
:1001900004E0DDE9022304B0524263EB43037047FD
:1001A00053B94AB9002908BF00281CBF4FF0FF31DE
:1001B0004FF0FF3000F00CB8ADF1080C6DE904CE43
:1001C00000F022F8DDF804E0DDE9022304B0704716
:1001D000704700BF10F8012B11F8013B012A28BF1E
:1001E0009A42F7D0D01A7047034611F8012B03F852
:1001F000012B002AF9D17047034613F8012B002A7E
:10020000FBD1181A013870472DE9F04786468C4615
:100210000846089E154674461946002B40F0C280D9
:100220008542B2FA82F245D94AB1C2F1200300FAFE
:1002300002FC2EFA03F3954043EA0C0C94404FEA7B
:10024000154EA8B2BCFBFEF8230C0EFB18CC08FB25
:1002500000F943EA0C43994528D9EB1808F1FF3718
:1002600004D2994502D9A8F102072B44A3EB090354
:10027000A4B2B3FBFEFC0EFB1C330CFB00F044EA03
:100280000344A04214D92C190CF1FF3304D2A0422C
:1002900002D9ACF102032C44241A43EA07401EB1F0
:1002A000D440002334607360BDE8F0874746DDE743
:1002B0006346F1E792BB431B01214FEA154EAFB2F3
:1002C000B3FBFEFC200C0EFB1C330CFB07F840EAD2
:1002D0000343984562D9EB180CF1FF3004D29845DE
:1002E00002D9ACF102002B44A3EB0803A4B2B3FB88
:1002F000FEFC0EFB1C330CFB07F744EA0344A74249
:100300004ED92C190CF1FF3304D2A74202D9ACF11B
:1003100002032C44E41B43EA0040C0E7C2F120037F
:1003200020FA03F1954090402EFA03F303434FEA7D
:10033000154EAFB2B1FBFEFC0EFB1C10190C0CFBF2
:1003400007F841EA0041884504FA02F422D9691805
:100350000CF1FF3004D2884502D9ACF102002944E7
:10036000A1EB08019BB2B1FBFEFC0EFB1C110CFBC8
:1003700007F743EA01439F420ED9EB180CF1FF3116
:1003800004D29F4202D9ACF102012B44DB1B41EAAB
:10039000004192E76046E3E76146F7E76046A3E77E
:1003A0006346B7E7834206D916B9002108467BE7C2
:1003B000C6E900E0F9E7B3FA83F78FB9834201D3C6
:1003C000724508D8BEEB020460EB030301209C4693
:1003D0001EB9002168E73846FAE7C6E9004CF8E79D
:1003E000C7F1200CBB4022FA0CF41C432EFA0CF18E
:1003F00020FA0CF3B84001434FEA14490EFA07F50E
:10040000B3FBF9F81FFA84FE09FB18300B0C08FB4C
:100410000EFA43EA00439A4502FA07F240D9E3187C
:1004200008F1FF3004D29A4502D9A8F10200234412
:10043000A3EB0A0389B2B3FBF9F809FB183308FBF5
:100440000EFE41EA03418E452CD9611808F1FF33B5
:1004500004D28E4502D9A8F10203214443EA0040A8
:10046000A0FB0298A1EB0E014145CE46434602D3C4
:1004700006D14D4504D2B9EB020E68EB04030138F6
:10048000002EA6D0B5EB0E0261EB030101FA0CFCC5
:1004900022FA07F34CEA0303F940C6E9003198E772
:1004A0004046C5E74346D9E72DE9F04F8DB00990A6
:1004B0000D46174639F0D5FF4B0143EAD06344019E
:1004C000241A63EB01039B0043EA9473A4002418ED
:1004D00043EB0101C90041EA5471C4F3103444EA0A
:1004E00041444FEAD139012D65D07D6829463C4809
:1004F000FFF770FE28B129463A48FFF76BFE002847
:1005000061D135A3D3E9002320464946FFF7F8FD22
:1005100080460A9130A3D3E9002320464946FFF7DD
:10052000EFFD15461C46304A002328462146FFF7BA
:10053000E7FD06460F462C4A002328462146FFF7D2
:10054000DFFD15461C464EF6602200232846214654
:10055000FFF7D6FD81460B914EF660220023284618
:100560002146FFF7CDFD15461C464FF47A72002355
:1005700028462146FFF7C4FD83468A464FF47A7227
:10058000002328462146FFF7BBFDCDE90623CDF821
:1005900010B0CDF814A0CDF808900B9A03920096F5
:1005A000019742460A9B1149099827F04DFA00200D
:1005B0000DB0BDE8F08F22464B460D49099827F053
:1005C00043FA0020F4E72A460A49099827F05AFA24
:1005D0006FF00400ECE700BF005C2605000000009F
:1005E00044B5030048B5030080EE36006CB5030047
:1005F00030B5030054B5030038B5374839F0D1FBA6
:10060000002860D04FF4D011344825F017F80122AB
:100610000821314825F02DF8314839F0C2FB002877
:1006200055D0304825F098FD25F042F843F23F358B
:10063000002229462DF0AFFE25F03AF80022FF21D6
:100640002DF0B0FE284C204635F0F7FE2749204615
:1006500036F04AF84FF000016FF304016FF34A11CE
:100660006FF3CF21204636F039F82946204635F081
:10067000ABFFFF21204635F0ADFF0A21204625F0D3
:1006800005F80A21204636F041F825F011F81EF051
:100690005DFD0546002221462DF08FFC14492846B9
:1006A0001FF02AFA00231A46092128462CF06AF97D
:1006B0001BF0E0F80A4824F090FF1BF0DBF80A205A
:1006C00024F0FCFFF9E70B4825F046FD38BD0A4849
:1006D00025F042FDFAE700BFBCAB03009CB003006D
:1006E00034AC030078B00300F0540020702E0400F6
:1006F0008CB0030038B003005CB003002DE9F0417A
:1007000084B0044688468268B2F5004F12D30827A9
:100710000837A2EBD7070137B7FA87F7C7F12007E9
:100720003B462146554825F017FD554825F014FD58
:1007300000262FE00427EBE755880AE0D2689142B3
:1007400012D0013304EBC202A068B0F5004FF3D31E
:1007500055684FEA550EBCEB550F00D8F446B0F57E
:10076000004FEBD2D288EAE79BB10122B240B0F54C
:10077000004F1AD3082101F1080002EBD002C1EBAF
:10078000CC010191CDF800C0013A31463D4825F039
:10079000E3FC0136BE420ADA331D54F82310002967
:1007A000F7D00A4600239C46CBE70421E3E7B8F1E3
:1007B000000F26D103AA02A9204625F0E2FBA36878
:1007C000DC00B3F5004F56D308231C440399631A89
:1007D000029A9B1A60084FF47A7505FB0300B0FB80
:1007E000F4F0294CA4FB0054E40804EB8405A0EBCE
:1007F000450001900094254825F0AEFC04B0BDE80A
:10080000F081234825F0A8FC002518E073881EE03D
:100810002A225B08B1F5004F29D32158691AE8183C
:100820000190009129461B4825F096FCA368AB4235
:10083000C0D0B3F5004F1CD3736805EB5305E80037
:1008400004EBC506A168B1F5004FDFD3736813F060
:10085000010FDDD1B1F5004F05D372685208012AAE
:1008600003D02D22D5E72D22D3E72E22D1E7215A1E
:10087000D4E77388E1E70423A7E700BFA4B003002F
:10088000D4B0030090B10300CDCCCCCCECB10300CC
:10089000ACB10300BCB103002DE9F04F91B005925B
:1008A0000293134602F004020092C3F3C20210F056
:1008B0000303019340F02D8280468A460132041DD5
:1008C00000284FD0B8F1000F05D0A4EB0803043383
:1008D000534500F22182029B5D1E019B0493069307
:1008E000039300264FF0FF3B0427B946B8F1000FF1
:1008F00001D0029B2360531E0793002A40F35F81BF
:10090000059B13F0020228D00120A4EB08018B08FC
:100910001AB1B1F5007F80F0058203990F2900F22A
:100920000482B8F1000F00F06281DBB201F14002F5
:100930006A4402F8103C02F820BC002800F0538101
:1009400063F07F0301F140026A4402F8103C049B0B
:1009500001330493039B0133039304340022CC46F8
:1009600040463DE001F0070A5444CAF1080AA9E7ED
:10097000002634E0002632E0002630E00827BC469E
:100980002DE025292BD10BF1010B01260427BC46B4
:1009900025E04729EED82A2914D32A39C9B24FF0C5
:1009A000010E0EFA01F14FF6DA7E11EA0E0F16D1A2
:1009B00011F0625F40F0C18011F0010F40F08C80B7
:1009C00000260CE0252903D10BF1FF3B002606E0B1
:1009D00001D9002603E0202901D02329CCD11D46CE
:1009E0006B1C6978002900F01B81002EC9D07A2980
:1009F000BED84C29CDD34C392E2961D80FF2040E24
:100A00005EF821F0DF090000C10A0000C10A000001
:100A1000C10A0000C10A0000C10A0000C10A0000AA
:100A2000C10A0000C10A0000C10A0000C10A00009A
:100A3000C10A0000D10A0000C10A0000C10A00007A
:100A4000C10A0000C10A0000C10A0000C10A00007A
:100A5000C10A0000C10A00003B0B0000C10A0000EF
:100A6000D10A0000D10A00003B0B00003B0B000044
:100A70003B0B0000DF090000D10A00007D090000E7
:100A8000C10A0000DF090000C10A0000970B000046
:100A9000D10A0000970B0000C10A0000C10A000043
:100AA0009F0B0000CB0A0000D10A0000C10A000021
:100AB000C10A0000D10A0000C10A0000C50A0000F6
:100AC00000268CE70427BC4689E70427BC4686E756
:100AD00029786C2925D000263C44013CB4FBF7F46E
:100AE00007FB04F4254620B1211A6144514500F268
:100AF0001681002A58D1BCF1040F00F08980BCF1A6
:100B0000080F40F015811A99073121F0070101F112
:100B100008051A95D1E9008908B1C4E900890834AB
:100B20005DE713F8021C6C2903D000260427BC469D
:100B3000D2E700260827BC46CEE729784C291AD0F0
:100B40001A99073121F0070101F108061A96D1E937
:100B50000067073424F0070440B1211A08315145D9
:100B600013D829784C2913D0C4E90067083400262B
:100B70000827BC4633E71A99073121F0070101F134
:100B800008061A96D1E90067E3E76FF01B00BDE0A5
:100B9000C4E90067EAE700260427BC469CE7324622
:100BA00000260427BC4697E72C46E14680461A9A61
:100BB000111D1A9112680292079A1D4696E6624B21
:100BC000029A9A4204D3614B9A420AD3002300E06E
:100BD0000023002B7FF494AE059B03F0020200205B
:100BE00093E60123F5E7069B01330693B2E610B1C5
:100BF0000AF1010AAEE6009B13B10AF1020AA9E666
:100C00000298FFF7F9FA00EB0A0303F1020AA1E6E2
:100C10001A990D1D1A95096800B121600434DEE6A9
:100C20008046231AB3F5806F80F0858090B1002252
:100C300002609B080370009B83B1069BC370049BFA
:100C400088F802301BBB019DDDF80C90DDF810B078
:100C5000029F3DE05344A3F1080057E0069B437018
:100C6000EDE701339842EED903F140026A4412F8ED
:100C7000101C12F9102C002AF3DA01F07F01A4EB0A
:100C800008020132524559D804F8011BE9E7019BDB
:100C90000398E7E7009B43B305F140036B4413F867
:100CA000203C04F8013B019EA4EB080333440133CC
:100CB000534546D805F140036B4413F8103C04F843
:100CC000013B32463946204639F01FFE3444013597
:100CD000A94519D9BBF1000FDCD005F140036B44E5
:100CE00013F9103C002BD5DAF1E705F140036B4412
:100CF00013F8103C58F82370002248F82320384697
:100D0000FFF77AFA461CCFE7A4EB080011B0BDE864
:100D1000F08F6FF00D00F9E76FF01B00F6E76FF052
:100D20001B00F3E76FF01500F0E76FF01500EDE73B
:100D30006FF01500EAE76FF01500E7E76FF01B00B2
:100D4000E4E76FF01B00E1E700AB030060D70400AD
:100D50002DE9F04F97B000AF8346BA613B61D7F8F9
:100D60008030C3F3C0033B62F96011B925F06CF920
:100D7000F8609BF80260B14636B1D7F8803013F0C6
:100D8000010F0DD1002300E000239BF803207A62BD
:100D900042B1D7F8802012F0020F22D1002202E0E7
:100DA0000123F2E7002202B9EBB19BF80050AA0040
:100DB000BA60DBF804207A610BEB8505BA69F2B101
:100DC000002B40F00581B9F1000F00F01081D7F839
:100DD000803013F0040F40F00E810020F8610646C9
:100DE000FAE00122DFE7BB691BB13A69F9685846AE
:100DF0009847FC6820465C37BD46BDE8F08FFC682C
:100E000053BB4D444FF00008D7F8803003F0050382
:100E1000FB604FF0000AC7F81080A046C7F81CB06E
:100E2000D7F804B0BEE00444013501364E45EBD29C
:100E30002A7800235BF822201946B86925F019F9B1
:100E4000BAF1000FEFD0D7F888309845EBD22AF8E6
:100E5000180008F10108E6E70026B046D7F884A09C
:100E6000E4E700253B6A7BB9002D7DD0D7F88030C0
:100E700013F0010F7DD1FB68002B73D10223A8EB87
:100E800003088CE00125EDE74946786925F037F93C
:100E90000028E9D0BB4B1B6813F0060F40D06C460E
:100EA000002387F82C30022387F82D308AB069465A
:100EB00011F1100237D012251AB1042D01DDB24B09
:100EC0004B61002387F82830022387F829306ABB5A
:100ED000112D44DD122362B1042087F82C0000207C
:100EE00087F82D0087F82E00012087F82F00F86A78
:100EF00008616FF3000B6FF3410B6FF3820B6FF31D
:100F0000C50B022161F3881BC3F30A0363F3532B60
:100F10006FF31F5B002359469A4800F0E7FDA54692
:100F2000A8F102083BE06FF00045C5E72B46082D0D
:100F300001DD786988610C2B01DDC1F81C9001F19D
:100F4000200300200128C3D800F1300C07F1280E3F
:100F5000F4441CF830CC03F801CB0130F2E76FF019
:100F60001B03B8E701238AE7D7F8803013F0020F9C
:100F700015D0002322461946B86925F07AF8D7F82B
:100F8000843053B13B69D7F88820934205D2D7F813
:100F9000842022F8130001333B61013880440AF1B8
:100FA000010A35467B6A9A4510D22E4616F8029BF6
:100FB0006B78FA6952F82340744B9C42FFF451AFAE
:100FC000734B9C42FFF45EAF00254BE7444611E7AC
:100FD00007F144000023FB6118B14A46294639F065
:100FE00094FC4D444FF00008C7F804901EE0002028
:100FF000F8610646F0E7FE6107F134000026EBE7F2
:1010000000253B6A33BB002D3BD0D7F8803013F06E
:10101000010F26D0731C06F1300207F12801561883
:1010200006F8149CDEB208F1010825467B6A984553
:101030004AD22C4614F802AB95F801905BF829309F
:10104000524A9342DCD3524A934201D30025D8E757
:101050000125D6E75146786925F051F80028D2D00D
:10106000E1E7D7F8803013F0040FDCD0FA69531CA5
:10107000303207F128010A4402F8249CDBB2FB61FC
:10108000D1E7D7F8803013F0020F09D0731C06F1B6
:10109000300207F12801561806F8149CDEB2C2E7A8
:1010A000F869431C00F1300107F128028A1802F8A0
:1010B00024AC02460232D2B2FA6107F1580252FA67
:1010C00083F303F8249CAEE7D7F804909BF8003034
:1010D00087F854309BF80130334487F85530D7F8FF
:1010E000803013F0020F0ED1FB69C3F3470387F87A
:1010F0005730D7F8803013F0010F06D113F0040FEA
:1011000048D1002302E00023F1E7002387F856309E
:10111000DBF800003863786DCBF80000D7F810805A
:101120004246B9685846D7F818A0D047041EFFF6C3
:1011300061AE386BCBF80000C7F810804246F96901
:1011400007F13400D047002857DB04EB0008B968EA
:1011500049447B6A01EB4301D7F810904A46FB688B
:10116000591A2846D047041EFFF644AE08EB040582
:101170004FF000087E62C7F820B05646D7F884B01A
:101180001FE000BF6408002034B2030000AB03007E
:1011900060D70400FB69B9E74FF0000A4A46012115
:1011A00007F12C00B047002829DB054453462246AE
:1011B0004946304624F05DFF002822DB054408F153
:1011C00001087B6A984511D208F1300307F1280223
:1011D000134413F8143C87F82C303A6A52F8234031
:1011E000BBF1000FD8D03BF818A0D7E73A6900212F
:1011F0000846BB6998472C46FCE50446FAE50446D8
:10120000F8E50446F6E500BF014B1860704700BFE3
:10121000C004002080B505460E461746984622F0C9
:101220008BFF034639F062FC0446DFF8189049F85A
:101230000030424639463046A84754F8090004F0C9
:10124000B3F900BF080000002DE9F04383B0044665
:1012500008461546238B13F0080F05D103F0070647
:1012600000230093019354E0012909D043F02003A7
:10127000238385F31188BFF36F8F03B0BDE8F0833C
:1012800043F010032383F4E7204625F0A6FA42E05A
:10129000D4F814904A466946204625F0B7FA4FF034
:1012A0000008238B03F00707B74269D0A268002A21
:1012B00066D0012243F00803238385F31188BFF32E
:1012C0006F8F002A64D1009B2BB14B463A4669468A
:1012D000204625F014FBB8F1000F02D03449204617
:1012E000C047EFF31185202383F31288BFF36F8F7C
:1012F000238B23F008032383238B13F0100F4DD08F
:1013000023F0100323830120268B06F00706002814
:10131000AFD00228B8D00028ABD0013804282BD891
:1013200001A353F820F000BF9112000079130000D0
:101330003D13000051130000651300002369D3F82A
:1013400000800621204625F01EFA4FF00009A8E78C
:101350002369D3F804800421204625F014FA4FF0C5
:1013600000099EE72369D3F808800521204625F06F
:101370000AFA4FF0000994E74FF00008C14690E7E1
:10138000009A0AB1002295E7B8F1000F92D1B3E7B5
:101390004A463946204625F0FEF994E713F0200F1F
:1013A00004D023F0200323830220ADE70020ABE725
:1013B0002D69020070B506460D46084C04E02A4629
:1013C0003146204698471034054B9C4204D223688E
:1013D0009B69002BF3D1F6E770BD00BF58AE030048
:1013E00078AE03002DE9F041074605460AE007EA1A
:1013F0000807144B03EB06135B68042219682046A8
:1014000000F044FBD5B195FAA5F6B6FA86F60D4C78
:1014100004EB06140123B3406FEA030825EA030531
:10142000237B002BEED03301064AD3581B69002BD7
:10143000DDD0204698470028E4D1D8E73846BDE8FB
:10144000F08100BF58AE03002DE9F04180460F4601
:10145000204BBFF35B8F53E8005F6A1C43E8002119
:101460000029F8D1BFF35B8F002D2FD11A4C002635
:1014700007E0636804221968204600F007FB013684
:101480001034164B9C4213D2237B002BF7D02368D9
:10149000DB680BB12046984723681B69002BE8D016
:1014A000204698470028E4D00123B3401D43E6E7D7
:1014B000B8F1000F0BD055B12846FFF793FF054652
:1014C000002FF8D00A2025F0C7FBF4E700252846B6
:1014D000BDE8F0810C55002058AE030078AE030043
:1014E00008B5064B186018B1054B1B68092B00DCCA
:1014F00008BD044822F08CF9FAE700BF005500202F
:10150000085500201009002008B5024822F080F993
:1015100008BD00BF1009002038B505460B4C00E09F
:1015200010340B4B9C420FD263685B79002BF7D0D1
:101530002946204625F0A6FB0028F1D023681B6829
:10154000294620469847EBE738BD00BF58AE030058
:1015500078AE030030B589B000220F490F4838F04B
:101560008FFF0F4D00220023CDE9062300240494B1
:101570000E2303930294019400940A4B4FF440729B
:101580000949284638F021FD0849284622F0B4F9D7
:10159000204609B030BD00BF09150000E80D00204D
:1015A000280900200519000040DF0020ECB20300EC
:1015B000014B53F82000704708B3030048B108B549
:1015C000054A1060054B1960084600F08FFD0020A9
:1015D00008BD6FF015007047C4040020FC540020C3
:1015E00008B5054B1B781BB1034B01221A7008BDCF
:1015F000024822F00DF9F7E7ECDE00201009002088
:1016000008B5104BBFF35B8F53E8001F013143E86F
:101610000012002AF8D1BFF35B8F30B90A4838F0C6
:101620003BFF0A4822F0F4F808BD094BBFF35B8F7B
:1016300053E8001F013943E80012002AF8D1BFF334
:101640005B8FEBE704550020E80D00201009002017
:1016500008550020064B00200146BFF35B8F53E87E
:10166000000F43E80012002AF9D1BFF35B8F7047E7
:101670000455002038B5FFF7EDFF0546094C00E0A2
:101680001034094B9C420BD263685B79002BF7D076
:1016900023685B68002BF3D0294620469847EFE784
:1016A00038BD00BF58AE030078AE0300034B186886
:1016B0000028D4BF00200120704700BF045500203F
:1016C00010B5044C0449204624F0ABFE034B1C60CB
:1016D00010BD00BF20080020F4B20300F854002021
:1016E00008B50023074A1370074A1360074A1360BE
:1016F0004FF400410648FFF761FFFFF7E1FF00F0FC
:101700006BF908BDEDDE00200455002008550020CF
:10171000516C020008B50146014825F0D5FA08BD14
:101720002008002008B5024824F05CFF08BD00BF77
:101730002008002008B50146024B186825F0CAFAB7
:1017400008BD00BFF854002008B5024825F0C6FACD
:1017500008BD00BF2008002010B582B00022002381
:10176000CDE90023284B187808B902B010BD6846AF
:1017700025F0CCFA044688B1244BBFF35B8F53E8C5
:10178000001F013943E80012002AF8D1BFF35B8F34
:101790002046FFF7C1FE2046FFF7CCFFFFF786FF8C
:1017A00058B91B4A1368516813F57A7341F1000167
:1017B00013605160FFF7C8FFD7E738F052FE4A01C7
:1017C00042EAD06243011B1A62EB0102920042EA34
:1017D00093729B001B1842EB0102D20042EA537243
:1017E000C3F3103343EA4243D20B0948016840680F
:1017F0005B1A62EB000240F2E9318B4272F10002A7
:10180000CFD3FFF737FFCCE7ECDE002008550020F0
:10181000E00D00200F4B1B7803B1704710B500217D
:101820000120FFF711FE0C4C00E010340B4B9C42E2
:1018300008D263685B79002BF7D023689B68204649
:101840009847F2E7FFF788FF0028FBD1014B012200
:101850001A7010BDEDDE002058AE030078AE030014
:1018600010B582B01A4BBFF35B8F53E8002F511CA9
:1018700043E800100028F8D1BFF35B8F154B1B78AD
:1018800063B9154B1B68B3B1BAB1092A13D1134818
:1018900038F002FE124821F0BBFF0CE0EFF3118498
:1018A000202383F31288BFF36F8FFFF755FF84F374
:1018B0001188BFF36F8F02B010BD00220023CDE965
:1018C00000234FF400420023044822F0E9FEF2E72F
:1018D00008550020EDDE002000550020E80D002016
:1018E0001009002010B50446044B1B689847A060FF
:1018F0002146034825F00EFA10BD00BFC4040020A5
:10190000200800202DE9F04100210846FFF79CFD4A
:10191000804650B140F26766002739F0E7F8154B72
:101920001858FFF7DDFD002515E04FF0FF364FF0AA
:10193000FF37F2E74046FFF755FD804670B94FF09C
:10194000FF364FF0FF3709E02C4632463B460A4847
:1019500021F086FF2546B8F1000FEBD1FFF7FCFE22
:1019600004460028F6D1002DEED000210846FFF7EE
:1019700021FDEAE70800000010090020014800EB03
:1019800081007047640800200248034BC01AC00859
:10199000704700BF58AE0300C8AD030010B50C4639
:1019A000FFF7F2FFA04203D9024B53F8340010BDF9
:1019B0000020FCE7C8AD030010B50C46FFF7E4FFBC
:1019C000A04204D9034B03EBC403187910BD0020D7
:1019D000FCE700BFC8AD030010B5002410E02146AD
:1019E0000020FFF7E9FF0A4A52F8243023F00703EA
:1019F00042F8243000F00700034342F82430013459
:101A0000044B054A9B1AB4EBD30FE8D310BD00BFBB
:101A10006408002058AE0300C8AD03002DE9F84368
:101A20000D4616469846002812DBC4B20023204615
:101A300025F0AAF9074610B1404500D947463B4674
:101A40003246E9B2204625F07FF93846BDE8F883F2
:101A50000C4B0D4AA3EB02094FEA19190024274643
:101A60000DE0094B03EB0413586843463246294600
:101A70000079FFF7D3FF874238BF074601344C4552
:101A8000EFD3E2E778AE030058AE030038B5044662
:101A90000D461146084BC31A1B11013342681371DE
:101AA0004368997125F0ACF963681D606368012291
:101AB0005A71FFF795FD38BD58AE030000B589B0E7
:101AC000059206930023079362B1074A0C9B029389
:101AD0000B9B01930A9B009305ABFFF739F909B003
:101AE0005DF804FB0022F1E7576E02002DE9F04F8C
:101AF0008BB004AF05461E468846C1F34A24002C2D
:101B000000F08F8091460022FA603A617A610423E6
:101B10000293FB1801930A23009307F10C0321465B
:101B20004846FFF715F9B0F5006F5ED3464B1B68CA
:101B300013F0060F00F08480D9F804106D460023DE
:101B40003B7302237B738AB004AC14F1100221D0E2
:101B500012201AB1042801DD3C4B636100233B7065
:101B600002237B70CAB10346082800DDA1610C2B5B
:101B700002DD40F2FF73E36104F12003002101293B
:101B80000BD801F118063E4416F8186C03F8016BE7
:101B90000131F4E76FF00040DBE7112822DD12236A
:101BA00042B10421397300217973B9730121F973AA
:101BB000F868206100216FF300016FF341016FF3BA
:101BC00082016FF3C501022060F38811C3F30A0399
:101BD00063F353210023C1F313011B4825F0AEF931
:101BE000AD462DE06FF01B03DAE760F35328C0F336
:101BF0000A0A0AEB1850173020F007008008FFF798
:101C000089FD8346B0B104230293FB1801930A2394
:101C10000093534600F1100221464846FFF74EFF5D
:101C200008E004EB1154173424F00704A008FFF770
:101C300071FD8346334642462946584625F021F930
:101C40001C37BD46BDE8F08F7C08002028B3030098
:101C50002DE9F04F85B080460D4617461E46DDF84B
:101C600038B0DDF84090B9F1000F46D0119B0393D6
:101C700000934B460F9A10210020FEF70DFEB0F5A1
:101C8000006F2DD282460BEB0003173323F00703BE
:101C900000246FF300046FF341046FF3820468F3D0
:101CA000C50467F3881460F353246BF31F5498083A
:101CB000FFF730FD074650B11030B9F1000F06D0E4
:101CC000119B00934B460F9A5146FEF7E5FD3346B4
:101CD00022462946384625F0D4F805B0BDE8F08FF5
:101CE000074B1B6813F0060FF7D040F2FF73054A4D
:101CF0000221034825F017F9EFE70020C2E700BFF3
:101D00007C08002068B30300406820B1034BC01A70
:101D100040F38F0070474FF0FF3070476408002099
:101D20000EB400B582B0014603AB53F8042B019307
:101D3000034803F00FFF02B05DF804EB03B07047F7
:101D4000736F020030B585B011F0440F05D01A4B07
:101D50001C6834B9002005B030BD1849FFF7E0FF1A
:101D6000F9E7174B1968B2FBF1F1B1FBF4FC154A26
:101D7000A2FB0C32D20A4FF4616E0EFB12CE124B54
:101D8000A3FB0E535B0904FB1C114FF47A7C0CFB84
:101D900001F1B1FBF4F504FB15110CFB01F1B1FBF2
:101DA000F4F102910195C3EB0311AEEB81010091B7
:101DB0000649FFF7B5FFCEE714550020A0B3030096
:101DC00010550020C5B3A29189888888ACB3030060
:101DD00061B108B52AB1064A52F8232012B9054A62
:101DE00000E0044A0449FFF79BFF08BD704700BFAD
:101DF00044B40300C8B3030058E603002DE9F041E2
:101E000005461746069EDDF81C8081B900242EB1D8
:101E1000324611492846FFF783FF0444B8F1000F0A
:101E200014D06FB1099B042B13D00C4909E00C4B63
:101E3000099A53F822200B49FFF772FF0446E6E7A0
:101E4000064942462846FFF76BFF04442046BDE89A
:101E5000F0810549F5E700BFE4B30300D4B3030004
:101E600058B40300DCB30300D0B303002DE9F04FF6
:101E700087B005460C46049205939DF84C7001F01E
:101E8000020B01F0010AC1F3C00801F4807924F0CB
:101E900047FF18B3024616492846FFF741FF06469A
:101EA000BBF1000F1CD13A465146284625F08CF86C
:101EB000B9F1000F01D0002311930397129B0293F5
:101EC000119B0193109B00930023049A41462846DE
:101ED000FFF794FF304407B0BDE8F08F0026DFE73E
:101EE000059A21462846FFF72DFF0644DBE700BF91
:101EF000E8B3030011F0100F0BD108B511F0200F5B
:101F000003D00449FFF70CFF08BD0349FFF708FFA2
:101F1000FAE77047A0CA03002CD604002DE9F0416F
:101F200005460F46164698460699FFF7E3FF00243C
:101F3000444505DA24492846FFF7F2FE0134F7E765
:101F4000002409E020492846FFF7EAFE0BE01F497C
:101F50002846FFF7E5FE01340F2C0CDC002C02DDD7
:101F600014F0070FEED0B442F1D23A5D184928467A
:101F7000FFF7D6FEEFE717492846FFF7D1FE00240A
:101F800009E011492846FFF7CBFE0BE0124928462D
:101F9000FFF7C6FE01340F2C13DC002C02DD14F019
:101FA000070FEED0B44207D23A5D0C4B9B5C13F0A6
:101FB000970FEBD12E22E9E703492846FFF7B0FE41
:101FC000E8E7BDE8F08100BFE0B30300F4B303002D
:101FD000ECB30300F8B303005CC0030051D6040067
:101FE0002DE9F04184B004469DF82C500C9F0E9EC4
:101FF00095B9012B1ED019484FF0000827B13B4678
:102000002246174924F04BF8C6B905BB204624F0F8
:1020100099FF04B0BDE8F08103950A9802900193FE
:1020200000920B4600220F992046FFF71FFF8046C3
:102030000C48E3E70B484FF00008DFE70F9B0093E5
:10204000434632460D99204624F0D6FFDDE72A4666
:102050000F99204624F0C4FFD8E700BFAB6F020001
:10206000555B0000736F02002DE9F04383B0064614
:10207000056842F20F738B4228BF0B46184A0521B0
:10208000684622F01DFF04467368D3F804900B27BE
:10209000DFF8508005E04A4639464046A8473F1AD7
:1020A0008044002FF7D17368D3F804806F4605E0B1
:1020B000424621463846A847241A0744002CF7D147
:1020C00073685F681B24084E05E03A462146304697
:1020D000A847241A0644002CF7D103B0BDE8F083CA
:1020E000D8CB030018B40300FCB30300074B012254
:1020F0001A6004E04008054A13685B001360044B53
:102100009842F7D8034B1860704700BF1055002065
:1021100040420F0014550020034B01221A70034B5C
:10212000034A1A60704700BFEEDE002040550020D1
:102130004455002008B5034B01221A70024824F0D0
:10214000A9FF08BDEFDE002098B40300014B196021
:10215000002070472C55002008B518B9074B002205
:102160001A7008BD064B1B7823B141F2883037F056
:1021700012FEF6E7052024F0A4FFF2E7EEDE0020D1
:10218000EFDE002038B504460A4B01221A700A4BD4
:102190001B782BB938BD651E2046FFF7DDFF2C46A6
:1021A000002020F041FF0028F4D0024B1B78002BC8
:1021B000F1D1EFE7EEDE0020EFDE0020F8B50646B5
:1021C0000D4604270DE02A463146002020F076FE19
:1021D000044614E03846FFF7D5FFDCB9114B1B78F5
:1021E000C3B1114B1B78002BEDD120F02DFF2A46F7
:1021F0003146002020F062FE044620F031FF002C22
:10220000E8D1084B1B78002BE7D0013F3846FFF799
:10221000A3FFE2E714B9034B1B7803B92C46204611
:10222000F8BD00BFEEDE0020EFDE002008B502485A
:10223000FFF71AFF08BD00BF98B4030010B50C46A5
:10224000044B1868FFF7B4F903460F2221460248F1
:10225000984710BD2C55002098B40300014B036033
:1022600000207047A8B4030010B5044628F0FDF81C
:1022700002460349204625F0E7FB002010BD00BFC1
:10228000D4B4030030B583B0054613460022019252
:1022900001AA0A21586801F07FFD019C24B924F0AD
:1022A00026FF204603B030BD22460349284625F0CC
:1022B000E9FB019CF5E700BF04B5030008B5034A3C
:1022C000034925F0C1FB002008BD00BF04B6030090
:1022D0000CB603002DE9F04182B0064615460023F6
:1022E000019301AA0A21A86801F056FD019C9CB93E
:1022F0008046C3B2042B16D8686824F05DFD071E23
:102300001BDB3AB25FFA88F30021084624F06EFD29
:10231000204602B0BDE8F08122460B49304625F048
:10232000B1FB019CF4E7C2B20849304625F0AAFB94
:10233000304625F0E8FB0124EAE76A6804493046A4
:1023400025F0A0FBDDE700BF38B6030060B6030050
:1023500078B6030010B5044606F034F90246074982
:10236000204625F071FB0649204625F06DFB2146ED
:10237000044821F0AFFF002010BD00BFDCB6030011
:10238000FCB603008923000070B58EB004460D46EC
:10239000D0F89C6037F008FE034638F0A7FB214ACE
:1023A0001258944229D0204A4BB3009323461F4928
:1023B000284625F049FBD4E90A23CDE9002394F906
:1023C0000E30227B1A49284625F03EFB202205A923
:1023D000204621F0A3FA0246636E1649284625F0EE
:1023E00033FB0DA9204637F023FE024648B11249BF
:1023F000284625F029FB0EB070BD104AD4E7104BDB
:10240000D3E70D9BF11A642201FB02F2B2FBF6F254
:1024100002920196009132460A49284625F014FBA3
:10242000E9E700BF08000000E0B303000CB70300B9
:1024300018B7030044B703005CB7030060CD030086
:1024400008B703008CB7030070B590B005460024B0
:10245000089409940A940B940C940D940E940F9480
:102460004FF02033089309930A930B930C930D9329
:10247000ADF838300146154821F02CFF14B100208A
:1024800010B070BD04EB4413114E06EB831607AA7F
:102490004FF4006106F1400037F0B9FD079AC2F52C
:1024A0000061642301FB03F3DB0A05934FF400632F
:1024B000049303910292019308AB009323463246A2
:1024C0000449284625F0C0FA0134D7E7D924000092
:1024D000C0EA0020E4B70300F0B589B004460D4619
:1024E000D0F89C6007A937F0A3FDB8B9204637F0B3
:1024F0005BFD0799771A642207FB02F2B2FBF6F242
:10250000034688B1049203960297019100962246F1
:102510000649284625F098FA09B0F0BD024604495C
:10252000284625F091FAF7E7024BEBE730B80300B5
:102530005CB7030008B7030010B503460C4611460C
:10254000006808B1027822B9024A204622F0B8FC9D
:10255000204610BD98B8030070B586B0054605A8A2
:1025600020F092FD00EB8000059E06EB8006124AEB
:102570000821284625F05AFA059C06E00F4B104A20
:102580000821284625F052FA1434B44211D21422FC
:1025900069462046FFF7D0FF03460A4A082128462D
:1025A00025F044FA204637F0FCFB0028E6D0064B25
:1025B000E5E7002006B070BDB4B80300A8B803007A
:1025C000C8B80300C0B80300A0B8030008B5102ABB
:1025D00012D0202A13D0082A06D00A4A082125F052
:1025E00025FA6FF0150006E00B78DBB2064A0821E9
:1025F00025F01CFA002008BD0B889BB2F6E70B689B
:10260000F4E700BF40B9030058B9030008B5029BC6
:10261000102A0ED0202A10D0082A06D0084A0821F5
:1026200025F004FA6FF0150002E0DBB20B70002019
:1026300008BD9BB20B800020FAE70B600020F7E793
:1026400040B903002DE9F04182B004460D4616461C
:1026500010220021706822F0D5FC0746022D20D8F8
:102660004FF020084346164A0821204625F0DEF99F
:10267000032D1ED910220021F06822F0C3FC05466C
:102680000346104A0821204625F0D0F90095002382
:102690000193424639462046FFF7B8FF02B0BDE835
:1026A000F0810A220021B06822F0ACFC5FFA80F8C9
:1026B000D8E7424639462046FFF788FFEEE700BFDD
:1026C0006CB9030084B9030038B504460D4611B156
:1026D0000E4B1B785BB90D4A137883F0010313701E
:1026E0005BB92946204625F02AFA002038BD084962
:1026F00025F0C8F96FF00F00F8E70649204625F0ED
:10270000A3F9024B01221A70EBE700BFF0DE0020B4
:1027100098B90300D4B90300F8B507460E4615462C
:102720000023244A1370244A1360244A13600CE0E7
:1027300000231C4402222249204638F033F998B97C
:102740001C4B01221A700435013E012E1DD96C6804
:1027500002221C49204638F025F90028E8D1A37848
:10276000002BE6D00123E4E716492046FDF732FDB1
:1027700050B123782D2B08D1637833B1224612490A
:10278000384625F061F9DEE7043500221146686815
:1027900022F0C2FB0D4B186000221146686822F03F
:1027A000BBFB0B4B18600B493846FFF78DFF002031
:1027B000F8BD00BFF2DE0020605500206455002007
:1027C00004BA030000BA030008BA03006C550020E5
:1027D00068550020D927000038B50546554B1B78B1
:1027E000182B01D0002305E00B78112B32D00023E9
:1027F00000E0013302F1FF3C9E469C4509D9CC5CC8
:10280000182CF6D18E449EF801001128F1D1012335
:1028100000E00023F3B911F80C20464B1A700A7837
:10282000A2F13003DBB2092B09D9A2F16103DBB2BB
:10283000052B04D9A2F14103DBB2052B05D83E4993
:102840000B683E48C25401330B603B4B1B68022BA4
:102850005DD038BD3A4B1A683A49284625F0F4F85D
:1028600000212846FFF730FF374B1B78002BF0D1B3
:1028700013E0364D2A681068030A03F47F4343EAE5
:102880001063040204F47F04234343EA006342F824
:10289000043B2A6004392A4B1960294B1968042922
:1028A000E7DC11F0030F0FD1284B18680268130AF8
:1028B00003F47F4343EA1263110201F47F010B43E7
:1028C00043EA02630360C4E74B4201F0030103F0F3
:1028D000030358BF594202290FD00329B9D11B4B1A
:1028E00019680B68C3F3074203F47F4002431B04DB
:1028F00003F47F0313430B60ABE7144B19680B68B9
:10290000C3F307221B029BB213430B60A1E7102203
:1029100000210A4822F076FB0D4A136803F8010BE8
:102920001360074A136801331360034B00221A60D7
:102930008FE700BFF1DE0020605500205C550020CD
:102940006455002020BA0300F2DE00206855002004
:102950006C5500202DE9F04385B080460F461546A2
:102960001C46DE08002D5DD04FF0000C08E01CF87E
:1029700007300CF110010DEB010C0CF8103C9446E3
:10298000B54240D30CEB0602102A3CD8102C0DD0D7
:10299000202C1BD0082CEAD0234A0821404625F0E1
:1029A00045F86FF0150005B0BDE8F0833CF807303E
:1029B0000CF11001694401F8103CC3F307230CF13A
:1029C00011010DEB010C0CF8103CD8E75CF8073056
:1029D0000CF11001694401F8103CC3F307200CF11D
:1029E0001101694401F8100CC3F307400CF1120106
:1029F000694401F8100C1B0E0CF113010DEB010CD6
:102A00000CF8103CBBE7A946102D28BF4FF0100969
:102A10004B466A463946404600F032FF1037A5EB78
:102A200009059FE70020BEE740B903002DE9F84300
:102A300006460D461446404B01221A6003F0A0FAE8
:102A40004FF0FF374FF02009B8463C4A2146284650
:102A500003F0BAFAB0F1FF3F51D073281FD07728A6
:102A600035D0612803D06FF01500BDE8F88310223F
:102A70000021334B186822F0C5FA07460028E4D13C
:102A800038F034F82F4B1B58162BDED12C4B1A681C
:102A90002D49304624F0F6FF6FF01500E5E70022DF
:102AA0001146274B186822F0ADFA80460028CCD199
:102AB00038F01CF8234B1B58162BC6D1204B1A6834
:102AC0002249304624F0DEFF6FF01500CDE70022EA
:102AD00011461B4B186822F095FA81460028B4D1A4
:102AE00038F004F8174B1B58162BAED1144B1A684C
:102AF0001749304624F0C6FF6FF01500B5E7B7F16F
:102B0000FF3F0AD0B8F1FF3F0ED05FFA89F342468B
:102B100039463046FFF71EFFA7E70E49304624F03E
:102B2000B1FF6FF01500A0E70B49304624F0AAFF73
:102B30006FF0150099E700BF5005002078BA030038
:102B4000B45E00200C0000003CBA030050BA030041
:102B500064BA030080BA0300A0BA030010B50246AD
:102B6000034653F8584B4021C16403630023C363F9
:102B70008363436383644364036400F1500108206A
:102B8000D0621161D36193615361936253621362A6
:102B9000C2F8D0300349204624F0CFFA204624F072
:102BA000E6FA10BDEF7202002DE9F04383B08046D3
:102BB0000F464FF000090BE06FF057044FF001098A
:102BC0002146284623F095FF002C32D0B44230D164
:102BD00007F13005FA6C01A9284623F069FF064683
:102BE00070B10199D8F808301B69002BE4D0024677
:102BF0004046984704460028E2D04FF00109DFE73D
:102C0000114B1B6813F0060F0AD1D8F808301B6966
:102C100063B101220DF10301404698470446D3E712
:102C20000A4A0221084824F074F9EEE76FF05704CD
:102C3000CCE7B9F1000F03D07B68B9680020984752
:102C400003B0BDE8F08300BF9808002064BC030017
:102C500000B583B0094837F0A4F860B104230093AD
:102C60000123074A12680549064800F0BBFE002010
:102C700003B05DF804FB6FF01200F9E7E4AB03006A
:102C80007CBC030078AE030083681975022900D06C
:102C9000704710B5044683689B6C03B110BD24F0E7
:102CA00040FBA368D3F8783213F4805F03D1204649
:102CB00025F066FAF2E7054B054A0321204625F088
:102CC000C2F90021204624F0E1FBF0E728BD030013
:102CD00058E6030010B5044624F0BBFBA3685B6C08
:102CE00013B1014620469847A3680022C3F8202369
:102CF00037F0FCFE014B185802F056FC08000000AB
:102D000008B58368D3F8743213F0200F00D108BDE2
:102D10000249406924F0C5FCF9E700BFB0AF0300E9
:102D200010B504468168183101F02AFBA168034AF6
:102D30001831204625F0F8FB10BD00BF6CBD030024
:102D400009B10020704710B5044683689B69054AA5
:102D5000012125F078F92046FFF7E2FF6FF015001A
:102D600010BD00BF7CBD0300F8B504461646806860
:102D7000426A72B10D4690F8282092B390F829303B
:102D8000FF2B25D0AA4226D81344AB4248D20021BB
:102D900022E0ABB15A68002A44D0C1698A420AD005
:102DA00000F1180E9C46BCE80F00AEE80F00DCF8FE
:102DB0000030CEF800302046FFF7B2FF01272DE0AB
:102DC0001A4A0121204625F03EF96FF0070725E059
:102DD0004FF6FF73D6E700212046FFF7B1FF074605
:102DE000E0B90121204624F0B1FBA06800F5437052
:102DF00020F0D0FCA3685B6A3246294620469847FB
:102E00000746A06800F543704FF0FF324FF0FF33E4
:102E100020F040FC0021204624F098FB3846F8BD05
:102E20000121D9E76FF00707F8E700BF98BD03005D
:102E300091B110B504460846D36803B910BD2046C9
:102E400025F05EF8204601F0A3F8044A012120464F
:102E500025F0F9F80020F1E701207047B8BD030024
:102E60002DE9F047A6B00646542200210CA837F001
:102E700074FD00230693059304934FF0FF330393EF
:102E8000B36803F1560A304625F03AF8304624F08C
:102E9000C9FFC8B1B36800279F61DF611F625F622D
:102EA0009F62304624F043FFB168B1F8502056319C
:102EB000304624F00DFC304625F083FD0897B846D7
:102EC0000CACB9463D465BE06C49706924F0E9FB07
:102ED000E0E700286AD00346694A0121304625F020
:102EE000B2F86FF00700A1E0206801F06BFA00284B
:102EF0005FD0089B5BB1B468183407AD0FCD0FC429
:102F00002B6823603046FFF70BFF01208EE05D4AFF
:102F10000121304625F097F86FF0070086E022681F
:102F20002946304625F072FD022868D0032843D098
:102F3000069B013306934FF0010921E021AA216885
:102F4000384624F09FFE054639E0069B93B9B368E6
:102F5000DB6A23B1DB6813B14FF0010848E04A4B4C
:102F600000930C9B494A0121304625F06CF84FF044
:102F700001083DE04FF001083AE0069B013306935B
:102F8000049B012B3BD0069B132B38D8039B002BB3
:102F900035D002235246214604A800F05DFED4F845
:102FA00004A0049B002B63D0012B92D0069B002B26
:102FB0009AD1069B002BB2D1B8F1000FBED00434D9
:102FC000039B013B0393002DBFD02A464946304660
:102FD000FFF72EFF00284ED0B16803AB019305AB7D
:102FE000009306AB07AA1831284624F0B8F92F46FB
:102FF000039B002BC1D1049B022BC1D1BDE7069BD3
:10300000132B02D9049B022B13D0B9F1000F19D155
:1030100017B17B7CFE2B20D0059907AB0CAA02EBE5
:1030200081020698411A3046FFF79EFE26B0BDE8A1
:10303000F087174B174A0121304625F004F86FF04E
:103040000700F3E7304625F0F4FCB268142356324B
:103050000CA906A800F000FEDAE7069B26AA02EB00
:10306000830252F8682C002AD6D001330693D3E7A6
:103070006FF00700DAE76FF00700D7E7A0CA030098
:10308000E8BD030098BD030004BE0300FCBD0300BF
:1030900018BE030068B50300F0B583B004461D46B2
:1030A0008068B0F85030FF2B49D00F461646B0F874
:1030B000522000F1560100F5AB7037F026FCA368F2
:1030C000B3F852201344002283F85621A268142337
:1030D00002F5AB723168284600F0BEFD2B68142B58
:1030E00030D83268002142F82310A368B3F8522088
:1030F000D2B1013A134493F85630144AD35C03F02A
:1031000008032C6894B113B9012C0FD0013C0020A6
:103110000190099B0093089B3268214624F0D5FD5D
:10312000386048B101200BE00023EAE70023089A49
:1031300013603B60012003E034B9012000E000206F
:1031400003B0F0BD0020FBE70020F9E751D60400F2
:10315000F8B504460E461F4672B31046FDF74CF80C
:1031600085B2A26818323946304600F09BFD0668E9
:1031700026B33046FDF740F880B2A84220D1A268BD
:10318000B2F85230134493F856301649CB5C13F022
:10319000080F21D1D2F8743213F0010F17D000219B
:1031A000204624F013FA2021204624F097FF012125
:1031B000204624F00BFAF8BD0025D2E70020DCE71A
:1031C000421B92B27119204624F0A4FFD7E72021B8
:1031D000204624F083FFEEE70121204624F03DFE47
:1031E000E9E700BF51D604002DE9F04182B0064660
:1031F00049B30F46023294B2D0F80880B8F83A507A
:10320000023D95FBF4F5ADB20846FCF7F5FF80B240
:10321000241AA4B2B8F840305A1CA8F84020B3FBD6
:10322000F5F205FB12339BB293B900970C4B0D4A94
:103230000621304624F007FF2146304600F064FEA8
:1032400002B0BDE8F08183680022A3F84020F7E7D0
:103250003B46054A0621304624F0F5FEECE700BF68
:103260003CBE030040BE030058E603002DE9F84FC2
:10327000074689461D460A9EBDF82CB0904652B1BD
:103280001046FCF7B9FF1FFA80FA5A46002138466B
:10329000FFF7AAFF08E04FF0000AF6E75A46216858
:1032A0003846FFF7A1FF013EA6B1BA681832294699
:1032B000484600F0F7FC04460135B8F1000FEDD0A8
:1032C00000680028EAD05246414637F06BFB0028E0
:1032D000E4D0E9E70449786924F0E3F9384624F0BA
:1032E0004FFFBDE8F88F00BFA0CA030010B5044629
:1032F000013916290FD8DFE801F00C0F1226292C0E
:103300000E0E0E0E2F320E4C0E500E0E0E0E540ED2
:10331000610024F0ECFD10BD24F0FDFDFBE724F07E
:10332000EFFD204624F07EFD40B10121204624F02F
:103330002DF902212046FFF7A7FCECE7234960693D
:1033400024F0AFF9F1E724F0E9FEE4E724F0D8FD3A
:10335000E1E724F0EBFDDEE724F0F5FDDBE7836831
:10336000D3F8743213F0200F09D1A368D3F8743264
:1033700013F0200F08D1204624F002FFCBE71449B8
:10338000406924F08EF9F0E71249606924F089F968
:10339000F1E7002124F098FABDE7012124F094FA26
:1033A000B9E724F0A4FD204623F0BBFF012120460D
:1033B00024F0ECF82046FFF7A3FCACE700F090FE09
:1033C0000121204624F0E2F8A5E700BFA0CA0300CF
:1033D000B8AF0300C0AF030070B586B00446002349
:1033E0000593A3689D6CF5B1606803681E6905AB21
:1033F00010226946B047059B9BB10121204624F06D
:10340000A5F8059A69462046A8470021204624F0E1
:103410009DF8A3689B6C002BE3D102212046FFF7A7
:1034200033FC06B070BD606803681D6905AB0122FE
:103430000DF11301A847059B002BF2D09DF8131046
:103440009DF91330002BCCDBA268537D032B00F2D7
:103450005081DFE813F00400B800CA004B01204699
:1034600023F0A7FF002841D19DF813101B2953D842
:103470001B2900F28E8001A353F821F0E3330000F2
:10348000933500009335000093350000933500001C
:103490009335000093350000933500006D35000032
:1034A0004F35000093350000933500009335000040
:1034B00093350000933500009335000093350000EC
:1034C00093350000933500009335000093350000DC
:1034D00093350000933500009335000093350000CC
:1034E000933500009335000047350000A568B5F816
:1034F00050305BB9204624F0E2F87F49606924F03F
:10350000D0F802212046FFF7BFFB6AE72046FFF70D
:10351000A7FCC5F82403F4E77F293AD1A368D3F8C0
:10352000743213F0020F3FF45CAF0121204624F007
:103530002DF8A368D3F8743213F0080F25D0204675
:1035400024F00BFE4DE7A36801225A7549E7A368F2
:10355000D3F8743213F0020F3FF443AF0121204639
:1035600024F014F8204624F057F93AE7A368D3F87A
:10357000743213F0020F3FF434AF0121204624F0DF
:1035800005F8204624F0E9FD2BE7204624F0C6FD8F
:1035900027E75A4B5B5C13F0970F0AD1A368D3F867
:1035A000743213F0020F3FF41CAF2046FFF79EFE6B
:1035B00017E70121204623F0E9FF9DF8131020466C
:1035C00024F08CFD0DE75B2908D0D2F8743213F09B
:1035D000020F06D1A36800225A7502E70223537531
:1035E000FFE6204624F061F9F4E700235375A36851
:1035F000D3F8742212F0020F3FF4F3AE31391B29D5
:103600003FF6EFAE01A252F821F000BFAD36000048
:10361000B9360000D3360000A1360000E3330000C5
:10362000E3330000E3330000E3330000E333000042
:10363000E3330000E3330000E3330000E333000032
:10364000E3330000E3330000E33300007D36000085
:10365000873600009136000099360000E333000001
:10366000A5360000E3330000B1360000E33300006C
:10367000E3330000E3330000BD36000001212046A3
:1036800024F022F9ADE60021204624F01DF9A8E639
:10369000204624F04BFCA4E6204624F03CFCA0E6A7
:1036A00003225A75204624F02BFC9AE603225A7511
:1036B000204624F01CFC94E603225A75A368D3F834
:1036C000741201F0010181F00101204623F07EFF18
:1036D00087E603225A75A368D3F8743213F0020FF9
:1036E0003FF47FAE204624F019FD7AE6002353759F
:1036F00077E60023537574E6A0CA030051D6040090
:1037000083681A7D012A2DD110B50446D3F878229A
:1037100012F4804F04D0D3F8742212F0040F1BD09F
:10372000A06800F543704FF0FF324FF0FF331FF0F9
:10373000B1FF0821204600F0A9FC0C49606923F084
:10374000B0FF02212046FFF79FFAA06800F5437002
:1037500020F020F8002010BDDA6C0146C06924F08A
:1037600058FEDDE76FF08500704700BFA0CA030078
:1037700038B504461546003918BF012123F0A6FECE
:10378000A368DD64606803689B680021984700B106
:1037900038BD2046FFF7B4FF0028F9D11AE0A06831
:1037A00000F543704FF0FF324FF0FF331FF072FF10
:1037B0002B461E4A0121204624F045FCA06800F556
:1037C00043701FF0E7FFE3E79847A06800F54370F8
:1037D0001FF0E0FFA06800F52F704FF0FF324FF0B0
:1037E000FF33032120F09CFF05460028D7D1A068B5
:1037F00000F543704FF0FF324FF0FF331FF04AFFE8
:103800000B4A0221204623F021FF0A4A00212046CC
:1038100023F01CFF084A0121204623F017FF6068AF
:1038200003685B69002BCFD1CFE700BF48BE030020
:10383000D52C00007B790200F973020010B5044614
:103840000A4924F001F90A49204624F0FDF8094903
:10385000204624F0F9F80849204624F0F5F8074AF4
:103860000021204624F060FE002010BD60BE030051
:10387000A0BE030000BF030054BF0300F0BF03005D
:10388000F8B5054617461E460A46244924F0DCF8DA
:10389000002409E02249284624F0D6F80BE021490B
:1038A000284624F0D1F801340F2C0CDC002C02DD6A
:1038B00014F0070FEED0B442F1D23A5D1A4928460F
:1038C00024F0C2F8EFE71949284624F0BDF8002497
:1038D00009E01349284624F0B7F80BE014492846BC
:1038E00024F0B2F801340F2C13DC002C02DD14F0AC
:1038F000070FEED0B44207D23A5D0E4B9B5C13F03B
:10390000970FEBD12E22E9E70549284624F09CF8D1
:10391000E8E70949284624F097F8F8BD08C00300F5
:10392000E0B30300F4B30300ECB30300F8B3030007
:103930005CC0030051D6040010C003002DE9F04123
:103940000646884617464FF44A720021806837F0D1
:1039500004F8304623F0A0FEB06800F5437036F05E
:10396000CDFA002517E0B0682C0104F51E74204440
:10397000043036F04BFFB068031905EB850C4FEAB5
:103980008C0C0CF52E7C60440433002201210430A1
:1039900036F00AFF0135032DE5DDB36900241C6014
:1039A0000121304623F0B2FDB36850225A87B36834
:1039B00018221A873168304624F073F864F38207BE
:1039C000B368C3F87472706803681C683346044AAD
:1039D0004146A04710B9B36801221A75BDE8F081CD
:1039E0007F76020070B588B004468068D0F8200366
:1039F00010BB1D462046FFF7A1FF064610B130461A
:103A000008B070BDA06AE16A00220023CDE9062358
:103A1000002304930E2303930C9B029301950094BF
:103A2000074B4FF4006236F0D0FAA368C3F82003C6
:103A3000616A1FF061FFE2E76FF07706DFE700BF22
:103A40007137000010B5044613460A460146054882
:103A500002F080F823691B7903B910BD204624F0D9
:103A600076F8FAE7677B020070B50C46037873B10D
:103A70002388C21812F8012C11498A5C12F0080F31
:103A800006D0013B9BB22380002BF1D1037070BDA7
:103A90000022C25413461D4601339BB24119425DB8
:103AA000074EB25C12F0080FF5D1002DEFD022883E
:103AB000521B013236F037FF23885B1B2380E6E779
:103AC00051D604002DE9F8430746056800269CE01E
:103AD0006C1C4DB12846FCF78FFB82B2214628466C
:103AE00036F021FF254690E00022F7E76E1C4DB12D
:103AF0002846FCF781FB82B23146284636F013FF98
:103B0000264682E00022F7E76C1C4DB12846FCF700
:103B100073FB82B22146284636F005FF002674E08A
:103B20000022F7E76C1C2846FCF766FB82B22146B0
:103B3000284636F0F8FE254667E04FF000080224DC
:103B4000042C0CD82B5DA3F13002D2B2072A06D880
:103B500042EAC8025FFA82F80134E4B2F0E7022CCC
:103B60006DD904F1FF39A94465B12846FCF744FB3F
:103B700082B2023C121B4946284636F0D4FE05F8B4
:103B8000018B42E00022F4E7A3F16102D2B2052AE0
:103B900014D8573BDBB243EA08135FFA83F80134C9
:103BA000E4B2032C16D82B5DA3F13002D2B2092A5D
:103BB000EAD842EA08125FFA82F8F0E7A3F141027C
:103BC000D2B2052A06D8373BDBB243EA08135FFAC4
:103BD00083F8E4E7022C17D904F1FF39A94465B151
:103BE0002846FCF709FB82B2023C121B49462846D4
:103BF00036F099FE05F8018B07E00022F4E7154B3B
:103C00001B5D13F0080F20D101352C78ECB146B9BB
:103C1000272C3FF46BAF5C2C3FF45AAF222C3FF4BF
:103C200065AFA6423FF470AF002EE8D05C2CEBD11C
:103C30006B789E423FF476AF302B3FF47EAF782B0B
:103C4000E2D14FF000080224ABE73D603046BDE80A
:103C5000F88300BF51D6040070B582B004460E460A
:103C600001921D460020206007E0531C01930023B1
:103C7000137002E001A8FFF725FF019A117869B1DE
:103C8000074B5B5C13F0080FEFD123685A1C2260CE
:103C9000019A46F823202368AB42EBD102B070BDF5
:103CA00051D604008C46034688B110B5144680688E
:103CB00020B3154B984214D3144B984211D2036889
:103CC0001146604698472068C0B1204616E010496A
:103CD000104A521ABCEB920F01D251F82C30184600
:103CE00070470D4B984202D30C4B984207D30068A3
:103CF0000CEB8C0C00EB8C0003681BB110BD0CF1BD
:103D0000010CF5E71846F9E7B0AF0300B0AF0300C8
:103D1000A8AE0300D4AE0300D4AE0300B0AF0300DE
:103D2000002835D0F8B50646FCF766FA85B275B3BB
:103D30000024274606E00137BFB2013292B20EE0FE
:103D40000134A4B2AC466B1E9C4220DA2046335D9F
:103D5000104AD35C13F0080FF2D0621C92B2954265
:103D6000EED906EB020EB35C0A49CB5C13F0080FE8
:103D7000E1D1002FE4D00130ACEB020201327146F8
:103D8000304436F0D0FDEF1BBDB20027D8E7F8BDB8
:103D9000704700BF51D60400F0B583B0154600232C
:103DA000019303782D2B19D0044636F09FFE06466A
:103DB000104F0023C3510A4601A9204621F022F9E1
:103DC000F359222B10D023B9019BA34201D01B78B9
:103DD00043B16FF015032B60002003E06FF0150373
:103DE0001360002003B0F0BD6FF021032B600020B2
:103DF000F8E700BF0C00000070B4844600200646BF
:103E000005E0002B0DDD15E00126013080B213FB2B
:103E100000F411FA84F4A4B20CB9002B0ADB94422A
:103E2000EFD01CF80440044D2C5D14F0070FEBD1CB
:103E3000002EEAD070BC704751D6040008B58368E4
:103E4000D3F8743213F0200F00D108BD0249406945
:103E500023F07BFFF9E700BFC8AF030008B5836814
:103E6000D3F8743213F0200F00D108BD0249406925
:103E700023F06BFFF9E700BFCCAF030008B5836800
:103E8000D3F8743213F0200F00D108BD0249406905
:103E900023F05BFFF9E700BFD4AF0300082915D872
:103EA00014D008B5836893F83F208A4207D083F87E
:103EB0003F108368D3F8743213F0200F00D108BD8F
:103EC0000A460349406923F040FFF8E7704700BF06
:103ED0004CC0030008B50A1E09DD4123002A0ADB95
:103EE0008168D1F8741211F0200F06D108BD002AA4
:103EF000FCD04223F2E75242F2E70249406923F044
:103F000024FFF3E758C0030008B50A1E09DD432368
:103F1000002A0ADB8168D1F8741211F0200F06D153
:103F200008BD002AFCD04423F2E75242F2E70249DE
:103F3000406923F00AFFF3E758C0030010B50446B8
:103F40000A468368B3F85210481CA3F852000B4489
:103F500083F85620A368D3F8741211F0020F0DD025
:103F6000D3F8743213F0040F00D02A220649606996
:103F700023F0EBFE204623F055FF00B910BD0349A6
:103F8000606923F0E2FEF9E75CC00300A0CA030009
:103F900010B5044623F046FF18B9204623F0E3FE8F
:103FA00018B10249606923F0D0FE10BDA0CA030019
:103FB000F8B505468468B4F85020B4F8521004F1FE
:103FC000300023F019FEA78EE68E284623F0CBFEA4
:103FD00070B9B74211D0E18EA38EC91A2846FFF7F7
:103FE00079FF218E638EC91A2846FFF78DFFF8BD31
:103FF0000549686923F0A9FEEBE7218E638EC91A93
:104000002846FFF781FFF2E7A0CA03002DE9F84335
:104010000546846814F1560006D0FCF7EDF886B228
:1040200094F83C7000231BE00026F9E71C4422446E
:1040300092F856904FF0000882F85680AA685033E4
:104040001A4406320F49686923F07FFEAB682344A7
:1040500083F85690AB685B8FDB1BF61A2346474606
:10406000AA68548FE41BB442E0DB002E01DCBDE8FB
:10407000F88350331A4406320349686923F065FE19
:10408000F5E700BF68B5030058E60300082921D80A
:1040900008B5836893F83E208A4209D083F83E1021
:1040A00008290CD08368D3F8743213F0200F00D1A4
:1040B00008BD0A460849406923F047FEF8E78368CF
:1040C000D3F8743213F0200FF2D00449406923F082
:1040D0003CFEEDE7704700BF60C00300D8AF0300AF
:1040E0008168B1F85020002A46D070B50546B1F875
:1040F0005230002B3FD04F330B44063301F1560CA6
:10410000002402E00134A4B2013B634502D31978D4
:104110002029F7D0634506D31978202903D001342C
:10412000A4B2013BF6E75E1C611C121B1944304629
:1041300036F0F9FBAA68B2F850301B1BA2F85030D9
:10414000AB68B3F850201344002283F85620614234
:1041500009B2284623F081FE2846FFF76FFE33465A
:10416000064A0821284623F06EFF2846FFF776FE10
:104170002846FFF783FE70BD704700BF58E6030076
:10418000F8B504460E4617466AB9A068D0F87432EE
:1041900013F0040F27D0B0F85230503318440630D3
:1041A000FCF72AF807E0FFF759FEEEE713496069CC
:1041B00023F0CBFD2846451E0028F7D1A368B3F8AD
:1041C0005020A3F85220204623F0CDFD28B107B19E
:1041D0001EB10B49606923F0B8FD714209B2204657
:1041E00023F03BFEF8BDB0F85230503303440633A1
:1041F000044A0821204623F026FFDFE760CD0300B4
:10420000A0CA030058E6030008B58368024A0221E9
:1042100023F019FF08BD00BF58E60300002979D03C
:104220002DE9F843804616460D460BB9002404E0FC
:104230001146FFF769FEF9E701342B5D364AD35C7E
:1042400013F0080FF8D156E0D8F8140023F07FFCE3
:104250003A462919404623F0A1FE09F101042F49ED
:10426000D8F8140024F052F931464046FFF74CFECE
:104270002919D8F8140024F049F92849D8F814006D
:1042800024F044F9BDE8F88300278742F0D204EB1C
:10429000070915F809300A2BD6D00137F5E79A1926
:1042A00096450DD90133E218A95C1B4A12F801C0EA
:1042B0001CF0080FF3D00A2901D01F46EFE71F4674
:1042C000D8F8140023F043FC3A462919404623F05D
:1042D00065FE3C4400E001342B5D0F4AD35C13F0D3
:1042E000080FF8D10D49D8F8140024F00FF9314621
:1042F0004046FFF709FE2846FBF77EFF80B2001B11
:10430000D8F80830B3F83AE0AEEB06078742BBD2E4
:104310000023C8E7704700BF51D60400A0CA0300BD
:1043200021B370B582B004461D46931D9EB20B4664
:10433000097809B902B070BD019300920C4B0D4A87
:10434000082123F080FE65B1094B0B4A0821204665
:1043500023F079FE0023324629462046FFF75EFF10
:10436000E8E70649606924F0D1F8E3E7704700BF49
:10437000A8C0030088C00300D4B30300A0CA030090
:10438000F0B583B005460E460F68AFB13846FBF76F
:1043900033FF84B20334A4B2084B00933B46084A6F
:1043A0000821284623F04FFE002322467168284644
:1043B000FFF734FF03B0F0BD0024EBE7A4C0030017
:1043C00090C0030010B504460749FBF703FF30B166
:1043D00006492046FBF7FEFE18B1002010BD012063
:1043E000FCE70120FAE700BF98C003009CC003006F
:1043F00010B504468368D3F8743213F0200F07D148
:10440000A368D3F8743213F0200F06D1002010BD3A
:104410000449406924F0C7F8F2E70349606924F0D1
:10442000C2F8F3E7E0AF0300E8AF030008B5836824
:10443000D3F8743213F0200F00D108BD024940694F
:1044400024F0B1F8F9E700BFF0AF030008B58368C6
:10445000D3F8743213F0200F00D108BD024940692F
:1044600024F0A1F8F9E700BFF4AF030010B504464B
:104470008368D3F8743213F0200F07D1A368502259
:104480005A87A36818221A87002010BD0249406984
:1044900024F089F8F2E700BFF8AF030008B583699C
:1044A0001A68024923F0D0FA002008BDACC003000E
:1044B00070B582B006460B4923F0C6FA0A4C0022BA
:1044C0000AE0551CADB2636A0093A3680749304601
:1044D00023F0BAFA30342A46054B9C42F1D300202F
:1044E00002B070BDBCC0030078AE0300D4C00300AE
:1044F000A8AE030000B583B002290DD08368D3F8BD
:10450000743213F0020F11D0094A0A4923F09CFAC1
:10451000002003B05DF804FB53680093064B12685B
:10452000064923F0AFFA6FF01500F2E7044AECE712
:10453000BCCE030010C10300ECC0030004C10300A3
:10454000E8C0030008B5024923F0ABFA002008BD1B
:1045500088B7030070B582B00446002509E06E1CE0
:10456000A36803F5AB732A460B49204623F06CFA87
:104570003546A2680DF1060302F5AB720121E06831
:1045800024F02BF9BDF80630002BE8D1A3680020F9
:1045900083F8560102B070BD24C103002DE9F04339
:1045A00083B004460E46154600278DF803700F8031
:1045B000178080684FF48072394600F5AB7036F092
:1045C000CCF94849606923F0EEFF606923F0BFFA37
:1045D000B846B8F57A7F15D36FF073007BE04FF4DF
:1045E0007A7035F0D8FB08F101081FFA88F8F0E777
:1045F000522B1DD0A2683A4482F856310137BFB21F
:10460000092F62D860680368D3F8109001AB0122CB
:104610000DF10301C847019B002BE0D09DF803304A
:104620001B2BE5D0A26892F856211B2AE0D0E9E7BF
:10463000A3683B44002283F85621A36893F85721CE
:104640005B2A15D10222A368134493F856113B2923
:1046500014D02B8803EB83035B009BB2013292B230
:104660000B44303B2B80FF2AEDD96FF0790032E00C
:10467000002283F856216FF004002CE0013292B240
:10468000FF2A2BD8A368134493F8561171B13388CD
:1046900003EB83035B009BB2013292B20B44303BCD
:1046A0003380FF2AEED96FF0790014E03388FA2BBB
:1046B00001D9FA2333802B88FA2B01D9FA232B80D6
:1046C000A368002083F8560105E0A368002283F860
:1046D00056216FF00B0003B0BDE8F0836FF00400CB
:1046E000F9E700BF70C1030010B582B0044601298C
:1046F00004D124F01CF858B902B010BD53680093DF
:104700000A4B12680A4923F0BDF96FF01500F3E770
:10471000A36850225A87A36818221A8705492046A1
:1047200023F0A1F96FF00700E6E700BFECC003003B
:1047300004C1030030C1030010B5044623F0F7F9AB
:1047400002460349204623F07FF9002010BD00BF38
:104750006CC103002DE9F04786B081460F4616462E
:104760004FF00008414602250DE033461C4A032164
:10477000484623F068FCB8F1000F27D1284606B060
:10478000BDE8F08721464C1C01AA3846FFF78AFA9B
:1047900082460028EFD00022DAF80010304624F0DC
:1047A00027FC0028EED1D9F808003346DAF80020BB
:1047B00000F1540100F5AB7024F0B9F8054601286A
:1047C000D3D00028D7D108F10108DBE7D9F80800D9
:1047D000324600F1540100F5AB7023F029FACDE721
:1047E0003CC9030070B545680669286835F0D9FAF8
:1047F00000B3686850B135F0D4FA002840D04FF4C7
:104800000031281D24F04DF9041E21DBE86858B161
:1048100035F0C7FA002836D04FF4B01105F10C007E
:1048200024F03FF9041E1FDB304635F067FB0024FF
:10483000204670BD154B1B6813F0070F02D16FF0B7
:104840001204F5E7124A0121104822F062FBF6E754
:104850000E4B1B6813F0070FEAD023460D4A0121C7
:104860000A4822F060FBE3E7084B1B6813F0070FD0
:10487000DED02346084A0121044822F054FBD7E742
:104880006FF01204D4E76FF01204D1E7880800201B
:1048900090C90300A8C90300D4C9030008B50348A0
:1048A00021F05AFC024821F057FC08BD3CCA030025
:1048B00074CA030008B5024820F05AF908BD00BFC9
:1048C000A4CA0300B0F5680F17D00CD840F6BA633D
:1048D000984214D0B0F5683F13D03A2801D0012097
:1048E000704700207047094B98420CD0084B984203
:1048F00001D0012070470020704700207047002041
:104900007047002070470020704700BF3A00003A0F
:104910002C5F5CA9E8B108B54268B2F5683F07D0E2
:104920000F498A421AD000681EF034FF002008BDEB
:1049300003680022BFF35B8F53E8001F012903D1F6
:1049400043E800200028F7D1BFF35B8F04D1104665
:10495000EDE76FF4E04070470248E8E70248E6E719
:104960002C5F5CA9E98FFFFFEA8FFFFF30B308B52A
:104970004268B2F5683F0CD012498A421CD00068E8
:104980004FF0FF324FF0FF331EF084FE88B10E4827
:104990000FE003680122BFF35B8F53E8001F00297B
:1049A00003D143E800200028F7D1BFF35B8F01D18A
:1049B000002008BD0448FCE70448FAE76FF4E04033
:1049C000704700BF2C5F5CA9E98FFFFFEA8FFFFFF4
:1049D00010B50446A8B16368B3F5683F10D0B3F5CD
:1049E000680F0DD00D4A93420AD013F4686F0DD0B2
:1049F00021680B4835F037FA00232360074B6360CA
:104A000010BD084B5B6808489847E4E7236800221C
:104A10001A605A609A60DA601A61EFE72C5F5CA94D
:104A2000305E0020A8070020ACCA030010B5044681
:104A300068B36068B0F5683F28D0B0F5680F25D03E
:104A4000174B984228D0FFF73DFFC0B14FF0FF321F
:104A50004FF0FF33214613481EF0EAFD08B92368E2
:104A60001BB9114B5B6811489847236800221A60F4
:104A70005A609A60DA601A614FF468636360206874
:104A800035F03CFA636843F03A03636010BD064BAF
:104A90005B6807489847CCE72368002BD3D1D5E75C
:104AA0002C5F5CA9305E0020A8070020D4CA030058
:104AB000ACCA030008B5402314220449044835F069
:104AC000C4F90449044820F0C5F808BD3059002055
:104AD000305E002004CB030018CB03002DE9F04129
:104AE00082B000AF04465C4B1B6813F0070F43D045
:104AF000D0F800E0D0F804C086686D468AB06B46F6
:104B000013F1100200F08E8014218AB108460429A6
:104B100003DDDFF84881C3F81480082801DDC3F8FD
:104B200018E00C2801DDC3F81CC0102800DD1E624F
:104B300013297ADD4FF0140C3AB1052139710021A7
:104B40007971B971F9717868186100216FF300010A
:104B50006FF341016FF382016FF3C501012363F32A
:104B60008811CCF30A0C6CF353216FF31F5100230F
:104B70003948FCF7BBFFAD46374B1B6813F0070FF6
:104B800042D0D4F80CE0D4F810C066696D468AB003
:104B90006B4613F110024BD014218AB10846042948
:104BA00003DDDFF8BC80C3F81480082801DDC3F8FA
:104BB00018E00C2801DDC3F81CC0102800DD1E62BF
:104BC000132938DD4FF0140C3AB105213971002159
:104BD0007971B971F9717868186100216FF300017A
:104BE0006FF341016FF382016FF3C501012363F39A
:104BF0008811CCF30A0C6CF353216FF31F5100237F
:104C00001548FCF773FFAD46134B1B6813F0070FF5
:104C100014D1114B1B6813F0070F16D10837BD468E
:104C2000BDE8F0816FF000416FE76FF01B0C83E788
:104C30006FF00041B1E76FF01B0CC5E7E369094A6B
:104C40000121054822F06FF9E3E7A369064A012133
:104C5000014822F068F9E1E79008002028CB030022
:104C600058CB030088CB030098CB030038B504462B
:104C70000D4611B10846FFF731FF012C04D029463B
:104C800020461EF057FA38BDEFF30583103B054A66
:104C9000126812F0070FF2D0034A0121014822F0F6
:104CA00042F9ECE790080020C8CB030030BFFFF7C3
:104CB000FDBF00BF38B50446054D2A46054935F00D
:104CC00024FE054A0021601935F047FE38BD00BFBB
:104CD00000000000B0AF03000800000070B50646F9
:104CE000064D074B1D444C1B2046FFF7E3FF083CD5
:104CF000C6F8A84005F1080070BD00BF0000000024
:104D000008000000074B9B6893F90E20002A08DB7F
:104D1000044A5269934204D0034A536843F08053D3
:104D200053607047ACDC002000ED00E081690D4B62
:104D30005A6942F480725A61BFF34F8FBFF36F8F8D
:104D400031F8021C5A6922F480725A61BFF34F8F06
:104D5000BFF36F8F4DF60273994201D00020704768
:104D60000120704700ED00E04FF0000C83F800C018
:104D700002F07F4CBCF17F4F1AD102F00C0CBCF159
:104D8000080F04D012F0080F0FD00846704708B57E
:104D9000084B1B6813F0070F01D1002008BD064A1D
:104DA0000121044822F0B5F8F7E701221A70704794
:104DB0000020704790080020DCCB030008B5404B72
:104DC0001B6813F0070F0BD13E4B9B6A13F0007F5B
:104DD00013D03B4B1B6813F0070F07D11E200DE0CB
:104DE000394A0121364822F094F8EDE7374A01218B
:104DF000334822F08EF81E2000E01D20314B9B6AC4
:104E000013F0807F05D02E4B1B6813F0070F34D1B1
:104E10001F202C4B9B6A13F4002F05D0284B1B68D6
:104E200013F0070F30D12120264B9B6A13F4802FFB
:104E300005D0234B1B6813F0070F2CD12220214BE8
:104E40009B6A13F4003F05D01D4B1B6813F0070F3E
:104E500028D123201B4B9B6A13F4803F05D0184BAD
:104E60001B6813F0070F24D12420164A936A6FEAB7
:104E700003436FEA1343936208BD154A01211048AA
:104E800022F047F81F20C4E7124A01210C4822F003
:104E900040F82120C8E7104A0121094822F039F8DA
:104EA0002220CCE70D4A0121054822F032F82320C8
:104EB000D0E70B4A0121024822F02BF82420D4E746
:104EC0009008002000ED00E008CC030020CC030097
:104ED00034CC030050CC030070CC030098CC03000A
:104EE000B4CC030008B500230B70064B1B6813F00D
:104EF000070F00D108BD044A0121024822F009F839
:104F0000F8E700BF90080020E0CC0300354B1B6899
:104F100013F0070F64D0B0B582B000AF0F2924DCC6
:104F2000314D10396C4600233B7102237B718AB0EE
:104F3000EC461CF110021AD0122022B1042802DD26
:104F40002A4BCCF8143000233B7002237B70E2B173
:104F50000346082801DDCCF818500C2B01DDCCF8F5
:104F60001C100CF1200300210DE0214DD9E76FF05A
:104F70000040E2E701F1080505EB070E1EF808EC1A
:104F800003F801EB01310129F4D9112825DD1223A1
:104F90004AB10421397100217971B9710121F97186
:104FA0007868CCF8100000216FF300016FF3410125
:104FB0006FF382016FF3C501012060F38811C3F321
:104FC0000A0363F353216FF31F5100230548FCF7D5
:104FD0008DFDA5460837BD46B0BD6FF01B03D7E772
:104FE000704700BF9008002004CD030038CD0300B7
:104FF0001CCD0300F8B506460F461546504B1B68FE
:1050000013F0070F0BD14F4B9B6A13F4805F13D043
:105010004B4B1B6813F0070F07D117240DE04A4ACA
:105020000121474821F075FFEDE7484A0121444836
:1050300021F06FFF172400E01624424B9B6A13F403
:10504000006F05D03E4B1B6813F0070F1ED11824CC
:105050003C4B9B6A13F4007F2CD0394B1B6813F038
:10506000070F1AD1374A936B926A12F4004F20D07F
:10507000334A126812F0070F15D1002F3CD0314A85
:10508000936A23F400439362192413E0304A012108
:105090002B4821F03EFF1824DAE72E4A0121284848
:1050A00021F037FFDEE72C4A0121254821F03BFFA4
:1050B000E3E71924234B9B6A13F4806F05D0204B40
:1050C0001B6813F0070F19D11A241E4B9B6A13F4A7
:1050D000807F21D01A4B1B6813F0070F15D11B24BA
:1050E000184A936A43F47F4393620121304623F0C8
:1050F00002FE28702046F8BD1924DBE7174A01217B
:105100000F4821F006FF1A24DFE7154A01210C4859
:1051100021F0FFFE1B24E3E70A4B9B6A13F4005FB8
:10512000DED0074B1B6813F0070F01D11C24D7E713
:105130000C4A0121024821F0ECFE1C24D0E700BFFC
:105140009008002000ED00E04CCD030064CD03008A
:1051500078CD03008CCD0300A8CD0300C0CD0300A3
:10516000DCCD0300F4CD03002DE9F04104460F46E9
:1051700016465C4B1B6813F0070F0BD15A4B9B6A0A
:1051800013F0100F13D0574B1B6813F0070F07D104
:1051900011250DE0554A0121524821F0BAFEEDE7F4
:1051A000534A01214F4821F0B4FE112500E010259B
:1051B0004D4B9B6A13F0080F05D04A4B1B6813F048
:1051C000070F1FD11225484B9B6A13F0020F2DD0F9
:1051D000444B1B6813F0070F1BD1434BD3F83480AB
:1051E0009B6A13F0800F5FD03E4B1B6813F0070FD4
:1051F00015D1002F5CD03C4A936A23F08003936260
:10520000132515E03B4A0121364821F082FE122584
:10521000D9E7394A0121334821F07BFEDDE74346D7
:10522000364A01212F4821F07EFEE2E76FF0150893
:105230002D4B9B6A13F0010F05D02A4B1B6813F00E
:10524000070F37D11425284B9B6A13F0200F05D088
:10525000244B1B6813F0070F33D11525224B9B6A93
:1052600013F0100F04D1204B9B6A13F0020F04D0EF
:105270001D4B5B6813F4006F2AD11B4B9B6A13F024
:10528000200F04D0184A536A23F400535362164A7D
:10529000936A43F0FF0393620121204623F02BFD24
:1052A00030702846BDE8F0816FF015081325BFE780
:1052B0001325BDE7124A01210A4821F02AFE1425D0
:1052C000C1E7104A0121074821F023FE1525C5E753
:1052D0002146404600F06EFA0028CED080F30988BF
:1052E0000225CAE79008002000ED00E024CE03006C
:1052F0003CCE030078CD030070CE030088CE0300BF
:10530000A0CE0300F4CD030070B506460D46384B21
:105310001B6813F0070F0CD100232B70354BDC6A90
:1053200014F0020412D0324B186810F0070006D1B6
:1053300070BD314A01212E4821F0EBFDECE72F4AE8
:105340000121184621F0E5FD0020F1E7294BDB6A39
:10535000002B14DB274BD86A10F08040E8D0244B98
:105360001B6813F0070F16D13046FFF7DFFCF8B1CA
:105370001F4B1B6813F0070F13D13068D8E71C4B85
:10538000186810F00700D3D01D4A0121184621F0FB
:10539000C0FD2046CCE71B4A0121154821F0B9FD8C
:1053A000E2E73368184A0121114821F0BCFDE4E727
:1053B000104B9B6A13F0FF0F0DD10E4B986A10F43F
:1053C0007F400ED10B4B9B6AB3F5803FB0D3304684
:1053D000FFF7F4FCACE72A4601213046FFF7C4FE94
:1053E000A6E72A4601213046FFF704FEA0E700BFEA
:1053F0009008002000ED00E0C0CE0300D8CE0300EE
:10540000FCCE03000CCF03002CCF030030B58BB0D3
:10541000204B5D68C5F30805002383F31188BFF3B3
:105420006F8F0DF12603FFF79FFC04461A4B18609F
:105430000DF12702294623F060FC9DF827300BB1BF
:105440000BB030BD05460DF1040C20686168A26800
:10545000E368ACE80F0020696169A269E369ACE820
:105460000F009DF826304BB1089BC3F308025AB9D0
:105470006FEA53236FEA4323089305E0089B23F464
:10548000FF7323F00103089301A92846FFF7EEFB01
:10549000D6E700BF00ED00E0945E0020044B5A699F
:1054A00042F010025A615A6922F008025A617047AC
:1054B00000ED00E0EFF30880EFF3098101B57246DB
:1054C000FFF7A4FF01BD00BF002080F31488BFF3E5
:1054D0006F8F03F0A5F8002011490860BFF34F8FCC
:1054E000104880F3088800F035F8202080F31188F8
:1054F0000D484FF0AA014FF4046234F082FC0A48D0
:105500004FF40461401880F30988EFF314800221FE
:10551000084380F31488BFF36F8F00F00DF900008B
:1055200094ED00E0F0130120C0EA0020084BD3F80E
:105530009000C0F30720002306E0054AC2F8983027
:105540000021C2F8A01001338342F6DB704700BF90
:1055500000ED00E010B572B6002484F31388FFF765
:10556000E5FF234608E003F120010E4A4FF0FF302B
:1055700042F821000133DBB2072BF4D9002308E005
:1055800003F16001074A4FF0FF3042F82100013378
:10559000DBB2072BF4D962B6BFF34F8FBFF36F8F27
:1055A00010BD00BF00E100E008B50A4B9B688342D4
:1055B00002D034F0A5FE08BDEFF30583002BF8D030
:1055C000054B5A6842F080525A605A6A22F40042EF
:1055D0005A62EEE7ACDC002000ED00E00A4A936876
:1055E000C3F8AC006FF00A01C3F8B01007494B686C
:1055F00043F080534B60002383F31188BFF36F8F18
:105600009368D3F8B0007047ACDC002000ED00E0F8
:1056100010B50446EFF31183202383F31288BFF300
:105620006F8F0C4B586998600B4B4FF000625A60BB
:10563000D0F8A820094B1A60D0F8AC300022C0F88E
:10564000AC2083F31188BFF36F8F00F06FF9204611
:1056500010BD00BFACDC002000ED00E04C5E00207F
:105660000B498A684FF030001044EFF3098C80E852
:10567000F01F74467046FFF7CBFFA64604498A68C0
:1056800002F1300090E8F01F8CF3098870470000A9
:10569000ACDC00201EF0040F0CBFEFF30880EFF32A
:1056A0000980816911F8021C0229FFD001B523F09D
:1056B00016FB01BD002807DB00F01F024009012393
:1056C0009340024A42F82030704700BF00E100E0FA
:1056D00000280CDB00F01F0240090123934020301A
:1056E000034A42F82030BFF34F8FBFF36F8F7047EC
:1056F00000E100E0002808DB4901C9B200F1604088
:1057000000F5614080F80013704700F00F00490178
:10571000C9B2014B1954704714ED00E04209054B22
:1057200053F8222000F01F00012303FA00F010407C
:10573000704700BF00E100E008B50B4B0B4A22F0B8
:105740007F029A60BFF34F8FBFF36F8FD3F888202B
:1057500022F47002C3F888201DF0B0FE1EF0E0FDB8
:1057600000F076F81DF008FF00ED00E000000000FA
:1057700010B4A2F120040E4942F8081C21F00101E6
:1057800042F8081C42F8203C019B42F81C3C029B5A
:1057900042F8183C039B42F8143C4FF0807342F8E7
:1057A000043C04650023C0F8AC3010BC704700BF57
:1057B00015120000104B9B68BBB110F1160F0BD0F7
:1057C000D3F89820A2F1400C844510D8824210D919
:1057D0008A4207D800207047D3F898208A4201D81F
:1057E00000207047D3F898007047002070470020D1
:1057F00070470020704700BFACDC002008B50E46A3
:1058000015460C4A9060D0F8A8200B4B1A6000F0A7
:105810008DF82C4686F309884FF00000074B984717
:1058200020464FF000014FF000024FF00003044CFF
:10583000204700BFACDC00204C5E0020718D0200D0
:1058400015120000014B10221A61704700ED00E0B4
:10585000002206E003F00F030949194420230B76C8
:1058600001322F2A0ADC53B2002BF3DB03F1604331
:1058700003F56143202183F80013F1E7704700BF6F
:10588000FCEC00E008B5EFF30583103B044A02EBA3
:10589000C301496852F833008847FFF733FA08BD5F
:1058A00048AC030070B582B00346164A92E8030084
:1058B00000908DF8041013B31D46134C4426324655
:1058C0000021204635F049F82B6823606B6863603F
:1058D000AB68A360EB68E3602B6923616B6963616C
:1058E000AB69A361EB69E361084B1B682362052187
:1058F000684600F075FC3146204600F071FC02B0AD
:1059000070BD00BF00B00300505E0020945E002018
:1059100008B5034B034A0121034823F056FB08BD99
:10592000000004200000002048CF030008B5D0F894
:105930009830403B0448036040234360034B83603E
:10594000012123F046FB08BD985E002000000B15E6
:10595000084AC2F898000B6823F01F03034343F082
:105960001003C2F89C308B6843F00103C2F8A030EA
:10597000704700BF00ED00E010B504460D4BD3F8B2
:105980009030C3F30723013B984203D8FFF7E0FFB1
:10599000204610BD084B1B6813F0070F02D16FF0B3
:1059A0001500F6E70346054A0121034821F0BBFA3A
:1059B000F5E700BF00ED00E08C08002058CF0300A1
:1059C0002DE9F04780460F469A461646002410E01F
:1059D0002346154A0121154821F0A5FA1FE0294662
:1059E000F0B223F0FBF9064610F1160F19D001367C
:1059F0000134BC4215DA04EB440508EB85056A68FE
:105A0000002AF5D0BAF1000FE9D0284623F0D5F9E5
:105A10000028E4D1054B1B6813F0070FD8D16FF0B5
:105A200015063046BDE8F08780CF03008C080020C3
:105A300010B5034C01232278FFF7C2FF207010BD80
:105A4000F3DE002008B500230B4A1278FFF7B8FFF9
:105A500010F1160F0FD0024606E0084BC3F898204D
:105A60000021C3F8A0100132044BD3F89030C3F3E7
:105A700007239342F1DC08BDF3DE002000ED00E0D7
:105A8000044B0522C3F89420BFF34F8FBFF36F8FF1
:105A9000704700BF00ED00E0BFF35F8F024B0022B4
:105AA000C3F89420704700BF00ED00E038B51C4BF0
:105AB0001D681C4BD3F89030C3F307239D422BD8AD
:105AC000FFF7EAFF002409E0154B5B6804EB440193
:105AD00003EB81012046FFF73BFF0134A542F3D8D9
