:020000021000EC
:10000000B8590220793E03003B3D0800653E0300DD
:10001000653E0300653E0300653E0300653E030048
:100020000000000000000000000000005940030034
:10003000653E03000000000011400300653E030020
:100040000142030001420300014203000142030098
:100050000142030001420300014203000142030088
:100060000142030001420300014203000142030078
:100070000142030001420300014203000142030068
:100080000142030001420300014203000142030058
:100090000142030001420300014203000142030048
:1000A0000142030001420300014203000142030038
:1000B0000142030001420300014203000142030028
:1000C0000142030001420300014203000142030018
:1000D0000142030001420300014203000142030008
:1000E00001420300014203000142030001420300F8
:1000F00001420300014203000142030001420300E8
:1001000001420300014203000142030001420300D7
:1001100001420300014203000142030001420300C7
:1001200001420300014203000142030001420300B7
:1001300001420300014203000142030001420300A7
:040140000142030075
:100148002DE9F14F03F11C0402EB840C4FEA930BE9
:100158008A68CB680868496800F046F93CE9F0000D
:100168006040694072407B400BF1060E4EE083EA26
:10017800134480EA134582EA134746BA96EA3444A0
:10018800604000F00F1684EA063420F00F1684EA67
:10019800161054BA94EA0106724002F00F1486EA67
:1001A800043622F00F1486EA14124CBA65406940EE
:1001B80001F00F1485EA043521F00F1485EA1411B3
:1001C8005CBA67407B4003F00F1487EA043723F0DA
:1001D8000F1487EA141344BA44404DBA4D4056BA36
:1001E80056405FBA5F4087EA174886EA174B84EAA9
:1001F80017464FEA38488BEA1B4485EA1B4788EACA
:100208001B4580EA3440694072407B4000F07034FE
:1002180000F0803500F00F3040EA440040EAD50095
:1002280080EA900404F0332480EA8400604001F0FE
:10023800703401F0803501F00F3141EA440141EAA0
:10024800D50181EA910404F0332481EA84016140F4
:1002580002F0703402F0803502F00F3242EA4402B4
:1002680042EAD50282EA920404F0332482EA840244
:10027800624003F0703403F0803503F00F3343EA33
:10028800440343EAD50383EA930404F0332483EA5E
:1002980084036340C943DB4381EA000483EA0446DC
:1002A80086EA020183EA014382EA334583EA14437A
:1002B8005C4084EA00077FEA040A8AEA024A8AEA7A
:1002C800010B87EA11488AEA374A80EA060181EA7F
:1002D8001A418AEA030A04EA0A00454088EA040740
:1002E80007EA0B0041408AEA0B0608EA060084EA9E
:1002F80034428AEA3A4602EA0603584045404140F9
:1003080087EA37438BEA3B4003EA000985EA090597
:1003180082EA0309464006EA0906714085EA0100B7
:1003280005EA3546464006EA314181EA304181EA2C
:10033800364606EA304686EA354634400F4086EAB5
:10034800010508EA050886EA3640024088EA0208FC
:1003580081EA314213405C4080EA020309EA03095A
:1003680087EA0907674088EA040806EA0A0601EAF4
:100378000B018AEA0B0425408AEA3A4420404540AA
:100388008BEA3B4B02EA0B02564084EA0B042340FB
:1003980059406E40694087EA364080EA384080EA32
:1003A800060380EA104481EA134585EA344585EA64
:1003B80017427D4082EA354180EA05403CE9F00079
:1003C8006040694072407B40BEF1010E3FF6CFAEFF
:1003D80020BC00F05FF828606960AA60EB60BDE8A7
:1003E800F08F00BF00F000BA80EA101404F0F01497
:1003F80080EA0410604081EA111404F0F01481EAE4
:100408000411614082EA121404F0F01482EA041222
:10041800624083EA131404F0F01483EA041363407F
:1004280080EA102404F47F4480EA0420604081EAD2
:10043800112404F47F4481EA0421614082EA1224F1
:1004480004F47F4482EA0422624083EA132404F419
:100458007F4483EA0423634081EA500404F055345E
:1004680080EA4400614083EA520404F0553482EA89
:100478004402634082EA900404F0333480EA840042
:10048800624083EA910404F0333481EA84016340D2
:10049800704700BF82EA900404F0333480EA840095
:1004A800624083EA910404F0333481EA84016340B2
:1004B80081EA500404F0553480EA4400614083EA3C
:1004C800520404F0553482EA4402634080EA10245E
:1004D80004F47F4480EA0420604081EA112404F493
:1004E8007F4481EA0421614082EA122404F47F44B3
:1004F80082EA0422624083EA132404F47F4483EAF4
:100508000423634080EA101404F0F01480EA041015
:10051800604081EA111404F0F01481EA041161408A
:1005280082EA121404F0F01482EA0412624083EAA8
:10053800131404F0F01483EA04136340704700BFF7
:100548002DE9F14F94464FEA930B8A68CB68086807
:100558004968FFF749FF0BF1060E33E083EA1344BD
:1005680080EA134582EA134746BA96EA3444604063
:1005780000F00F1684EA063420F00F1684EA1610ED
:1005880054BA94EA0106724002F00F1486EA04365F
:1005980022F00F1486EA14124CBA6540694001F043
:1005A8000F1485EA043521F00F1485EA14115CBA9A
:1005B80067407B4003F00F1487EA043723F00F14D9
:1005C80087EA1413BCE8F0006040694072407B4041
:1005D80000F0E03400F0103500F00F3040EA54002D
:1005E80040EAC50080EA900404F0332480EA8400DD
:1005F800604001F0E03401F0103501F00F3141EABC
:10060800540141EAC50181EA910404F0332481EAE6
:100618008401614002F0E03402F0103502F00F323C
:1006280042EA540242EAC50282EA920404F0332400
:1006380082EA8402624003F0E03403F0103503F0EC
:100648000F3343EA540343EAC50383EA930404F0EF
:10065800332483EA8403634081EA324787EA1345F7
:1006680081EA354690EA060484EA034B82EA1B4293
:1006780080EA044484EA054483EA144A85EA144477
:100688008BEA044B84EA374481EA0B4181EA16413C
:1006980004EA0A00454082EA04082BEA08004140BF
:1006A8008AEA0B0602EA060084EA34438AEA3A46F2
:1006B80003EA060778404540414088EA38478BEA14
:1006C8003B4007EA000985EA090583EA070946402D
:1006D80006EA0906714085EA010005EA3546464002
:1006E80006EA314181EA304181EA364606EA304677
:1006F80086EA3546344008EA010886EA01052A40B8
:1007080086EA364003405A4081EA31431F407C4024
:1007180080EA030709EA070988EA0908544088EAD1
:10072800020806EA0A0601EA0B018AEA0B021540EA
:100738008AEA3A42104045408BEA3B4003405E401B
:100748004240174079404D404E40E443F64386EA24
:1007580018435D4085EA054083EA134386EA03416E
:1007680083EA384284EA114383EA04435FEA334365
:10077800BEF1010E3FF6F2AE1ED4BCE8F0006040B8
:10078800694072407B4020BCFFF784FE28606960A6
:10079800AA60EB60BDE8F08F2DE9E0414FF2F0026E
:1007A80080EA1031114080EA01304840410882084F
:1007B800C3084FF0000E4FE700F0113001F011317F
:1007C80002F0113203F0113340EA410040EA82009E
:1007D80040EAC3004FF2F00280EA1031114080EA8B
:1007E80001304840BDE8E0812DE9F04F02F11C05D9
:1007F8000646074600EB850851F8040B043A46F80C
:10080800040BF9D14FF0010CFFF7C6FF5FEA302067
:1008180080EA0C001ECF41404A4053405C401EC64F
:100828002000464517D04FEA4C0C1CF4807F18BFB7
:10083800ACF1E50C2C2DE7D03C2D06D1FFF7ACFF31
:1008480006CF41404A4006C6100006CF41404A4004
:1008580006C61000D8E736E90F00FFF7C5FD043DCE
:1008680086E80F00F7D1BDE8F08F00BF2DE9F04F03
:1008780090E8F00F00F140004FF0040E59E0F0B49A
:10088800826BC36B04680525242687593C444FEACC
:10089800724787EAF24787EA92273C4442684FEA60
:1008A800F21787EAB24787EAD2073C4440F8044B7C
:1008B800032D08BF6FF01B0687593A444FEA734768
:1008C80087EAF34787EA93273A4443684FEAF317DE
:1008D80087EAB34787EAD3073A4440F8042B875995
:1008E8003B444FEA744787EAF44787EA94273B4436
:1008F80044684FEAF41787EAB44787EAD4073B44C9
:1009080040F8043B013DC0D1A0F13C00076A3C44DB
:100918004FEA724787EAF24787EA92273C4402681F
:100928004FEAF21787EAB24787EAD2073C44C46322
:10093800F0BC4FF0020288EA781C8CEAF84C0BEB0A
:10094800BC1C8AEA090303EA080383EA0A039C44F5
:1009580050F8043B9C4451F8043B9C44674444EAE7
:10096800050B0BEA060B04EA05034BEA030BE34409
:1009780084EAF42383EA34530BEBB30B87EA771C3E
:100988008CEAF74C0AEBBC1C89EA080303EA070364
:1009980083EA09039C4450F8043B9C4451F8043B07
:1009A8009C4466444BEA040A0AEA050A0BEA040373
:1009B8004AEA030AE2448BEAFB2383EA3B530AEB45
:1009C800B30A86EA761C8CEAF64C09EBBC1C88EA6A
:1009D800070303EA060383EA08039C4450F8043B30
:1009E8009C4451F8043B9C4465444AEA0B0909EAD3
:1009F80004090AEA0B0349EA0309E1448AEAFA23EB
:100A080083EA3A5309EBB30985EA751C8CEAF54C7D
:100A180008EBBC1C87EA060303EA050383EA07031D
:100A28009C4450F8043B9C4451F8043B9C44644467
:100A380049EA0A0808EA0B0809EA0A0348EA030827
:100A4800E04489EAF92383EA395308EBB30884EAD6
:100A5800741C8CEAF44C07EBBC1C86EA050303EA19
:100A6800040383EA06039C4450F8043B9C4451F871
:100A7800043B9C44E34448EA090707EA0A0708EAF2
:100A8800090347EA0307674488EAF82383EA3853E7
:100A980007EBB3078BEA7B1C8CEAFB4C06EBBC1C10
:100AA80085EA040303EA0B0383EA05039C4450F830
:100AB800043B9C4451F8043B9C44E24447EA080642
:100AC80006EA090607EA080346EA0306664487EACF
:100AD800F72383EA375306EBB3068AEA7A1C8CEAD3
:100AE800FA4C05EBBC1C84EA0B0303EA0A0383EA0D
:100AF80004039C4450F8043B9C4451F8043B9C4438
:100B0800E14446EA070505EA080506EA070345EA57
:100B18000305654486EAF62383EA365305EBB305F5
:100B280089EA791C8CEAF94C04EBBC1C8BEA0A03B1
:100B380003EA090383EA0B039C4450F8043B9C44F2
:100B480051F8043B9C44E04445EA060404EA0704DF
:100B580005EA060344EA0304644485EAF52383EAC4
:100B6800355304EBB304013A7FF4E5AEA0F140003D
:100B7800BEF1010E7FF483AEA0F1400C9CE80F009B
:100B8800001949199219DB19ACE80F009CE80F000D
:100B98004044494452445B44ACE80F00BDE8F08F40
:100BA800844641EA000313F0030349D1403A23D3B2
:100BB8000B6803604B6843608B688360CB68C360D5
:100BC8000B6903614B6943618B698361CB69C361BD
:100BD8000B6A03624B6A43628B6A8362CB6AC362A5
:100BE8000B6B03634B6B43638B6B8363CB6BC3638D
:100BF80040304031403ADBD230320BD30B680360CF
:100C08004B6843608B688360CB68C36010301031D9
:100C1800103AF3D20C3205D351F8043B40F8043BA8
:100C2800043AF9D2043208D0D2071CBF11F8013BAC
:100C380000F8013B01D30B8803806046704700BF72
:100C4800082A13D38B07B1D010F00303AED0C3F139
:100C58000403D21ADB071CBF11F8013B00F8013B63
:100C6800A4D331F8023B20F8023B9FE7043AD9D3DA
:100C7800013A11F8013B00F8013BF9D20B780370F7
:100C88004B7843708B7883706046704780EA010C1C
:100C98001CF0030F37D110F0030C20F0030021F0F3
:100CA800030150F8042B08BF51F8043B0ED08CF018
:100CB800030C6FF07F434FEACC0C23FA0CFC51F87D
:100CC800043B42EA0C0243EA0C0300BFA2F1013CD8
:100CD8009A4201BF2CEA020C1CF0803F50F8042B0A
:100CE80051F8043BF2D04FEA02604FEA1222012881
:100CF80028BFB0EB036F08BF1B0AF4D003F0FF0353
:100D0800000EC01A704710F0030F0AD010F8012B1C
:100D180011F8013B012A28BF9A42F4D0A2EB030044
:100D280070474DF8045D50F8042B01F0030521F0DD
:100D3800030151F8043B022D26D04DD822F07F45FF
:100D4800B5EB132FA2F1013C2CEA020C0DD11CF0DB
:100D5800803C08BF51F8043B0AD185EA0205B5EB8F
:100D6800036F0CD150F8042BE8E74FEA13235BE03C
:100D78003CF07F4C54D10B784FEA126554E04FEAAF
:100D8800126503F0FF034FE04FEA0245A2F1013C70
:100D98004FEA15452CEA020CB5EB134F18D11CF09D
:100DA800803C08BF51F8043B07D185EA0205B5EB42
:100DB800034F09D150F8042BE6E75FEA0C4C2FD11A
:100DC8000B884FEA12452FE04FEA03434FEA1245DA
:100DD8004FEA134328E000BF02F0FF05B5EB136F9D
:100DE800A2F1013C2CEA020C0DD11CF0803C08BF9A
:100DF80051F8043B0AD185EA0205B5EB032F0AD165
:100E080050F8042BE8E74FEA13630DE012F0FF0FE8
:100E180006D051F8043B4FEA122523F07F4303E044
:100E28004FF0000020BC704705F0FF0203F0FF0000
:100E3800012828BF904204BF2D0A1B0AF4D0A2EB58
:100E4800000020BC704700BF81F0004102E000BFF5
:100E580083F0004330B54FEA41044FEA430594EA72
:100E6800050F08BF90EA020F1FBF54EA000C55EAAD
:100E7800020C7FEA645C7FEA655C00F0E2804FEA7E
:100E88005454D4EB5555B8BF6D420CDD2C4480EA60
:100E9800020281EA030382EA000083EA010180EA90
:100EA800020281EA0303362D88BF30BD11F0004FDE
:100EB8004FEA01314FF4801C4CEA113102D0404214
:100EC80061EB410113F0004F4FEA03334CEA13334F
:100ED80002D0524263EB430394EA050F00F0A78067
:100EE800A4F10104D5F1200E0DDB02FA0EFC22FA62
:100EF80005F2801841F1000103FA0EF2801843FA56
:100F080005F359410EE0A5F120050EF1200E012A46
:100F180003FA0EFC28BF4CF0020C43FA05F3C01884
:100F280051EBE37101F0004507D54FF0000EDCF1FD
:100F3800000C7EEB00006EEB0101B1F5801F1BD3A6
:100F4800B1F5001F0CD349085FEA30004FEA3C0CAA
:100F580004F101044FEA445212F5800F80F09A80A0
:100F6800BCF1004F08BF5FEA500C50F1000041EBA4
:100F7800045141EA050130BD5FEA4C0C404141EBA8
:100F88000101013C28BFB1F5801FE9D291F0000FA3
:100F980004BF01460020B1FA81F308BF2033A3F152
:100FA8000B03B3F120020CDA0C3208DD02F1140C49
:100FB800C2F10C0201FA0CF021FA02F10CE002F184
:100FC8001402D8BFC2F1200C01FA02F120FA0CFC7D
:100FD800DCBF41EA0C019040E41AA2BF01EB0451C6
:100FE800294330BD6FEA04041F3C1CDA0C340EDCC4
:100FF80004F11404C4F1200220FA04F001FA02F307
:1010080040EA030021FA04F345EA030130BDC4F1C4
:101018000C04C4F1200220FA02F001FA04F340EAB9
:101028000300294630BD21FA04F0294630BD94F06A
:10103800000F83F4801306BF81F480110134013D51
:101048004EE77FEA645C18BF7FEA655C29D094EAC2
:10105800050F08BF90EA020F05D054EA000C04BF40
:101068001946104630BD91EA030F1EBF002100202B
:1010780030BD5FEA545C05D14000494128BF41F0CA
:10108800004130BD14F580043CBF01F5801130BD2E
:1010980001F0004545F0FE4141F470014FF00000B9
:1010A80030BD7FEA645C1ABF194610467FEA655C6A
:1010B8001CBF0B46024650EA013406BF52EA03350C
:1010C80091EA030F41F4002130BD00BF90F0000FFA
:1010D80004BF0021704730B54FF4806404F1320436
:1010E8004FF000054FF0000150E700BF90F0000FEF
:1010F80004BF0021704730B54FF4806404F1320416
:1011080010F0004548BF40424FF000013EE700BFE5
:1011180042004FEAE2014FEA31014FEA02701FBF75
:1011280012F07F4393F07F4F81F06051704732F0A7
:101138007F4208BF704793F07F4F04BF41F40021FE
:10114800704730B54FF4607401F0004521F000415C
:101158001CE700BF50EA010208BF704730B54FF0E6
:1011680000050AE050EA010208BF704730B511F0E7
:10117800004502D5404261EB41014FF4806404F11F
:1011880032045FEA915C3FF4D8AE4FF003025FEAA5
:10119800DC0C18BF03325FEADC0C18BF033202EB29
:1011A800DC02C2F1200300FA03FC20FA02F001FA83
:1011B80003FE40EA0E0021FA02F11444BDE600BF26
:1011C80070B54FF0FF0C4CF4E06C1CEA11541DBFD5
:1011D8001CEA135594EA0C0F95EA0C0F00F0DEF8A0
:1011E8002C4481EA030621EA4C5123EA4C5350EA85
:1011F800013518BF52EA033541F4801143F48013D6
:1012080038D0A0FB02CE4FF00005E1FB02E506F066
:101218000042E0FB03E54FF00006E1FB03569CF0BB
:10122800000F18BF4EF0010EA4F1FF04B6F5007FC1
:1012380064F5407404D25FEA4E0E6D4146EB060633
:1012480042EAC62141EA55514FEAC52040EA5E50BC
:101258004FEACE2EB4F1FD0C88BFBCF5E06F1ED866
:10126800BEF1004F08BF5FEA500E50F1000041EB9D
:10127800045170BD06F0004646EA010140EA02004A
:1012880081EA0301B4EB5C04C2BFD4EB0C0541EA6C
:10129800045170BD41F480114FF0000E013C00F381
:1012A800AB8014F1360FDEBF002001F0004170BDA5
:1012B800C4F10004203C35DA0C341BDC04F11404BE
:1012C800C4F1200500FA05F320FA04F001FA05F24A
:1012D80040EA020001F0004221F0004110EBD37017
:1012E80021FA04F642EB06015EEA430E08BF20EA43
:1012F800D37070BDC4F10C04C4F1200500FA04F3E6
:1013080020FA05F001FA04F240EA020001F0004177
:1013180010EBD37041F100015EEA430E08BF20EAEA
:10132800D37070BDC4F1200500FA05F24EEA020E32
:1013380020FA04F301FA05F243EA020321FA04F061
:1013480001F0004121FA04F220EA020000EBD37018
:101358005EEA430E08BF20EAD37070BD94F0000F18
:101368000FD101F00046400041EB010111F4801F4C
:1013780008BF013CF7D041EA060195F0000F18BFFD
:10138800704703F00046520043EB030313F4801F39
:1013980008BF013DF7D043EA0603704794EA0C0FF3
:1013A8000CEA135518BF95EA0C0F0CD050EA410609
:1013B80018BF52EA4306D1D181EA030101F0004186
:1013C8004FF0000070BD50EA410606BF10461946AE
:1013D80052EA430619D094EA0C0F02D150EA0136BA
:1013E80013D195EA0C0F05D152EA03361CBF1046FB
:1013F80019460AD181EA030101F0004141F0FE419A
:1014080041F470014FF0000070BD41F0FE4141F41D
:10141800780170BD70B54FF0FF0C4CF4E06C1CEA1D
:1014280011541DBF1CEA135594EA0C0F95EA0C0FD2
:1014380000F0A7F8A4EB050481EA030E52EA03358D
:101448004FEA013100F088804FEA03334FF08055AE
:1014580045EA131343EA12634FEA022245EA1115DB
:1014680045EA10654FEA00260EF000419D4208BF8C
:10147800964244F1FD0404F5407402D25B084FEA39
:101488003202B61A65EB03055B084FEA32024FF4E5
:1014980080104FF4002CB6EB020E75EB030E22BF42
:1014A800B61A754640EA0C005B084FEA3202B6EB02
:1014B800020E75EB030E22BFB61A754640EA5C00B1
:1014C8005B084FEA3202B6EB020E75EB030E22BF41
:1014D800B61A754640EA9C005B084FEA3202B6EB42
:1014E800020E75EB030E22BFB61A754640EADC0001
:1014F80055EA060E18D04FEA051545EA16754FEA63
:1015080006164FEAC30343EA52734FEAC2025FEA80
:101518001C1CC0D111F4801F0BD141EA00014FF00F
:1015280000004FF0004CB6E711F4801F04BF0143E0
:101538000020B4F1FD0C88BFBCF5E06F3FF6AFAEFC
:10154800B5EB030C04BFB6EB020C5FEA500C50F18C
:10155800000041EB045170BD0EF0004E4EEA11310F
:1015680014EB5C04C2BFD4EB0C0541EA045170BD16
:1015780041F480114FF0000E013C90E645EA060E5A
:101588008DE60CEA135594EA0C0F08BF95EA0C0F88
:101598003FF43BAF94EA0C0F0AD150EA01347FF4D0
:1015A80034AF95EA0C0F7FF425AF104619462CE7A7
:1015B80095EA0C0F06D152EA03353FF4FDAE10460A
:1015C800194622E750EA410618BF52EA43067FF45B
:1015D800C5AE50EA41047FF40DAF52EA43057FF4EB
:1015E800EBAE12E74FF0FF3C06E000BF4FF0010CF6
:1015F80002E000BF4FF0010C4DF804CD4FEA410C5A
:101608007FEA6C5C4FEA430C18BF7FEA6C5C1BD026
:1016180001B050EA410C0CBF52EA430C91EA030FA7
:1016280002BF90EA020F0020704710F1000F91EA04
:10163800030F58BF994208BF90422CBFD8176FEAD2
:10164800E37040F0010070474FEA410C7FEA6C5CA0
:1016580002D150EA013C07D14FEA430C7FEA6C5CA7
:10166800D6D152EA033CD3D05DF8040B704700BFD3
:101678008446104662468C461946634600E000BF21
:1016880001B5FFF7B7FF002848BF10F1000F01BDF3
:101698004DF808EDFFF7F4FF0CBF012000205DF8BE
:1016A80008FB00BF4DF808EDFFF7EAFF34BF012043
:1016B80000205DF808FB00BF4DF808EDFFF7E0FFDC
:1016C80094BF012000205DF808FB00BF4DF808ED2D
:1016D800FFF7CEFF94BF012000205DF808FB00BF94
:1016E8004DF808EDFFF7C4FF34BF012000205DF876
:1016F80008FB00BF4FEA410C7FEA6C5C02D150EA5C
:10170800013C0AD14FEA430C7FEA6C5C02D152EAF1
:10171800033C02D14FF0000070474FF001007047C2
:101728004FEA410212F5001215D211D56FF4787301
:10173800B3EB625212D94FEAC12343F0004343EAA4
:10174800505311F0004F23FA02F018BF404270477F
:101758004FF00000704750EA013005D111F0004009
:1017680008BF6FF0004070474FF00000704700BF9F
:101778004A0011D212F5001211D20DD56FF4787308
:10178800B3EB62520ED44FEAC12343F0004343EA5D
:10179800505323FA02F070474FF00000704750EAA8
:1017A800013002D14FF0FF3070474FF00000704712
:1017B8004FEA4102B2F1E04324BFB3F5001CDCF16B
:1017C800FE5C0DD901F0004C4FEAC0024CEA5070A3
:1017D800B2F1004F40EB830008BF20F001007047D2
:1017E80011F0804F21D113F13872BCBF01F00040D5
:1017F800704741F480114FEA5252C2F11802C2F107
:10180800200C10FA0CF320FA02F018BF40F0010087
:101818004FEAC1234FEAD32303FA0CFC40EA0C0039
:1018280023FA02F34FEA4303CCE77FEA625307D176
:1018380050EA01331EBF4FF0FE4040F440007047AD
:1018480001F0004040F0FE4040F40000704700BF47
:101858007BB972B90029BEBF00204FF0004106E0F5
:1018680008BF00281CBF6FF000414FF0FF3000F0A8
:1018780075B8ADF1080C6DE904CE002909DB002B21
:101888001ADB00F097F8DDF804E0DDE9022304B084
:101898007047404261EB4101002B1BDB00F08AF8E6
:1018A800DDF804E0DDE9022304B0404261EB4101C8
:1018B800524263EB43037047524263EB430300F029
:1018C80079F8DDF804E0DDE9022304B0404261EB79
:1018D80041017047524263EB430300F06BF8DDF8B7
:1018E80004E0DDE9022304B0524263EB430370478E
:1018F80053B94AB9002908BF00281CBF4FF0FF316F
:101908004FF0FF3000F02AB8ADF1080C6DE904CEB5
:1019180000F050F8DDF804E0DDE9022304B0704778
:10192800D0B500220B4B06460F46FFF749FCFFF7E0
:101938001FFF0446FFF7CAFB0022074BFFF740FCD6
:1019480002460B4630463946FFF782FAFFF710FF8A
:101958002146D0BD0000F03D0000F041704700BFB7
:10196800430803F05533C01A00F03333800800F001
:10197800333018444FF0013300EB101000F00F30F3
:101988005843000E704738B50022002304460D4620
:10199800FFF788FE28B920462946BDE83840FFF7FA
:1019A800BFBF204605F10041FFF7BAFF404261EB97
:1019B800410138BD2DE9F04786468C460846089E09
:1019C800154674461946002B40F0C1808542B2FA8C
:1019D80082F245D94AB1C2F1200300FA02FC9540CF
:1019E80094402EFA03F343EA0C0C4FEA154EA8B2C2
:1019F800230CBCFBFEF80EFB18CC08FB00F943EAED
:101A08000C43994528D9EB1808F1FF3704D29945BA
:101A180002D9A8F102072B44A3EB0903A4B2B3FB34
:101A2800FEFC0EFB1C330CFB00F044EA0344A0420E
:101A380014D92C190CF1FF3304D2A04202D9ACF10D
:101A480002032C44241A43EA07401EB1D440002361
:101A580034607360BDE8F0874746DDE76346F1E729
:101A680092BB431B01214FEA154EAFB2200CB3FBCA
:101A7800FEFC0EFB1C330CFB07F840EA03439845B9
:101A880061D9EB180CF1FF3004D2984502D9ACF1BA
:101A980002002B44A3EB0803A4B2B3FBFEFC0EFB2D
:101AA8001C330CFB07F744EA0344A7424DD92C1911
:101AB8000CF1FF3304D2A74202D9ACF102032C4443
:101AC800E41B43EA0040C0E7C2F12003954094407C
:101AD80020FA03F12EFA03F34FEA154E9040AFB205
:101AE8000343B1FBFEFC0EFB1C10190C0CFB07F8A2
:101AF80041EA0041884522D969180CF1FF3004D227
:101B0800884502D9ACF102002944A1EB08019BB237
:101B1800B1FBFEFC0EFB1C110CFB07F743EA01436B
:101B28009F420ED9EB180CF1FF3104D29F4202D923
:101B3800ACF102012B44DB1B41EA004193E760460C
:101B4800E3E76146F7E76046A4E76346B8E7834200
:101B580006D916B9002108467CE7C6E900E0F9E78E
:101B6800B3FA83F78FB9834201D3724508D8BEEB25
:101B7800020460EB030301209C461EB9002169E7BB
:101B88003846FAE7C6E9004CF8E7C7F1200CBB4035
:101B98000EFA07F522FA0CF42EFA0CF1BA401C439F
:101BA80020FA0CF3B8404FEA144901431FFA84FEA7
:101BB800B3FBF9F809FB18300B0C08FB0EFA43EAE3
:101BC80000439A4540D9E31808F1FF3004D29A45FA
:101BD80002D9A8F102002344A3EB0A0389B2B3FB9C
:101BE800F9F809FB183308FB0EFE41EA03418E455C
:101BF8002CD9611808F1FF3304D28E4502D9A8F117
:101C08000203214443EA0040A1EB0E01A0FB029825
:101C18004145CE46434602D306D14D4504D201384C
:101C2800B9EB020E68EB0403002EA7D0B5EB0E0249
:101C380061EB030101FA0CFC22FA07F3F9404CEAC4
:101C48000303C6E9003199E74046C5E74346D9E7AB
:101C58002DE9F04F8DB009900D4617468DF0A1FF84
:101C68004B0143EAD0634401241A63EB01039B0050
:101C780043EA9473A400241843EB0101C90041EA24
:101C88005471C4F3103444EA41444FEAD139012D68
:101C980065D07D6829463C48FEF7F8FF28B12946FB
:101CA8003A48FEF7F3FF002861D135A3D3E90023B2
:101CB80020464946FFF7CCFD80460A9130A3D3E978
:101CC800002320464946FFF7C3FD15461C46304A07
:101CD800002328462146FFF7BBFD06460F462C4A3F
:101CE800002328462146FFF7B3FD15461C464EF64D
:101CF8006022002328462146FFF7AAFD81460B9162
:101D08004EF66022002328462146FFF7A1FD15461E
:101D18001C464FF47A72002328462146FFF798FDA7
:101D280083468A464FF47A72002328462146FFF7F5
:101D38008FFDCDE90623CDF810B0CDF814A0CDF86D
:101D480008900B9A03920096019742460A9B114904
:101D580009985EF008F900200DB0BDE8F08F224622
:101D68004B460D4909985EF0FEF80020F4E72A4634
:101D78000A4909985EF015F96FF00400ECE700BF16
:101D8800005C2605000000000C4F0A00104F0A00F6
:101D980080EE3600344F0A00F84E0A001C4F0A0045
:101DA8000023836400220023C0E9002314A3D3E99D
:101DB8000023C0E9022314A3D3E90023C0E90423C4
:101DC80013A3D3E90023C0E9062313A3D3E900230F
:101DD800C0E9082312A3D3E90023C0E90A2312A308
:101DE800D3E90023C0E90C2311A3D3E90023C0E9F8
:101DF8000E2311A3D3E90023C0E91023704700BFC5
:101E080008C9BCF367E6096A3BA7CA8485AE67BB05
:101E18002BF894FE72F36E3CF1361D5F3AF54FA530
:101E2800D182E6AD7F520E511F6C3E2B8C68059B0C
:101E38006BBD41FBABD9831F79217E1319CDE05BC4
:101E48002DE9F04F8DB0814688461446D0F8F4103D
:101E58000B6B43B10622183104F1200053F05EFBEE
:101E6800002800F00981D8F86060D8F87850A76F8A
:101E780002A948466AF00CF8E0B9DDF818A0BAF1F2
:101E8800000F04D1DDF814B0BBF1000F14D0BAF183
:101E9800000F01D1DDF814A0079A514602986AF0A4
:101EA80002F983460246414648466AF068FA054602
:101EB800564601E04FF0000B05F59C530833BB4232
:101EC800C0F0DC80236DB3F57A6F07DDD8F85030A9
:101ED800B3F57A6F21DB4FF0000A01E04FF0000AFA
:101EE800002E1DDB07F59C530833AB42C0F0CA80B7
:101EF800BBF1190F00F3C88016F1550F2FDB16F14F
:101F0800500F52DB16F14B0F52DB16F1460F52DB26
:101F1800002E21DB4FF0020B23E04FF0010ADFE730
:101F2800236E03EB4A03B342DCDA3846FFF7CEF8F8
:101F3800804689462846FFF7C9F84FF03332564B9A
:101F4800FFF73EF902460B4640464946FFF7AAFB13
:101F58000028C7D0002092E04FF0050B01E04FF0B9
:101F6800010B2846FFF7B2F8804689463846FFF746
:101F7800ADF802460B46CDE900230022474BFFF798
:101F88001FF902460B4640464946FFF7A9FBA8B190
:101F98000BF10A0BBAF1000F01D0ABF1020B236E63
:101FA8009B1B5B4572DA002069E04FF0020BD8E713
:101FB8004FF0030BD5E74FF0040BD2E74FF0333265
:101FC800354BDDE90001FFF7FBF802460B464046BA
:101FD8004946FFF785FB10B10BF1050BDAE72CA397
:101FE800D3E90023DDE90001FFF7EAF802460B46D2
:101FF80040464946FFF774FB10B10BF1020BC9E7E5
:10200800BD4202D90BF1010BC4E70022234B404625
:102018004946FFF7D5F802460B46DDE90001FFF710
:102028005FFB10B1ABF10A0BB4E74FF033321A4B38
:1020380040464946FFF7C4F802460B46DDE9000171
:10204800FFF74EFB10B1ABF1050BA3E710A3D3E9E3
:10205800002340464946FFF7B3F802460B46DDE940
:102068000001FFF73DFB10B1ABF1020B92E7BD4257
:1020780090D20BF1FF3B8DE7012000E001200DB06D
:10208800BDE8F08F0020FAE70020F8E70120F6E726
:102098009A9999999999F13F3333F33F0000F83FA2
:1020A800F0B585B001284DD10D468A682E4B9A426D
:1020B8004FD88DF076FDC00B40EA4140C90B2B4C40
:1020C800A0FB047004FB01068DF06BFDC0F30E004D
:1020D800A0FB0403C00B40EA43403F1846F100064A
:1020E8002B686968A3FB043204FB0122A9685B180A
:1020F80042EBE172DF1B62EB060619A3D3E900236A
:1021080038463146FFF7A4FBCDE9000114A3D3E913
:10211800002338463146FFF79BFB0292EFF3118507
:10212800202383F31288BFF36F8F114C04AB13E99C
:102138000F0084E80F0085F31188BFF36F8F00202C
:1021480005B0F0BD71F065FF162303604FF0FF3056
:10215800F6E771F05EFF162303604FF0FF30EFE7FC
:1021680000CA9A3B00000000FFC99A3B00CA9A3B8C
:1021780048E400200000000038B50446002A43D097
:10218800072A45D11D68E9174A0142EAD5624FEA94
:10219800451CBCEB050C62EB0102520242EADC5220
:1021A8004FEA4C2C1CEB050C41EB02004FEA801E59
:1021B8004EEA9C6E4FEA8C12B2EB0C026EEB000EEC
:1021C800521941EB0E015868131841EBE071012BCD
:1021D80071F100020DDB124818180FA3D3E9002390
:1021E80041F10001FFF734FB014620462BF042F88D
:1021F80010E00C48181808A3D3E9002361F1000186
:10220800FFF726FB0146F0E7198879F09EFD01E00B
:102218006FF0850038BD00BF3AA3950000000000AC
:102228009DD14A00632EB5FF01295CD80022002306
:10223800C0E90023C0E9022300292BD12CA3D3E94C
:102248000023C0E904232CA3D3E90023C0E9062313
:102258002BA3D3E90023C0E908232BA3D3E9002348
:10226800C0E90A232AA3D3E90023C0E90C232AA33F
:10227800D3E90023C0E90E2329A3D3E90023C0E949
:10228800102329A3D3E90023C0E91223C0F8D010F2
:102298000020704726A3D3E90023C0E9042326A31E
:1022A800D3E90023C0E9062325A3D3E90023C0E925
:1022B800082325A3D3E90023C0E90A2324A3D3E9EB
:1022C8000023C0E90C2324A3D3E90023C0E90E238B
:1022D80023A3D3E90023C0E9102323A3D3E90023D0
:1022E800C0E91223D2E76FF074007047AFF30080A3
:1022F80008C9BCF367E6096A3BA7CA8485AE67BB11
:102308002BF894FE72F36E3CF1361D5F3AF54FA53B
:10231800D182E6AD7F520E511F6C3E2B8C68059B17
:102328006BBD41FBABD9831F79217E1319CDE05BCF
:10233800D89E05C15D9DBBCB07D57C362A299A62FC
:1023480017DD70305A01599139590EF7D8EC2F150D
:10235800310BC0FF6726336711155868874AB48E5A
:10236800A78FF9640D2E0CDBA44FFABE1D48B547A4
:102378002DE9F04F016C9BB016461F46279D04902F
:10238800CDE9026749B1426C0123044693404A6093
:102398008B6058F061FD00232364B7F10009C0F297
:1023A800B68000232B607E4B33EA090300F0BA8025
:1023B8000022DDE90234184621460023CDE9080150
:1023C800FFF766F9804668B10123269A1360289BB7
:1023D80013B1744B289A1360DFF8CC8140461BB0C8
:1023E800BDE8F08F18AB0498019319AB0093DDE9B1
:1023F800082359F037F983465FEA195540F0A98058
:10240800DDE91885454405F23243202B40F34D821F
:10241800C3F1400309FA03F905F2124326FA03F35C
:1024280049EA0300FEF752FE013D0123A1F1F871CC
:10243800109300225D4BFEF70BFD53A3D3E9002355
:10244800FEF7BEFE52A3D3E90023FEF703FD0646BE
:102458000F462846FEF74AFE4FA3D3E90023FEF7AE
:10246800AFFE02460B4630463946FEF7F3FC0646F9
:102478000F46FFF755F900228246002330463946B9
:10248800FFF710F9002840F00382A8EB0508BAF11D
:10249800160F08F1FF33069300F2A781444E06EBAE
:1024A800CA06DDE90801D6E90023FFF7FBF8002892
:1024B80000F0848000230AF1FF3A0F9308F1FF33FC
:1024C800002BC0F2998100230A93BAF1000F7BDA3E
:1024D8000A9BCDF82CA0A3EB0A030A93CAF10003C8
:1024E8004FF0000A0E93249B092B77D8052B40F355
:1024F800E181043B00272493249B023B032B00F239
:102508005986DFE813F05404510447042C040123CE
:1025180029F000492B60224BCDF80C9033EA0903CF
:102528007FF446AFC9F3130942F20F73269A59EAAA
:10253800060913601DD0289BDFF87880002B3FF434
:102548004DAF08F10303289A404613601BB0BDE85D
:10255800F08FDDE90812CDF84080A5F2FF35C2F30F
:1025680013030846DDF8608043F07F5141F44011C1
:102578005FE7289BDFF84080002B3FF42FAF08F17E
:102588000803E0E7AFF3008061436F63A787D23F9A
:10259800B3C8608B288AC63FFB799F501344D33F4A
:1025A8000000F07FC9E20B00C8E20B000000F83F12
:1025B80040480A0030FE0B0024FE0B00B8F1000F63
:1025C80040F3B1840F900A90069BCDF82CA0534499
:1025D800069300230E93249B092B87D900230127F8
:1025E800CDE924334FF0FF330C970793049B002168
:1025F8005964079B1193049858F008FC059000282B
:1026080000F0E185079B0E2B8CBF002707F0010720
:10261800DDE904321A64002F00F01B810B9A002AAE
:1026280040F34A81BC4E02F00F03D4054FEA22184A
:1026380006EBC303D3E9006740F17083B74B08F09A
:102648000F080325D3E90823DDE90801FEF7E2FEB8
:10265800CDE91201B8F1000F12D0DFF8C09218F0DE
:10266800010F08D0304639460135D9E90023FEF775
:10267800A7FD06460F465FEA680809F10809EED18A
:1026880032463B46DDE91201FEF7C4FE8046894624
:102698000F9B43B10022A24B40464946FFF702F880
:1026A800002840F047842846FEF720FD42464B4666
:1026B800FEF786FD9B4B0022FEF7CCFB079B0646E8
:1026C800A1F15077002B00F0AB80079B0B9C129375
:1026D800059B404612995D1CCDE914678E4E06EBAA
:1026E800C10353E90212CDE916124946FFF718F85B
:1026F80000F13007FEF7FAFC02460B464046494611
:10270800FFB2FEF7A5FB89460C998046DDE9162342
:10271800002900F00F8100208349FEF77BFEDDE9E8
:102728001423FEF795FB059E42464B463770064636
:102738000F46FEF7D5FF002840F02F850023CDF87F
:1027480058A0CDF850B09A46DDF848B012942BE066
:102758000AF1010ADA4580F2BD8430463946002282
:10276800724BFEF72DFD0022704B06460F46404681
:102778004946FEF725FD89468046FEF7D1FF044607
:10278800FEF7B4FC02460B46303440464946FEF795
:102798005FFB32463B4605F8014B80468946FEF70B
:1027A80081FF002840F09C8442464B4600205C494B
:1027B800FEF74EFB32463B46FEF774FF0028C7D0B3
:1027C800DDF850B02F46129C059902E08F4200F0C8
:1027D8005F843A4617F8013D392BF7D00133DBB255
:1027E8003B70DDF8148005926BE101230F9308F12B
:1027F800FF33002BBFF667AEC8F101030A9300232D
:10280800069362E62846FEF771FC42464B46FEF701
:10281800D7FC0022434BFEF71DFB0646A1F150777B
:10282800404649460022424BFEF712FB32463B46E1
:1028380080468946FEF754FF002840F0AD834046A5
:102848004946324607F10043FEF72CFF002840F0C6
:10285800D5810B9A199B0E2A02DC002B80F2AD81E0
:102868000C9A002A00F0B580249A012A40F3858347
:10287800079A0E9B551EAB42C0F2C782002AA3EBF3
:10288800050580F25B840A9B079AA3EB0208C9E25C
:102898005046FEF72BFC32463B46FEF7F9FE002871
:1028A8007FF4F3AD0AF1FF3AEFE5C3F1200306FA2E
:1028B80003F0B7E501271FE600F0A3820B9B164E35
:1028C8005D4205F00F0306EBC303DDE90801D3E918
:1028D8000023FEF775FC2E11CDE9120100F0528499
:1028E8000E4C0023022580468946F00709D540464C
:1028F80049460135D4E90023FEF762FC3B46804691
:102908008946761004F10804EFD1002B7FF4C0AE9D
:10291800DDE91289BCE600BF40480A0018480A00F1
:102928000000F03F00001C400000E03F0000244091
:1029380000001440DDE91401FEF742FC059B1F70FE
:10294800129B012BCDE90C0100F00984129F059B15
:10295800CDF840A01F440022AA4B40464946FEF746
:102968002FFC89468046FEF7DBFE8246FEF7BEFB5B
:1029780002460B460AF1300A40464946FEF768FA15
:1029880005F801ABAF4280468946E4D1DDF840A0A6
:1029980000229D4BDDE90C01FEF75CFA42464B46EE
:1029A800FEF780FE002840F07B8300209649DDE991
:1029B8000C23FEF74DFA42464B46FEF791FE0028DF
:1029C80040F01982199B002B03DB0B9B0E2B40F365
:1029D800F58000230E9DDDF828801E460C93B8F183
:1029E800000F0DDD069900290B4609DD41450A9ABD
:1029F800A8BF4346D21AA8EB0308CB1A0A9206933B
:102A08000E9B53B10C9B13B1002D40F01E8259460A
:102A18000E9A049858F008FC83460121049858F04F
:102A280023FB0746BAF1000F40F06381249B012B7A
:102A380040F37A81012306990B4413F01F0308D051
:102A4800C3F12002042A00F3B5810AD0C3F13C0384
:102A580000E01C230A9A98441A440A92069A1A44D7
:102A680006920A9B002B05DD59461A46049858F031
:102A780035FC8346069B002B05DD39461A4604982B
:102A880058F02CFC0746249B022B0F9BD4BF002533
:102A98000125002B40F0BE80079B002B24DC1DB3D2
:102AA800079B002B00F08F81259BDDF81480DC4309
:102AB8003946049858F0D0F91EB13146049858F0B8
:102AC800CBF95946049858F0C7F900220599631CB8
:102AD8000A70269A1360289B002B3FF47FAC40466F
:102AE80019601BB0BDE8F08F0C9B002B00F0AF8085
:102AF800B8F1000F00F3C081BAF1000F40F0D382A3
:102B0800B146059D079C6B1E1C44029B089403F06C
:102B18000103049C0A933946584657F015F9314683
:102B28008246584658F04EFC4A463946804620466A
:102B380058F068FCC26801460AF13003002A40F0E8
:102B4800A281CDE90603584658F03CFC0699069048
:102B5800204658F081F9249B069A52EA0301079B04
:102B680040F0C2810A9A002A00F0F282B8F1000F00
:102B7800C0F2AD81089AA846AA4208F8013B00F0C5
:102B8800D282594600230A22204658F06FF94E4552
:102B9800834631464FF000034FF00A02204600F00A
:102BA8009D8158F063F94946064600230A222046CB
:102BB80058F05CF945468146ADE7144E0B9B06EB91
:102BC800C306D6E90034CDE90234259B002B80F2F8
:102BD800E881079B002B00F3E481079B73B900226F
:102BE8000B4BDDE90201FEF7EBFA02460B46DDE985
:102BF8000801FEF761FD002800F0CE8100273E465F
:102C080052E700BF000024400000E03F40480A00AF
:102C1800000014403946584658F0D4FB0028BFF647
:102C28003BAF0B9B59460A220498013B0B930023A8
:102C380058F01CF90C9B8346002B40F09282119BA4
:102C4800002B119B079302DC002D7FF429AFDDF8E0
:102C580014800125079CDDF8109007E059460023F1
:102C68000A22484658F002F9013583463946584643
:102C780057F06AF8A54200F1300308F8013BEDDB94
:102C8800079A0025002ACCBF90464FF00108059A04
:102C98009044594601220498029358F01FFB394684
:102CA800834658F08FFB002840F3E481059A02E040
:102CB800904500F0D48118F8013CC24608F1FF386D
:102CC800392BF5D001330B9C88F80030394604982D
:102CD80058F0C2F8002E00F0C8812DB1B54203D0DB
:102CE8002946049858F0B8F8DDF81480CDF814A0F7
:102CF800E3E601465246049858F096FA249B0746A4
:102D0800012B40F395804FF0000A3B6907EB8303E2
:102D1800186958F055F9C0F120038CE6DDE908344C
:102D28000225CDE9123495E4029B002B7FF482AE94
:102D3800DDE90212C2F31303002B7FF47BAEAD4B27
:102D4800134033B10A9B01330A93069B0133069360
:102D58000123BAF1000F40F0F9819A466AE601238F
:102D68000C93259B0B9A134411930133012B1D4699
:102D78000793B8BF0125172D40F3138201220423BE
:102D88005B001146013203F11400A842F8D9049BF4
:102D9800596430E401230C93259B002B40F3BE803B
:102DA8001D4611930793E6E700230C93D9E7002308
:102DB8000C93F1E7C3F11C030A9A19441A44984486
:102DC8000A9206914DE639460522049858F04EF8C5
:102DD80007465846394658F0F5FA00287FF764AE9A
:102DE800DDF81480059B0B9C0133013405933123D6
:102DF80088F800305CE63A4617F8013D302BFAD0E7
:102E0800EFE40225DDE9088942E40E9B0E95EB1AF2
:102E180000259A44DDE90632134406930A9B984636
:102E280013440A930121049858F01EF90646D6E582
:102E3800029B002B7FF467AFDDE90201C1F31303A6
:102E48000A46002B3FF47BAF5DE7049C31462A46D7
:102E5800204658F0E9F906465A462046314658F0C9
:102E680031F959468346204657F0F6FF0E9B5B1B07
:102E78000E933FF4D2ADCAE531464246049858F065
:102E88002DFA064638E60498069357F0E5FFB8F1A0
:102E9800000F069B08DB029A249902F0010248EA17
:102EA800010852EA08022ED15946012204980293D9
:102EB80058F014FA3946834658F084FA0028029BE1
:102EC80040F36581392B00F031810AF13103AA46BC
:102ED8000B9C35464E460AF8013BF7E657F0C6FF0D
:102EE80045460646814616E6B8F1000FC0F25E81F7
:102EF800249948EA01080A9951EA080800F056811D
:102F0800002A7FF737AE392B00F01081AA4601332B
:102F180035460B9C4E460AF8013BD7E6012325931C
:102F28000793FFF763BBC8F1010306900F900A935C
:102F3800FFF74ABB079B002B3FF464AC119B002BA7
:102F48007FF787AC0B9A404649461293541E2A4B8A
:102F58000022FEF735F980468946681CFEF7C6F858
:102F680042464B46FEF72CF90022244BFDF772FF30
:102F78000646A1F15077FFF7ABBB109A002A00F084
:102F88008B8003F23343069A0E9D1A4406920A9ADE
:102F980090461A440A9245E70027DDF814803E4619
:102FA80020E7DDE90889DDE9022340464946FEF7C6
:102FB80031FA059FFEF7B4FB0546FEF797F8DDE901
:102FC8000223FEF7FDF80B46024649464046FDF748
:102FD8003FFF05F1300307F8013B079B012B00F089
:102FE8008980CDF818B00126DDF81C90DDE902AB28
:102FF80022E000BF0000F07F0000244000001C40D9
:1030080052465B4620462946FEF704FA0136FEF78B
:1030180087FB8046FEF76AF852465B46FEF7D0F813
:103028000B46024629462046FDF712FF08F13003F9
:10303800B14507F8013B5AD00022704BFEF7C0F8A3
:103048000022002304460D46FEF722FB0028D7D0B5
:10305800DDF818B0DDF814800B9C059731E50B9C62
:103068003123059A0134137030E6DDF81480CDF869
:1030780014A026E503D1029BDB073FF517AE18F82D
:10308800013CC24608F1FF38302BF8D00B9C1DE6F6
:1030980001343123FFF7A4BB189BC3F1360372E751
:1030A8000599FFF796BB7168049857F0AFFE05467F
:1030B800002800F08F80336906F10C010C300233D0
:1030C8009A00FDF76DFD29460122049858F006F98B
:1030D800814616E5DDF858A0DDF850B0FFF7B9BB1A
:1030E800DDF81480DDF850B0129C0595E9E4DDF8B0
:1030F80018B0454602460B46FDF7ACFE80468946A9
:10310800DDE90223FEF7ECFA48B940464946DDE915
:103118000223FEF7BDFA00289CD0E9079AD50B9C3C
:103128000599FFF756BB35464E46B2E5A846392302
:103138003546059A4E4608F8013BBCE5069B134404
:1031480006930A9B984613440A936BE69A46DCE575
:10315800392BEBD0B8F1000F3FF7B7AEB7E62F46E3
:1031680016E4314600230A22049857F07FFE119B8B
:103178000646002B119B07933FF7BAAC002D7FF44E
:103188008FACB5E4DDE912890225FFF781BA7FF437
:103198009EAEDA077FF59BAE94E6DDF814800595C0
:1031A8008FE40021049B5964FFF725BA002A3FF7F2
:1031B8007BAE8CE6049B0025184629465D6457F0D3
:1031C80025FE059068B90E4B00224FF4D5710D48C5
:1031D80059F012FF02460A4B40F2EA21094859F019
:1031E8000BFFDDE9043225951A644FF0FF33012205
:1031F80011930C920793FFF72CBB00BF00002440EB
:1032080034FE0B0048FE0B002DE9F04F1C46794BAD
:103218009FB00E4600258346186807921A950890B5
:1032280052F06EFF0021024633460020CDE904012A
:103238009846199313F801ABBAF12D0F5ED801A186
:1032480051F82AF0E333010005330100053301008A
:103258000533010005330100053301000533010082
:10326800053301000533010039320100393201000C
:1032780039320100393201003932010005330100C9
:103288000533010005330100053301000533010052
:103298000533010005330100053301000533010042
:1032A8000533010005330100053301000533010032
:1032B8000533010005330100053301000533010022
:1032C80005330100393201000533010005330100DF
:1032D8000533010005330100053301000533010002
:1032E80005330100053301000533010005330100F2
:1032F800B739010005330100D139010000230993D2
:10330800BAF1300F00F0688200230A93AAF1300363
:10331800092B00F25684002740463D463C460130C2
:10332800082C07EB870104F1010405EB850C1990C3
:1033380090F800A0CCBF03EB410703EB4C05AAF1C2
:103348003003092BEBD90899089252F031FF089AFB
:103358008146002850D1199B014608949818199065
:103368009B5CA3F13002092A00F2F08201319246F7
:103378001998002A40F0F884431C19934378F0E721
:103388004FF0010EB31C1993B378A3F1300CBCF1C4
:10339800090F00F2F582199A302B0B9240F02B831B
:1033A800013219921378302BFAD0A3F131000B9225
:1033B800082840F21E8300220C9254BB0A9A0A4342
:1033C80040F09882BAF1000F07D1692B00F03983D9
:1033D80040F318826E2B00F01B82079B4FF0000809
:1033E8004FF0000903B11E60404649461FB0BDE8D2
:1033F800F08F00BF00010C002AF020020021534684
:103408000894452A89468A4600F0AD820C91002C22
:10341800D4D0089A2846A2461346002A08BF234655
:103428000893FDF753FE0B460246102CCDE9042302
:103438000C9BA8BF4FF0100A092CA3EB09030B93B0
:1034480017DD544B03EBCA0353E91223FDF7B8FE0B
:10345800024638460F461646FDF738FE02460B462A
:1034680030463946FDF7F6FC0F2CCDE9040100F390
:10347800E1810B9B002B00F097820B9B40F3A78206
:10348800162B40F39A84C4F125030B9A934280F2D9
:10349800DA84A4EB0A06164416F00F000AD03D4958
:1034A80001EBC001DDE90423D1E90001FDF788FE45
:1034B800CDE9040136F00F034ED0B3F59A7F00F33F
:1034C8004684102B4FEA231640F3B285DFF8C8E094
:1034D8004FF0000CCDF828907746E246F146DDE93A
:1034E800042316F0010F104619464FEA66060AF142
:1034F800010A07D0D7E90023FDF762FE4FF0010C5F
:1035080002460B46012E07F10807EAD1CE46DDF840
:103518002890BCF1000F01D0CDE90423059B0EEBE8
:10352800CA0E1E4EA3F154730593DDE90423DEE9A8
:103538000001FDF745FE1A4B0A460B40B342CDE9A0
:10354800040100F2048417498B4240F2FE844FF0D4
:10355800FF33154ACDE9043200230A932346089A1B
:1035680041465846009557F0D3FC1590002800F0C6
:10357800EE830B9A4FF0000A0C9B002ACDF820A08E
:10358800A9EB0303A8BF00230C9322EAE273149368
:10359800E2E000BF40480A0018480A000000A07C8A
:1035A8000000F07F0000907CFFFFEF7FD21A1F2AF7
:1035B800A4EB020400F3C682012300259340984639
:1035C80026443C440A9BA7421E443B46A8BF2346C8
:1035D800B342A8BF3346002B02DDE41AF61AFF1ADD
:1035E8000C9B002B00F35482002C00F36A820B9B87
:1035F800002B00F39D82002E00F38E82002F08DD41
:1036080051463A46584657F069FE8246002800F06F
:103618008C824A461A99584657F0F4FE08900028BA
:1036280000F08382089A0023D168D3600D91514637
:1036380057F0C8FE0028C0F2C584059F00F0228418
:103648005146089858F06EF800224FF0804304461F
:103658000D46FEF731F8002800F00A820D9B002B7A
:1036680040F07C82049B002B40F06183C7F3130376
:10367800002B40F0E6820022AB4B20462946FEF79D
:1036880011F8002840F0F5832046A84B294600226F
:10369800FDF796FD03460C460E90CDE9123401F174
:1036A80000430F93A24EA34B3E409E42DDE90E45D8
:1036B80000F05B820A9B23B3B6F1D46F21D8DDE911
:1036C800127897A3D3E9002338464146FDF7F4FF63
:1036D800A0B141463846FEF74BF8012838BF012013
:1036E800FDF7F4FC0D9BCDE91201002B40F0378368
:1036F80001F1004316901793DDE9164505F1D663ED
:103708009D1BDDE910783846414657F02BFF0246ED
:103718000B4620462946FDF753FD3A464346FDF73A
:1037280099FB0C46CDE90401814B2340B34203D1F8
:103738000A9B002B00F08E821A99584657F08CFB92
:103748004946584657F088FB5146584657F084FB7F
:103758000899584657F080FB159C5846616857F001
:1037680055FB8146002800F0E081226904F10C0134
:103778000C3002329200FDF713FA1CAB5846019345
:103788001BAB0093DDE904341A46CDE91034234617
:1037980057F068FF1A90002800F09C8101215846D4
:1037A80057F062FC8246002800F0BF811B9B002B6B
:1037B800C0F2AE810C9A149E9F180A9A1C9C9B1A00
:1037C8005D4A2344C4F13604013B9342FFF6EEAE52
:1037D800012300259846F3E698F8013003F0DF034B
:1037E800582B00F0758243460133199393F800A0D3
:1037F800BAF1300FF8D09846BAF1000F7AD0012309
:103808000A9383E5492B00F01C814E2B7FF4E5AD2C
:103818004A4919A859F0B6FF00283FF4DEAD199BB4
:103828001B78282B00F07E8345485AF0B7F880466D
:10383800894663E0A4EB0A060B9B1E44002E3FF763
:103848002BAE3FF489AE764216F00F020AD03D4BFC
:1038580003EBC203DDE90401D3E90023FDF7DAFD38
:10386800CDE9040136113FF477AE1F2E3FDC16F088
:103878001003354F4FF0000C18BF6A230A93DDE997
:10388800042316F0010F1046194607D0D7E9002384
:10389800FDF796FC4FF0010C02460B46761007F137
:1038A8000807EED1BCF1000F01D0CDE904230A9B33
:1038B800A3B1DDE90401C1F30A52C2F16B03002B85
:1038C8000ADD1F2B40F3FA830020342B049040F3C9
:1038D80021844FF05C7305936A230A930022002326
:1038E800DDE90401FDF7D4FE00283FF437AE2223BA
:1038F800CBF800304FF000084FF00009079A0AB1E2
:10390800199B1360099B002B3FF46EAD09F100432E
:103918004046994649461FB0BDE8F08FAFF3008096
:103928000000C0FFFFFFDF410000F03F0000E03F64
:103938000000F07F0000E07F02FCFFFF80790A00B2
:10394800909D0A0040480A0008490A004FF0010A01
:1039580023F02002452A7FF42EAD44EA01030A9A97
:1039680013433FF43AAD199E731C199373782B2BAC
:1039780000F023812D2B3FF403AD4FF0000E04E53A
:10398800002219960C9218E51C9A03F2334304920C
:103998001D9A22F4801242EA03530593210703D5A6
:1039A800059B43F000430593DDE90489A6E700235E
:1039B800099308F10103199398F801A0BAF1000FCF
:1039C8003FF40BAD98469BE401230993F1E71633C6
:1039D800FFF630AF0C9BA9EB0309B34B03EBC9030C
:1039E800DDE90401D3E90023FDF714FD804689468B
:1039F80084E7A3F1300C0B9B581C19905B78A3F15A
:103A08003002092A00F2D18101300CEB8C0C19909C
:103A180003EB4C0C0378ACF1300CA3F13002092A0B
:103A2800F2D90B9A801A082840F3BF8144F61F6226
:103A38000C92BEF1000F3FF4C0AC0C9A52420C92AB
:103A4800BBE49A4919A859F09DFE00283FF4C5AC7B
:103A5800199B19A89649013B199359F093FE10B97F
:103A6800199B013319934FF00008DFF8489245E796
:103A7800914B204629460022FDF7A2FB0D9BCDE97C
:103A88001201002B65D101F100430E900F9309E656
:103A980051461A46584657F0C7FB8246002844D07C
:103AA80001461A9A584657F00DFB00283DD00D9054
:103AB80058461A9957F0D0F90D9B002C1A937FF7A6
:103AC80096AD22461A99584657F008FC1A900028D5
:103AD8007FF48DAD4F46054622234FF00008DFF8EE
:103AE800D491CBF800302946584657F0B5F93946F5
:103AF800584657F0B1F95146584657F0ADF915995F
:103B0800584657F0A9F90899584657F0A5F9F5E627
:103B1800149A0C9FD61A50E649463246584657F032
:103B2800DDFB814600287FF469AD4F461A9DD3E737
:103B38004946149A584657F077FB814600287FF487
:103B48005AADF2E75D4AD31A012202FA03F590460C
:103B580036E5DDE91234CDE90E34A3E50023584CEF
:103B6800CDE90E34CDE912349CE5A7F15473514FD9
:103B78000593DDE904452046294657F0F3FCDDE9C5
:103B88000E23FDF71DFB2B462246FDF763F94D4B2F
:103B98000F409F42CDE9040140F2DD8003F15473E8
:103BA800DDE91001994202D1B0F1FF3FBDD04FF0DD
:103BB800FF33454ACDE90432BEE54FF0000EFFF76A
:103BC800E1BB089940460B9252F0F2FA0B9A089022
:103BD80048B100225346174692461546114691466B
:103BE80014460892B4E6199B981819909B5C302BE0
:103BF80040F0278102461146013219921378302B82
:103C0800F9D0C0F101000144A3F13102082A10D80B
:103C1800DDF864800025A3F1300A01F101090124CF
:103C280040462F4605EB850500210AEB4505FFF7C1
:103C3800A3BB4FF000094FF0010A4C464F464D46D2
:103C480086E60023214CCDE90E3400231C4CCDE937
:103C5800123427E5DDE91256C4F313072846314626
:103C6800FDF791FEFDF77EFA02460B4628463146DF
:103C7800FDF7EEF8049D0D9E04462E430D4637438E
:103C880043D107A3D3E90023FDF70CFD00283FF437
:103C980053AD4F461A9DDDE9048924E7AFF3008050
:103CA8009535A094FFFFCF3F40480A000CFF0B005A
:103CB80010FF0B000000F07F0000E03FE2FBFFFF79
:103CC8000000F03FFFFF9F7CFFFFEF7F0000F0BF89
:103CD800099B19A90294584601931AABB04A00935C
:103CE8001BAB59F053FA10F0070504463FF402AE37
:103CF800062D7BD1079A12B108F1010313604FF02A
:103D080000084FF00009FFF76FBBA1A3D3E9002318
:103D1800FDF7C8FC0028BCD1204629469EA3D3E95C
:103D28000023FDF7DDFC00283FF406ADB1E7049B56
:103D3800012B86D1002F84D14F461A9C2223254679
:103D48004FF000084FF00009CBF80030CBE62223F3
:103D5800CBF8003087E601F154740594E4E4DDE91A
:103D68001234CDE91634C7E4012900F0138204EBBC
:103D7800010E0EF1FF3CCDF82CE003E04FEA4E05B2
:103D8800A4450BD0082C05EB850E04F10104F5D9E8
:103D980007EB8703102CD8BF5F00F1E7DDF82CE0B4
:103DA800082C894416DC74463CE744F61F629445A7
:103DB800A8BF9446CDF830C03BE60B98794901EB93
:103DC800C001DDE90423D1E90001FDF7F9F98046D6
:103DD800894693E5BEF1100F74464FF00001DCBF31
:103DE80007EB870702EB4707FFF7C6BA1A9A3AB1FB
:103DF80035211CA857F0C0FC58461A9957F02CF8E2
:103E0800013D1B9B042D3FF6C9AD01A252F825F0D8
:103E180091390100413E01003B3E01002D3E010069
:103E2800913901004FF0FF336FF00040CDE90430C5
:103E3800B4E55D4B0593B1E51C9B04931D9B05936D
:103E4800ACE50899E0E6C4F10F04564D05EBC40152
:103E5800DDE90423D1E90001FDF7B2F90B9B1C1B36
:103E680005EBC405D5E90023FDF7AAF98046894684
:103E780044E500234D4CCDE90E3400234C4CCDE9EC
:103E880012340FE43B460D98C4464F46AE464949A6
:103E9800C3F31302DDE9108900285BD08A4200F0E1
:103EA800FB80B5BB049A1CEA020F35D04046494650
:103EB800049357F057FB0A9B04460D46002B00F06D
:103EC8001F81049BC3F30A53C3F16B06002E40F312
:103ED8006481394C002204EB0653FDF771F9024660
:103EE8000B4640464946FCF7B5FF1A9C8046894672
:103EF80040464946314B0022FDF762F90B462546FC
:103F08008046034389467FF4EEAD2223CBF8003088
:103F1800E9E51EEA030FC9D11A9C0A9B2546002B26
:103F2800E6D1E0E519A81CAA254959F045FC052861
:103F38007FF47AAC1D9B43F0FF4343F4E003059301
:103F48001C9B0493DDE90489D8E402F154730593BA
:103F5800FFF702BB002A71D1DDE904452246002C97
:103F680040F0B4800A9A002A40F0F08025F000441E
:103F7800240D2405A4F580141A9D6FEA14536FEAE2
:103F8800035305934FF0FF330493DDE90489AAE551
:103F98009535A094FFFFDF3F35E5AF350000E03FE2
:103FA8002CFF0B0040480A000000F07F0000E0BF33
:103FB8000000E03FFFFF0F000000F03F0000503915
:103FC80018FF0B000D9B4F46DDE90401DDE9108960
:103FD8000343A1D1C1F31303002B9DD121F0004469
:103FE800240D2405B4F1D66F264695D9089A53694D
:103FF80013B91369012B8FDD08990122584657F030
:104008006DF95146089057F0DDF9002884DD0A9BC8
:10401800002BAFD0A6F580131A9C6FEA13536FEAF2
:10402800035305934FF0FF330493DDE904895FE7F9
:104038004FF0000ADFF87CE1FFF770BA002D48D195
:10404800049A1CEA020F3FF467AF404649460493BE
:1040580057F088FA0A9B002B40D0049BC3F30A53FD
:10406800C3F16B06002E40F3A280534C002204EBF0
:104078000653FDF7A5F802460B4640464946FCF7AD
:10408800E7FE0022002380468946FDF701FB002851
:104098007FF453AE1A9C2BE7DDE904010A9A044623
:1040A800002A40D1024601326DD0BEF1000F7FF4E4
:1040B80030AF14EA0C0F3FF42FAFF7E64FF0FF32A2
:1040C80002FA03F3049A1A40049205E4BEF1000FC1
:1040D800B7D01EEA030F3FF41FAFB6E702460B4600
:1040E80040464946FCF7B4FE1A9C0022002380464D
:1040F80089462546FDF7CCFA00283FF4F4AC1DE6C6
:10410800404649462B462246FCF7A4FE1A9D8046A7
:104118008946E8E4C2F14B024FF0FF3393400B406D
:104128000593FFF7D9BB254A1A40B2F1D46F21D9BC
:10413800611CBAD122498B423FF4F8AC02F58013D6
:10414800059300230493DDE90489E5E61B4E1E4030
:10415800B6F1D66F3FF65EAF1A9DB6F15C7F2C467E
:104168003FF6C6AE22234FF000084FF00009CBF807
:104178000030B8E4100D4FF0FF31C0F16B00814002
:104188008C4292D1DAE70E4A93423FF4CFAC013227
:104198001A40D3E704F1010E02E64046494622469A
:1041A8002B46FCF757FE1A9C80468946A0E6024635
:1041B8000B4662E718480A000000F03F0000F07F55
:1041C800FFFFEF7F38B534488AF006FE00285BD041
:1041D8004FF4D011314859F039FC012208212E48FA
:1041E80059F04FFC2E488AF0F7FD002850D02D4892
:1041F8005AF0E4F959F064FC43F23F3500222946AD
:104208007DF0FAFE59F05CFC0022FF217DF0FBFEF8
:10421800254C204685F048FF2449204686F09BF827
:104228004FF000016FF304016FF34A116FF3CF21D0
:10423800204686F08AF82946204685F0FCFFFF21B3
:10424800204685F0FEFF0A21204659F027FC0A2166
:10425800204686F092F859F033FC46F05FFB05469D
:10426800002221467DF0DAFC1149284647F02CF857
:1042780000231A46092128467CF0B5F942F0E2FEEF
:10428800074859F0B2FB38BD0A485AF097F9FAE7DF
:1042980009485AF093F9F6E7483A0A0094490A009F
:1042A800E83A0A0070490A006030012044490B00CE
:1042B80084490A0030490A0054490A0090B583B07D
:1042C80000AF5F488AF088FD00285DD15D4B1B6810
:1042D80013F0070F51D05A4B19686C4600233B71F5
:1042E80002237B7188B0EC461CF110021DD00E2011
:1042F80022B1042802DD544BCCF8143000233B7063
:1043080002237B70A2B1082801DDCCF818100CF14B
:104318001C03002101290BD801F1080EBE441EF828
:1043280008EC03F801EB0131F4E76FF00040DFE738
:104338000D2826DD0E234AB1032139710021797138
:10434800B9710121F9717868CCF8100000216FF378
:1043580000016FF341016FF382016FF3C501012082
:1043680060F38811C3F30A0363F353216FF31F51FA
:104378000023344802F00AF9A54601200C37BD464F
:1043880090BD6FF01B03D6E72E4B1B6803F00703A5
:10439800022BF2D92A4B19686C4600233B71022381
:1043A8007B7188B0EC461CF110021DD00E2022B1A2
:1043B800042802DD254BCCF8143000233B7002237F
:1043C8007B70A2B1082801DDCCF818100CF11C0391
:1043D800002101290BD801F1080EBE441EF808EC93
:1043E80003F801EB0131F4E76FF00040DFE70D2837
:1043F80023DD0E234AB10321397100217971B97186
:104408000121F9717868CCF8100000216FF30001E0
:104418006FF341016FF382016FF3C501032060F36D
:104428008811C3F30A0363F353216FF31F51002369
:10443800044802F0ABF8A5469FE76FF01B03D9E7E5
:10444800FC3A0A00D4D80020AC490A00C8490A003E
:104458002DE9F04184B0044688468268B2F5004FE1
:1044680012D308270837A2EBD7070137B7FA87F71F
:10447800C7F120073B46214655485AF09FF8554852
:104488005AF09CF800262FE00427EBE755880AE04D
:10449800D268914212D0013304EBC202A068B0F591
:1044A800004FF3D355684FEA550EBCEB550F00D8B3
:1044B800F446B0F5004FEBD2D288EAE79BB101226F
:1044C800B240B0F5004F1AD3082101F1080002EB01
:1044D800D002C1EBCC010191CDF800C0013A3146C0
:1044E8003D485AF06BF80136BE420ADA331D54F8DB
:1044F80023100029F7D00A4600239C46CBE7042165
:10450800E3E7B8F1000F26D103AA02A9204659F023
:1045180053FFA368DC00B3F5004F56D308231C44AF
:104528000399631A029A9B1A60084FF47A7505FB7F
:104538000300B0FBF4F0294CA4FB0054E40804EB9E
:104548008405A0EB45000190009425485AF036F800
:1045580004B0BDE8F08123485AF030F8002518E08F
:1045680073881EE02A225B08B1F5004F29D3215831
:10457800691AE8180190009129461B485AF01EF85C
:10458800A368AB42C0D0B3F5004F1CD3736805EBEA
:104598005305E80004EBC506A168B1F5004FDFD369
:1045A800736813F0010FDDD1B1F5004F05D37268C0
:1045B8005208012A03D02D22D5E72D22D3E72E2237
:1045C800D1E7215AD4E77388E1E70423A7E700BFBE
:1045D800F4490A00244A0A00E04A0A00CDCCCCCCAF
:1045E8003C4B0A00FC4A0A000C4B0A002DE9F04F2C
:1045F80091B005920293134602F004020092C3F3AD
:10460800C20210F00303019340F02D8280468A46CF
:104618000132041D00284FD0B8F1000F05D0A4EBDB
:1046280008030433534500F22182029B5D1E019B5F
:1046380004930693039300264FF0FF3B0427B946E3
:10464800B8F1000F01D0029B2360531E0793002A84
:1046580040F35F81059B13F0020228D00120A4EBF0
:1046680008018B081AB1B1F5007F80F00582039923
:104678000F2900F20482B8F1000F00F06281DBB26A
:1046880001F140026A4402F8103C02F820BC0028FC
:1046980000F0538163F07F0301F140026A4402F89D
:1046A800103C049B01330493039B013303930434AC
:1046B8000022CC4640463DE001F0070A5444CAF1C6
:1046C800080AA9E7002634E0002632E0002630E098
:1046D8000827BC462DE025292BD10BF1010B01261B
:1046E8000427BC4625E04729EED82A2914D32A39BD
:1046F800C9B24FF0010E0EFA01F14FF6DA7E11EA57
:104708000E0F16D111F0625F40F0C18011F0010F59
:1047180040F08C8000260CE0252903D10BF1FF3BEB
:10472800002606E001D9002603E0202901D023292C
:10473800CCD11D466B1C6978002900F01B81002E26
:10474800C9D07A29BED84C29CDD34C392E2961D865
:104758000FF2040E5EF821F03B4701001D480100EE
:104768001D4801001D4801001D4801001D480100A9
:104778001D4801001D4801001D4801001D48010099
:104788001D4801001D4801002D4801001D48010079
:104798001D4801001D4801001D4801001D48010079
:1047A8001D4801001D4801001D48010097480100EF
:1047B8001D4801002D4801002D48010097480100BF
:1047C80097480100974801003B4701002D48010028
:1047D800D94601001D4801003B4701001D48010062
:1047E800F34801002D480100F34801001D4801006D
:1047F8001D480100FB480100274801002D48010021
:104808001D4801001D4801002D4801001D480100F8
:104818002148010000268CE70427BC4689E70427C5
:10482800BC4686E729786C2925D000263C44013C03
:10483800B4FBF7F407FB04F4254620B1211A6144C0
:10484800514500F21681002A58D1BCF1040F00F03E
:104858008980BCF1080F40F015811A99073121F0C1
:10486800070101F108051A95D1E9008908B1C4E9E1
:10487800008908345DE713F8021C6C2903D0002670
:104888000427BC46D2E700260827BC46CEE729788D
:104898004C291AD01A99073121F0070101F10806AD
:1048A8001A96D1E90067073424F0070440B1211AA9
:1048B8000831514513D829784C2913D0C4E9006729
:1048C800083400260827BC4633E71A99073121F037
:1048D800070101F108061A96D1E90067E3E76FF0CE
:1048E8001B00BDE0C4E90067EAE700260427BC46D0
:1048F8009CE7324600260427BC4697E72C46E1464B
:1049080080461A9A111D1A9112680292079A1D463A
:1049180096E6624B029A9A4204D3614B9A420AD3B2
:10492800002300E00023002B7FF494AE059B03F0E6
:104938000202002093E60123F5E7069B0133069364
:10494800B2E610B10AF1010AAEE6009B13B10AF112
:10495800020AA9E6029851F0D3FB00EB0A0303F11F
:10496800020AA1E61A990D1D1A95096800B121607D
:104978000434DEE68046231AB3F5806F80F0858024
:1049880090B1002202609B080370009B83B1069BD4
:10499800C370049B88F802301BBB019DDDF80C90A6
:1049A800DDF810B0029F3DE05344A3F1080057E042
:1049B800069B4370EDE701339842EED903F14002BC
:1049C8006A4412F8101C12F9102C002AF3DA01F0CC
:1049D8007F01A4EB08020132524559D804F8011BA3
:1049E800E9E7019B0398E7E7009B43B305F1400320
:1049F8006B4413F8203C04F8013B019EA4EB080328
:104A080033440133534546D805F140036B4413F84A
:104A1800103C04F8013B324639462046FCF7C0F802
:104A280034440135A94519D9BBF1000FDCD005F193
:104A380040036B4413F9103C002BD5DAF1E705F17C
:104A480040036B4413F8103C58F82370002248F8D0
:104A58002320384651F054FB461CCFE7A4EB08004E
:104A680011B0BDE8F08F6FF00D00F9E76FF01B0093
:104A7800F6E76FF01B00F3E76FF01500F0E76FF053
:104A88001500EDE76FF01500EAE76FF01500E7E7AE
:104A98006FF01B00E4E76FF01B00E1E7F8380A004D
:104AA80058010C002DE9F04F97B000AF8346BA616A
:104AB8003B61D7F88030C3F3C0033B62F96011B99A
:104AC80059F0DDFCF8609BF80260B14636B1D7F8C2
:104AD800803013F0010F0DD1002300E000239BF874
:104AE80003207A6242B1D7F8802012F0020F22D157
:104AF800002202E00123F2E7002202B9EBB19BF8A1
:104B08000050AA00BA60DBF804207A610BEB850537
:104B1800BA69F2B1002B40F00581B9F1000F00F03D
:104B28001081D7F8803013F0040F40F00E81002078
:104B3800F8610646FAE00122DFE7BB691BB13A6972
:104B4800F96858469847FC6820465C37BD46BDE87A
:104B5800F08FFC6853BB4D444FF00008D7F8803005
:104B680003F00503FB604FF0000AC7F81080A04669
:104B7800C7F81CB0D7F804B0BEE0044401350136CC
:104B88004E45EBD22A7800235BF822201946B869F3
:104B980059F08AFCBAF1000FEFD0D7F88830984561
:104BA800EBD22AF8180008F10108E6E70026B0461B
:104BB800D7F884A0E4E700253B6A7BB9002D7DD0B7
:104BC800D7F8803013F0010F7DD1FB68002B73D12B
:104BD8000223A8EB03088CE00125EDE74946786934
:104BE80059F0A8FC0028E9D0BB4B1B6813F0060F4E
:104BF80040D06C46002387F82C30022387F82D30EC
:104C08008AB0694611F1100237D012251AB1042D65
:104C180001DDB24B4B61002387F82830022387F867
:104C280029306ABB112D44DD122362B1042087F8B4
:104C38002C00002087F82D0087F82E00012087F827
:104C48002F00F86A08616FF3000B6FF3410B6FF3E5
:104C5800820B6FF3C50B022161F3881BC3F30A03B0
:104C680063F3532B6FF31F5B002359469A4801F0F7
:104C78008DFCA546A8F102083BE06FF00045C5E7AA
:104C88002B46082D01DD786988610C2B01DDC1F800
:104C98001C9001F1200300200128C3D800F1300C3A
:104CA80007F1280EF4441CF830CC03F801CB01308E
:104CB800F2E76FF01B03B8E701238AE7D7F88030E3
:104CC80013F0020F15D0002322461946B86959F08F
:104CD800EBFBD7F8843053B13B69D7F8882093426F
:104CE80005D2D7F8842022F8130001333B6101383C
:104CF80080440AF1010A35467B6A9A4510D22E464D
:104D080016F8029B6B78FA6952F82340744B9C4260
:104D1800FFF451AF734B9C42FFF45EAF00254BE7A5
:104D2800444611E707F144000023FB6118B14A46E5
:104D38002946FBF735FF4D444FF00008C7F80490AB
:104D48001EE00020F8610646F0E7FE6107F1340036
:104D58000026EBE700253B6A33BB002D3BD0D7F894
:104D6800803013F0010F26D0731C06F1300207F1D2
:104D78002801561806F8149CDEB208F101082546E9
:104D88007B6A98454AD22C4614F802AB95F80190F4
:104D98005BF82930524A9342DCD3524A934201D3FA
:104DA8000025D8E70125D6E75146786959F0C2FBB6
:104DB8000028D2D0E1E7D7F8803013F0040FDCD018
:104DC800FA69531C303207F128010A4402F8249C7E
:104DD800DBB2FB61D1E7D7F8803013F0020F09D0BE
:104DE800731C06F1300207F12801561806F8149CC6
:104DF800DEB2C2E7F869431C00F1300107F128026E
:104E08008A1802F824AC02460232D2B2FA6107F1DB
:104E1800580252FA83F303F8249CAEE7D7F80490BB
:104E28009BF8003087F854309BF80130334487F8FA
:104E38005530D7F8803013F0020F0ED1FB69C3F359
:104E4800470387F85730D7F8803013F0010F06D1A1
:104E580013F0040F48D1002302E00023F1E70023F8
:104E680087F85630DBF800003863786DCBF800001F
:104E7800D7F810804246B9685846D7F818A0D047E6
:104E8800041EFFF661AE386BCBF80000C7F810803F
:104E98004246F96907F13400D047002857DB04EB94
:104EA8000008B96849447B6A01EB4301D7F81090C0
:104EB8004A46FB68591A2846D047041EFFF644AEF6
:104EC80008EB04054FF000087E62C7F820B056468C
:104ED800D7F884B01FE000BFDCD80020844B0A005C
:104EE800F8380A0058010C00FB69B9E74FF0000ACE
:104EF8004A46012107F12C00B047002829DB054468
:104F0800534622464946304659F0CEFA002822DB5D
:104F1800054408F101087B6A984511D208F130036D
:104F280007F12802134413F8143C87F82C303A6A26
:104F380052F82340BBF1000FD8D03BF818A0D7E7B0
:104F48003A6900210846BB6998472C46FCE50446A7
:104F5800FAE50446F8E50446F6E500BF014B18609B
:104F6800704700BFE8D0002010B586B00446039013
:104F7800049100210591009103A9064800F030FB37
:104F8800059B049A934201DA0022E254059806B080
:104F980010BD00BF8FE5060008B50F280AD800EB42
:104FA8004000000108300A4B1844D0E8AF3F43B135
:104FB800002008BD6FF02DF8092303604FF0FF3083
:104FC800F7E76FF026F8092303604FF0FF30F0E7AA
:104FD800ECD0002008B500200F280AD800EB4003C9
:104FE8001B010833064A1344D3E8AF3F3BB10130F5
:104FF800F2E76FF00EF8172303604FF0FF3008BD9B
:10500800ECD0002000B5024602EB42031B01083336
:1050180010490B44D3E8AF1FC9B1481ED3E8EFCFFE
:105028008C4504D1C3E8EE0FBEF1000FF6D1EBD1E9
:1050380001290AD1074B02EB42010901002058500F
:1050480002EB420203EB021358605DF804FB0846CA
:10505800FBE700BFECD000200EB42DE9F04382B08E
:10506800054609AF57F8048B460000EB40042401BD
:105078000834DFF878904C4404344FF0FF324FF096
:10508800FF3320464BF0EEFB01972E44300109EB2D
:1050980006167368DB683A46414659F80000984797
:1050A800061E1ADB05EB450209EB0213DB6A03F463
:1050B8007043B3F5E04F06D00CD8B3F5804F02D05B
:1050C800B3F5C04F09D105EB4505084B03EB0513B4
:1050D8009E6202E0B3F5004FF5D020464BF042FC4B
:1050E800304602B0BDE8F04303B07047ECD0002072
:1050F80000EB400003010833044A1344D3E8EF0FE0
:105108000130C3E8E20F002AF8D17047ECD0002044
:1051180070B504460D461646FFF73EFF002813DB20
:105128003DB104EB4401094B03EB01135B68AB424F
:1051380005D104EB44042401044B185970BD6EF0EA
:1051480068FF06600020F9E70020F7E7ECD00020B0
:1051580070B504460E461546FFF71EFF002813DB00
:1051680004EB4402094B03EB02135B6833602DB177
:1051780013010833054A134404332B6004EB440439
:105188002401024B185970BD0020FCE7ECD0002028
:1051980070B54FF0FF324FF0FF3313484BF062FB0E
:1051A800FFF718FF041E04DA0F484BF0DBFB20461C
:1051B80070BD2046FFF79CFF0C4E650004EB4403CE
:1051C800190106EB0313002272505A600846083092
:1051D8003044043089F01DFF281900012030304484
:1051E8008AF0DBF9E0E700BF78DA0020ECD0002095
:1051F80010B5844610460B4C0CEB4C024FEA021ECD
:1052080004EB021244F80E105060D36248B1C36830
:105218003BB1734608332344043340F2051259F076
:1052280003FA10BDECD000202DE9F84306460F46DE
:105238009046FFF7B1FE002844DB750006EB4604F4
:1052480024010834DFF884904C4404344FF0FF32D2
:105258004FF0FF3320464BF005FBAB19180109EB63
:1052680003135A6815689B6A4246394659F8000084
:10527800A847051E20DD06EB460209EB0213DB6A90
:1052880003F47043B3F5E04F06D012D8B3F5804F5E
:1052980002D0B3F5C04F0FD10C4B06EB460203EB1F
:1052A8000212926A06EB460603EB06132A449A6238
:1052B80002E0B3F5004FEFD020464BF053FB2846F1
:1052C800BDE8F8834FF0FF35F9E700BFECD00020C8
:1052D8002DE9F84306460F469046FFF75DFE002885
:1052E80044DB750006EB460424010834DFF884909B
:1052F8004C4404344FF0FF324FF0FF3320464BF05C
:10530800B1FAAB19180109EB03135A6855689B6A7F
:105318004246394659F80000A847051E20DD06EB2D
:10532800460209EB0213DB6A03F47043B3F5E04F5E
:1053380006D012D8B3F5804F02D0B3F5C04F0FD1C5
:105348000C4B06EB460203EB0212926A06EB46068A
:1053580003EB06132A449A6202E0B3F5004FEFD03C
:1053680020464BF0FFFA2846BDE8F8834FF0FF359A
:10537800F9E700BFECD00020F8B50546FFF70CFEB2
:1053880000281FDB6E0005EB4504240108340F4F8D
:105398003C4404344FF0FF324FF0FF3320464BF0CB
:1053A80061FA73191A0107EB03135B689B68B85815
:1053B8009847064620464BF0D5FA284659F044F956
:1053C8003046F8BD4FF0FF36FAE700BFECD00020BA
:1053D80038B504460D46FFF7DFFD00280FDB094806
:1053E80004EB4401090104EB440400EB04142B46CC
:1053F8004FF483724158606859F016F938BD4FF080
:10540800FF30FBE7ECD0002070B582B004460E46B2
:105418001546FFF7C1FD00280FDB04EB4402084BDB
:1054280003EB02139B6A00932B46324640F20111AC
:105438002046FFF711FE02B070BD4FF0FF30FAE7CB
:10544800ECD0002084460268002006E000EB8000D3
:10545800013203EB4003A3F1300013780349C95C20
:1054680011F0040FF2D1CCF8002070479DFC0B001E
:1054780084460846012226E09CF8003043F00403E5
:105488008CF80030F2B101301CE09CF8003043F099
:1054980008038CF80030F5E79CF8003043F010035F
:1054A8008CF80030EEE79CF8003043F020038CF8CD
:1054B8000030E7E79CF8003043F040038CF80030F8
:1054C800E0E7002242B30378203B102BF9D801A172
:1054D80051F823F0A1540100CB540100CB54010032
:1054E800AF540100CB540100CB540100CB54010050
:1054F800CB540100CB540100CB540100CB54010024
:1055080093540100CB54010081540100CB54010095
:10551800CB540100BD5401009CF8003003F0440353
:10552800442B00D070479CF800306FF386138CF83A
:105538000030F7E72DE9F84F05460C4693469946A3
:105548000A9ED078254B13F800A00AF0030A59F0F8
:10555800FAF9074614E0BAF1010F20D0D2B2573257
:10556800D2B232703A46434628462146FCF7C0F983
:10557800BD4274F1000416D34E4514D905460C46B5
:105588004FF000083A46434628462146FCF7B0F952
:10559800013E092ADFD8D2B23032D2B2E1E7D2B224
:1055A8003732D2B2DDE79BF8003013F0200F03D07A
:1055B800082F04D0102F09D03046BDE8F88F9BF88B
:1055C800023043F008038BF80230F5E79BF802300D
:1055D80043F010038BF80230EEE700BF9DFC0B0090
:1055E8002DE9F04F91B006460D46914603930024ED
:1055F80099F80000002800F0B982252808D029462B
:10560800B0470028C0F2B382013409F10109EFE77D
:105618000023049305930693079308930993494637
:1056280006A859F06EF902909DF8193013F0010F91
:1056380000F09780039B1A1D03921F68002FC0F289
:1056480088809DF8193013F0040F00F09C80039BAC
:105658001A1D0392D3F800A0BAF1000FC0F28A8095
:105668000023079308939DF81A3003F007039DF869
:105678001910C1F3C301012B00F08E80022B00F03A
:10568800D380042B00F02481032B00F03B819DF88C
:10569800188018F0030B40F03B819DF81B30253B28
:1056A800532B00F2CA81DFE813F04001C801C8019A
:1056B800C801C801C801C801C801C801C801C8019A
:1056C800C801C801C801C801C801C801C801C8018A
:1056D800C801C801C801C801C801C801C801C8017A
:1056E800C801C801C801C801C801C801C801C8016A
:1056F800C801C801C801C801C801C801C801C8015A
:10570800C801C801C801C801C801C801C801C80149
:105718009D01C801C801C801C801C801C801C80164
:10572800C801C801C8017A018301C801C801C801BC
:10573800C8018301C801C801C801C801BD019D0194
:105748005E01C801C8014D01C8019D01C801C80119
:105758009D019DF8183043F004038DF818307F42FE
:105768006FE79DF91830002B02DB4FF0FF3768E731
:10577800079F66E79DF819306FF341038DF81930DC
:105788004FF0FF3A6CE713F0020F02D0DDF820A0CB
:1057980066E74FF0FF3A63E7CB1E042B04D8DFE837
:1057A80003F00B1D29353500039B1A1D03921B6856
:1057B800DA170493059206E0039B1A1D03921B68EF
:1057C800DA1704930592012928D002297FF45FAFE4
:1057D800BDF91030DA170493059258E7039B073395
:1057E80023F0070303F108020392D3E90023CDE96C
:1057F8000423E8E7039B073323F0070303F10802B8
:105808000392D3E90023CDE90423DCE7039B1A1DA7
:1058180003921B68DA1704930592D4E79DF91030B8
:10582800DA170493059232E7CB1E042B04D8DFE87D
:1058380003F00B1F35414100039B1A1D03921B689F
:105848000493002305931EE09DF81B30632B07D0BB
:10585800039B1A1D03921B6804930023059312E00F
:10586800039B1A1D03921B680493002305930AE007
:10587800039B073323F0070303F108020392D3E9DC
:105888000023CDE9042301291CD002297FF4FFAEAF
:10589800BDF81030049300230593F8E6039B073303
:1058A80023F0070303F108020392D3E90023CDE9AB
:1058B8000423E8E7039B1A1D03921B680493002343
:1058C8000593E0E79DF81030049300230593DEE686
:1058D80008290BD0039B073323F0070303F10802C1
:1058E8000392D3E90023CDE90423D0E6039B0733D1
:1058F80023F0070303F108020392D3E90023CDE95B
:105908000423C4E6039B1A1D03921B680493BEE696
:10591800029F3B464A462946304659F048F8002837
:10592800C0F225810444B94662E629462520B047DD
:105938000028C0F21C810134D8460DF13E0A4FF010
:1059480000097FE0DDF81090BAF1000F06DA48464A
:1059580050F0D6FB09EB000AD84673E0514648469A
:1059680050F09CFCF6E7049828B9D846DFF804A262
:10597800AAF1050966E00DF13E0300930AAB06AAF9
:105988000021FFF7D7FD81469DF81A3043F0100338
:105998008DF81A3078238DF81B30D8462DE0049BFB
:1059A8008DF82830D8460DF1290A0DF1280949E06B
:1059B80018F0080F05D118F0100804D04FF020088F
:1059C80001E04FF02B08049A059B002B02DB0492A0
:1059D800059308E0524263EB4303049205934FF0AA
:1059E8002D0800E0D8460DF13E0300930AAB06AA45
:1059F800DDE90401FFF79EFD8146BAF1000F50DB97
:105A08000DF13E03A3EB09039DF818206FF38612EE
:105A18008DF818209A4547D9AAEB030307930DF18F
:105A28003E0A0FE02246049906A858F0A1FFD8467E
:105A38000DF13E0A4FF0000904E0D8460DF13E0A88
:105A48004FF00009B9F1000F00F08D80AAEB0902B0
:105A5800B8F1000F00D001329DF81A1011F0100FA4
:105A680025D00232079B134411F0400F01D0089A49
:105A78001344002F31DDFF1A9DF8183013F0040F7E
:105A88002BD113F0400F17D0B8F1000F17D02946CB
:105A98004046B04700286ADB0134D8464FF0300B47
:105AA8000FE00DF13E0ACDE70DF13E0ACAE711F00D
:105AB800080FD7D00132D5E74FF0200B01E04FF0A7
:105AC800300B3B465F1E002B07DD29465846B04782
