:10000000187B012039350200C3FE060025350200A9
:100010002535020025350200253502002535020070
:100020000000000000000000000000000D3702008A
:100030002535020000000000B93602002535020017
:100040009D3802009D3802009D3802009D38020054
:100050009D3802009D3802009D3802009D38020044
:100060009D3802009D3802009D3802009D38020034
:100070009D3802009D3802009D3802009D38020024
:100080009D3802009D3802009D3802009D38020014
:100090009D3802009D3802009D3802009D38020004
:1000A0009D3802009D3802009D3802009D380200F4
:1000B0009D3802009D3802009D3802009D380200E4
:1000C0009D3802009D3802009D3802009D380200D4
:1000D0009D3802009D3802009D3802009D380200C4
:1000E0009D3802009D3802009D3802009D380200B4
:1000F0009D3802009D3802009D3802009D380200A4
:100100009D3802009D3802009D3802009D38020093
:100110009D3802009D3802009D3802009D38020083
:100120009D3802009D3802009D3802009D38020073
:100130009D3802009D3802009D3802009D38020063
:040140009D380200E4
:100148002DE9F14F03F11C0402EB840C4FEA930BE9
:100158008A68CB680868496800F046F93CE9F0000D
:100168006040694072407B400BF1060E4EE083EA26
:10017800134480EA134582EA134746BA96EA3444A0
:10018800604000F00F1684EA063420F00F1684EA67
:10019800161054BA94EA0106724002F00F1486EA67
:1001A800043622F00F1486EA14124CBA65406940EE
:1001B80001F00F1485EA043521F00F1485EA1411B3
:1001C8005CBA67407B4003F00F1487EA043723F0DA
:1001D8000F1487EA141344BA44404DBA4D4056BA36
:1001E80056405FBA5F4087EA174886EA174B84EAA9
:1001F80017464FEA38488BEA1B4485EA1B4788EACA
:100208001B4580EA3440694072407B4000F07034FE
:1002180000F0803500F00F3040EA440040EAD50095
:1002280080EA900404F0332480EA8400604001F0FE
:10023800703401F0803501F00F3141EA440141EAA0
:10024800D50181EA910404F0332481EA84016140F4
:1002580002F0703402F0803502F00F3242EA4402B4
:1002680042EAD50282EA920404F0332482EA840244
:10027800624003F0703403F0803503F00F3343EA33
:10028800440343EAD50383EA930404F0332483EA5E
:1002980084036340C943DB4381EA000483EA0446DC
:1002A80086EA020183EA014382EA334583EA14437A
:1002B8005C4084EA00077FEA040A8AEA024A8AEA7A
:1002C800010B87EA11488AEA374A80EA060181EA7F
:1002D8001A418AEA030A04EA0A00454088EA040740
:1002E80007EA0B0041408AEA0B0608EA060084EA9E
:1002F80034428AEA3A4602EA0603584045404140F9
:1003080087EA37438BEA3B4003EA000985EA090597
:1003180082EA0309464006EA0906714085EA0100B7
:1003280005EA3546464006EA314181EA304181EA2C
:10033800364606EA304686EA354634400F4086EAB5
:10034800010508EA050886EA3640024088EA0208FC
:1003580081EA314213405C4080EA020309EA03095A
:1003680087EA0907674088EA040806EA0A0601EAF4
:100378000B018AEA0B0425408AEA3A4420404540AA
:100388008BEA3B4B02EA0B02564084EA0B042340FB
:1003980059406E40694087EA364080EA384080EA32
:1003A800060380EA104481EA134585EA344585EA64
:1003B80017427D4082EA354180EA05403CE9F00079
:1003C8006040694072407B40BEF1010E3FF6CFAEFF
:1003D80020BC00F05FF828606960AA60EB60BDE8A7
:1003E800F08F00BF00F000BA80EA101404F0F01497
:1003F80080EA0410604081EA111404F0F01481EAE4
:100408000411614082EA121404F0F01482EA041222
:10041800624083EA131404F0F01483EA041363407F
:1004280080EA102404F47F4480EA0420604081EAD2
:10043800112404F47F4481EA0421614082EA1224F1
:1004480004F47F4482EA0422624083EA132404F419
:100458007F4483EA0423634081EA500404F055345E
:1004680080EA4400614083EA520404F0553482EA89
:100478004402634082EA900404F0333480EA840042
:10048800624083EA910404F0333481EA84016340D2
:10049800704700BF82EA900404F0333480EA840095
:1004A800624083EA910404F0333481EA84016340B2
:1004B80081EA500404F0553480EA4400614083EA3C
:1004C800520404F0553482EA4402634080EA10245E
:1004D80004F47F4480EA0420604081EA112404F493
:1004E8007F4481EA0421614082EA122404F47F44B3
:1004F80082EA0422624083EA132404F47F4483EAF4
:100508000423634080EA101404F0F01480EA041015
:10051800604081EA111404F0F01481EA041161408A
:1005280082EA121404F0F01482EA0412624083EAA8
:10053800131404F0F01483EA04136340704700BFF7
:100548002DE9F14F94464FEA930B8A68CB68086807
:100558004968FFF749FF0BF1060E33E083EA1344BD
:1005680080EA134582EA134746BA96EA3444604063
:1005780000F00F1684EA063420F00F1684EA1610ED
:1005880054BA94EA0106724002F00F1486EA04365F
:1005980022F00F1486EA14124CBA6540694001F043
:1005A8000F1485EA043521F00F1485EA14115CBA9A
:1005B80067407B4003F00F1487EA043723F00F14D9
:1005C80087EA1413BCE8F0006040694072407B4041
:1005D80000F0E03400F0103500F00F3040EA54002D
:1005E80040EAC50080EA900404F0332480EA8400DD
:1005F800604001F0E03401F0103501F00F3141EABC
:10060800540141EAC50181EA910404F0332481EAE6
:100618008401614002F0E03402F0103502F00F323C
:1006280042EA540242EAC50282EA920404F0332400
:1006380082EA8402624003F0E03403F0103503F0EC
:100648000F3343EA540343EAC50383EA930404F0EF
:10065800332483EA8403634081EA324787EA1345F7
:1006680081EA354690EA060484EA034B82EA1B4293
:1006780080EA044484EA054483EA144A85EA144477
:100688008BEA044B84EA374481EA0B4181EA16413C
:1006980004EA0A00454082EA04082BEA08004140BF
:1006A8008AEA0B0602EA060084EA34438AEA3A46F2
:1006B80003EA060778404540414088EA38478BEA14
:1006C8003B4007EA000985EA090583EA070946402D
:1006D80006EA0906714085EA010005EA3546464002
:1006E80006EA314181EA304181EA364606EA304677
:1006F80086EA3546344008EA010886EA01052A40B8
:1007080086EA364003405A4081EA31431F407C4024
:1007180080EA030709EA070988EA0908544088EAD1
:10072800020806EA0A0601EA0B018AEA0B021540EA
:100738008AEA3A42104045408BEA3B4003405E401B
:100748004240174079404D404E40E443F64386EA24
:1007580018435D4085EA054083EA134386EA03416E
:1007680083EA384284EA114383EA04435FEA334365
:10077800BEF1010E3FF6F2AE1ED4BCE8F0006040B8
:10078800694072407B4020BCFFF784FE28606960A6
:10079800AA60EB60BDE8F08F2DE9E0414FF2F0026E
:1007A80080EA1031114080EA01304840410882084F
:1007B800C3084FF0000E4FE700F0113001F011317F
:1007C80002F0113203F0113340EA410040EA82009E
:1007D80040EAC3004FF2F00280EA1031114080EA8B
:1007E80001304840BDE8E0812DE9F04F02F11C05D9
:1007F8000646074600EB850851F8040B043A46F80C
:10080800040BF9D14FF0010CFFF7C6FF5FEA302067
:1008180080EA0C001ECF41404A4053405C401EC64F
:100828002000464517D04FEA4C0C1CF4807F18BFB7
:10083800ACF1E50C2C2DE7D03C2D06D1FFF7ACFF31
:1008480006CF41404A4006C6100006CF41404A4004
:1008580006C61000D8E736E90F00FFF7C5FD043DCE
:1008680086E80F00F7D1BDE8F08F00BF2DE9F0074B
:1008780091E8F807B2E802105B1854EB0C04B2E8F0
:1008880002104D4156EB0C06B2E802104F4158EBEE
:100898000C08B2E8021059EB01095AEB0C0A80E87F
:1008A800F80780410130BDE8F00770472DE9F007EF
:1008B80091E8F807B2E802105B1A74EB0C04B2E88E
:1008C80002108D4176EB0C06B2E802108F4178EBEE
:1008D8000C08B2E8021079EB01097AEB0C0A80E8FF
:1008E800F80780414042BDE8F00770472DE9F0075E
:1008F800524290E87800B1E880071740DB1918EAFF
:10090800020854EB080419EA020955EB09051AEA2A
:10091800020A56EB0A0678C090E87800B1E880072A
:1009280017407B4118EA020854EB080419EA020947
:1009380055EB09051AEA020A56EB0A0678C0804107
:100948000130BDE8F00770472DE9F007524290E802
:100958007800B1E880071740DB1B18EA020874EB3F
:10096800080419EA020975EB09051AEA020A76EB86
:100978000A0678C090E87800B1E880071740BB41C4
:1009880018EA020874EB080419EA020975EB09056C
:100998001AEA020A76EB0A0678C080414042BDE8AE
:1009A800F00770472DE9F00152424FF0040890E833
:1009B800300091E8C000A31B1340E41AF618EB1BA3
:1009C8001340ED1AFF1830C0C0C1B8F10108EED1CC
:1009D800BDE8F001704700BF00B592E8DC072DE9DB
:1009E800DC07B1E8805702B4A7FB02510A95A8FBBF
:1009F800020BE7FB6310E9FB62B00B91A8FB035104
:100A0800EAFB6201E7FB64B5E7FB6605E8FB6615F0
:100A1800CDF830B0A9FB03B6EAFB6316ECFB6356CE
:100A2800E8FB640BE9FB641BEAFB645BECFB646BAF
:100A38000D90ACFB0230059CEEFB6250E9FB646054
:100A4800EAFB64B0E7FB6431E8FB6451069CE8FB11
:100A58006461E9FB64B1EAFB64010E93A7FB04320D
:100A6800079CE7FB6462E8FB64B2E9FB6402EAFB0B
:100A78006412049CE9FB6453EAFB6463089CE7FB8B
:100A880064B3E8FB6403E9FB6413EAFB64230F9592
:100A98005DF8049B99E80006DDF80080A9FB08547E
:100AA800EAFB68B4DDF81080ECFB6804EEFB681420
:100AB800E9FB6824EAFB6834DDF80480EEFB68652E
:100AC800E9FB68B5EAFB6805DDF81480ECFB6815FE
:100AD800EEFB6825E9FB6835EAFB68450F96DDF80B
:100AE8000880AEFB0876E9FB6806EAFB6816DDF8C5
:100AF8001880ECFB6826EEFB6836E9FB6846EAFBE3
:100B08006856DDF80C80ECFB68B7EEFB6807E9FB7C
:100B18006817EAFB6827DDF81C80ECFB6837EEFBFA
:100B28006847E9FB6857EAFB686708B000BD00BF83
:100B38002DE9F14F87B0FFF74FFFDDF81C8008F172
:100B4800200888E8FF00FFBC87E87F08BDE8F08F31
:100B580000B591E89857A3FB03520195A3FB040144
:100B6800E3FB6420E3FB67100292A3FB0752E3FB5D
:100B78006802E4FB6415E3FB6805E3FB6925039160
:100B8800A4FB07B6E3FB6926E3FB6A56E4FB670BA5
:100B9800E4FB682BE3FB6A5BE3FB6C6B0490A4FB50
:100BA8000810E4FB6950E3FB6C60E3FB6EB0E7FB05
:100BB8006721E4FB6951E4FB6A61E3FB6EB1E4FB86
:100BC8006E010592A7FB0832E4FB6A62E4FB6CB293
:100BD800E4FB6E02E7FB6E12E7FB6853E7FB696311
:100BE800E4FB6CB3E7FB6C03E7FB6E13E8FB6E23D7
:100BF8000695A7FB0954E7FB6AB4E7FB6C04E8FB1E
:100C08006C14E8FB6E24E9FB6E34E8FB6865E7FBCF
:100C18006AB5E8FB6A05E8FB6C15E9FB6C25E9FB9E
:100C28006E35EAFB6E450796A8FB0976E8FB6A066F
:100C3800E9FB6A16E9FB6C26EAFB6C36EAFB6E46B2
:100C4800ECFB6E56E8FB69B7E9FB6907E9FB6A1735
:100C5800EAFB6A27EAFB6C37ECFB6C47ECFB6E5748
:100C6800EEFB6E6700BD00BF2DE9F14F87B0FFF7BF
:100C78006FFFDDF81C8008F1200888E8FF00FFBC42
:100C880087E87F08BDE8F08F2DE9F04FB0E8FE0750
:100C980083B02DE9010790E8005F4FF00A00069045
:100CA8000198DB199CEA030C18EB3C4897EA080703
:100CB80013EB375393EA3C4C18EB3C6898EA3757E8
:100CC80024189EEA040E19EB3E4990EA090014EB39
:100CD800305494EA3E4E19EB3E6999EA3050CDE91A
:100CE8000489DDE9028949199AEA010A18EB3A48A8
:100CF80095EA080511EB355191EA3A4A18EB3A683A
:100D080098EA355592199BEA020B19EB3B4996EA8A
:100D1800090612EB365292EA3B4B19EB3B6999EA0A
:100D2800365613EB706393EA3B6B18EB3B4898EA33
:100D3800706013EB305393EA3B4B5FEA3B6B18EB65
:100D48000B0898EA30505FEA706014EB756494EA17
:100D58003C6C19EB3C4999EA756514EB355494EAF7
:100D68003C4C5FEA3C6C19EB0C0999EA35555FEA93
:100D78007565CDE90289DDE9048911EB766191EAAF
:100D88003E6E18EB3E4898EA766611EB365191EACA
:100D98003E4E5FEA3E6E18EB0E0898EA36565FEA5A
:100DA800766612EB776292EA3A6A19EB3A4999EA5F
:100DB800776712EB375292EA3A4A5FEA3A6A19EBD6
:100DC8000A0999EA37575FEA776701900698013868
:100DD8007FF465AF01BC80E8005FBDE8000700E96B
:100DE800FE0703B0BDE8F08F30B44FF0000310F8F1
:100DF800014B11F8015B013A84EA050443EA040354
:100E0800F5D1A3F101034FEAD37030BC704700BF9E
:100E18004FF0000310F8012B013943EA0203F9D11E
:100E2800A3F101034FEAD370704700BF30B411F843
:100E3800014B12F8015B6C4000F8014B013BF6D105
:100E480030BC70472DE9F00791E8F807B2E80210C6
:100E58005B1854EB0C04B2E802104D4156EB0C063B
:100E6800B2E802104F4158EB0C08B2E8021059EBF7
:100E780001095AEB0C0A8941B3F1FF3374F1FF34CD
:100E880075F1FF3576F1000677F1000778F1000873
:100E980079F101097AF1FF3A51F100015B184C41EF
:100EA8004D4156F1000657F1000758F1000859EB7B
:100EB800D1795AEB010A80E8F807BDE8F0077047D6
:100EC8002DE9F00791E8F807B2E802105B1A74EB15
:100ED8000C04B2E802108D4176EB0C06B2E8021061
:100EE8008F4178EB0C08B2E8021079EB01097AEB34
:100EF8000C0A89415B184C414D4156F1000657F1E7
:100F0800000758F1000859EBD1795AEB010A80E83B
:100F1800F807BDE8F007704718EB040859EB050916
:100F28005AEB060A5BEB070B5FF0000C4CF1000C68
:100F380018EB050859EB06095AEB070A5BEB070B98
:100F480050EB0C005FF0000C51EB0C0152EB0C0263
:100F580063414CF1000CB8EB070879F100097AF10C
:100F6800000A7BEB040BA841B141A241B3416CF1EB
:100F7800000CBBEB050BB041B941AA41BB416CF178
:100F8800000C4CF001068CF0020718EB060859EB30
:100F98006C095AEB6C0A7BEB6C0B70EB6C0471EB15
:100FA8006C0572EB670653EB6C076CEB6C0C18EB7B
:100FB8000C0059EB0C015AEB0C025BF1000354F1E5
:100FC800000455F1000556EBDC7657EB0C0770472B
:100FD8002DE9F14F87B0FFF7FFFCDDF81080DDF851
:100FE8001490DDF818A0FFF797FFBDE8000FFFF792
:100FF80093FF03B05DF8048B88E8FF00BDE8F08F2D
:101008002DE9F14F87B0FFF7A3FDDDF81080DDF87B
:101018001490DDF818A0FFF77FFFBDE8000FFFF779
:101028007BFF03B05DF8048B88E8FF00BDE8F08F14
:101038002DE9F14FF8C892E8005E19EB03095AEB65
:10104800040A5BEB050B5CEB060C4EEB070E91E814
:10105800E001A9FB0502AAFB0543E9FB6624EAFBBC
:101068006634A9FB0765E9FB6845B1E80003EBFBBB
:101078006836ECFB6846EEFB6856ABFB0987ECFB71
:101088006957EEFB696791E80202EAFB6148EBFBEE
:101098006158ECFB6168EEFB61784FF00001EAFBF8
:1010A8000951EBFB6961ECFB6971EEFB69814FF457
:1010B800A03C4FEA154949EA06495FF0000AE9FBF6
:1010C8000C0A4FEA164646EA0746E6FB6C2A4FEA40
:1010D800174747EA0847E7FB6C3A4FEA184848EAD7
:1010E8000148E8FB6C4AADB25544AF0805F003056A
:1010F80007EB8707C01952F1000153F1000254F1C0
:10110800000345F1000420BC1FC5BDE8F08F00BFF7
:1011180030B490E83C10511D53F1000154F1000126
:1011280055F100014CF100014FEA9101494201F0EB
:101138000501521853F1000354F1000455F100055C
:101148004CF1000C0CF0030C80E83C1030BC7047EC
:101158002DE9F04F90E8F00F00F140004FF0040E39
:1011680059E0F0B4826BC36B0468052524268759BF
:101178003C444FEA724787EAF24787EA92273C44A1
:1011880042684FEAF21787EAB24787EAD2073C4437
:1011980040F8044B032D08BF6FF01B0687593A44EB
:1011A8004FEA734787EAF34787EA93273A44436845
:1011B8004FEAF31787EAB34787EAD3073A4440F878
:1011C800042B87593B444FEA744787EAF44787EA78
:1011D80094273B4444684FEAF41787EAB44787EA00
:1011E800D4073B4440F8043B013DC0D1A0F13C008A
:1011F800076A3C444FEA724787EAF24787EA922730
:101208003C4402684FEAF21787EAB24787EAD207F6
:101218003C44C463F0BC4FF0020288EA781C8CEAB4
:10122800F84C0BEBBC1C8AEA090303EA080383EABF
:101238000A039C4450F8043B9C4451F8043B9C44EA
:10124800674444EA050B0BEA060B04EA05034BEA7C
:10125800030BE34484EAF42383EA34530BEBB30B24
:1012680087EA771C8CEAF74C0AEBBC1C89EA08036E
:1012780003EA070383EA09039C4450F8043B9C44AF
:1012880051F8043B9C4466444BEA040A0AEA050AFE
:101298000BEA04034AEA030AE2448BEAFB2383EAE3
:1012A8003B530AEBB30A86EA761C8CEAF64C09EB48
:1012B800BC1C88EA070303EA060383EA08039C4484
:1012C80050F8043B9C4451F8043B9C4465444AEA6A
:1012D8000B0909EA04090AEA0B0349EA0309E1448C
:1012E8008AEAFA2383EA3A5309EBB30985EA751CBB
:1012F8008CEAF54C08EBBC1C87EA060303EA0503F5
:1013080083EA07039C4450F8043B9C4451F8043B8F
:101318009C44644449EA0A0808EA0B0809EA0A03F3
:1013280048EA0308E04489EAF92383EA395308EBD9
:10133800B30884EA741C8CEAF44C07EBBC1C86EAFC
:10134800050303EA040383EA06039C4450F8043BBC
:101358009C4451F8043B9C44E34448EA090707EAE3
:101368000A0708EA090347EA0307674488EAF823F3
:1013780083EA385307EBB3078BEA7B1C8CEAFB4CF8
:1013880006EBBC1C85EA040303EA0B0383EA0503A6
:101398009C4450F8043B9C4451F8043B9C44E24470
:1013A80047EA080606EA090607EA080346EA0306C2
:1013B800664487EAF72383EA375306EBB3068AEADB
:1013C8007A1C8CEAFA4C05EBBC1C84EA0B0303EA92
:1013D8000A0383EA04039C4450F8043B9C4451F8F4
:1013E800043B9C44E14446EA070505EA080506EA89
:1013F800070345EA0305654486EAF62383EA36537C
:1014080005EBB30589EA791C8CEAF94C04EBBC1CA2
:101418008BEA0A0303EA090383EA0B039C4450F8A6
:10142800043B9C4451F8043B9C44E04445EA0604D0
:1014380004EA070405EA060344EA0304644485EA67
:10144800F52383EA355304EBB304013A7FF4E5AEA0
:10145800A0F14000BEF1010E7FF483AEA0F1400C74
:101468009CE80F00001949199219DB19ACE80F0024
:101478009CE80F004044494452445B44ACE80F00E8
:10148800BDE8F08F2DE90050ACF1400288B0C3CA26
:10149800CDE90001B2E80303CDE90201B2E8300C5E
:1014A800CDE90445B2E80350CDE9060184EAD460E9
:1014B80080EA451085EAD56181EA441180EA141072
:1014C80080EA057081EA151181EA04711CEB903CF1
:1014D8004EEB913E1CEB814C4EEB804EDDE9062332
:1014E80082EA0A0083EA0B01204029405040594013
:1014F8001CEB000C5EEB010E0A980899D0E9004538
:101508001CEB040C5EEB050ED1E900451CEB040C4A
:101518005EEB050E18EB0C0859EB0E09D0E90245F5
:1015280012196B41D1E9024512196B41DDE90445F5
:101538008AEA04008BEA050110EA080011EA0901A9
:1015480090EA0A0091EA0B0112184B4188EAD86028
:1015580080EA491089EAD96181EA481180EA1810BD
:1015680080EA097081EA191181EA087112EB903258
:1015780043EB913312EB814243EB8043CDE90623E1
:10158800DDE90023DDE9024582EAD22080EA435002
:1015980083EAD32181EA425180EA921080EA83608B
:1015A80081EA931181EA82611CEB107C4EEB117E7B
:1015B8001CEB011C4EEB001E82EA0601324001EAD8
:1015C800040050401CEB000C01EA0C00504083EA78
:1015D80007023B4012EA050159405EEB010E02EAA0
:1015E8000E015940DDE90623A4185D41CDE9024505
:1015F80012184B418CEADC2080EA4E508EEADE213C
:1016080081EA4C5180EA9C1080EA8E6081EA9E1142
:1016180081EA8C6112EB107243EB117312EB011229
:1016280043EB0013CDE9062384EAD46080EA451031
:1016380085EAD56181EA441180EA141080EA0570D0
:1016480081EA151181EA04711AEB903A4BEB913B50
:101658001AEB814A4BEB804BDDE9042382EA080050
:1016680083EA090120402940504059401AEB000AFA
:101678005BEB010B0A980899D0E904451AEB040AB8
:101688005BEB050BD1E904451AEB040A5BEB050B90
:1016980016EB0A0657EB0B07D0E9064512196B4102
:1016A800D1E9064512196B41DDE9024588EA0400D3
:1016B80089EA05013040394090EA080091EA0901B9
:1016C80012184B4186EAD66080EA471087EAD7614C
:1016D80081EA461180EA161080EA077081EA17113C
:1016E80081EA067112EB903243EB913312EB81429F
:1016F80043EB8043CDE90423DDE90623DDE900451A
:1017080082EAD22080EA435083EAD32181EA425117
:1017180080EA921080EA836081EA931181EA82610B
:101728001AEB107A4BEB117B1AEB011A4BEB001BEF
:1017380082EA0C0112EA0C0201EA040050401AEB9A
:10174800000A01EA0A00504083EA0E0213EA0E0377
:1017580012EA050159405BEB010B02EA0B01594003
:10176800DDE90423A4185D41CDE9004512184B4179
:101778008AEADA2080EA4B508BEADB2181EA4A5177
:1017880080EA9A1080EA8B6081EA9B1181EA8A617B
:1017980012EB107243EB117312EB011243EB0013BF
:1017A800CDE9042384EAD46080EA451085EAD5614E
:1017B80081EA441180EA141080EA057081EA151163
:1017C80081EA047118EB903849EB913918EB81489C
:1017D80049EB8049DDE9022382EA060083EA070132
:1017E800204029405040594018EB000859EB0109A6
:1017F8000A980899D0E9084518EB040859EB050937
:10180800D1E9084518EB040859EB05091CEB080C4D
:101818005EEB090ED0E90A4512196B41D1E90A4578
:1018280012196B41DDE9004586EA040087EA0501E3
:1018380010EA0C0011EA0E017040794012184B4171
:101848008CEADC6080EA4E108EEADE6181EA4C1197
:1018580080EA1C1080EA0E7081EA1E1181EA0C7180
:1018680012EB903243EB913312EB814243EB80430E
:10187800CDE90223DDE90423DDE9064582EAD22029
:1018880080EA435083EAD32181EA425180EA9210E8
:1018980080EA836081EA931181EA826118EB10780B
:1018A80049EB117918EB011849EB001982EA0A0192
:1018B80012EA0A0201EA0400504018EB000801EAA3
:1018C8000800504083EA0B0213EA0B0312EA0501F1
:1018D800594059EB010902EA09015940DDE902239F
:1018E800A4185D41CDE9064512184B4188EAD82075
:1018F80080EA495089EAD92181EA485180EA98105A
:1019080080EA896081EA991181EA886112EB107294
:1019180043EB117312EB011243EB0013CDE90223E1
:1019280084EAD46080EA451085EAD56181EA4411E9
:1019380080EA141080EA057081EA151181EA0471C1
:1019480016EB903647EB913716EB814647EB80470D
:10195800DDE9002382EA0C0083EA0E0120402940D9
:101968005040594036184F410A980899D0E90C451B
:1019780036196F41D1E90C4536196F411AEB060A41
:101988005BEB070BD0E90E4512196B41D1E90E4507
:1019980012196B41DDE906458CEA04008EEA05015F
:1019A80010EA0A0011EA0B0190EA0C0091EA0E0114
:1019B80012184B418AEADA6080EA4B108BEADB6145
:1019C80081EA4A1180EA1A1080EA0B7081EA1B1139
:1019D80081EA0A7112EB903243EB913312EB8142A8
:1019E80043EB8043CDE90023DDE90223DDE904452B
:1019F80082EAD22080EA435083EAD32181EA425125
:101A080080EA921080EA836081EA931181EA826118
:101A180016EB107647EB117716EB011647EB00171C
:101A280082EA080112EA080201EA04005040361866
:101A380001EA0600504083EA090213EA090312EAA0
:101A4800050159404F4102EA07015940DDE90023E9
:101A5800A4185D41CDE9044512184B4186EAD62009
:101A680080EA475087EAD72181EA465180EA9610F2
:101A780080EA876081EA971181EA866112EB107229
:101A880043EB117312EB011243EB0013CDE9002372
:101A980084EAD46080EA451085EAD56181EA441178
:101AA80080EA141080EA057081EA151181EA047150
:101AB8001CEB903C4EEB913E1CEB814C4EEB804E68
:101AC800DDE9062382EA0A0083EA0B012040294067
:101AD800504059401CEB000C5EEB010E0A98089927
:101AE800D0E910451CEB040C5EEB050ED1E910455E
:101AF8001CEB040C5EEB050E18EB0C0859EB0E09F9
:101B0800D0E9124512196B41D1E9124512196B41FE
:101B1800DDE904458AEA04008BEA050110EA0800B9
:101B280011EA090190EA0A0091EA0B0112184B41E7
:101B380088EAD86080EA491089EAD96181EA4811BF
:101B480080EA181080EA097081EA191181EA08719F
:101B580012EB903243EB913312EB814243EB80431B
:101B6800CDE90623DDE90023DDE9024582EAD2203A
:101B780080EA435083EAD32181EA425180EA9210F5
:101B880080EA836081EA931181EA82611CEB107C10
:101B98004EEB117E1CEB011C4EEB001E82EA060187
:101BA800324001EA040050401CEB000C01EA0C0032
:101BB800504083EA07023B4012EA050159405EEBB8
:101BC800010E02EA0E015940DDE90623A4185D4121
:101BD800CDE9024512184B418CEADC2080EA4E50D0
:101BE8008EEADE2181EA4C5180EA9C1080EA8E6000
:101BF80081EA9E1181EA8C6112EB107243EB11733A
:101C080012EB011243EB0013CDE9062384EAD460FA
:101C180080EA451085EAD56181EA441180EA14100A
:101C280080EA057081EA151181EA04711AEB903A8D
:101C38004BEB913B1AEB814A4BEB804BDDE90423DC
:101C480082EA080083EA09012040294050405940AF
:101C58001AEB000A5BEB010B0A980899D0E91445C6
:101C68001AEB040A5BEB050BD1E914451AEB040ADD
:101C78005BEB050B16EB0A0657EB0B07D0E916458D
:101C880012196B41D1E9164512196B41DDE902457C
:101C980088EA040089EA05013040394090EA0800E2
:101CA80091EA090112184B4186EAD66080EA47108A
:101CB80087EAD76181EA461180EA161080EA077040
:101CC80081EA171181EA067112EB903243EB9133E6
:101CD80012EB814243EB8043CDE90423DDE906237F
:101CE800DDE9004582EAD22080EA435083EAD32125
:101CF80081EA425180EA921080EA836081EA931176
:101D080081EA82611AEB107A4BEB117B1AEB011A0C
:101D18004BEB001B82EA0C0112EA0C0201EA0400F8
:101D280050401AEB000A01EA0A00504083EA0E020A
:101D380013EA0E0312EA050159405BEB010B02EAB4
:101D48000B015940DDE90423A4185D41CDE90045A4
:101D580012184B418AEADA2080EA4B508BEADB21E1
:101D680081EA4A5180EA9A1080EA8B6081EA9B11E5
:101D780081EA8A6112EB107243EB117312EB0112C4
:101D880043EB0013CDE9042384EAD46080EA4510CC
:101D980085EAD56181EA441180EA141080EA057069
:101DA80081EA151181EA047118EB903849EB9139F1
:101DB80018EB814849EB8049DDE9022382EA0600F5
:101DC80083EA0701204029405040594018EB000899
:101DD80059EB01090A980899D0E9184518EB040845
:101DE80059EB0509D1E9184518EB040859EB050921
:101DF8001CEB080C5EEB090ED0E91A4512196B4171
:101E0800D1E91A4512196B41DDE9004586EA04005B
:101E180087EA050110EA0C0011EA0E0170407940CA
:101E280012184B418CEADC6080EA4E108EEADE61C3
:101E380081EA4C1180EA1C1080EA0E7081EA1E11BA
:101E480081EA0C7112EB903243EB913312EB814231
:101E580043EB8043CDE90223DDE90423DDE90645B0
:101E680082EAD22080EA435083EAD32181EA4251B0
:101E780080EA921080EA836081EA931181EA8261A4
:101E880018EB107849EB117918EB011849EB001998
:101E980082EA0A0112EA0A0201EA0400504018EB39
:101EA800000801EA0800504083EA0B0213EA0B031A
:101EB80012EA0501594059EB010902EA09015940A2
:101EC800DDE90223A4185D41CDE9064512184B410E
:101ED80088EAD82080EA495089EAD92181EA48511C
:101EE80080EA981080EA896081EA991181EA88611C
:101EF80012EB107243EB117312EB011243EB001358
:101F0800CDE9022384EAD46080EA451085EAD561E8
:101F180081EA441180EA141080EA057081EA1511FB
:101F280081EA047116EB903647EB913716EB814640
:101F380047EB8047DDE9002382EA0C0083EA0E01C3
:101F4800204029405040594036184F410A98089976
:101F5800D0E91C4536196F41D1E91C4536196F4146
:101F68001AEB060A5BEB070BD0E91E4512196B4109
:101F7800D1E91E4512196B41DDE906458CEA0400DA
:101F88008EEA050110EA0A0011EA0B0190EA0C003A
:101F980091EA0E0112184B418AEADA6080EA4B1086
:101FA8008BEADB6181EA4A1180EA1A1080EA0B7039
:101FB80081EA1B1181EA0A7112EB903243EB9133EB
:101FC80012EB814243EB8043CDE90023DDE9022394
:101FD800DDE9044582EAD22080EA435083EAD3212E
:101FE80081EA425180EA921080EA836081EA931183
:101FF80081EA826116EB107647EB117716EB011632
:1020080047EB001782EA080112EA080201EA040015
:102018005040361801EA0600504083EA090213EAE4
:10202800090312EA050159404F4102EA07015940E4
:10203800DDE90023A4185D41CDE9044512184B41A0
:1020480086EAD62080EA475087EAD72181EA4651B6
:1020580080EA961080EA876081EA971181EA8661B2
:1020680012EB107243EB117312EB011243EB0013E6
:10207800CDE900230A9880300A90089AA2F140021C
:102088001BBCC3C2A2E818031BBCA2E8030CA2E84D
:102098001850BDE8009000BF00B59CE8F00FDCE9DF
:1020A8001201DCE91C23241845EB01054FEA560E02
:1020B8008EEAC77E8EEA162E8EEA076E8EEAD61E46
:1020C8008EEA476E14EB0E044FEA570E8EEAC67E70
:1020D8008EEA172E8EEA066E8EEAD71E45EB0E059F
:1020E8004FEAD24E8EEA433E8EEAC20E8EEA537E05
:1020F8008EEA921E8EEA836E14EB0E044FEAD34EDC
:102108008EEA423E8EEAC30E8EEA527E8EEA931E15
:1021180045EB0E05DCE91401DCE91E23361847EB14
:1021280001074FEA580E8EEAC97E8EEA182E8EEA0B
:10213800096E8EEAD81E8EEA496E16EB0E064FEA35
:10214800590E8EEAC87E8EEA192E8EEA086E8EEA3D
:10215800D91E47EB0E074FEAD24E8EEA433E8EEA6F
:10216800C20E8EEA537E8EEA921E8EEA836E16EBBC
:102178000E064FEAD34E8EEA423E8EEAC30E8EEA30
:10218800527E8EEA931E47EB0E07DCE9160118EB28
:10219800000849EB01094FEA5A0E8EEACB7E8EEA17
:1021A8001A2E8EEA0B6E8EEADA1E8EEA4B6E18EB4A
:1021B8000E084FEA5B0E8EEACA7E8EEA1B2E8EEA66
:1021C8000A6E8EEADB1E49EB0E094FEAD44E8EEA00
:1021D800453E8EEAC40E8EEA557E8EEA941E8EEA3D
:1021E800856E18EB0E084FEAD54E8EEA443E8EEA0D
:1021F800C50E8EEA547E8EEA951E49EB0E09DCE97F
:102208001801DCE908231AEB000A4BEB010B4FEA33
:10221800520E8EEAC37E8EEA122E8EEA036E8EEA84
:10222800D21E8EEA436E1AEB0E0A4FEA530E8EEA5E
:10223800C27E8EEA132E8EEA026E8EEAD31E4BEB16
:102248000E0B4FEAD64E8EEA473E8EEAC60E8EEA4F
:10225800577E8EEA961E8EEA876E1AEB0E0A4FEAB2
:10226800D74E8EEA463E8EEAC70E8EEA567E8EEA34
:10227800971E4BEB0E0BACE8F00FDCE91201DCE922
:102288000267121843EB01034FEA560E8EEAC77E27
:102298008EEA162E8EEA076E8EEAD61E8EEA476EF4
:1022A80012EB0E024FEA570E8EEAC67E8EEA172E02
:1022B8008EEA066E8EEAD71E43EB0E034FEAD84E1F
:1022C8008EEA493E8EEAC80E8EEA597E8EEA981E3C
:1022D8008EEA896E12EB0E024FEAD94E8EEA483E1C
:1022E8008EEAC90E8EEA587E8EEA991E43EB0E03DB
:1022F800DCE91401DCE90489361847EB01074FEAE9
:10230800580E8EEAC97E8EEA182E8EEA096E8EEA7B
:10231800D81E8EEA496E16EB0E064FEA590E8EEA63
:10232800C87E8EEA192E8EEA086E8EEAD91E47EB11
:102338000E074FEADA4E8EEA4B3E8EEACA0E8EEA56
:102348005B7E8EEA9A1E8EEA8B6E16EB0E064FEABD
:10235800DB4E8EEA4A3E8EEACB0E8EEA5A7E8EEA33
:102368009B1E47EB0E07DCE91601DCE906AB18EB10
:10237800000849EB01094FEA5A0E8EEACB7E8EEA35
:102388001A2E8EEA0B6E8EEADA1E8EEA4B6E18EB68
:102398000E084FEA5B0E8EEACA7E8EEA1B2E8EEA84
:1023A8000A6E8EEADB1E49EB0E094FEAD24E8EEA20
:1023B800433E8EEAC20E8EEA537E8EEA921E8EEA63
:1023C800836E18EB0E084FEAD34E8EEA423E8EEA31
:1023D800C30E8EEA527E8EEA931E49EB0E09DCE9A3
:1023E80008011AEB040A4BEB050B4FEA500E8EEA74
:1023F800C17E8EEA102E8EEA016E8EEAD01E8EEA1B
:10240800416E1AEB0E0A4FEA510E8EEAC07E8EEA32
:10241800112E8EEA006E8EEAD11E4BEB0E0B4FEAA0
:10242800D64E8EEA473E8EEAC60E8EEA577E8EEA72
:10243800961E8EEA876E1AEB0E0A4FEAD74E8EEA80
:10244800463E8EEAC70E8EEA567E8EEA971E4BEB04
:102458000E0BACE8CC0F5CE90E45DCE9026700190D
:1024680041EB05014FEA560E8EEAC77E8EEA162E1C
:102478008EEA076E8EEAD61E8EEA476E10EB0E00C5
:102488004FEA570E8EEAC67E8EEA172E8EEA066E41
:102498008EEAD71E41EB0E014FEAD84E8EEA493E2E
:1024A8008EEAC80E8EEA597E8EEA981E8EEA896EEA
:1024B80010EB0E004FEAD94E8EEA483E8EEAC90E5E
:1024C8008EEA587E8EEA991E41EB0E015CE90C45B6
:1024D800DCE90489361947EB05074FEA580E8EEAFE
:1024E800C97E8EEA182E8EEA096E8EEAD81E8EEA0A
:1024F800496E16EB0E064FEA590E8EEAC87E8EEA32
:10250800192E8EEA086E8EEAD91E47EB0E074FEA9F
:10251800DA4E8EEA4B3E8EEACA0E8EEA5B7E8EEA71
:102528009A1E8EEA8B6E16EB0E064FEADB4E8EEA8B
:102538004A3E8EEACB0E8EEA5A7E8EEA9B1E47EB07
:102548000E075CE90A45DCE906AB18EB040849EB21
:1025580005094FEA5A0E8EEACB7E8EEA1A2E8EEACB
:102568000B6E8EEADA1E8EEA4B6E18EB0E084FEAF7
:102578005B0E8EEACA7E8EEA1B2E8EEA0A6E8EEA01
:10258800DB1E49EB0E094FEAD04E8EEA413E8EEA39
:10259800C00E8EEA517E8EEA901E8EEA816E18EB8E
:1025A8000E084FEAD14E8EEA403E8EEAC10E8EEA00
:1025B800507E8EEA911E49EB0E09DCE908451AEBBC
:1025C800020A4BEB030B4FEA540E8EEAC57E8EEAE5
:1025D800142E8EEA056E8EEAD41E8EEA456E1AEB2C
:1025E8000E0A4FEA550E8EEAC47E8EEA152E8EEA42
:1025F800046E8EEAD51E4BEB0E0B4FEAD64E8EEAD2
:10260800473E8EEAC60E8EEA577E8EEA961E8EEA00
:10261800876E1AEB0E0A4FEAD74E8EEA463E8EEACE
:10262800C70E8EEA567E8EEA971E4BEB0E0BACE871
:10263800C30F5CE90E23DCE90267A41845EB030528
:102648004FEA560E8EEAC77E8EEA162E8EEA076E7F
:102658008EEAD61E8EEA476E14EB0E044FEA570E2A
:102668008EEAC67E8EEA172E8EEA066E8EEAD71E90
:1026780045EB0E054FEAD84E8EEA493E8EEAC80E63
:102688008EEA597E8EEA981E8EEA896E14EB0E0445
:102698004FEAD94E8EEA483E8EEAC90E8EEA587E37
:1026A8008EEA991E45EB0E055CE90C23DCE90489EA
:1026B800B61847EB03074FEA580E8EEAC97E8EEA32
:1026C800182E8EEA096E8EEAD81E8EEA496E16EB2F
:1026D8000E064FEA590E8EEAC87E8EEA192E8EEA49
:1026E800086E8EEAD91E47EB0E074FEADA4E8EEADD
:1026F8004B3E8EEACA0E8EEA5B7E8EEA9A1E8EEA00
:102708008B6E16EB0E064FEADB4E8EEA4A3E8EEAD9
:10271800CB0E8EEA5A7E8EEA9B1E47EB0E075CE9CB
:102728000A23DCE906AB18EB020849EB03094FEA78
:102738005A0E8EEACB7E8EEA1A2E8EEA0B6E8EEA3F
:10274800DA1E8EEA4B6E18EB0E084FEA5B0E8EEA25
:10275800CA7E8EEA1B2E8EEA0A6E8EEADB1E49EBD3
:102768000E094FEAD44E8EEA453E8EEAC40E8EEA32
:10277800557E8EEA941E8EEA856E18EB0E084FEA97
:10278800D54E8EEA443E8EEAC50E8EEA547E8EEA17
:10279800951E49EB0E095CE918231AEB000A4BEB6E
:1027A800010B4FEA520E8EEAC37E8EEA122E8EEA93
:1027B800036E8EEAD21E8EEA436E1AEB0E0A4FEAB9
:1027C800530E8EEAC27E8EEA132E8EEA026E8EEACF
:1027D800D31E4BEB0E0B4FEAD64E8EEA473E8EEADF
:1027E800C60E8EEA577E8EEA961E8EEA876E1AEB22
:1027F8000E0A4FEAD74E8EEA463E8EEAC70E8EEA9A
:10280800567E8EEA971E4BEB0E0B8CE8F00FACF160
:10281800600C00BD2DE9F24F00F1400CB0E8F8075C
:10282800ACE8F807B0E8F807ACE8F807FEF72AFEC6
:10283800FFF732FCFEF726FEFFF72EFCFEF722FE1E
:10284800FFF72AFCFEF71EFEFFF726FCFEF71AFE2E
:10285800ACF1800808F1400998E80F0CB9E8F0508D
:102868000019694192197B411AEB0C0A4BEB0E0BCC
:10287800A8E80F0C98E80F0CB9E8F0500019694166
:1028880092197B411AEB0C0A4BEB0E0BA8E80F0CC4
:1028980098E80F0099E8F0000019694192197B4106
:1028A80088E80F00BDE8F88F81F0004102E000BF22
:1028B80083F0004330B54FEA41044FEA430594EAF8
:1028C800050F08BF90EA020F1FBF54EA000C55EA33
:1028D800020C7FEA645C7FEA655C00F0E2804FEA04
:1028E8005454D4EB5555B8BF6D420CDD2C4480EAE6
:1028F800020281EA030382EA000083EA010180EA16
:10290800020281EA0303362D88BF30BD11F0004F63
:102918004FEA01314FF4801C4CEA113102D0404299
:1029280061EB410113F0004F4FEA03334CEA1333D4
:1029380002D0524263EB430394EA050F00F0A780EC
:10294800A4F10104D5F1200E0DDB02FA0EFC22FAE7
:1029580005F2801841F1000103FA0EF2801843FADB
:1029680005F359410EE0A5F120050EF1200E012ACC
:1029780003FA0EFC28BF4CF0020C43FA05F3C0180A
:1029880051EBE37101F0004507D54FF0000EDCF183
:10299800000C7EEB00006EEB0101B1F5801F1BD32C
:1029A800B1F5001F0CD349085FEA30004FEA3C0C30
:1029B80004F101044FEA445212F5800F80F09A8026
:1029C800BCF1004F08BF5FEA500C50F1000041EB2A
:1029D800045141EA050130BD5FEA4C0C404141EB2E
:1029E8000101013C28BFB1F5801FE9D291F0000F29
:1029F80004BF01460020B1FA81F308BF2033A3F1D8
:102A08000B03B3F120020CDA0C3208DD02F1140CCE
:102A1800C2F10C0201FA0CF021FA02F10CE002F109
:102A28001402D8BFC2F1200C01FA02F120FA0CFC02
:102A3800DCBF41EA0C019040E41AA2BF01EB04514B
:102A4800294330BD6FEA04041F3C1CDA0C340EDC49
:102A580004F11404C4F1200220FA04F001FA02F38C
:102A680040EA030021FA04F345EA030130BDC4F14A
:102A78000C04C4F1200220FA02F001FA04F340EA3F
:102A88000300294630BD21FA04F0294630BD94F0F0
:102A9800000F83F4801306BF81F480110134013DD7
:102AA8004EE77FEA645C18BF7FEA655C29D094EA48
:102AB800050F08BF90EA020F05D054EA000C04BFC6
:102AC8001946104630BD91EA030F1EBF00210020B1
:102AD80030BD5FEA545C05D14000494128BF41F050
:102AE800004130BD14F580043CBF01F5801130BDB4
:102AF80001F0004545F0FE4141F470014FF000003F
:102B080030BD7FEA645C1ABF194610467FEA655CEF
:102B18001CBF0B46024650EA013406BF52EA033591
:102B280091EA030F41F4002130BD00BF90F0000F7F
:102B380004BF0021704730B54FF4806404F13204BB
:102B48004FF000054FF0000150E700BF90F0000F74
:102B580004BF0021704730B54FF4806404F132049B
:102B680010F0004548BF40424FF000013EE700BF6B
:102B780042004FEAE2014FEA31014FEA02701FBFFB
:102B880012F07F4393F07F4F81F06051704732F02D
:102B98007F4208BF704793F07F4F04BF41F4002184
:102BA800704730B54FF4607401F0004521F00041E2
:102BB8001CE700BF50EA010208BF704730B54FF06C
:102BC80000050AE050EA010208BF704730B511F06D
:102BD800004502D5404261EB41014FF4806404F1A5
:102BE80032045FEA915C3FF4D8AE4FF003025FEA2B
:102BF800DC0C18BF03325FEADC0C18BF033202EBAF
:102C0800DC02C2F1200300FA03FC20FA02F001FA08
:102C180003FE40EA0E0021FA02F11444BDE600BFAB
:102C280070B54FF0FF0C4CF4E06C1CEA11541DBF5A
:102C38001CEA135594EA0C0F95EA0C0F00F0DEF825
:102C48002C4481EA030621EA4C5123EA4C5350EA0A
:102C5800013518BF52EA033541F4801143F480135B
:102C680038D0A0FB02CE4FF00005E1FB02E506F0EC
:102C78000042E0FB03E54FF00006E1FB03569CF041
:102C8800000F18BF4EF0010EA4F1FF04B6F5007F47
:102C980064F5407404D25FEA4E0E6D4146EB0606B9
:102CA80042EAC62141EA55514FEAC52040EA5E5042
:102CB8004FEACE2EB4F1FD0C88BFBCF5E06F1ED8EC
:102CC800BEF1004F08BF5FEA500E50F1000041EB23
:102CD800045170BD06F0004646EA010140EA0200D0
:102CE80081EA0301B4EB5C04C2BFD4EB0C0541EAF2
:102CF800045170BD41F480114FF0000E013C00F307
:102D0800AB8014F1360FDEBF002001F0004170BD2A
:102D1800C4F10004203C35DA0C341BDC04F1140443
:102D2800C4F1200500FA05F320FA04F001FA05F2CF
:102D380040EA020001F0004221F0004110EBD3709C
:102D480021FA04F642EB06015EEA430E08BF20EAC8
:102D5800D37070BDC4F10C04C4F1200500FA04F36B
:102D680020FA05F001FA04F240EA020001F00041FD
:102D780010EBD37041F100015EEA430E08BF20EA70
:102D8800D37070BDC4F1200500FA05F24EEA020EB8
:102D980020FA04F301FA05F243EA020321FA04F0E7
:102DA80001F0004121FA04F220EA020000EBD3709E
:102DB8005EEA430E08BF20EAD37070BD94F0000F9E
:102DC8000FD101F00046400041EB010111F4801FD2
:102DD80008BF013CF7D041EA060195F0000F18BF83
:102DE800704703F00046520043EB030313F4801FBF
:102DF80008BF013DF7D043EA0603704794EA0C0F79
:102E08000CEA135518BF95EA0C0F0CD050EA41068E
:102E180018BF52EA4306D1D181EA030101F000410B
:102E28004FF0000070BD50EA410606BF1046194633
:102E380052EA430619D094EA0C0F02D150EA01363F
:102E480013D195EA0C0F05D152EA03361CBF104680
:102E580019460AD181EA030101F0004141F0FE411F
:102E680041F470014FF0000070BD41F0FE4141F4A3
:102E7800780170BD70B54FF0FF0C4CF4E06C1CEAA3
:102E880011541DBF1CEA135594EA0C0F95EA0C0F58
:102E980000F0A7F8A4EB050481EA030E52EA033513
:102EA8004FEA013100F088804FEA03334FF0805534
:102EB80045EA131343EA12634FEA022245EA111561
:102EC80045EA10654FEA00260EF000419D4208BF12
:102ED800964244F1FD0404F5407402D25B084FEABF
:102EE8003202B61A65EB03055B084FEA32024FF46B
:102EF80080104FF4002CB6EB020E75EB030E22BFC8
:102F0800B61A754640EA0C005B084FEA3202B6EB87
:102F1800020E75EB030E22BFB61A754640EA5C0036
:102F28005B084FEA3202B6EB020E75EB030E22BFC6
:102F3800B61A754640EA9C005B084FEA3202B6EBC7
:102F4800020E75EB030E22BFB61A754640EADC0086
:102F580055EA060E18D04FEA051545EA16754FEAE8
:102F680006164FEAC30343EA52734FEAC2025FEA06
:102F78001C1CC0D111F4801F0BD141EA00014FF095
:102F880000004FF0004CB6E711F4801F04BF014366
:102F98000020B4F1FD0C88BFBCF5E06F3FF6AFAE82
:102FA800B5EB030C04BFB6EB020C5FEA500C50F112
:102FB800000041EB045170BD0EF0004E4EEA113195
:102FC80014EB5C04C2BFD4EB0C0541EA045170BD9C
:102FD80041F480114FF0000E013C90E645EA060EE0
:102FE8008DE60CEA135594EA0C0F08BF95EA0C0F0E
:102FF8003FF43BAF94EA0C0F0AD150EA01347FF456
:1030080034AF95EA0C0F7FF425AF104619462CE72C
:1030180095EA0C0F06D152EA03353FF4FDAE10468F
:10302800194622E750EA410618BF52EA43067FF4E0
:10303800C5AE50EA41047FF40DAF52EA43057FF470
:10304800EBAE12E74FF0FF3C06E000BF4FF0010C7B
:1030580002E000BF4FF0010C4DF804CD4FEA410CDF
:103068007FEA6C5C4FEA430C18BF7FEA6C5C1BD0AC
:1030780001B050EA410C0CBF52EA430C91EA030F2D
:1030880002BF90EA020F0020704710F1000F91EA8A
:10309800030F58BF994208BF90422CBFD8176FEA58
:1030A800E37040F0010070474FEA410C7FEA6C5C26
:1030B80002D150EA013C07D14FEA430C7FEA6C5C2D
:1030C800D6D152EA033CD3D05DF8040B704700BF59
:1030D8008446104662468C461946634600E000BFA7
:1030E80001B5FFF7B7FF002848BF10F1000F01BD79
:1030F8004DF808EDFFF7F4FF0CBF012000205DF844
:1031080008FB00BF4DF808EDFFF7EAFF34BF0120C8
:1031180000205DF808FB00BF4DF808EDFFF7E0FF61
:1031280094BF012000205DF808FB00BF4DF808EDB2
:10313800FFF7CEFF94BF012000205DF808FB00BF19
:103148004DF808EDFFF7C4FF34BF012000205DF8FB
:1031580008FB00BF4FEA410C7FEA6C5C02D150EAE1
:10316800013C0AD14FEA430C7FEA6C5C02D152EA77
:10317800033C02D14FF0000070474FF00100704748
:103188004A0011D212F5001211D20DD56FF47873DE
:10319800B3EB62520ED44FEAC12343F0004343EA33
:1031A800505323FA02F070474FF00000704750EA7E
:1031B800013002D14FF0FF3070474FF000007047E8
:1031C8007BB972B90029BEBF00204FF0004106E06C
:1031D80008BF00281CBF6FF000414FF0FF3000F01F
:1031E80075B8ADF1080C6DE904CE002909DB002B98
:1031F8001ADB00F09AF8DDF804E0DDE9022304B0F8
:103208007047404261EB4101002B1BDB00F08DF859
:10321800DDF804E0DDE9022304B0404261EB41013E
:10322800524263EB43037047524263EB430300F09F
:103238007CF8DDF804E0DDE9022304B0404261EBEC
:1032480041017047524263EB430300F06EF8DDF82A
:1032580004E0DDE9022304B0524263EB4303704704
:1032680053B94AB9002908BF00281CBF4FF0FF31E5
:103278004FF0FF3000F02AB8ADF1080C6DE904CE2C
:1032880000F053F8DDF804E0DDE9022304B07047EC
:10329800D0B500220B4B06460F46FFF7C1FCFFF7DF
:1032A8006FFF0446FFF742FC0022074BFFF7B8FC0C
:1032B80002460B4630463946FFF7FAFAFFF760FF39
:1032C8002146D0BD0000F03D0000F041704700BF2E
:1032D80010F8012B11F8013B012A28BF9A42F7D0B8
:1032E800D01A7047034611F8012B03F8012B002A66
:1032F800F9D17047034613F8012B002AFBD1181A9D
:1033080001387047430803F05533C01A00F03333CF
:10331800800800F0333018444FF0013300EB1010F0
:1033280000F00F305843000E70472DE9F0478646ED
:103338008C460846089E154674461946002B40F0F0
:10334800C1808542B2FA82F245D94AB1C2F120035E
:1033580000FA02FC954094402EFA03F343EA0C0C61
:103368004FEA154EA8B2230CBCFBFEF80EFB18CC96
:1033780008FB00F943EA0C43994528D9EB1808F1F2
:10338800FF3704D2994502D9A8F102072B44A3EBD1
:103398000903A4B2B3FBFEFC0EFB1C330CFB00F0CC
:1033A80044EA0344A04214D92C190CF1FF3304D287
:1033B800A04202D9ACF102032C44241A43EA074084
:1033C8001EB1D440002334607360BDE8F0874746DF
:1033D800DDE76346F1E792BB431B01214FEA154E37
:1033E800AFB2200CB3FBFEFC0EFB1C330CFB07F842
:1033F80040EA0343984561D9EB180CF1FF3004D239
:10340800984502D9ACF102002B44A3EB0803A4B2FF
:10341800B3FBFEFC0EFB1C330CFB07F744EA03442A
:10342800A7424DD92C190CF1FF3304D2A74202D977
:10343800ACF102032C44E41B43EA0040C0E7C2F1AC
:1034480020039540944020FA03F12EFA03F34FEA43
:10345800154E9040AFB20343B1FBFEFC0EFB1C10AF
:10346800190C0CFB07F841EA0041884522D9691874
:103478000CF1FF3004D2884502D9ACF1020029448E
:10348800A1EB08019BB2B1FBFEFC0EFB1C110CFB6F
:1034980007F743EA01439F420ED9EB180CF1FF31BD
:1034A80004D29F4202D9ACF102012B44DB1B41EA52
:1034B800004193E76046E3E76146F7E76046A4E723
:1034C8006346B8E7834206D916B9002108467CE767
:1034D800C6E900E0F9E7B3FA83F78FB9834201D36D
:1034E800724508D8BEEB020460EB030301209C463A
:1034F8001EB9002169E73846FAE7C6E9004CF8E743
:10350800C7F1200CBB400EFA07F522FA0CF42EFA8C
:103518000CF1BA401C4320FA0CF3B8404FEA1449A6
:1035280001431FFA84FEB3FBF9F809FB18300B0CB2
:1035380008FB0EFA43EA00439A4540D9E31808F11C
:10354800FF3004D29A4502D9A8F102002344A3EB24
:103558000A0389B2B3FBF9F809FB183308FB0EFE1E
:1035680041EA03418E452CD9611808F1FF3304D292
:103578008E4502D9A8F10203214443EA0040A1EB99
:103588000E01A0FB02984145CE46434602D306D120
:103598004D4504D20138B9EB020E68EB0403002E46
:1035A800A7D0B5EB0E0261EB030101FA0CFC22FA7D
:1035B80007F3F9404CEA0303C6E9003199E74046AE
:1035C800C5E74346D9E7000037B54FF0FF324FF063
:1035D800FF33194851F03AFC184C3C21A5682046A5
:1035E800EB68984728B100F091FF0020144903B018
:1035F80030BD0D216A4620462B6998470028F2D134
:1036080000F084FF0198FFF7A1FA09A3D3E900238A
:10361800FFF730FC044600980D46FFF797FA02467C
:103628000B4620462946FFF745F9E0E7AFF300804F
:103638000000000080842E41AC11002058A308002F
:103648000000F87F0000000037B54FF0FF324FF060
:10365800FF33194851F0FAFB184C3C21A568204665
:10366800EB68984728B100F051FF0020144903B0D7
:1036780030BD10216A4620462B6998470028F2D1B0
:1036880000F044FF0198FFF761FA09A3D3E900238A
:10369800FFF7F0FB044600980D46FFF757FA02467D
:1036A8000B4620462946FFF705F9E0E7AFF300800F
:1036B8000000000080842E41AC11002058A30800AF
:1036C8000000F87F000000002DE9F04706460F468D
:1036D800904688B082F047F94FF47A73A0FB03450F
:1036E80003FB0155E40B012F44EA45444FEAD53565
:1036F80007D122462B46304627495FF008FB0020B9
:1037080012E0D8F8047025483946FFF7E1FD70B19A
:1037180039462348FFF7DCFD48B130463A4621498F
:103728005FF011FB6FF0040008B0BDE8F087204699
:1037380017A3D3E900232946FFF742FD05460C46A7
:1037480010461946184A0023FFF73AFD80460F46EF
:10375800104619464EF660220023FFF731FD8246D7
:103768008946104619464FF47A720023FFF728FD60
:10377800CDE902A9CDE90623CDE904012A4623466D
:103788003046CDE9008709495FF0C1FAB7E700BFC5
:10379800005C260500000000860C0900970C090053
:1037A8009A0C0900A30C090080EE3600BB0C090036
:1037B8002DE9F04F8846D0F8F41082460B6B164678
:1037C8008FB053B10622183106F1200086F00AFBAB
:1037D80018B901200FB0BDE8F08F504604A9D8F8F9
:1037E8006050D8F87840B76F67F0F5FD002852D1DF
:1037F800DDF820B0BBF1000F04D1DDF81CB0BBF13F
:10380800000F27D042F20F71099B049A8B420AD10C
:103818006FF47A63D31840F2657293428CBF6FF0ED
:1038280058036FF05B034046ABEB030965F07DFE80
:10383800D8F88420034608F18C010AB9D8F8882002
:10384800D8F850005D46CDE9009050460BF0A2FE36
:10385800CB46044604F59C530833BB42B9D3336DB9
:10386800B3F57A6F1ADDD8F85030B3F57A6FACBF7C
:103878004FF0000A4FF0010A002D12DB07F59C53A8
:1038880008339C4200F2CB80BBF1190F00F3C780CC
:103898004FF0020B3AE04FF0000BDBE74FF0000A65
:1038A800EAE7336E03EB4A03AB4215DA3846FFF713
:1038B8003DF9804620468946FFF738F94FF0333204
:1038C8005B4BFFF7ADF902460B4640464946FFF70A
:1038D80019FC002840F0A38007F59C530833A34245
:1038E800C0F09D80BBF1190F00F3998015F1550FB9
:1038F80031DB15F1500FCBDB15F14B0F2EDB15F13A
:10390800460FB4BF4FF0040B4FF0050B2046FFF7EE
:103918000DF9804638468946FFF708F902460B46F6
:10392800CDE902230022434BFFF77AF902460B4602
:1039380040464946FFF704FC98B10BF10A0BBAF16F
:10394800000F01D0ABF1020B306E401B5845B4BFDD
:10395800002001203EE74FF0010BD7E74FF0030BA3
:10396800D4E74FF03332DDE90201314BFFF758F964
:1039780002460B4640464946FFF7E2FB10B10BF101
:10398800050BDCE728A3D3E90023DDE90201FFF7F3
:1039980047F902460B4640464946FFF7D1FB10B1AE
:1039A8000BF1020BCBE7BC4202D90BF1010BC6E7C6
:1039B8000022204B40464946FFF732F902460B46A3
:1039C800DDE90201FFF7BCFB10B1ABF10A0BB6E76A
:1039D8004FF03332164B40464946FFF721F902466D
:1039E8000B46DDE90201FFF7ABFB10B1ABF1050BAC
:1039F800A5E70DA3D3E9002340464946FFF710F990
:103A080002460B46DDE90201FFF79AFB10B1ABF164
:103A1800020B94E7BC4238BF0BF1FF3B8FE7002055
:103A2800D8E600BFAFF300809A9999999999F13F28
:103A38003333F33F0000F83F01282DE9F041884671
:103A480008D086F051FB1622274B1A504FF0FF3052
:103A5800BDE8F0818A68254B9A42F2D881F083FF4D
:103A680005460F4681F07FFF214CD8F80030D8F882
:103A78000420A3FB043604FB0266D8F808209B1830
:103A880046EBE276EA0B42EA4742A2FB0421FF0B2F
:103A98009B1AC0F30E0204FB0711A2FB04244FEA91
:103AA800D23242EA444266EB0101981A61F1000100
:103AB8000BA3D3E90023FFF783FBEFF31184202343
:103AC80083F31288BFF36F8F0A4BC3E900019A6032
:103AD80084F31188BFF36F8F0020B9E7AFF300803C
:103AE80000CA9A3B000000000C000000FFC99A3B86
:103AF80000CA9A3BC8220020032973B5054614461C
:103B080071D8002A40D0072A5CD15A681C6813462D
:103B18003948D117C4FB0031012B71F1000225DBB4
:103B280000F56E1000F65D70181841F1000130A321
:103B3800D3E90023FFF744FB80B202281ED00428F3
:103B48001ED008281ED0102833D103232B492A69F8
:103B580051F8231028461161526823211469302234
:103B6800A4461B0102B0BDE87040604724481818FD
:103B780061F100011EA3D3E90023DBE70023E5E799
:103B88000123E3E70223E1E71A881E4B33F8021BFF
:103B98008A420BD12E692021736828469B680DF153
:103BA80007029847002807DA02B070BD01340B2CD1
:103BB800ECD16FF01500F7E79DF80720130704D440
:103BC800082C05D16FF08500EEE70A2C08BF092400
:103BD800736802F00F0242EA041220212846DB68CB
:103BE800D2B29847E0E702B0BDE870402BF066B962
:103BF8003AA395000000000040420F00DC090020B5
:103C0800632EB5FF820209002DE9F04F0129844691
:103C18008E4687B064D8002942D033A3D3E9002365
:103C280033A7D7E9006734A5D5E900450FF2D00BD3
:103C3800DBE900AB34A1D1E90001CDE9042334A3C9
:103C4800D3E90023CDE9002333A3D3E90023CDE949
:103C5800022333A3D3E900234FF000084FF00009F3
:103C6800CCE90A01DDE90401CCE90C01DDE9000138
:103C7800CCE90E01DDE90201CCE910010020CCE914
:103C88000089CCE90289CCE90467CCE90645CCE98E
:103C980008ABCCE91223CCF8D0E007B0BDE8F08F30
:103CA80021A3D3E9002322A7D7E90067CDE904239C
:103CB80021A5D5E9004522A3D3E900230FF2880BFB
:103CC800DBE900ABCDE9002321A1D1E9000122A362
:103CD800D3E90023CDE9022321A3D3E90023BBE7DD
:103CE8006FF07400D9E700BF310BC0FF6726336758
:103CF800D89E05C15D9DBBCB07D57C362A299A6223
:103D080017DD70305A01599139590EF7D8EC2F1533
:103D180011155868874AB48EA78FF9640D2E0CDBED
:103D2800A44FFABE1D48B547D182E6AD7F520E5169
:103D380008C9BCF367E6096A3BA7CA8485AE67BBB6
:103D48001F6C3E2B8C68059B2BF894FE72F36E3C1F
:103D5800F1361D5F3AF54FA56BBD41FBABD9831F0B
:103D680079217E1319CDE05B30B417A3D3E9002382
:103D780000240025C0E9002315A3D3E90023C0E9E6
:103D8800604515A5D5E90045C0E9022314A3D3E988
:103D98000023C0E9044514A5D5E90045C0E9062378
:103DA80013A3D3E90023C0E9084513A5D5E90045C5
:103DB800C0E90A2312A3D3E90023C0E90C4530BCAB
:103DC800C0E90E23704700BF08C9BCF367E6096A5B
:103DD8003BA7CA8485AE67BB2BF894FE72F36E3C92
:103DE800F1361D5F3AF54FA5D182E6AD7F520E51EF
:103DF8001F6C3E2B8C68059B6BBD41FBABD9831FA9
:103E080079217E1319CDE05B2DE9F04373A5D5E93F
:103E18000045E3B00023CDE9004515466093619263
:103E2800804670A3D3E90023CDE902236FA3D3E929
:103E38000023CDE904236FA3D3E90023CDE90623AA
:103E48006EA3D3E90023CDE908236EA3D3E90023A9
:103E5800CDE90A236DA3D3E90023CDE90C236DA393
:103E6800D3E90023CDE90E2345B90025414668462C
:103E780060955BF0B7FD63B0BDE8F0837F2D0E461B
:103E88007AD90C46A5F1800727F07F078037DFF83D
:103E980048910F446068226800BA12BAE368CDE915
:103EA800200262691BBA12BA22932492E369A269BA
:103EB8001BBA12BA26932792636A626B1BBA12BAAC
:103EC800A168206928932C92E36AE26B09BA00BAC8
:103ED8001BBA12BA23912590A16A206A2E922A93BE
:103EE800226BA36B09BA00BA12BA1BBA2B912D9296
:103EF8002F932990606C216CE36C00BA09BACDE964
:103F080030011BBA616D3293E36D09BA1BBA349163
:103F1800A16DA26C3693636E09BA206D12BA1BBAF2
:103F28003791616F33923893E26EA36E00BA09BA83
:103F3800803412BA1BBA359054F8200C3C9154F8CE
:103F4800041CCDE93A2354F8102C54F8083C00BA64
:103F580009BA39903E9112BA1BBA494668463D9251
:103F68003F93FEF757FCBC4294D125F07F0315F030
:103F78007F051E443FF479AF002D14BF2C46012461
:103F8800032D26D9334624F00300304440AA53F8C1
:103F9800041B984242F8041BF9D124F00303A2073A
:103FA8001E443FF463AF31780DEB030282F8001131
:103FB8005A1C95427FF65AAF717802336A449D4283
:103FC80082F800117FF652AFB2786B4483F8002173
:103FD8004CE70023E7E700BFC8AE080008C9BCF3F8
:103FE80067E6096A3BA7CA8485AE67BB2BF894FECF
:103FF80072F36E3CF1361D5F3AF54FA5D182E6ADFE
:104008007F520E511F6C3E2B8C68059B6BBD41FB8C
:10401800ABD9831F79217E1319CDE05B0000000026
:1040280030B417A3D3E9002300240025C0E90023F6
:1040380015A3D3E90023C0E9604515A5D5E90045D6
:10404800C0E9022314A3D3E90023C0E9044514A559
:10405800D5E90045C0E9062313A3D3E90023C0E945
:10406800084513A5D5E90045C0E90A2312A3D3E9F9
:104078000023C0E90C4530BCC0E90E23704700BFDF
:10408800D89E05C15D9DBBCB07D57C362A299A628F
:1040980017DD70305A01599139590EF7D8EC2F15A0
:1040A800310BC0FF6726336711155868874AB48EED
:1040B800A78FF9640D2E0CDBA44FFABE1D48B54737
:1040C8002DE9F04373A5D5E90045E3B00023CDE918
:1040D8000045154660936192804670A3D3E900239A
:1040E800CDE902236FA3D3E90023CDE904236FA30D
:1040F800D3E90023CDE906236EA3D3E90023CDE954
:1041080008236EA3D3E90023CDE90A236DA3D3E9DD
:104118000023CDE90C236DA3D3E90023CDE90E23B9
:1041280045B900254146684660955BF03FFE63B09F
:10413800BDE8F0837F2D0E467AD90C46A5F180079D
:1041480027F07F078037DFF848910F4460682268BE
:1041580000BA12BAE368CDE9200262691BBA12BA42
:1041680022932492E369A2691BBA12BA2693279272
:10417800636A626B1BBA12BAA168206928932C92F1
:10418800E36AE26B09BA00BA1BBA12BA2391259006
:10419800A16A206A2E922A93226BA36B09BA00BAED
:1041A80012BA1BBA2B912D922F932990606C216C17
:1041B800E36C00BA09BACDE930011BBA616D3293DC
:1041C800E36D09BA1BBA3491A16DA26C3693636E84
:1041D80009BA206D12BA1BBA3791616F33923893BE
:1041E800E26EA36E00BA09BA803412BA1BBA3590CF
:1041F80054F8200C3C9154F8041CCDE93A2354F8A7
:10420800102C54F8083C00BA09BA39903E9112BAF9
:104218001BBA494668463D923F93FEF7FBFABC42FB
:1042280094D125F07F0315F07F051E443FF479AF44
:10423800002D14BF2C460124032D26D9334624F023
:104248000300304440AA53F8041B984242F8041B68
:10425800F9D124F00303A2071E443FF463AF317879
:104268000DEB030282F800115A1C95427FF65AAFF3
:10427800717802336A449D4282F800117FF652AF8A
:10428800B2786B4483F800214CE70023E7E700BFCE
:10429800C8AE0800D89E05C15D9DBBCB07D57C364E
:1042A8002A299A6217DD70305A01599139590EF747
:1042B800D8EC2F15310BC0FF6726336711155868E6
:1042C800874AB48EA78FF9640D2E0CDBA44FFABE73
:1042D8001D48B5472DE9F04192B000F09BF80A223D
:1042E8002648114600F0E4F800F016F98046FFF77A
:1042F8006BF906460F46FFF7A7F904460D46B8F1D5
:10430800000F30D002460B4630463946FEF722FFF2
:1043180048BB32463B461A485DF048FC2B462246CD
:1043280018485DF043FC32220A21174800F0C0F813
:104338004021CDE90067154A02A85CF0A5F902A85A
:104348005A220A2100F0B4F84021CDE90045104A6C
:1043580002A85CF099F982220A2102A800F0A8F8C4
:1043680012B0BDE8F0810B485DF020FC32220A2132
:10437800094812B0BDE8F04100F09AB82A070900D0
:104388003D07090052070900650709006F07090082
:104398007C0709008E070900A207090070B5184CB0
:1043A800204680F0D7FD28B916485DF0FFFB4FF096
:1043B800FF3070BD2669A56833684FF4202223F4C6
:1043C800807333602B680821204698473368DB05E3
:1043D8004FF4807154BFEB682B69204698470A4B0D
:1043E800186880F0B7FD28B908485DF0DFFB6FF06A
:1043F8000100DEE706485DF0D9FB0020D9E700BFE1
:1044080068A20800C3070900A0050020E407090006
:10441800FE07090038B5FFF7C1FF044600283ED162
:104428005CF0DBFF1E4D224643F23F3175F03BFC4A
:104438005CF0D3FF2246FF2175F044FC2C7824BBA6
:1044480018487CF0C5FA184916487CF0BCFC21468F
:1044580014487CF0AFFC214612487CF035FC0A2158
:1044680010487CF018FC0A210E487CF018FC0A2140
:104478000C487CF008FC0A210A487CF008FC0A2158
:1044880008487CF0ACFC01232B70084B1868836843
:104498005B6803B19847BDE8384043F041BE38BD7A
:1044A800E6C80020D0550020D4EC0800A005002064
:1044B800F8B5144B05461B780E46174603B3F8B1FA
:1044C8005CF08BFF47F0B4FA044600220E4975F001
:1044D80019F920464FF4967173F073FE20460021B7
:1044E80047F0B2FA294620467EF03DF93B4632466F
:1044F8002046012173F0C1FEBDE8F84043F010BE2C
:10450800F8BD00BFE6C80020D0550020014850F093
:1045180015BD00BFAC110020B0B500AF1A4D28463C
:1045280080F018FD044619480368BCB95B0712D02F
:104538002B686D4688B06A461549C2E905134FF4E1
:1045480000739383134B42F8103F4FF4E251234614
:1045580001F000FBAD462046BD46B0BD03F00703A1
:10456800022BF8D92B686D4688B06A460A49C2E919
:1045780005134FF400739383064B42F8103F002352
:104588004FF4E651E4E700BF58A30800840E00206A
:104598001E08090003000001370809002DE9F04F43
:1045A800046885B0A2686B48B2F5004F2CBF082399
:1045B8000423551C0833A5EBD305B5FA85F5C5F1D9
:1045C80020052B46894621465DF0F0FA62485DF0E9
:1045D800EDFA00264FF0010B04F10C0A5AF8043FDB
:1045E8005BB300271946B8462046039302915DF055
:1045F8007FFA804538BF80460299032220465DF045
:104608006CFA039B0146834207F10107ECD1A368CA
:104618000BFA06F2B3F5004F34BF04230823013A1E
:1046280003F10801C3EBC803CDE9008302EBD10213
:104638003B46314649485DF0B9FA0136B542CDD11D
:10464800B9F1000F36D046485DF0B0FA0025DFF822
:1046580014810122294620465DF03FFA2946074683
:1046680020465DF045FAFB0706461FD4A368B3F55C
:10467800004F1DD3012814BF2D272E2700222946BD
:1046880020465DF02AFAAB19281A019300903346A8
:104698003A46294640465DF089FAA3689D4209D00A
:1046A800294620465DF024FA0544D2E72A27E5E7A3
:1046B8002D27E3E7002120465DF01AFA0025D4F8FB
:1046C80008800646B8F5004F2CBF4FF0080A4FF097
:1046D800040A2F4646451ED3B8F5004F34BF0422BE
:1046E80008224FF47A7102EBC8027B19D31A5008DA
:1046F80001FB03000A21B0FBF2F0B0FBF1F201FB71
:1047080012003946CDE900202A4617485DF04EFAD6
:1047180005B0BDE8F08F0122314620465DF0DDF995
:104728008146314620465DF0E3F919F0010F05D0C6
:10473800A5EB0A0505EBC0050644CBE7B8F5004F25
:1047480004D2C300A7EB0A071F44F5E70128F8D1F4
:10475800F2E700BF66080900930809004E0909003E
:104768006809090076090900A40909002DE9F04F34
:1047780091B0009302F004030293C2F3C203013321
:10478800840705460E46DDF868900392059340F0CD
:10479800BB81041D30B1072909D86FF01B0011B087
:1047A800BDE8F08F01F00706341DC6F10806009B2E
:1047B8004FF000084FF0040A591E4FF0FF334746E8
:1047C8000193C3465346CDF810800DB1009A22607C
:1047D8000598002800F3E8809848009A824203D39D
:1047E80097488242C0F0E080039AA4EB050E920736
:1047F8004FEA9E0000F103810F2F00F2B180002DD7
:1048080000F0058107F140020DEB020C019A0CF84B
:10481800200C0CF8102C049801300490E7E07A285A
:104828005DD84B280ED8472859D829282DD82528AF
:1048380052D054D820287AD02338D0F1000B4BEB33
:10484800000B74E04C382E2849D8DFE800F0704897
:10485800484848484848484848484B4848484848CD
:1048680048484859484B4B595959704B6D487048FE
:10487800184B184848827F4B48484B487F00002017
:104888004FF0000B4FF0040A38E001222A38C0B27A
:1048980002FA00F010EA0E0F49D110F0625C2FD135
:1048A80010EA020B43D06046013C5444B4FBFAF4CE
:1048B8000AFB04F4002D61D0A3EB050CA444B44515
:1048C8003FF66BAF002868D1042B47D159F8043B59
:1048D8002360042304342AE0019A013A01924FF03C
:1048E800000B24E011F8010C6C2834D1002011F8D9
:1048F800023C83466C2BC5D14FF0080A5346D3E7D8
:1049080009F1070929F00709073424F00704F9E831
:1049180002AB35B106982044B0423FF63EAFC4E939
:1049280000AB4FF0000B08344FF0080A534611F85B
:10493800010F002878D0BBF1000F7FF470AF252855
:10494800F5D14FF0010B019B013301934FF0040A9D
:10495800ECE7584694E700208346A5E7082B02D0E9
:104968006FF015001BE709F1070929F00709F9E8B5
:104978000223C4E9002308230834D8E768B9042BC4
:1049880002D109F10409A4E7082BE9D109F10709C3
:1049980029F0070909F10809EDE7059A013A059296
:1049A80059F8042B009210E7039A900720D54FF08E
:1049B800010CA4EB050E4FEA9E00BEF5007FCFD296
:1049C8000F2FCDD8F5B107F140020DEB020E019A79
:1049D800C0B20EF8200C0EF8102CBCF1000F3FF4FA
:1049E8001AAF60F07F000EF8200C08F101080137BB
:1049F800C5F108024FF6DA7E0434069297E74FF0C5
:104A0800000CDAE7BCF1000F01D00136EFE702989D
:104A180002360028EBD10098CDE90631FEF76AFC92
:104A2800DDE906310644E2E7631BB3F5806F97D2F0
:104A380045B9A6F10804E018B1E600BF04A10800D2
:104A480024DB0B00029A9B0828602B709DF810301D
:104A5800C2B1EB7085F80280B8F1000F05D00022D2
:104A680008A8C5F1010C97420ED14FF0000AC5F114
:104A780001030DF1200901930DF1300B574512D1B7
:104A8800601B8CE66B70E5E710F8013B190608D54A
:104A980004EB0C0EB64503F07F033FF67EAE04F838
:104AA800013B0132DFE7B8F1000F03D099F900208C
:104AB800002A17DB029BD3B11AF80B2004F8012B4C
:104AC8000022019B98182044B0423FF666AE99F840
:104AD8000000009904F8010B2046039284F0B8FF07
:104AE800039A14440AF1010A09F10109C6E799F881
:104AF800002055F822300093029B009845F8223098
:104B0800FEF7F8FB421CDCE76FF00D0047E600BF3C
:104B18002DE9F04F97B000AFD7F880B03B62CBF3E8
:104B2800C0030446894690F802A0FA62BB6141B905
:104B3800457800780AEB800020444D4517D8A0EB53
:104B48000409E378FB61BAF1000F02D01BF0010FF2
:104B580016D1FB6953BBFB6A1BB1494620463A6A2A
:104B680098474D4628465C37BD46BDE8F08F461C41
:104B78003046FEF7BFFB0130304409F10109DCE79C
:104B8800626823787A62FA6A9900796104EB830192
:104B9800002A40F005810E464FF000084D4601EB13
:104BA8000A094E4550D101EB0A0610E01BF0020F2E
:104BB800D1D023789A007A61626804EB83017A6223
:104BC800FA6A002A7BD14D46904601EB0A061BF093
:104BD800050F0CBF02230123FB62FB6906EB430AA6
:104BE8000BF00203BB625645BCD016F8021B16F840
:104BF800013C54F823909B4B994502D39A4B994515
:104C08003AD3BB69002B44D0786A5CF0A8FF00282F
:104C18003FD09648036813F0060F13D0E9468AB0D0
:104C28006A46934B53617B6AC2E906314FF40073BD
:104C38001384904B42F8103F00234FF4125100F0B8
:104C480089FFCD46023DCEE716F8013BF96254F8DC
:104C58002300FEF74FFBD7F88430F96A01304BB1D7
:104C6800D7F8883098453EBFD7F8843023F8180025
:104C780008F10108054494E7BB6923B1786A5CF040
:104C88006EFF0028C5D11BF0010F05D1FB6AED1A94
:104C9800A9E7BB6A002BA6D04846FEF72BFBD7F83E
:104CA800843053B1D7F8883098453FBFD7F884206F
:104CB800431C22F8183008F10108054493E7BAF1BB
:104CC800000F73D01BF0040673D0D046002607F1FE
:104CD800480052463B61B96284F0BAFEB96A3B6942
:104CE80001EB0A02BA62FA69F9695200FA60BA6A13
:104CF80002EB41023A610BF00202BA603A69B96A02
:104D08008A4258D162781BF0020F18BF00217A62DC
:104D180008BF4FEA5801B2181BF0010FD2B240F099
:104D28009F801BF0040F14BF40460020BB616270D7
:104D3800A070E17020463A6A7969FB6A9847051EB7
:104D4800FFF610AFBB69414623707B6A3A6A63700D
:104D5800FB6984F802A0E37007F14800FB6A9847F2
:104D6800B0F10008C0F2B4807B69A9EB0A01C91A46
:104D7800FB683A6AC91AD7E90A0398470028C0F2BB
:104D8800A9804FF0000BA84408EB000507F1380A8A
:104D9800B34571D300213A6A0846FB6A9847E1E6B1
:104DA80056464FF0000807F1380092E75646D046BD
:104DB80096E7B04694E7BA6A12F8021B12F8015C4B
:104DC800BA6254F82500274A904202D3264A9042F4
:104DD8001ED3BA6932B1786A7B605CF0C0FE7B682A
:104DE80000288BD1BA6802BB08F1280207F1300C01
:104DF80008F10100944407F1580208F1020852FA38
:104E080080F00CF8101C5FFA88F800F8105C75E761
:104E1800BA693AB1786A7B605CF0A1FE7B680028C9
:104E28007FF46CAF1BF0010F09D006F1280207F1DF
:104E38003000711C161806F8205CCEB25EE71BF035
:104E4800040F3FF45BAF08F1280207F1300008F1C6
:104E5800010102EB000808F8105C5FFA81F84DE7E1
:104E6800002063E704A1080024DB0B00900E00205B
:104E7800EC090900040000011BF80A3054F82390DB
:104E880087F83730D7F88430FBB133F81B8001211D
:104E98003A6AFB6A07F13700984700281ADB05448D
:104EA800B8F1000F06D14846FEF724FA00F10108D0
:104EB8001FFA88F8414648463A6AFB6A984700282C
:104EC80008DB05440BF1010B62E7D7F88480DEE7C5
:104ED800454647E6054645E6014B1860704700BF62
:104EE800A405002080B505460E461746984650F0A2
:104EF80035FF034685F0F8F80446DFF81890424677
:104F080049F8003039463046A84754F809001EF0E1
:104F18007DFB00BF0800000000B5162285F0E4F80C
:104F2800024B1A504FF0FF305DF804FB0C000000F4
:104F38000F2800B508D985F0D7F80922074B1A5071
:104F48004FF0FF305DF804FB3022054B02FB0033C5
:104F5800D3E8AF3F002BEED00020F3E70C000000B1
:104F6800B00500203023434330B50D4908330B44C6
:104F7800D3E8AF2F92B1541ED3E8EF5F954204D126
:104F8800C3E8EC4FBCF1000FF6D1F1D1012A05D1ED
:104F98003023584300230A180B50536030BD00BF1C
:104FA800A805002038B504461546FFF7C1FF0028BC
:104FB8000BDB094A59B1302303FB04235B688B429E
:104FC80005D085F091F8054B1D50002038BD3023E1
:104FD8005C431059FAE700BFA80500200C00000048
:104FE80038B504461546FFF7A3FF00280DDB30232C
:104FF8006343074AD0184068086015B10C3313445E
:105008002B6030235C43105938BD0020FCE700BFFB
:10501800A805002070B500254FF0FF334FF0FF3290
:1050280017485CF0E3FD174BD3E8AF2F82B1013589
:10503800102D03F13003F7D185F056F817224FF001
:10504800FF35114B1A500E485CF0D2FD284670BD52
:1050580030246C43D3E8EF0F0130C3E8E10F002997
:10506800F8D10A4E331932515A6004F10C00304419
:1050780080F070F804F12000304480F092FAE2E702
:1050880044100020B00500200C000000A8050020F6
:1050980030B40446302510466C43084A151911519E
:1050A8006860EB6240B1C36833B10C34131940F245
:1050B800051230BC5CF089BD30BC7047A8050020E3
:1050C800F8B50546FFF734FF00281ADB30246C4397
:1050D8000D4F04F10C063E444FF0FF324FF0FF3302
:1050E80030465CF083FD3B195B6838599B689847EC
:1050F800044630465CF07CFD2846FFF733FF204627
:10510800F8BD4FF0FF34FAE7A80500202DE9F84371
:1051180040F26C7344690569E1170135E41841F1FF
:105128000001022D8CBF00230123E41AC76861F136
:1051380000010029064607F1FF374EDA6FF4C77001
:105148004FF4C8720023201861F10001FEF738F807
:10515800244B4FF03C0E03FB0044D6E900834FEA92
:10516800E37C99466346022D02468CBF6FF002002D
:105178000920B6680544C6FB0E93A9FB0EC60EFBB4
:10518800036640F26D1E9920A3080EFB04333B44CE
:10519800642745430520B4FBF7F40235B5FBF0F569
:1051A8001B1B114C1CEB080CA2FB042004FB010187
:1051B8002B4446EBE87698180C4A41F10003801816
:1051C8000B4A63F10003A0FB020102FB031110EB81
:1051D8000C0041EB0601BDE8F8834FF4C8720023C8
:1051E8002046B3E770FEFFFFB13A02009405F5FFD1
:1051F8008051010010B5FFF789FF0024024684F0B2
:1052080073FF0B46024944501046194610BD00BFB3
:105218000C0000002DE9F047058B0446280790464E
:1052280011D4022905F0070540F0CC8020465CF037
:1052380043FF78B10138218B042811D8DFE800F04A
:10524800C2106D85950001290CBF45F0100545F089
:105258002005258388F31188BFF36F8FBDE8F08799
:1052680001F0070AAA4500F0A5800027B9463E4686
:10527800A368002B00F0BC8041F00801218388F36B
:105288001188BFF36F8FA168002900F0BA800D68FC
:10529800002900F0B680334652462046D1F80480F3
:1052A800C047002D76D02B6829461D46F0E701F04F
:1052B80007035A1F012A1BD8002221F00701062BD9
:1052C800276889B2C4E9002209D13B4603E0628B12
:1052D800013262831B68002BF9D141F0020120469C
:1052E80021835CF0E9FE00287AD041F0200176E0C5
:1052F800042B0AD121F0070189B2204621835CF0F2
:10530800DBFE10B141F020012183218B01F0070A57
:10531800AA454FD00027B946AAE7236921F007011B
:1053280041F00601062DD3F8009021832DD1B9F163
:10533800000F3FD041F00801218388F31188BFF3A3
:105348006F8F20463949C84729E021F007012369B2
:1053580041F0040189B2042DD3F804902183E6D0EA
:1053680000274FF0040A3E4682E721F0070123692F
:1053780041F0050189B2052DD3F808902183D6D0D4
:1053880000274FF0050A3E4672E700274FF0060A4D
:105398003E466DE72B4687E7B9F1000FD1D1EFF311
:1053A8001188202383F31288BFF36F8F238B23F098
:1053B80008032383258BEA062ED525F010032383C3
:1053C80005F007056669218B002EBFF670AF002334
:1053D8002768C4E9003321F0070141F00101218366
:1053E800218B4FF0000901F0070AAA457FF440AF6E
:1053F800002F9CD041F00801218388F31188BFF366
:105408006F8F002FC8D03D68394633465246204634
:105418005CF07EFE2F46F4E7AB067FF51BAF25F068
:105428002003238305F0070500E700BF4521060098
:105438002DE9F047044607464FF00109DFF8508090
:1054480014B93846BDE8F08794FAA4F5B5FA85F59D
:1054580009FA05F32E0108EB05156FEA030A24EA99
:1054680003042B7B002BEBD058F806301B694BB993
:105478004644736804222846196807EA0A0700F0B8
:1054880029FBDDE7284698470028D9D1F0E700BF77
:1054980058A7080030B5002289B00F490F4880F09E
:1054A800A9FA002200230024CDE906230E230C4D7F
:1054B800CDE903344FF440722846CDE90144094B45
:1054C8000949009450F04CF90849284650F078F8FA
:1054D800204609B030BD00BFF9540000C01C0020B0
:1054E800E01300202158000058D50020B00A090018
:1054F80001484FF091BD00BF581200202DE9F04738
:1055080080461F480F465CF074FF0646002830D0DE
:1055180000252846BDE8F087237B6BB12368DB684C
:105528000BB12046984723681B69D3B963680422E6
:105538002046196800F0CEFA013610344C45EBD3FA
:10554800B8F1000FE5D0002DE2D02846FFF770FF34
:105558000546002FF7D000214FF4A47050F0C2FB8D
:10556800F1E7204698470028E0D00AFA06F31D43E1
:10557800E2E705464FF0010A024CDFF80C90DDE740
:10558800E855002058A7080078A70800014B53F8F1
:10559800200070476CB1080008B5034608462BB1D7
:1055A800044A136000F078FD002008BD6FF0150074
:1055B800FBE700BFA808002010B5044C237813B9F6
:1055C80003484FF029FD0123237010BDE7C80020D0
:1055D8005812002010B5044609485CF00AFF3CB197
:1055E800084BD3E8EF1F0139C3E8E21F002AF8D1BE
:1055F800054880F00BFABDE8104004484FF00CBD98
:10560800E0550020E4550020C01C0020581200205E
:1056180000200146034BD3E8EF0FC3E8E21F002A3E
:10562800F9D17047E055002070B5FFF7F1FF054646
:10563800074C084EB44200D370BD63685B792BB148
:1056480023685B6813B12946204698471034F1E770
:1056580058A7080078A7080010B5044C044920464C
:105668005CF0C6FB034B1C6010BD00BF380E002069
:1056780058B10800D855002008B50023084A4FF44F
:1056880000411370074A08481360084A1360FFF77F
:1056980083FFFFF7E1FFBDE8084000F06BB900BFEA
:1056A800E8C80020E0550020F7230600E455002054
:1056B80001460022002301485CF0BBBB380E0020E5
:1056C80001485CF051BC00BF380E0020024B014677
:1056D80018685CF09DBC00BFD855002001485CF0FC
:1056E800D2BC00BF380E00202DE9F041334B1878AA
:1056F800002860D0FFF7E4FF044678B1304BD3E8C8
:10570800EF1F0139C3E8E21F002AF8D12D4DDFF859
:10571800B88045452DD32046FFF7D8FF2B4B2C4C9E
:105728001B68002B19DD80F01EF94FF47A72A0FB7C
:10573800020302FB0131C30B43EA4143D4E90020D1
:105748009B1A40F2E9324FEAD13161EB00019342F2
:1057580071F1000101D3FFF767FFD4E9003213F5B7
:105768007A7342F10002C4E90032BDE8F041FFF764
:10577800B5BF6B685B793BB121784B0706D52B68C1
:10578800214628461B6898471035C2E720462688D8
:10579800C1F3C20700F0BEFAC6F382160246002E15
:1057A800EDD00028EBDB01233946284600F0ACF9A0
:1057B800B042E9D3E3E7BDE8F08100BFE7C80020C5
:1057C800E455002058A7080078A70800E0550020F5
:1057D800B81C002070B50D4D297861B90120FFF77C
:1057E8008DFE0B4C0B4EB44206D3FFF77DFF00280D
:1057F800FBD101232B7070BD63685B791BB12368F3
:1058080020469B6898471034EDE700BFE8C80020A1
:1058180058A7080078A7080000212DE9F047084696
:10582800FFF76CFE044658B340F267684FF0000972
:1058380084F05AFC1B4B1C4A1B58136033B11B4B9A
:105848001B68092B02DD1A484FF0E6FB0025194FAB
:10585800DFF85CA044B12046FFF7EAFD044618B91A
:105868004FF0FF384FF0FF39FFF73EFF064628B9E3
:10587800B5B942464B4650464FF0F4FB3546E9E78A
:105888004FF0FF384FF0FF39D2E72B689B691BB107
:1058980000222846114698471035BD42F5D3E8E75F
:1058A800054DFAE708000000DC550020E45500200B
:1058B8005812002078A7080058A7080013B5184800
:1058C8005CF097FD174B1B7873B1EFF3118420231D
:1058D80083F31288BFF36F8FFFF706FF84F31188F5
:1058E800BFF36F8F02B010BD0F4B1B68002BF9D0B0
:1058F80050B9002200230D48CDE900234FF400429F
:10590800002350F0F5FCEDE70928EBD1074880F0BB
:105918007DF8074802B0BDE810404FF07DBB00BFDE
:10592800E4550020E8C80020DC550020C01C0020F9
:105938005812002010B5064B04461B6898472146AC
:10594800A06004485CF0F1FABDE81040FFF7B6BF6C
:10595800A8080020380E0020044A054B9B1AB1EB1A
:10596800D30F34BF52F8310000207047D0A508008B
:1059780058A7080000210B480B4B30B51B1A0B4CDD
:10598800DB080430994200D130BD10F83120256879
:1059980002F0070225F007052A4344F8042B0131D9
:1059A800F0E700BFD0A5080058A708007C0E00202B
:1059B800F8B5064600240A4F0A4DED1BED08AC4227
:1059C80003D14FF0FF342046F8BD57F8340020B11A
:1059D8003146FDF77DFC0028F5D00134EFE700BF24
:1059E800D0A5080058A7080000282DE9F0478846E8
:1059F80015461F461DDA4FF0000A5446DFF890900E
:105A0800244EA6EB09063609B24509F1100902D160
:105A18002046BDE8F08759F80C0C3B462A4641461B
:105A28000079FFF7E1FF844238BF04460AF1010A12
:105A3800EAE7194B194AD21AB5EBD20F26D203EB73
:105A4800C5031C79BC4228BF3C460722144EC0B28D
:105A580000EB400056F82530824023EA020304F0A8
:105A68000702824013430021032223FA02F000F0C8
:105A78000700814202F1030238BF01461E2AF4D111
:105A880023F007030B4346F82530C1E70024DCE781
:105A980058A7080078A70800D0A5080058A708004C
:105AA8007C0E0020F8B506460F460024074D084B2B
:105AB800ED1AED08AC4200D3F8BD002122B23B46F6
:105AC800304601345CF0B1FCA4B2F3E758A70800F3
:105AD800D0A5080038B50D4611460A4B4268C31ACE
