:1080000020D90120A9B40000AD49030095B40000B7
:1080100095B4000095B4000095B4000095B400003C
:1080200000000000000000000000000081B6000019
:1080300095B400000000000039B6000095B40000BF
:1080400015B8000015B8000015B8000015B80000FC
:1080500015B8000015B8000015B8000015B80000EC
:1080600015B8000015B8000015B8000015B80000DC
:1080700015B8000015B8000015B8000015B80000CC
:1080800015B8000015B8000015B8000015B80000BC
:1080900015B8000015B8000015B8000015B80000AC
:1080A00015B8000015B8000015B8000015B800009C
:1080B00015B8000015B8000015B8000015B800008C
:1080C00015B8000015B8000015B8000015B800007C
:1080D00015B8000015B8000015B8000015B800006C
:1080E00015B8000015B8000015B8000015B800005C
:1080F00015B8000015B8000015B8000015B800004C
:1081000015B8000015B8000015B8000015B800003B
:1081100015B8000015B8000015B8000015B800002B
:1081200015B8000015B8000015B8000015B800001B
:1081300015B8000015B8000015B8000015B800000B
:0481400015B800006E
:108148007BB972B90029BEBF00204FF0004106E09C
:1081580008BF00281CBF6FF000414FF0FF3000F04F
:1081680057B8ADF1080C6DE904CE002909DB002BE6
:108178001ADB00F07CF8DDF804E0DDE9022304B046
:108188007047404261EB4101002B1BDB00F06FF8A8
:10819800DDF804E0DDE9022304B0404261EB41016F
:1081A800524263EB43037047524263EB430300F0D0
:1081B8005EF8DDF804E0DDE9022304B0404261EB3B
:1081C80041017047524263EB430300F050F8DDF879
:1081D80004E0DDE9022304B0524263EB4303704735
:1081E80053B94AB9002908BF00281CBF4FF0FF3116
:1081F8004FF0FF3000F00CB8ADF1080C6DE904CE7B
:1082080000F035F8DDF804E0DDE9022304B070473A
:10821800704700BF10F8012B11F8013B012A28BF55
:108228009A42F7D0D01A7047034611F8012B03F889
:10823800012B002AF9D17047034613F8012B002AB5
:10824800FBD1181A01387047430803F05533C01A98
:1082580000F03333800800F0333018444FF0013316
:1082680000EB101000F00F305843000E70472DE956
:10827800F04786468C460846089E154674461946B9
:10828800002B40F0C1808542B2FA82F245D94AB14A
:10829800C2F1200300FA02FC954094402EFA03F341
:1082A80043EA0C0C4FEA154EA8B2230CBCFBFEF8AF
:1082B8000EFB18CC08FB00F943EA0C43994528D972
:1082C800EB1808F1FF3704D2994502D9A8F1020743
:1082D8002B44A3EB0903A4B2B3FBFEFC0EFB1C3337
:1082E8000CFB00F044EA0344A04214D92C190CF109
:1082F800FF3304D2A04202D9ACF102032C44241A61
:1083080043EA07401EB1D440002334607360BDE8DF
:10831800F0874746DDE76346F1E792BB431B01213F
:108328004FEA154EAFB2200CB3FBFEFC0EFB1C331C
:108338000CFB07F840EA0343984561D9EB180CF1A8
:10834800FF3004D2984502D9ACF102002B44A3EBCC
:108358000803A4B2B3FBFEFC0EFB1C330CFB07F7AF
:1083680044EA0344A7424DD92C190CF1FF3304D237
:10837800A74202D9ACF102032C44E41B43EA0040B3
:10838800C0E7C2F120039540944020FA03F12EFA89
:1083980003F34FEA154E9040AFB20343B1FBFEFC26
:1083A8000EFB1C10190C0CFB07F841EA004188452C
:1083B80022D969180CF1FF3004D2884502D9ACF1F2
:1083C80002002944A1EB08019BB2B1FBFEFC0EFBA5
:1083D8001C110CFB07F743EA01439F420ED9EB1827
:1083E8000CF1FF3104D29F4202D9ACF102012B44B7
:1083F800DB1B41EA004193E76046E3E76146F7E7A4
:108408006046A4E76346B8E7834206D916B9002157
:1084180008467CE7C6E900E0F9E7B3FA83F78FB9C5
:10842800834201D3724508D8BEEB020460EB030314
:1084380001209C461EB9002169E73846FAE7C6E9DB
:10844800004CF8E7C7F1200CBB400EFA07F522FAFA
:108458000CF42EFA0CF1BA401C4320FA0CF3B84085
:108468004FEA144901431FFA84FEB3FBF9F809FBEC
:1084780018300B0C08FB0EFA43EA00439A4540D922
:10848800E31808F1FF3004D29A4502D9A8F1020096
:108498002344A3EB0A0389B2B3FBF9F809FB1833A9
:1084A80008FB0EFE41EA03418E452CD9611808F1FC
:1084B800FF3304D28E4502D9A8F10203214443EACE
:1084C8000040A1EB0E01A0FB02984145CE46434671
:1084D80002D306D14D4504D20138B9EB020E68EB40
:1084E8000403002EA7D0B5EB0E0261EB030101FADD
:1084F8000CFC22FA07F3F9404CEA0303C6E9003101
:1085080099E74046C5E74346D9E700000000000068
:108518002DE9F04706460F46904688B03EF00CFB22
:108528004FF47A73A0FB034503FB0155E40B012FBD
:1085380044EA45444FEAD53507D122462B46304612
:1085480027492BF047FE002012E0D8F80470254890
:108558003946FFF75FFE70B139462348FFF75AFEE8
:1085680048B130463A4621492BF050FE6FF00400DE
:1085780008B0BDE8F087204617A3D3E900232946B1
:10858800FFF7DEFD05460C4610461946184A00233B
:10859800FFF7D6FD80460F46104619464EF6602274
:1085A8000023FFF7CDFD82468946104619464FF451
:1085B8007A720023FFF7C4FDCDE902A9CDE90623AD
:1085C800CDE904012A4623463046CDE9008709490A
:1085D8002BF000FEB7E700BF005C26050000000096
:1085E8002199040032990400359904003E99040049
:1085F80080EE360056990400032973B505461446E3
:1086080071D8002A40D0072A5CD15A681C681346E2
:108618003948D117C4FB0031012B71F1000225DB69
:1086280000F56E1000F65D70181841F1000130A3D6
:10863800D3E90023FFF784FD80B202281ED0042866
:108648001ED008281ED0102833D103232B492A69AD
:1086580051F82310284611615268232114693022E9
:10866800A4461B0102B0BDE87040604724481818B2
:1086780061F100011EA3D3E90023DBE70023E5E74E
:108688000123E3E70223E1E71A881E4B33F8021BB4
:108698008A420BD12E692021736828469B680DF108
:1086A80007029847002807DA02B070BD01340B2C86
:1086B800ECD16FF01500F7E79DF80720130704D4F5
:1086C800082C05D16FF08500EEE70A2C08BF0924B5
:1086D800736802F00F0242EA041220212846DB6880
:1086E800D2B29847E0E702B0BDE8704009F0E0BBBD
:1086F8003AA395000000000040420F0084C6002005
:10870800632EB5FF7A91040008B50848036803F0A2
:108718000703022B03D90321054A2BF08AFC002109
:108728004FF4803029F084FDF9E700BF08C9002024
:108738006C950400B0B500AF1A4C20463DF0E8FD3A
:1087480003461948BBB90268520711D021686C4624
:1087580088B06A46154DC2E905514FF400719183FE
:10876800134942F8101F4FF4E25101F0DFF9A54612
:108778000120BD46B0BD036803F00703022BF7D9FB
:1087880023686C4688B06A460A49C2E905134FF463
:1087980000739383064B42F8103F00234FF4E651D1
:1087A800E3E700BF3C73040010C90020AA95040049
:1087B80003000001C39504002DE9F04F046885B05B
:1087C800A2686B48B2F5004F2CBF08230423551C40
:1087D8000833A5EBD305B5FA85F5C5F120052B4679
:1087E800894621462BF020F862482BF01DF8002618
:1087F8004FF0010B04F10C0A5AF8043F5BB3002751
:108808001946B8462046039302912AF0E2FF8045B4
:1088180038BF80460299032220462AF0CFFF039BE7
:108828000146834207F10107ECD1A3680BFA06F26F
:10883800B3F5004F34BF04230823013A03F10801BC
:10884800C3EBC803CDE9008302EBD1023B463146B6
:1088580049482AF0E9FF0136B542CDD1B9F1000FF8
:1088680036D046482AF0E0FF0025DFF814810122BF
:10887800294620462AF0A2FF2946074620462AF024
:10888800A8FFFB0706461FD4A368B3F5004F1DD306
:10889800012814BF2D272E270022294620462AF01A
:1088A8008DFFAB19281A0193009033463A462946A2
:1088B80040462AF0B9FFA3689D4209D029462046C0
:1088C8002AF087FF0544D2E72A27E5E72D27E3E7C3
:1088D800002120462AF07DFF0025D4F808800646AE
:1088E800B8F5004F2CBF4FF0080A4FF0040A2F4686
:1088F80046451ED3B8F5004F34BF042208224FF472
:108908007A7102EBC8027B19D31A500801FB0300E5
:108918000A21B0FBF2F0B0FBF1F201FB120039467C
:10892800CDE900202A4617482AF07EFF05B0BDE8A9
:10893800F08F0122314620462AF040FF8146314619
:1089480020462AF046FF19F0010F05D0A5EB0A05CD
:1089580005EBC0050644CBE7B8F5004F04D2C300C9
:10896800A7EB0A071F44F5E70128F8D1F2E700BF93
:10897800E695040013960400CE960400E8960400D9
:10898800F6960400249704002DE9F04F91B0009367
:1089980002F004030293C2F3C203013384070546BD
:1089A8000E46DDF868900392059340F0BB81041DE4
:1089B80030B1072909D86FF01B0011B0BDE8F08F5E
:1089C80001F00706341DC6F10806009B4FF00008A9
:1089D8004FF0040A591E4FF0FF3347460193C34630
:1089E8005346CDF810800DB1009A226005980028F2
:1089F80000F3E8809848009A824203D3974882425D
:108A0800C0F0E080039AA4EB050E92074FEA9E009F
:108A180000F103810F2F00F2B180002D00F00581D5
:108A280007F140020DEB020C019A0CF8200C0CF82F
:108A3800102C049801300490E7E07A285DD84B2880
:108A48000ED8472859D829282DD8252852D054D8A7
:108A580020287AD02338D0F1000B4BEB000B74E0C0
:108A68004C382E2849D8DFE800F070484848484874
:108A78004848484848484B4848484848484848595A
:108A8800484B4B595959704B6D487048184B18480A
:108A980048827F4B48484B487F0000204FF0000B2E
:108AA8004FF0040A38E001222A38C0B202FA00F076
:108AB80010EA0E0F49D110F0625C2FD110EA020BB8
:108AC80043D06046013C5444B4FBFAF40AFB04F476
:108AD800002D61D0A3EB050CA444B4453FF66BAF61
:108AE800002868D1042B47D159F8043B236004239C
:108AF80004342AE0019A013A01924FF0000B24E075
:108B080011F8010C6C2834D1002011F8023C83467E
:108B18006C2BC5D14FF0080A5346D3E709F1070972
:108B280029F00709073424F00704F9E802AB35B146
:108B380006982044B0423FF63EAFC4E900AB4FF080
:108B4800000B08344FF0080A534611F8010F0028AB
:108B580078D0BBF1000F7FF470AF2528F5D14FF026
:108B6800010B019B013301934FF0040AECE75846CF
:108B780094E700208346A5E7082B02D06FF0150084
:108B88001BE709F1070929F00709F9E80223C4E9F5
:108B9800002308230834D8E768B9042B02D109F167
:108BA8000409A4E7082BE9D109F1070929F0070905
:108BB80009F10809EDE7059A013A059259F8042BDD
:108BC800009210E7039A900720D54FF0010CA4EB10
:108BD800050E4FEA9E00BEF5007FCFD20F2FCDD8ED
:108BE800F5B107F140020DEB020E019AC0B20EF882
:108BF800200C0EF8102CBCF1000F3FF41AAF60F0F7
:108C08007F000EF8200C08F101080137C5F10802B1
:108C18004FF6DA7E0434069297E74FF0000CDAE755
:108C2800BCF1000F01D00136EFE7029802360028A8
:108C3800EBD10098CDE90631FFF7FEFADDE9063100
:108C48000644E2E7631BB3F5806F97D245B9A6F1F6
:108C58000804E018B1E600BF6C710400181605009E
:108C6800029A9B0828602B709DF81030C2B1EB70F7
:108C780085F80280B8F1000F05D0002208A8C5F1D8
:108C8800010C97420ED14FF0000AC5F101030DF116
:108C9800200901930DF1300B574512D1601B8CE66A
:108CA8006B70E5E710F8013B190608D504EB0C0ECC
:108CB800B64503F07F033FF67EAE04F8013B013270
:108CC800DFE7B8F1000F03D099F90020002A17DB7D
:108CD800029BD3B11AF80B2004F8012B0022019B48
:108CE80098182044B0423FF666AE99F80000009903
:108CF80004F8010B204603923EF0FEF8039A144450
:108D08000AF1010A09F10109C6E799F8002055F8A6
:108D180022300093029B009845F82230FFF78CFA26
:108D2800421CDCE76FF00D0047E600BF2DE9F04F6D
:108D380097B000AFD7F880B03B62CBF3C0030446CE
:108D4800894690F802A0FA62BB6141B9457800787B
:108D58000AEB800020444D4517D8A0EB0409E378BE
:108D6800FB61BAF1000F02D01BF0010F16D1FB69AD
:108D780053BBFB6A1BB1494620463A6A98474D46A1
:108D880028465C37BD46BDE8F08F461C3046FFF7E5
:108D980053FA0130304409F10109DCE762682378AD
:108DA8007A62FA6A9900796104EB8301002A40F03B
:108DB80005810E464FF000084D4601EB0A094E4565
:108DC80050D101EB0A0610E01BF0020FD1D0237836
:108DD8009A007A61626804EB83017A62FA6A002A6F
:108DE8007BD14D46904601EB0A061BF0050F0CBFE0
:108DF80002230123FB62FB6906EB430A0BF0020323
:108E0800BB625645BCD016F8021B16F8013C54F854
:108E180023909B4B994502D39A4B99453AD3BB690A
:108E2800002B44D0786A2AF0DAFC00283FD0964814
:108E3800036813F0060F13D0E9468AB06A46934BCD
:108E480053617B6AC2E906314FF400731384904B77
:108E580042F8103F00234FF4125100F067FECD4650
:108E6800023DCEE716F8013BF96254F82300FFF7FC
:108E7800E3F9D7F88430F96A01304BB1D7F8883074
:108E880098453EBFD7F8843023F8180008F1010848
:108E9800054494E7BB6923B1786A2AF0A0FC00284E
:108EA800C5D11BF0010F05D1FB6AED1AA9E7BB6A12
:108EB800002BA6D04846FFF7BFF9D7F8843053B146
:108EC800D7F8883098453FBFD7F88420431C22F84C
:108ED800183008F10108054493E7BAF1000F73D080
:108EE8001BF0040673D0D046002607F1480052460E
:108EF8003B61B9623EF000F8B96A3B6901EB0A02CE
:108F0800BA62FA69F9695200FA60BA6A02EB410278
:108F18003A610BF00202BA603A69B96A8A4258D1DA
:108F280062781BF0020F18BF00217A6208BF4FEA6F
:108F38005801B2181BF0010FD2B240F09F801BF00D
:108F4800040F14BF40460020BB616270A070E1703E
:108F580020463A6A7969FB6A9847051EFFF610AF02
:108F6800BB69414623707B6A3A6A6370FB6984F87F
:108F780002A0E37007F14800FB6A9847B0F10008C7
:108F8800C0F2B4807B69A9EB0A01C91AFB683A6A86
:108F9800C91AD7E90A0398470028C0F2A9804FF0F8
:108FA800000BA84408EB000507F1380AB34571D354
:108FB80000213A6A0846FB6A9847E1E656464FF0B0
:108FC800000807F1380092E75646D04696E7B046C3
:108FD80094E7BA6A12F8021B12F8015CBA6254F8F4
:108FE8002500274A904202D3264A90421ED3BA69E6
:108FF80032B1786A7B602AF0F2FB7B6800288BD15B
:10900800BA6802BB08F1280207F1300C08F1010028
:10901800944407F1580208F1020852FA80F00CF85B
:10902800101C5FFA88F800F8105C75E7BA693AB165
:10903800786A7B602AF0D3FB7B6800287FF46CAFEA
:109048001BF0010F09D006F1280207F13000711C4E
:10905800161806F8205CCEB25EE71BF0040F3FF44A
:109068005BAF08F1280207F1300008F1010102EBBB
:10907800000808F8105C5FFA81F84DE7002063E704
:109088006C710400181605001CC900206C970400B8
:10909800040000011BF80A3054F8239087F8373091
:1090A800D7F88430FBB133F81B8001213A6AFB6A98
:1090B80007F13700984700281ADB0544B8F1000F7C
:1090C80006D14846FFF7B8F800F101081FFA88F8FA
:1090D800414648463A6AFB6A9847002808DB054437
:1090E8000BF1010B62E7D7F88480DEE7454647E6D7
:1090F800054645E680B505460E461746984629F0CA
:10910800B5F803463EF024F80446DFF818904246C6
:1091180049F8003039463046A84754F8090002F0AB
:109128002DFA00BF080000003023434330B50D4935
:1091380008330B44D3E8AF2F92B1541ED3E8EF5F46
:10914800954204D1C3E8EC4FBCF1000FF6D1F1D140
:10915800012A05D13023584300230A180B505360C5
:1091680030BD00BFE816012070B500254FF0FF3371
:109178004FF0FF3217482AF073FB174BD3E8AF2F95
:1091880082B10135042D03F13003F7D13DF0E0FF42
:1091980017224FF0FF35114B1A500E482AF062FB88
:1091A800284670BD30246C43D3E8EF0F0130C3E884
:1091B800E10F0029F8D10A4E331932515A6004F1EF
:1091C8000C0030443DF096F904F1200030443DF0A5
:1091D8002CFBE2E744CA0020F01601200C00000036
:1091E800E816012030B40446302510466C43084A7E
:1091F800151911516860EB6240B1C36833B10C3482
:10920800131940F2051230BC2AF01BBB30BC704762
:10921800E81601202DE9F047058B044628079046FB
:1092280011D4022905F0070540F0CC8020462AF029
:109238007DFD78B10138218B042811D8DFE800F0D2
:10924800C2106D85950001290CBF45F0100545F049
:109258002005258388F31188BFF36F8FBDE8F08759
:1092680001F0070AAA4500F0A5800027B9463E4646
:10927800A368002B00F0BC8041F00801218388F32B
:109288001188BFF36F8FA168002900F0BA800D68BC
:10929800002900F0B680334652462046D1F80480B3
:1092A800C047002D76D02B6829461D46F0E701F00F
:1092B80007035A1F012A1BD8002221F00701062B99
:1092C800276889B2C4E9002209D13B4603E0628BD2
:1092D800013262831B68002BF9D141F0020120465C
:1092E80021832AF023FD00287AD041F0200176E07E
:1092F800042B0AD121F0070189B2204621832AF0E4
:1093080015FD10B141F020012183218B01F0070ADE
:10931800AA454FD00027B946AAE7236921F00701DB
:1093280041F00601062DD3F8009021832DD1B9F123
:10933800000F3FD041F00801218388F31188BFF363
:109348006F8F20463949C84729E021F00701236972
:1093580041F0040189B2042DD3F804902183E6D0AA
:1093680000274FF0040A3E4682E721F007012369EF
:1093780041F0050189B2052DD3F808902183D6D094
:1093880000274FF0050A3E4672E700274FF0060A0D
:109398003E466DE72B4687E7B9F1000FD1D1EFF3D1
:1093A8001188202383F31288BFF36F8F238B23F058
:1093B80008032383258BEA062ED525F01003238383
:1093C80005F007056669218B002EBFF670AF0023F4
:1093D8002768C4E9003321F0070141F00101218326
:1093E800218B4FF0000901F0070AAA457FF440AF2E
:1093F800002F9CD041F00801218388F31188BFF326
:109408006F8F002FC8D03D683946334652462046F4
:109418002AF0B8FC2F46F4E7AB067FF51BAF25F022
:109428002003238305F0070500E700BFB93D0300CB
:109438002DE9F047044607464FF00109DFF8508050
:1094480014B93846BDE8F08794FAA4F5B5FA85F55D
:1094580009FA05F32E0108EB05156FEA030A24EA59
:1094680003042B7B002BEBD058F806301B694BB953
:109478004644736804222846196807EA0A0700F078
:1094880015FBDDE7284698470028D9D1F0E700BF4B
:109498008476040030B5002289B00F490F483DF0AA
:1094A80092FB002200230024CDE906230E230C4D55
:1094B800CDE903344FF440722846CDE90144094B05
:1094C8000949009428F0F8FB0849284628F032FB9F
:1094D800204609B030BD00BFF994000030D100200B
:1094E80070CC002015980000F0A2012020980400FC
:1094F800014828F0E5B800BF28CB00202DE9F04747
:1095080080461F480F462AF00CFD0646002830D03A
:1095180000252846BDE8F087237B6BB12368DB680C
:109528000BB12046984723681B69D3B963680422A6
:109538002046196800F0BAFA013610344C45EBD3CE
:10954800B8F1000FE5D0002DE2D02846FFF770FFF4
:109558000546002FF7D000214FF4A47028F068FECC
:10956800F1E7204698470028E0D00AFA06F31D43A1
:10957800E2E705464FF0010A024CDFF80C90DDE700
:10958800B8170120847604008476040008B50346E1
:1095980008462BB1044A136000F0B4FB002008BD54
:1095A8006FF01500FBE700BF30C6002010B5044C73
:1095B800237813B9034828F083F80123237010BDDA
:1095C80012A1012028CB002010B5044609482AF032
:1095D800A8FC3CB1084BD3E8EF1F0139C3E8E21FF0
:1095E800002AF8D105483DF0FAFABDE810400448D1
:1095F80028F066B8B0170120B417012030D1002038
:1096080028CB002000200146034BD3E8EF0FC3E826
:10961800E21F002AF9D17047B017012070B5FFF793
:10962800F1FF0546074C084EB44200D370BD63688D
:109638005B792BB123685B6813B1294620469847AC
:109648001034F1E7847604008476040010B5044CE5
:10965800044920462AF006FA034B1C6010BD00BFDF
:10966800C4C80020E8770400A817012008B5002323
:10967800084A4FF400411370074A08481360084A23
:109688001360FFF783FFFFF7E1FFBDE8084000F034
:109698005DB900BF13A10120B0170120273F0300C7
:1096A800B417012001460022002301482AF0FBB923
:1096B800C4C8002001482AF091BA00BFC4C80020DD
:1096C800024B014618682AF0DDBA00BFA81701202E
:1096D80001482AF012BB00BFC4C800202DE9F041A0
:1096E800334B1878002860D0FFF7E4FF044678B1C0
:1096F800304BD3E8EF1F0139C3E8E21F002AF8D145
:109708002D4DDFF8B88045452DD32046FFF7D8FF0B
:109718002B4B2C4C1B68002B19DD3DF00DFA4FF438
:109728007A72A0FB020302FB0131C30B43EA4143F7
:10973800D4E900209B1A40F2E9324FEAD13161EBBB
:109748000001934271F1000101D3FFF767FFD4E9EB
:10975800003213F57A7342F10002C4E90032BDE821
:10976800F041FFF7B5BF6B685B793BB121784B07D8
:1097780006D52B68214628461B6898471035C2E74E
:1097880020462688C1F3C20700F0B0FAC6F3821655
:109798000246002EEDD00028EBDB0123394628468F
:1097A80000F09EF9B042E9D3E3E7BDE8F08100BFDD
:1097B80012A10120B41701208476040084760400E5
:1097C800B017012028D1002070B50D4D297861B956
:1097D8000120FFF793FE0B4C0B4EB44206D3FFF764
:1097E8007DFF0028FBD101232B7070BD63685B7976
:1097F8001BB1236820469B6898471034EDE700BFEB
:1098080013A10120847604008476040000212DE948
:10981800F0470846FFF772FE044658B340F26768FF
:109828004FF000093DF094FC1B4B1C4A1B58136079
:1098380033B11B4B1B68092B02DD1A4827F040FF88
:109848000025194FDFF85CA044B12046FFF7F0FD72
:10985800044618B94FF0FF384FF0FF39FFF73EFFC5
:10986800064628B9B5B942464B46504627F04EFF42
:109878003546E9E74FF0FF384FF0FF39D2E72B685C
:109888009B691BB100222846114698471035BD42F6
:10989800F5D3E8E7054DFAE708000000AC1701200A
:1098A800B417012028CB00208476040084760400B5
:1098B80013B518482AF035FB174B1B7873B1EFF333
:1098C8001184202383F31288BFF36F8FFFF706FFFD
:1098D80084F31188BFF36F8F02B010BD0F4B1B6864
:1098E800002BF9D050B9002200230D48CDE9002300
:1098F8004FF40042002328F07DFFEDE70928EBD163
:1099080007483DF06CF9074802B0BDE8104027F061
:10991800D7BE00BFB417012013A10120AC17012046
:1099280030D1002028CB002010B5064B04461B6818
:1099380098472146A06004482AF031F9BDE8104054
:10994800FFF7B6BF30C60020C4C8002000210B486E
:109958000B4B30B51B1A0B4CDB080430994200D175
:1099680030BD10F83120256802F0070225F0070500
:109978002A4344F8042B0131F0E700BF8C7504003A
:109988008476040008C90020F8B5064600240A4F6A
:109998000A4DED1BED08AC4203D14FF0FF342046D1
:1099A800F8BD57F8340020B13146FEF733FC0028E3
:1099B800F5D00134EFE700BF8C750400847604000D
:1099C80000282DE9F047884615461F461DDA4FF056
:1099D800000A5446DFF89090244EA6EB0906360993
:1099E800B24509F1100902D12046BDE8F08759F8BF
:1099F8000C0C3B462A4641460079FFF7E1FF8442BA
:109A080038BF04460AF1010AEAE7194B194AD21A83
:109A1800B5EBD20F26D203EBC5031C79BC4228BF95
:109A28003C460722144EC0B200EB400056F82530E1
:109A3800824023EA020304F0070282401343002114
:109A4800032223FA02F000F00700814202F1030228
:109A580038BF01461E2AF4D123F007030B4346F80A
:109A68002530C1E70024DCE784760400847604000E
:109A78008C7504008476040008C90020F8B50646F1
:109A88000F460024074D084BED1AED08AC4200D3F1
:109A9800F8BD002122B23B46304601342AF05BFA79
:109AA800A4B2F3E7847604008C75040038B50D463B
:109AB80011460A4B4268C31A1B110446013313713D
:109AC80043689971FFF7DAFF012263681D606368D4
:109AD8005A71BDE83840FFF769BD00BF84760400BD
:109AE80070B14168097973B1002A17DBCBB20C4910
:109AF80003EB430351F82200D84000F007007047F9
:109B08004FF0FF31EFE707490748401AB2EBD00F93
:109B18003ABF01EBC2010879184670470420704724
:109B280008C900208C750400847604002DE9F04FE4
:109B38008FB0C1F34A2804AF0D469146B8607B60E8
:109B48000C0DB8F1000F67D000264FF0040B4FF052
:109B58000A0A07F11403C7F80C80C7E907667E6292
:109B68000193CDF808B0CDF800A007F11C033246E8
:109B78004846F968FFF7DAF8B0F5006F034620D3D6
:109B88002A48036813F0060F17D06C468AB0D9F834
:109B9800041004AB264D1A46C3E9055140F2FF7183
:109BA800D9614FF400711984224B42F8103F4FF4E9
:109BB80012513346FFF7BAFFA5462C37BD46BDE81C
:109BC800F08FC0F30A0804F11700184420F00700CA
:109BD80080083B60FFF766FD68F35325044690B1A3
:109BE8003B6800F11001C7E9083607F11403F96171
:109BF800CDE900A3CDF808B048460F4AF96807F147
:109C08001C03FFF793F868F353252A4620467B6820
:109C1800B9682AF0BEF9D0E704F1170020F0070070
:109C28008008FFF73FFD0446EDE700BF4CC9002060
:109C380035980400040000016F3F03002DE9F04F40
:109C480087B00446DDE9105ADDE912799346984653
:109C58000391DFB13B46524610210020CDF8009019
:109C6800CDF81490FEF790FEB0F5006F06460ED3BF
:109C78001C48036813F0060F30D040F2FF7302212E
:109C8800194A07B0BDE8F04F2AF0DCB93E4605F1A5
:109C98001700304420F007008008FFF703FD04F0A8
:109CA80007040BF0070BE40044EA8B1444EA46244B
:109CB80044EA0554054640B13FB13B465246314659
:109CC800CDF800901030FEF75FFE43462246284646
:109CD800039907B0BDE8F04F2AF05BB907B0BDE8BB
:109CE800F08F00BF4CC9002074980400406820B170
:109CF800034BC01A40F38F0070474FF0FF30704796
:109D080008C9002000210123064A904206D8064AC5
:109D180001B901231360054B186070470121400801
:109D28005B00F2E740420F00BC170120C01701207A
:109D3800014B036000207047FC77040070B5114B9D
:109D48000D461C68DCB1104B196800238B4202DBFE
:109D58006FF0010070BD224612F8106B864202D0E7
:109D680014460133F2E7E06810B96FF01200F1E72A
:109D78003CF0CEFA0028F8D000202C60EAE76FF01B
:109D88000C00E7E734C60020A87B040010B50446A1
:109D98002EF0F9FA0349024620462AF01BFA002061
:109DA80010BD00BFCC9804001346002273B50446CA
:109DB80001920A21586801AA00F0C0FC019D95B9DA
:109DC80020EAE0744FF40046294640F2E7304FF4A9
:109DD8007A720023C4FB0601FEF702FA28F028FA7B
:109DE800284602B070BD2A46204602492AF00EFADB
:109DF800019DF5E7F898040008B5034A03492AF0DD
:109E0800E9F9002008BD00BFE8990400EF990400B3
:109E18002DE9F3411746002304460A21B86801AA30
:109E2800019300F08BFC019DC6B24DB12A46204635
:109E380013492AF0EBF9019D284602B0BDE8F081EC
:109E4800042E09D9324620460E492AF0DFF9204669
:109E58002AF018FA0125EFE77868FFF795FDB0F1C9
:109E6800000804DA20467A6807492AF0CFF9002169
:109E7800334608460FFA88F22AF06DF8DCE700BF8F
:109E88001A9A0400419A0400589A040010B504462E
:109E980008F0BAFE0749024620462AF09BF92046F8
:109EA80005492AF097F92146044828F09BFA002032
:109EB80010BD00BFB79A0400D69A0400C99E0000DE
:109EC80070B58EB004460D46D0F89C603CF0B7FCE7
:109ED80003463DF03DF9214A21491058214A002BFB
:109EE80018BF1A460092204A2346844218BF0A46E1
:109EF80028461E492AF06EF9D4E90A23CDE9002341
:109F0800284694F90E30227B19492AF063F906A9EC
:109F18002022204627F01EFE636E02461549284679
:109F28002AF058F9204605A93CF099FC024628B1C8
:109F3800284611492AF04EF90EB070BD6422059BDF
:109F48002846F11A4A43B2FBF6F20091CDE90162C4
:109F58000A4932462AF03EF9EEE700BF0800000041
:109F68001CA10400E09A0400DCAB0400E39A04009E
:109F7800EF9A04001B9B0400329B04005F9B0400C3
:109F8800F0B50025044691B0294608AF1C2209A85F
:109F98003CF0D9FF134E1A22202138463CF0D3FF5B
:109FA8002146114828F01EFA07AA4FF400613046EE
:109FB8003CF049FC6423079A2046C2F500614B43F4
:109FC800DB0A05934FF400630097CDE90313CDE94D
:109FD800013206492B4632462AF0FCF8284611B0D1
:109FE800F0BD00BF70B00120F99F0000AB9B0400DA
:109FF80070B504460D46D0F89C6088B007A93CF0BF
:10A008002EFC024628B128460E492AF0E3F808B08B
:10A0180070BD20463CF013FC6422079B0096F11AA1
:10A028004A43B2FBF6F2CDE90131074BCDE90362B1
:10A03800002818BF03462246284604492AF0CAF8D1
:10A04800E5E700BF329B0400E09A0400F49B04009B
:10A058002DE9F04387B00546684626F071FF1423C2
:10A06800009E082103FB0066164A28462AF0A5F838
:10A07800154F009CDFF85480DFF85490B44203D3A6
:10A08800002007B0BDE8F08323680BB11A7832B915
:10A0980023463A46142101A828F08CFC01AB42461D
:10A0A800082128462AF089F820463CF031F9094B66
:10A0B8000821002808BF4B46074A28462AF07DF8A1
:10A0C8001434DBE7679C0400719C0400769C040050
:10A0D8005E9C0400589C0400A4A104002DE9F041F2
:10A0E80014468846074610220021606828F004FDBF
:10A0F800B8F1020F064607D8202308213846244A1B
:10A108002AF05BF8336816E00A220021A06828F0DC
:10A11800F3FCC5B22B46082138461D4A2AF04DF8F3
:10A12800B8F1030F1AD1102D0CD0202DEAD0082D2C
:10A138000BD13378DBB208213846164A2AF03DF8AD
:10A14800002009E033889BB2F5E738460821124A17
:10A158002AF033F86FF01500BDE8F08110220021D5
:10A16800E06828F0C9FC0821034604460B4A384633
:10A178002AF023F8102D06D0202D07D0082DE4D181
:10A18800E4B23470DCE7A4B23480D9E73460D7E7AE
:10A19800AA9C0400D59C0400BF9C0400E69C040013
:10A1A8002DE9F04F91464FF0FF350122584B85B00D
:10A1B800074688461A60202601F0B8FD2C46DFF8CD
:10A1C80054A149465246404601F0D4FD411C06D1EF
:10A1D8006A1C50D1504938462AF018F81CE07328F8
:10A1E8001FD0772832D0612816D1DFF830B110227D
:10A1F8000021DBF8000028F07FFC05460028E0D1AC
:10A208003CF0A6FF464B1B58162BDAD1DBF8002092
:10A218004449384629F0FAFF6FF0150005B0BDE84B
:10A22800F08F0022DFF8F4B01146DBF8000028F0C8
:10A2380063FC04460028C4D13CF08AFF384B1B5805
:10A24800162BBED1DBF800203749E2E70022DFF801
:10A25800CCB01146DBF8000028F04EFC064600287A
:10A26800AFD13CF075FF2E4B1B58162BA9D1DBF84C
:10A2780000202E49CDE7631C01D12D49ABE75FFAD9
:10A2880086F8C6F3C406002C3FD06B4629461A460A
:10A29800A6EB050C0CE0B8F1100F1DD0B8F1200F9B
:10A2A80020D0B8F1080F2AD1087818703144334407
:10A2B800A64203D80CEB01001028ECD9102CA146BB
:10A2C80028BF4FF0100929464B46384600F082F95E
:10A2D8001035A4EB0904D6E7088880B21870000A84
:10A2E8005870E3E708684FEA102E187083F801E009
:10A2F8004FEA104E000E83F802E0D870D6E7082126
:10A3080038460C4A29F059FF86E7204686E700BF01
:10A3180064C60020349D04003B9D040010180120F1
:10A328000C000000FA9C04000D9D0400209D040010
:10A33800589D0400BF9C040070B50F4E04460D469E
:10A34800337871B123B10D49BDE8704029F05EBF83
:10A358000123337020460A4929F03CFF012333705A
:10A3680004E083F001033370002BF3D12946204623
:10A37800BDE8704029F0A3BF14A10120729D04001C
:10A38800AD9D040070B504463B480378182B02D1F4
:10A398000B78112B31D00B46013A8D18AB4225D1E1
:10A3A8008B5C0A780370A2F13003092B334C04D973
:10A3B80022F02003413B052B04D823683049CA54B6
:10A3C800013323602368022B33D1102200212C484B
:10A3D80028F092FB2B4A136803F8010B13602A4AF2
:10A3E8001368013313600023236022E013F8016B24
:10A3F800182ED3D11E78112ED0D1234D20462A688D
:10A40800224929F0E7FE20460021FFF795FF204B5F
:10A41800187870B91F4A2B681168042B0ADC08B138
:10A4280011602B6013F003010BD1126813681BBA7B
:10A43800136070BD0868043B00BA41F8040B0120A2
:10A44800EBE75B4203F0030358BF5942022904D1EA
:10A45800126813885BBA9BB2EAE70329E9D110684E
:10A4680002681104C2F3074301F47F010B4302F4AD
:10A478007F4213430360DCE715A10120C4170120C4
:10A4880017A10120D0170120C8170120D79D04006B
:10A4980016A10120CC1701202DE9F84F002306460C
:10A4A80015460C462949DFF8A8800B602949DFF8D2
:10A4B800A890DFF8A8B088F800300B60012C2F4670
:10A4C80055F804AF1ED90222494650463CF08EFD8D
:10A4D80080B99AF80220003A18BF012292445046E7
:10A4E80002221F493CF082FD30B9012388F8003070
:10A4F800013CE3E70022F1E749465046FDF78AFEB2
:10A50800A8B9043700227868114628F07FFA00229B
:10A51800144B11461860786828F078FA124B1349E2
:10A5280018603046FFF708FF0020BDE8F88F9AF85A
:10A5380000202D2AE6D19AF80120002AE2D05246BE
:10A548005946304629F046FED2E700BFC41701201D
:10A5580016A10120C8170120F19D0400F79D0400F1
:10A56800F49D0400D0170120CC1701208DA3000012
:10A5780010B504468168183100F03AFAA1682046FF
:10A58800BDE81040014A183100F0D8B95E9F0400B8
:10A5980010B504460A4929F01DFE2046094929F04C
:10A5A80019FE2046084929F015FE2046074929F0DA
:10A5B80011FE20460021064A00F0C0F9002010BD17
:10A5C8006C9F0400AA9F040009A004005DA0040079
:10A5D800F7A00400F8B51E4617460A46294904465E
:10A5E80029F0F8FD3EB320463A78274929F0F2FDD4
:10A5F80001256A0703D12046244929F0EBFDAE4224
:10A608001ED920467A5D204929F0E4FD0135102D38
:10A61800EFD120461E4929F0DDFDB6B920461B4979
:10A6280029F0D8FD0125AE422B4610D820461749FF
:10A6380029F0D0FD15E02046164929F0CBFD01256B
:10A648002046144929F0C6FDE0E700252B46FA5CB0
:10A658002046A2F120035F2B28BF2E220E4929F0A5
:10A66800B9FD0135102D06D06B07DCD1204607490E
:10A6780029F0B0FDD7E72046BDE8F840074929F0A2
:10A68800A9BD00BF0DA1040014A104001CA1040071
:10A698001EA104001AA1040045A1040020A1040081
:10A6A80010B5044613460A460146064801F0D8FA92
:10A6B80023691B7923B12046BDE8104029F005BE67
:10A6C80010BD00BFEB42030038B50B46154648B92C
:10A6D8001449154A521AB3EB920F05D251F8235078
:10A6E800284638BD84680CB90025F9E70F4A94421A
:10A6F8000AD30F4A944207D218462946226890473F
:10A708002B68002BECD1EFE70A4A944202D30A4A9D
:10A71800944205D3246814225343E518E358F0E71C
:10A728000133F8E784760400B07604008C770400DF
:10A738008C770400B07604008C7704000023F7B50A
:10A748001646027804462D2A019305D16FF01503A9
:10A758000020336003B0F0BD3CF0FAFC05460B4F17
:10A768000A46C35101A9204628F0C6F9EB59222B05
:10A7780002D16FF02103EBE7002BE7D1019BA34245
:10A78800E4D01B78002BE5D0E0E700BF0C00000008
:10A798008368D3F874329B0603D50249406929F0CF
:10A7A800D4BD7047A0770400014929F0CEBD00BF91
:10A7B800949B04000A1E0DDC0ED042238168D1F858
:10A7C8007412890608D5002A04494069B8BF524264
:10A7D80029F0BBBD4123F1E7704700BF41A1040048
:10A7E8000A1E0DDC0ED044238168D1F87412890644
:10A7F80008D5002A04494069B8BF524229F0A5BDCE
:10A808004323F1E7704700BF41A104002DE9F04759
:10A818008568044605F15600FDF70EFD00239846AD
:10A8280095F83C70DFF8549086B2A268558FED1BFE
:10A83800B54209DB002E1FDD5633606910491A4402
:10A84800BDE8F04729F081BD1D442A4492F856A07E
:10A8580082F85680A26856331A444946606929F03E
:10A8680074FDA3682B4483F856A0A3685B8FDB1B99
:10A87800F61A00272B46D8E7BDE8F087739A04003C
:10A88800789C040008290A4617D8836893F83E1074
:10A89800914212D083F83E208368082AD3F8743294
:10A8A80005D0990609D50549406929F04EBD9B0692
:10A8B80003D50349406929F048BD704748A1040001
:10A8C800A577040038B50D4609780446FFF7DAFF86
:10A8D8006A78072A11D8A36893F83F1091420CD0E0
:10A8E80083F83F20A368D3F874329B0605D56069C6
:10A8F8000249BDE8384029F028BD38BD51A10400FF
:10A9080010B5044683680221084A29F0E3FDA368CC
:10A91800D3F874329B0707D52046FFF777FF204608
:10A92800BDE8104029F030BD10BD00BF789C040080
:10A93800014929F0DCBD00BF949B04002DE9F04FCC
:10A948000E460021044617460D4689B0304603AA34
:10A9580001F10108FFF7B8FEB0B995B127B13A4641
:10A968000821204629F0B6FD00211E4FDFF8789017
:10A97800DFF878A0304603AA01F10108FFF7A4FE2A
:10A9880060B909B0BDE8F08F006810B1FDF754FC5C
:10A9980080B2854238BF05464146D7E703688BB188
:10A9A8001A787AB1D0F804B04A46CDE900530821A4
:10A9B8003B46204629F08EFDBBF1000F04D16069AB
:10A9C800FFF7B6FF4146D5E7524620463B460821E9
:10A9D80029F080FDAA1D5946204692B229F094FD1F
:10A9E800F0E700BF6FA104005AA1040061A10400B0
:10A9F800F7B50F6805460E46A7B13846FDF71CFCAB
:10AA080084B2094B2846009308213B46074A29F09F
:10AA180061FD2846E21C716892B203B0BDE8F040BF
:10AA280029F072BD3C46ECE76BA1040066A1040066
:10AA380010B583680446D3F874329B0603D50649DB
:10AA4800406929F0D8FD5022A36800205A871822AF
:10AA5800A3681A8710BD00BFB277040008B58369E0
:10AA680002491A6829F0B6FB002008BD72A104004B
:10AA78002DE9F3410D49054629F0ACFB00220C4CA9
:10AA88000C4EDFF83480B44202F1010703D30020F2
:10AA980002B0BDE8F081636A92B20093A3684146B0
:10AAA800284629F097FB30343A46ECE782A10400A7
:10AAB80084760400847604009AA1040008B502494B
:10AAC80029F0B2FB002008BD959B040073B504462D
:10AAD80000250D4EA2680DF106030121E06802F57C
:10AAE800AB7229F003FEBDF80600A36840B12A4600
:10AAF8003146204603F5AB7329F06CFB0135E9E7D5
:10AB080083F8560102B070BDABA1040010B504462D
:10AB180029F0CDFB03490246204629F05BFB0020C3
:10AB280010BD00BFED9D0400022907B50BD1536885
:10AB38000C49009312680C4B29F068FB6FF0150064
:10AB480003B05DF804FB8368084AD3F874320849F7
:10AB580013F0020F074B18BF1A4629F03BFB0020E1
:10AB6800EEE700BFCEA10400B9A10400B5A104001E
:10AB7800D7A10400079A040010B583680446D3F8E7
:10AB880074329A0603D50749406929F034FDA36851
:10AB9800D3F874329B0603D50349606929F02BFD6D
:10ABA800002010BDB9770400BE770400F0B5012974
:10ABB800044685B00AD053685E49009312685E4B1C
:10ABC80029F024FB6FF0150005B0F0BD8368D3F8B9
:10ABD8007432990603D55949406929F00CFD0025BE
:10ABE8006FF0F9012046FFF7E5FDFA212046FFF74F
:10ABF800F7FDA0684FF48072294600F5AB708DF818
:10AC08000B503CF0A0F94E49606929F0F4FC6069EA
:10AC180029F05BFB4FF47A766068012203680DF136
:10AC28000B011F6903ABB847039BEBB9013E4FF417
:10AC38007A70B6B23BF067FB002EEDD1A368D3F86B
:10AC480074329B0603D53F49606929F0D4FC502231
:10AC5800A36820465A871822A3683B491A8729F017
:10AC6800C7FA6FF00700AFE79DF80B20A3681B2A0F
:10AC780053D093F856111B29CED1522A4DD15A19C7
:10AC8800002382F85631A66896F857215B2A2BD103
:10AC9800022506F2571010F8011F2A463B2905F134
:10ACA8000105ADB223D1FF2AC8D002F5AB7216FA5E
:10ACB80082F1002211F8010F18BBFA2A28BFFA22E4
:10ACC800FA2B28BFFA2386F85601A1684A87A2689A
:10ACD8001387A368D3F874329A0603D519496069B3
:10ACE80029F089FC00206FE786F85631A6E703EBC8
:10ACF8008303303901EB4301B5F5807F8BB2CAD1AC
:10AD08009CE7013502EB8202ADB2303800EB42001D
:10AD1800B5F5807F82B2CDD190E72B440135ADB235
:10AD2800092D83F856217FF677AF0022A36883F8B0
:10AD3800562183E7CEA10400B9A10400C47704001A
:10AD480022A20400C8770400E8A1040070B5456891
:10AD5800066928683BF0DCFA60B91F4803685907A0
:10AD680003D16FF01204204670BD01211B4A29F05F
:10AD780060F9F6E76868A8B12C1D3BF0C9FA00280D
:10AD8800EFD020464FF4003129F0EFFC041E09DA19
:10AD9800114803685A07E6D02346114A012129F0D1
:10ADA80051F9E0E7E86890B10C353BF0B1FA0028BA
:10ADB800D7D04FF4B011284629F0D7FC041E06DA84
:10ADC800054803685B07CED0064A2346E6E73046C7
:10ADD8003BF090FB0024C6E758C90020F0A6040009
:10ADE80008A7040033A7040008B5044828F01CFD90
:10ADF800BDE80840024828F017BD00BF6DA7040051
:10AE0800A2A704002DE9F84305460C4600AF002927
:10AE180048D0DFF8B890D9F800305A0742D0D1E9C5
:10AE280000016E468AB06A46A3684FF00508DFF84D
:10AE3800A0C0C2E90713C2E905C042F8108F002379
:10AE48004FF421514846FEF771FED9F80030B54657
:10AE58005B0727D0D4E903018AB06A466369DFF843
:10AE680074C0C2E90713C2E905C042F8108F002375
:10AE780048464FF42151FEF759FED9F80030B5463F
:10AE880058070FD0E36901214846134A29F0DAF838
:10AE9800D9F80030590705D0A369012148460F4A5F
:10AEA80029F0D0F8012D0AD1EFF30583074802688D
:10AEB800520704D00A4A2946103B29F0C3F8214614
:10AEC800284626F05DF8BD46BDE8F88370C9002025
:10AED800D0A70400FFA704002EA804003DA8040082
:10AEE8006BA8040030BFFFF7FDBF00BF2DE9F0419C
:10AEF80005460B4EDFF82C80324606EB0807CC1BC4
:10AF0800204609493BF0F8FFA01942460021083CB9
:10AF18003CF019F8C5F8A84007F10800BDE8F08131
:10AF280000000000080000008C770400074A9368BE
:10AF380093F90E10002907DB526993421FBF044A98
:10AF4800536843F080535360704700BF9CA00120B2
:10AF580000ED00E0F8B5364C064623680D465B0761
:10AF680003D02046334929F024FD334B9B6ADF0682
:10AF78005CD52368580703D030492D4829F019FDBE
:10AF880011202D4B9B6A190707D523685A0703D050
:10AF98002B49274829F00DFD1220274FBB6A9B0734
:10AFA80019D52368580703D02649214829F001FDFF
:10AFB8007B6BBA6A11060DD52268520704D00121AD
:10AFC800214A1B4829F03EF826B11B4A936A23F010
:10AFD800800393621320184B9B6ADB0707D523680D
:10AFE8005F0703D01949124829F0E3FC1420124BDB
:10AFF8009B6A9E0607D52368580703D014490C4856
:10B0080029F0D7FC15200C4B9A6AD10658BF9A6ACA
:10B018009A6A920642BF5A6A22F400525A629A6A9F
:10B0280042F0FF029A6200232B70F8BD1020A8E7B7
:10B0380070C900207EA8040000ED00E094A8040078
:10B04800C7A80400DAA80400F2A8040008A90400AC
:10B0580027A9040010B5334C2368580703D02046AD
:10B06800314929F0A6FC314B9B6A990157D52368D1
:10B078005A0703D02E492B4829F09BFC1E202B4B46
:10B088009B6ADB0107D52368580703D0294925485F
:10B0980029F08FFC1F20254B9B6AD90207D523680E
:10B0A8005A0703D024491F4829F083FC02201F4B6C
:10B0B8009B6A1B0307D52368580703D01F49194803
:10B0C80029F077FC2120194B9B6A590307D523687F
:10B0D8005A0703D01A49134829F06BFC2220134B56
:10B0E8009B6A9B0307D52368590703D015490D4868
:10B0F80029F05FFC23200D4B9B6ADA0307D52368F0
:10B108005B0703D01049074829F053FC2420074A5D
:10B11800936A6FEA03436FEA1343936210BD1D20DD
:10B12800ADE700BF70C9002056A9040000ED00E09B
:10B138006EA9040081A904009BA90400C5A9040004
:10B14800E3A9040008AA040022AA0400F8B5374CB1
:10B15800064623680D465B0703D02046344929F08C
:10B1680028FC344B9B6ADF0451D52368580703D069
:10B1780031492E4829F01DFC17202E4B9B6A1905D2
:10B1880007D523685A0703D02C49284829F011FC11
:10B198001820284FBB6A9B0519D52368580703D088
:10B1A8002749224829F005FCBB6BBA6A11040DD562
:10B1B8002268520704D00121224A1C4828F042FF85
:10B1C80026B11C4A936A23F4004393621920194B51
:10B1D8009B6A5B0507D523685F0703D01A491348A4
:10B1E80029F0E7FB1A20134B9A6AD60511D5236874
:10B1F800590703D015490D4829F0DBFB1B200D4AE0
:10B20800936A43F47F43936200232B70F8BD1620A2
:10B21800B3E79B6A9A04F2D523685B0703D00C490D
:10B22800024829F0C6FB1C20E9E700BF70C90020CE
:10B238004DAA040000ED00E063AA0400C7A80400BA
:10B2480074AA04008DAA0400A2AA0400BDAA0400DE
:10B2580027A904002DE9F0478AB0774B0446D3F8B4
:10B2680004908A461646002500AFC9F3080885F3FE
:10B278001188BFF36F8F02F07F43B3F17F4F21D165
:10B28800D3071FD4500603D411070BD401250BE0B4
:10B298006A4803685A0702D0694929F08AFB16F000
:10B2A800040600D0544600250023FB71A8F10303CF
:10B2B800092B00F29B80DFE803F0078D90899999AC
:10B2C800999999932C46EFE75C4E33685B0703D056
:10B2D80030465C4929F06DFB0023FB71564BDA6A56
:10B2E800900708D53368590703D05749534829F0C0
:10B2F80060FB002333E0DA6A002A04DA33685A076D
:10B30800F7D05249F2E7DB6A5B00F2D53368580799
:10B3180003D04F49494829F04CFB474BA1695A696A
:10B3280042F480725A61BFF34F8FBFF36F8F5A692F
:10B3380031F8021C22F480725A61BFF34F8FBFF3B9
:10B348006F8F4DF6027291422BD13368590705D0A1
:10B35800236801213F4A394828F074FE2368FA79A6
:10B36800DAB907F1080604F1200C32462068616852
:10B37800083403C264451646F7D17A6A002D56D0C0
:10B38800C2F3080121B96FEA52226FEA42227A62B7
:10B39800184607F10801FFF735FD2837BD46BDE817
:10B3A800F0879A6AD2B222B10120F91DFFF7D2FDC7
:10B3B8000EE09A6A12F47F4F04D00120F91DFFF7BE
:10B3C800C5FE05E09B6AB3F5803F92D3FFF742FEC6
:10B3D8000346C4E70020F91DE8E70020F91DEEE761
:10B3E800164803685A0784D01B4980E71348036846
:10B3F8005B073FF47EAF194A6E4619F4F87F8AB0AE
:10B40800174B18BF13466A461649C2E90513A8F137
:10B418001003D3614FF400731384134B42F8103FA9
:10B4280000234FF41151FEF781FBB54661E722F482
:10B43800FF7222F00102AAE700ED00E070C90020C7
:10B4480003AB040026AB04003DAB04005EAB040074
:10B458006CAB04008BAB0400A7AB0400EAAA0400A1
:10B46800D5AA0400CBAB040004000001064B5A69BE
:10B4780042F010025A615A6942F480625A615A696C
:10B4880022F008025A61704700ED00E0EFF30880EF
:10B49800EFF3098101B57246FFF7DCFE01BD00BF7D
:10B4A800002080F31488BFF36F8F002080F30A8890
:10B4B80080F30B882DF05AF9002011490860BFF37A
:10B4C8004F8F104880F3088800F032F8202080F36E
:10B4D80011880D484FF0AA014FF400623AF043FF7B
:10B4E80009484FF40061401880F30988EFF314808D
:10B4F8000221084380F31488BFF36F8F00F012F91C
:10B5080094ED00E020D9012070B0012000231846F6
:10B518000649D1F89020C2F30722934200DB704716
:10B52800C1F89830C1F8A0000133F6E700ED00E05B
:10B5380010B572B6002484F31388FFF7E7FF23469B
:10B548004FF0FF300C4A03F120010133102B42F871
:10B558002100F8D100234FF0FF30074A03F16001C2
:10B568000133102B42F82100F8D162B6BFF34F8F98
:10B57800BFF36F8F10BD00BF00E100E0084B9B6870
:10B5880083420BD1EFF3058343B1064B5A6842F06F
:10B5980080525A605A6A22F400425A623BF052BA08
:10B5A8009CA0012000ED00E06FF00A01094A9368B1
:10B5B800C3F8B0100849C3F8AC004B6843F0805397
:10B5C8004B60002383F31188BFF36F8F9368D3F820
:10B5D800B00070479CA0012000ED00E0114A93687C
:10B5E80083F8B500EFF31183202383F31288BFF3A8
:10B5F8006F8F4FF00061536920F0FF0093600A4A93
:10B608005160D3F8A810094A1160002193F8B520B9
:10B618001043D3F8AC20C3F8AC1082F31188BFF301
:10B628006F8F70479CA0012000ED00E0EC1701200F
:10B6380010498A6882F8B5E04FF030001044EFF303
:10B64800098C80E8F01F74467046FFF7C7FFA646CE
:10B6580008498A68864602F1300090E8F01F8CF3AA
:10B66800098802F1000004B529F0ADF9BDE80440ED
:10B67800704700009CA001201EF0040F0CBFEFF3E0
:10B688000880EFF30980816911F8021C0229FFD0B4
:10B6980001B529F083F901BD40B2002807DB012379
:10B6A8004109034A00F01F00834042F821307047E7
:10B6B80000E100E040B200280CDB01220649430902
:10B6C80000F01F008240203341F82320BFF34F8F42
:10B6D800BFF36F8F704700BF00E100E0054B4209E0
:10B6E80053F82220012300F01F0003FA00F0104055
:10B6F800704700BF00E100E040B2002801F10101FD
:10B70800ACBF00F16040064B4FEA4111C9B2ABBF74
:10B7180000F5614000F00F0080F8001319547047DD
:10B7280014ED00E00B4A08B50B4B22F07F029A603B
:10B73800BFF34F8FBFF36F8FD3F8882022F47002C6
:10B74800C3F8882025F01CFD26F070FE00F052F8A2
:10B7580025F05AFD0080000000ED00E042F8203C92
:10B76800009B0D4942F81C3C019B21F0010142F865
:10B77800183C029B42F8081C42F8143C4FF08073B6
:10B7880042F8043C0023C0F8AC304FF43C43203A64
:10B798000265C0F8B4307047FD90000000B50E4B4C
:10B7A80015469860D0F8A8200C4B0E461A60D0F8C1
:10B7B800983083F30B882C4686F309884FF00000F5
:10B7C800074B984720464FF000014FF000024FF01A
:10B7D8000003044C204700BF9CA00120EC17012067
:10B7E800D9490300FD9000001022014B1A617047EF
:10B7F80000ED00E0002320210348C2180133412B4B
:10B8080082F80013F9D1704700E100E008B5EFF3C2
:10B818000583064A103B02EBC30152F8330049681E
:10B828008847BDE80840FFF781BB00BF6473040088
:10B838001FB5094C094A23460121094800F01CF9A3
:10B8480000230393074B0121E41A01A801930294F2
:10B8580000F01CF904B010BD0000042080C50020D1
:10B868001C7C040070CC002010B50C7A0B6804F026
:10B878001F0223F01F031A43CB68640923F01F0338
:10B88800054943EA440343F00103C1F89800C1F8AD
:10B898009C20C1F8A03010BD00ED00E010B50C4BA5
:10B8A8000446D3F89030C3F30723013B98420BD9E1
:10B8B800084803685B0704D001212346064A28F09C
:10B8C800C1FB6FF0150010BDFFF7CEFFFBE700BF0F
:10B8D80000ED00E060C90020E2AB04002DE9F04F64
:10B8E8008946144606464FF00008544D85B0C845B1
:10B8F8002EDAD6F804A0BAF1000F4BD0BAF11F0F18
:10B908001BD91AF01F0F18D1D6F800B01BF01F0F63
:10B9180013D1584629F07FF807460AEB0B00013887
:10B9280029F079F8874217D06FF015074448036863
:10B938005B070BD0434A3B4605E0414803685A077A
:10B9480004D04346404A012128F07CFB6FF01504DF
:10B95800204605B0BDE8F08F17F1160FE6D0BC42BF
:10B96800E4DDC5F89870D5F89C10C5F89870D5F83E
:10B97800A03021F01F0143F01F0BD6E900321A4412
:10B98800994202F1FF3A1DD1D34507D13146F8B2A9
:10B9980029F04AF808F101080C36A8E73146C5F83D
:10B9A8009870D5F89C3022F01F0203F01F03134350
:10B9B800C5F89C30E0B229F037F810F1160FC5D061
:10B9C800441CE7E7C5F89870D5F8A020013B23F0A0
:10B9D8001F0302F01F021343D3453146E0B2C5F8F6
:10B9E800A030E8D029F020F810F1160FAED0C5F835
:10B9F8009870D5F89C209DF808300BF1FF3B62F356
:10BA080004038DF80830D5F8A0309DF808205B08AD
:10BA180063F347128DF80820D6E9003213440093E7
:10BA280023F01F035B44A3EB0A03013023F01F0339
:10BA38006946C0B20393FFF731FFBEE700ED00E0AF
:10BA480060C900202BAC040008AC04000522044B9C
:10BA5800C3F89420BFF34F8FBFF36F8F704700BFB9
:10BA680000ED00E0BFF35F8F0022024BC3F8942083
:10BA7800704700BF00ED00E010B5034C2278FFF7D7
:10BA88002DFF207010BD00BF19A101202DE9F74F2F
:10BA9800294D8A4606464FF00008AB46274FD04549
:10BAA8001BDAD6F80490B9F1000F3FD03168084688
:10BAB800019128F0B0FF0199044609EB0100013813
:10BAC80028F0A9FF84424FF014021D4B08D002FB56
:10BAD80008F36FF015024BF8032003B0BDE8F08FB0
:10BAE80014F1160F2C60F8D01978A142F5DD02FB8D
:10BAF80008B0C7F89840C7F89840D7F89C4000F1BC
:10BB08000801007B64F304000871D7F8A0000C79E1
:10BB1800400860F347140C71D7F89C1021F01F01FE
:10BB28006960D7F8A01021F01F01296108F1010808
:10BB380014350C36B3E700BFF017012000ED00E024
:10BB480019A10120F0B54149414CD1F89030256840
:10BB5800C3F307239D4287B075D80020FFF782FF03
:10BB68003C4BC1F8C030854216D13B4C01A825702A
:10BB7800FEF7DEF800250646384FAE4213D1002006
:10BB880023783249D1F89020C2F30722934254DB3C
:10BB9800FFF75CFF00202FE0616801EB0011FFF761
:10BBA80063FE0130DFE70199280101EB0513DA682C
:10BBB8003A40B2F5001F21D0B2F5800F2BD0B2F574
:10BBC800801F38D15A689B680958013B22F01F0032
:10BBD80003440120844623F01F0340EA4C10CDE9BA
:10BBE80002218DF8100002A920780593FFF756FE70
:10BBF80000281DDA6FF0150007B0F0BD5A689B6881
:10BC08000958013B22F01F0003444FF0020C0120A9
:10BC180023F01F03E1E75A689B680958013B22F0AB
:10BC28001F0003444FF0000C022023F01F03D4E749
:10BC380023780133237001359FE7C1F89830C1F8A4
:10BC4800A00001339EE74FF0FF30D5E700ED00E09C
:10BC5800287C0400AAFF440019A101200000F0FF7D
:10BC6800F0B587B007460E461446002110226846F4
:10BC78001D463BF068F902238DF80230054B2A4631
:10BC880021466846CDE90476019326F09BFF07B06C
:10BC9800F0BD00BF634A030008B50649064821F015
:10BCA8000701C1F1005202F5802227F02FFD002084
:10BCB80008BD00BF1F140220041801204FF0FF32F6
:10BCC8004FF0FF33014825F015BC00BF38C60020EF
:10BCD800014825F087BC00BF38C6002038B50546A6
:10BCE800FFF7ECFF2A460821074827F0F9FB04462E
:10BCF80028B925B13BF02CFA0C22044B1A50FFF757
:10BD0800E7FF204638BD00BF041801200C000000E2
:10BD180010B50446FFF7D2FF2146034827F097FBEA
:10BD2800BDE81040FFF7D4BF0418012008B500F0A3
:10BD3800B7F8012200230949C0E9002241610849F6
:10BD4800C0E902330A60074903610A60064A1360C2
:10BD5800064A1360064A136008BD00BF959B04009D
:10BD680068C6002064C60020181801201418012095
:10BD7800101801202DE9F04107460E46154600F03F
:10BD88008FF8C36804461BB943691A78002A41D161
:10BD98000023E3606368BB4256F8232008DB324B7C
:10BDA8006361204600F062F84FF0FF30BDE8F08193
:10BDB800511C616192F80080B8F12D0FEFD1911CF0
:10BDC800616151782D29A16004D192786AB9013353
:10BDD8006360E4E749B9244B4146284663613BF078
:10BDE800CAF80028DDD0C4F80880D4F808802846AE
:10BDF80041463BF0C0F8B8F13A0F636900D070B91A
:10BE08001B7813B9636801336360204600F02EF88D
:10BE18003F20CBE75A1C42611B788360E5E74278F4
:10BE28003A2A0BD0002222611B7813B963680133C8
:10BE38006360204600F01AF8A068B7E718786268CF
:10BE4800094928B901329742626004DD56F8223068
:10BE5800C4E90431EAE761612D7820463A2DD5D14D
:10BE680000F004F82846A1E7959B04000268074BF8
:10BE78001A604268064B1A608268064B1A60C268EC
:10BE8800054B1A600269054B1A60704768C60020A6
:10BE980064C6002018180120141801201018012069
:10BEA800004870474CC6002070B541690446867A40
:10BEB8000A4D59B1437ADB0706D42C2303FB0653FA
:10BEC8005B6A1B689B689847002363612C202146A6
:10BED80006FB0050BDE870403AF0BCBB40CB0020E8
:10BEE8002C21827A054B01FB02339A6A1B7F801A48
:10BEF8001B3323F00303B0FBF3F0704740CB002063
:10BF080038B52C24827A064B04FB02335B6AD3E9EA
:10BF180001240C601568FFF7E3FF04FB005038BDEF
:10BF280040CB00202DE9F04F85B005466846914684
:10BF38001C4690469A4603913AF000FEDDE90067F8
:10BF4800EFF3118B202383F31288BFF36F8F698B74
:10BF5800002942D02B8B8B4226D900220023284669
:10BF680025F07CFB0446F8B18BF31188BFF36F8F83
:10BF7800039B002B4FD032463B4668463AF002FE00
:10BF88002C21A27A2C4B204601FB02335B6A03A9C1
:10BF98001B681D68DDE90023A847606100283BD1C4
:10BFA8002046FFF781FF31E0698B4B1E6B838BF3D3
:10BFB8001188BFF36F8F2B7F2A8BAC6A1B3323F05A
:10BFC8000303521A02FB03441B4B1C4AEB1A9B1037
:10BFD8005343A3722B7FE372CAE78BF31188BFF335
:10BFE8006F8F54EA090409D03BF0B2F8144A154B94
:10BFF80012589A420ABF8846C846C2464246534625
:10C00800284625F02BFB04460028B1D10024204601
:10C0180005B0BDE8F08F6361012300252381039BF0
:10C0280029466382E27A656004F118003AF08BFFD2
:10C0380063692582E360EAE740CB0020A38B2EBA30
:10C04800080000003815012070B52C250B4C00B9EC
:10C0580070BD037A4668013BDBB20372002BF7D14F
:10C06800C3604360837A05FB03431B6A13B1984797
:10C078003046ECE7FFF718FFFAE700BF40CB002097
:10C088000122024B0020C3F840257047009003406E
:10C0980020B1034B800143F001031847704700BFEC
:10C0A800E0770400084B0246596811B119688842C4
:10C0B80007D0D86830B1996804488A4218BF002070
:10C0C80070471846704700BF1C180120241801202B
:10C0D80002460B46014825F00DBA00BF94CA00205D
:10C0E800014825F07FBA00BF94CA00202DE9F74F18
:10C0F8004FF00009824608460F469046FCF79CF828
:10C108004E4683464FF0FF314FF0FF30FFF7E0FF18
:10C11800194B1C689C4208BF00245B685CB9FFF798
:10C12800DFFF36B3CAF80060B8F1000F1DD1002058
:10C1380003B0BDE8F08FA569A94512D8AB4510D367
:10C14800012D03D97A5D2F2A00D052B92A463846E4
:10C15800E16801933AF04AFF002804BFA946264641
:10C16800019B9C42DBD02468D8E7B369C8F800304B
:10C17800DDE76FF00100DBE76CC600202DE9F7432F
:10C18800804691460D4639B10846FCF755F8012816
:10C1980002D92B782F2B0CD03A4803685A0702D0C3
:10C1A800394928F0AAFC6FF01504204603B0BDE811
:10C1B800F083D8F80420002A5DD1294601A8FFF7AA
:10C1C80095FF041E07DA2F4803685B07EDD02F4957
:10C1D80028F093FCE9E7019E96F820309F0702D5E6
:10C1E80019F0120F4AD1F3691A68C2B119F0400761
:10C1F80019D019F0020F09D1224803685C0702D050
:10C20800234928F07AFC6FF00C04CEE75B694BB940
:10C218001C480368590702D01E4928F06EFC6FF0CD
:10C228008504C2E70127C8F80460F3694A4629462D
:10C2380040461B689847041E0BDA124803685A07E1
:10C2480003D02246144928F053FC0023C8F80430D0
:10C25800ABE788F80890002FA7D0F3690021404683
:10C268005B699847041EA0DA064803685B07ECD0B0
:10C2780022460A49E7E76FF00F0496E76FF01D04BE
:10C2880093E700BF34C900207FAC040093AC0400DE
:10C29800ABAC0400D9AC0400F9AC04000EAD04004A
:10C2A80038B5446805466CB1E369DB697BB19847EA
:10C2B800041E09DA074803685B0703D022460649CB
:10C2C80028F016FC204638BD00236B60FAE76FF0B3
:10C2D8008504F7E734C900202AAD040010B5436887
:10C2E8007BB1DB695B687BB19847041E07DA0848B5
:10C2F80003685B0703D02246064928F0F9FB20466D
:10C3080010BD6FF00804FAE76FF08504F7E700BF87
:10C3180034C9002040AD040010B543687BB1DB6927
:10C328009B687BB19847041E07DA084803685B07D7
:10C3380003D02246064928F0DBFB204610BD6FF0EB
:10C348000804FAE76FF08504F7E700BF34C9002056
:10C3580055AD040010B543687BB1DB69DB687BB180
:10C368009847041E07DA084803685B0703D022468B
:10C37800064928F0BDFB204610BD6FF00804FAE717
:10C388006FF08504F7E700BF34C900206BAD0400E7
:10C3980010B543687BB1DB691B697BB19847041E04
:10C3A80007DA084803685B0703D02246064928F0E5
:10C3B8009FFB204610BD6FF00804FAE76FF0850474
:10C3C800F7E700BF34C9002080AD0400F7B5054683
:10C3D8000E4611B10B782F2B09D02A48036859074C
:10C3E80002D0294928F089FB6FF015041BE0436847
:10C3F800002B41D10768002F3ED130462349FBF777
:10C4080009FF044690B94FF0FF304FF0FF31FFF7B6
:10C418005FFE1F4A6C601368934214BF1F4627468D
:10C428002F60FFF75DFE204603B0F0BD3A46314667
:10C4380001A8FFF75BFE041E07DA124803685A07D3
:10C44800F1D0144928F059FBEDE7019BDA69126A2B
:10C45800AAB16B60DB69314628461B6A9847041EFF
:10C46800E1DAC5E90077074803685B07DBD02246B5
:10C47800094928F03DFBD6E76FF00F04D3E76FF0CA
:10C488008504D0E734C9002095AD0400AEAD0400A2
:10C498006CC6002093AC0400B0AD040038B5446805
:10C4A800054614B90460204638BDE3699B6A7BB130
:10C4B8009847041E08DA084803685B07F3D0224649
:10C4C800064928F015FBEEE70023C5E90033EAE743
:10C4D8006FF08504E7E700BF34C90020CAAD040047
:10C4E80038B504460D464FF0FF304FF0FF31FFF7E7
:10C4F800EFFD2046FFF7D6FD08B143687BB90B4B2B
:10C508005A6812B1DA686AB9012243F83240002445
:10C5180003EBC2035D60FFF7E3FD204638BD6FF013
:10C528007704F8E76FF01B04F5E700BF1C1801203B
:10C5380038B131B18B6918440278024B002A08BF20
:10C5480018467047AEAD040001200149FFF7C8BF87
:10C558005C7C040010B5036804465A6D1AB1196E64
:10C56800044839F058FF2168034839F08AFF00234E
:10C57800236010BD08CA002084C90020002807DAFB
:10C588005430522802D8034B185670476FF00400F5
:10C59800704700BFB0AF0400002805DA5A305828A9
:10C5A80004D8044B18567047002070476FF00400F9
:10C5B800704700BF57AF04002DE9F74343680446AE
:10C5C8001E6988461546014600220023234824F0A8
:10C5D800B1FE014600283ED12768642238463AF069
:10C5E800B2FCD6F8E41000220023896A1C4839F00E
:10C5F80008FF386660B3B94649F8540F6168404689
:10C60800FFF796FF8046304628F0B9FA2901AB01BA
:10C6180003F4006301F48071194305F003030B432D
:10C6280042463946CDF8009006F17C002DF0ABF972
:10C63800054606F5807028F0AAFA002D02DA204691
:10C64800FFF788FF284603B0BDE8F043FFF796BF21
:10C658006FF00B05F3E703B0BDE8F08384C9002051
:10C6680008CA002070B5436804461E690D460022BA
:10C6780001460023144824F05DFE014608BB34221D
:10C6880020683AF060FC61682846FFF751FF0546CC
:10C69800304628F074FA2A46216806F17C000BF02F
:10C6A8006DFC054606F5807028F071FA002D03DA56
:10C6B8002168054839F0E5FE2846BDE87040FFF7D7
:10C6C8005DBF6FF00B0070BDA0C9002070B50446B7
:10C6D80043681E69304628F052FA216806F17C004A
:10C6E8002DF0F3F9054606F5807028F050FA216818
:10C6F800034839F0C6FE2846BDE87040FFF73EBF44
:10C70800A0C90020F8B50446056900AF284628F0FE
:10C7180036FA05F17C002DF01FF994F820301B073C
:10C7280003D4D5F8FC0027F0A3FC002605F580709B
:10C73800C5F8FC6028F02BFA0D48026802F00702E1
:10C74800022A12D9E3686C4688B06A460949C2E9E8
:10C7580005134FF400739383074B42F8103F4FF4CF
:10C76800E6513346FDF7E2F9A5460020BD46F8BD7F
:10C7780048C90020E5AD0400030000012DE9F04F91
:10C7880089B0046900AF04F5807382467B60AD4EC2
:10C79800184639F0AFFE204628F0F1F93368DAF888
:10C7A800145003F00703022B9AF8208015D9E946A4
:10C7B8008AB06A46A44B092153610223C2E90631B3
:10C7C800136201235362062342F8103F00234FF4FB
:10C7D80043513046FDF7AAF9CD46D4F8FC30002B7A
:10C7E80040F06E8118F0080F0ED033685B0705D053
:10C7F80001214346954A934827F024FC6FF08505AC
:10C808000023C4F8FC30DBE004F1FC01E8B2FDF7DA
:10C8180095FA002802DBD4F8FC0058B933685E07A3
:10C8280005D001212B468A4A864827F00BFC6FF079
:10C838001205E5E727F05AFC0346002800F0C880F7
:10C84800D4F814B0A369BBF1000F08BF4FF0100B68
:10C85800002B08BF1023E569D4F8FC007B6165B99B
:10C86800C7E9060527F042FC7A4907F118022BF0C0
:10C8780025FBFD69002D00F02681636A002B3B61D2
:10C8880000F0C18002DC4FF0FF333B61D4F8FC00BC
:10C89800D4F828908368D4F82C80B3FBF5F3B9F169
:10C8A800000F08BF4FF04009B8F1000F08BF4FF064
:10C8B8002008FB6027F01AFC336803F00703022BFB
:10C8C80038D9D4F8FC30C7F808D08CB06A4601686B
:10C8D8005B68D361FB686048C2E908353B69C2E917
:10C8E800050193624FF4007393855C4B42F8103F47
:10C8F80000234FF473515348FDF718F93368D7F8FC
:10C9080008D003F00703022B14D98AB06A46544BA7
:10C91800C2F82480C2E9053B7B69C2E907390623CE
:10C9280042F8103F00234FF443514648FDF7FEF804
:10C93800D7F808D0D4F8FC30E5612360494B04F1FE
:10C948007C056360484B2146A360484B2846E3605A
:10C958007B69C4E90A98A361454BC4F814B0236104
:10C96800FB6823623B6963620AF052FF002821DA00
:10C978009AF82020D1071DD4324E9207336845D447
:10C9880013F0060F05D0022103463A4A304627F035
:10C9980059FB214628460AF0D7FEB0F100083FDAD5
:10C9A8003368590705D001214346334A254827F003
:10C9B80049FB4046FFF7E2FD00280546FFF620AF99
:10C9C800786828F0E4F828462437BD46BDE8F08F9B
:10C9D800326850073FF42BAFD4F8FC206D46D2687C
:10C9E80088B011686A462548C2E905014FF400710C
:10C9F8009183234942F8101F4FF4E2511148FDF783
:10CA080095F8AD4613E74FF400733EE75A0704D094
:10CA1800012130461B4A27F00CFB6FF01D05EFE69D
:10CA2800284621460AF0F4FE051E33682EDA5B0715
:10CA380005D001212B46144A024827F003FB28465B
:10CA4800B8E700BF48C90020F2AD04001DAE0400DD
:10CA58005AAE04000F4B03008EAE0400070000011D
:10CA6800C1AE04006B4B03004F4B03003B4B03006C
:10CA78000B4B0300E6AE040035AF040073AE0400B0
:10CA88000300000107AF040027AF040003F0070309
:10CA9800022B95D96C4688B06A46DAF80C300B49F7
:10CAA800C2E905134FF400739383094B42F8103F12
:10CAB80000234FF4E6510748FDF738F8A5467FE70D
:10CAC8006FF00F059CE66FF0150599E64CAF040072
:10CAD8000300000148C90020F7B506460D460D4879
:10CAE8008AB2836831461B689847002810DA002408
:10CAF8000CE02F1B042F28BF04272BF044FC3A46D8
:10CB0800019001A930193AF0F7F93C44A542F0D850
:10CB180003B0F0BD887204002DE9F04105460E46C9
:10CB28001746134CDFF84C80444508D33AF010FB05
:10CB38006A22114B1A504FF0FF30BDE8F08123688C
:10CB4800AB4200D08BB93A4631462846A36898478D
:10CB580058B13AF0FDFA0022074B3146C2503A4626
:10CB68002846E368BDE8F04118471034DCE700BF09
:10CB78006C7504008C7504000C000000F7B50746BE
:10CB88000E461446FCF7F0FA051E18DB3CB97B1E6E
:10CB9800012B04D8022E17D0012E08BF0624F1B2AB
:10CBA80001ABA2B2B8B202F0C9F9061E0EDA2846E5
:10CBB80026F05AFE3AF0CCFA104B76421E504FF04F
:10CBC800FF35284603B0F0BD1124E8E7002301989B
:10CBD800436083655C3039F006FD0198743039F0A4
:10CBE80024FE062C02D1019829F036F94FF440436F
:10CBF8002846034A0199FCF7F5FAE2E70C00000021
:10CC0800A47C040037B5069D0446E3B900930022CE
:10CC180000230E4902F066FA04F15C0039F0E3FCE7
:10CC280004F1740039F001FE214605F15C0039F089
:10CC380006FD204629F010F905F1740003B0BDE89F
:10CC4800304024F033BF03B030BD00BFCF4E0300E7
:10CC58002DE9F7430C46DDE90A9858EA0901074629
:10CC68004D460C9E13D014F1690F02D014F10B0F2E
:10CC78000DD1684639F086FFDDE9002313430ED154
:10CC880014F1690F0CBF6FF00B046FF068043AF0F1
:10CC98005FFA234B64421C504FF0FF3035E0B8F187
:10CCA800FF3F08BFB9F1FF3F0DD04FF47A71A5FBE4
:10CCB800013201FB0822DB0B43EA424332689A4205
:10CCC80094BF32603360F86F08B124F08BFC14F124
:10CCD800690F35680ED14FF4004440F2E730002167
:10CCE8004FF47A720023E5FB0401FBF779FA25F08B
:10CCF8009FFA01E00B34EED033685B00642B28BF49
:10CD080064233360F86F18B9002003B0BDE8F083DE
:10CD18004FF0FF324FF0FF3324F0ECFBF4E700BF95
:10CD28000C00000010B5044609B10C2A07D01623E0
:10CD38003AF00EFA0E4A13504FF0FF3010BD0B6850
:10CD4800002BF4D0886860B101F05AFB38B994F927
:10CD58008800002809DC01F065FB0028E7D058238B
:10CD6800E6E7081D28F039FFEEE701F049FBF4E794
:10CD78000C00000038B540F20314A142034659D014
:10CD8800B1F5827F0ED2042920D0B1F5817F28D059
:10CD9800032916D03AF0DCF95F22464B1A504FF0BF
:10CDA800FF3012E045F21B44A14272D045F2214007
:10CDB800814269D040F205108142EBD11268DA67EE
:10CDC8000DE0806DC0F34000800338BD816D1268AE
:10CDD80021F00201520448BF41F0020181650020A0
:10CDE800F3E79468D2E900018288D50718D50A6864
:10CDF80094425BD0042503F15C0414610A68547BF7
:10CE080065F3050454730A68947B6FF345149473AF
:10CE18000A68D4686FF39434D4600A6814320A60DC
:10CE28008288520703D49B6D13F0050FD7D06FF09B
:10CE38007700CAE711688888C5070FD55268106857
:10CE4800C06810F4FE1F02D1986DC40703D5C888C6
:10CE580040F00100C8801068143010608A885007BC
:10CE680042BFCA8842F00402CA809A6D520742BF84
:10CE7800CA8842F00802CA809B6DDB07AFD5CB8811
:10CE880043F01003CB80AAE79A6D42F002029A653C
:10CE9800A5E70023146819461A4628F072F86FF0BF
:10CEA8000043984294BF2060236098E76FF00B001E
:10CEB8008BE700BF0C00000013B50021B0F88630E6
:10CEC8000446C3F34103032B4FF000024FF0000365
:10CED800009118D129F017FA04236360A36D204646
:10CEE80043F00403A36528F02DF8204602F0D6F895
:10CEF800031E0BDA3AF02CF9054A5B4213504FF047
:10CF0800FF3002B010BD02F0EDF8E5E70020F8E7C9
:10CF18000C00000037B505460C4611BBB0F886304A
:10CF28000022C3F34103032B00914FF000030DD1FE
:10CF380029F0E9F9031E0CDA3AF00AF90E4A5B42C5
:10CF480013504FF0FF34204603B030BD02F0CAF84A
:10CF5800F0E7AB6D284643F00103AB6527F0F2FF1D
:10CF6800F1E74C1E3AF0F4F8012C94BF8622162201
:10CF7800014B1A50E5E700BF0C00000013B504464A
:10CF880028F09DFF031E07DA3AF0E2F80C4A5B42EC
:10CF980013504FF0FF3006E0B4F88630C3F3811326
:10CFA800022B02D0002002B010BD6368002200935B
:10CFB80020460023034902F095F8031EF2DAE3E75E
:10CFC8000C000000CF4E03002DE9F043B0F8863086
:10CFD8009146C3F34102022A0446884685B036D0FA
:10CFE800012A856D0ED13AF0B3F815F0040F08BF89
:10CFF8007822244B18BF62681A504FF0FF3005B0F2
:10D00800BDE8F08315F00205C3F3811319BF0026AC
:10D0180000274FF4C036002718BF1B4D012B42686C
:10D0280017D1009200230022184902F05BF800286B
:10D0380001DA434217E063684A46029341462B46A9
:10D048002046CDE9006729F003F90028F1DB00202C
:10D05800D5E72B460292CDE900674A4629F0F8F851
:10D06800031E05DA5B423AF073F8064A1350C4E728
:10D0780063680022009320460023044902F032F836
:10D08800E3E700BF0C000000BD4E0300CF4E0300D5
:10D0980013B5044628F0A6FF031E08DA5B423AF0EF
:10D0A80057F8094A13504FF0FF3002B010BD002264
:10D0B800002320460549009429F025F9002801DAC3
:10D0C8004342ECE70020F0E70C0000000DCC000024
:10D0D8002DE9F04F16464FF0FF384FF0FF390A227E
:10D0E8008FB05B0604460D46CDE90C89189F0B925C
:10D0F80003D4836D13F002034BD000220023CDE943
:10D108000C2308A839F01AFDDDE90C23DDE90889AC
:10D1180008A839F013FDDDE90823CDE90623636883
:10D128000022009320460023284901F0DBFF031E5C
:10D1380037DB4FF0000A0DF12C0B6168DDE90C2399
:10D14800002F38D0CDE90223199B04910093324671
:10D158003B4629462046CDF804A029F054F900287A
:10D1680026DADDE90C230146CDE9002320464246B4
:10D178004B46CDF808B0FFF76BFD002818DBDDE95A
:10D18800062308A839F0FEFCDDE90823CDE90C23C5
:10D19800D3E70CAA052102F097F84FF4A022002348
:10D1A800AFE739F0D5FF0A4A5B4213504FF0FF3022
:10D1B8000FB0BDE8F08FCDE9002302913B4632461F
:10D1C8002946204629F0CAF8C9E700BFCF4E030018
:10D1D8000C000000F7B5836D04469D070F46164600
:10D1E80014D44FF0FF334FF0FF326946CDE90023E6
:10D1F80027F0B3FF031E09DA39F0AAFF384A5B4269
:10D2080013504FF0FF35284603B0F0BD002204F15B
:10D218005C00002324F022FA044628B939F098FF6C
:10D228000B222F4B1A50ECE7FBF79EFF051E06DA80
:10D23800204627F087FE204601F030FFE1E704F1A1
:10D248005C0039F024FAA8B190F83330990711D569
:10D25800A36D284643F00103A36526F005FB20468D
:10D2680027F070FE204601F019FF39F071FF712296
:10D278001B4BD7E7B4F886305A0508D539F068FF54
:10D288007122174B1A50284626F0EEFAD0E723F4FD
:10D298000073A4F8863077B16EB132683846082A30
:10D2A80028BF082204F1280139F026FE238D012B1E
:10D2B80009D1082333604FF4404321462846094AE0
:10D2C800FBF790FF9FE7022B01D11823F2E72846CE
:10D2D80026F0CAFA39F03CFF8622014B1A50A7E71C
:10D2E8000C000000A47C04002DE9F04F8FB01E460E
:10D2F800DDE9197A4FF0FF3302924FF0FF32CDE9A2
:10D308000423189B0C465906054603D4836D13F075
:10D31800020330D000220023CDE90423DDE904898B
:10D32800189B05F15C0B13F00203019337D0102210
:10D33800002109A839F007FE0423CDF834B08DF890
:10D34800313001214B46424609A825F08DFA00F1FB
:10D358000B010B29034618D88C4A0A41D20714D46A
:10D36800584639F090F98046F8B939F0F1FE0B22A9
:10D37800874B1A500EE0042104AA01F0A5FF2846A5
:10D3880004A927F0EAFE031EC8DA39F0E1FE804A54
:10D398005B4213504FF0FF300FB0BDE8F08F4246AC
:10D3A8004B46584624F05AF9DDE7D0E90393009339
:10D3B800002F4DD0BAF1000F4AD0B5F884B0DAF892
:10D3C800005029F051FA98F83320C2F302123A803B
:10D3D80098F83320C2F30212012A57D100231422ED
:10D3E800072DCDE909323ED9404609A929F096FC16
:10D3F800054610B96FF0680237E040460A9929F0EF
:10D408008EFA0028F6D1404698F8361029F087FAA7
:10D418000028EFD1EA687A605FFA8BFBBBF1110F45
:10D4280034D107AA09920822404609A90A9229F08C
:10D4380075FC0028DED00288009B7A80C8F80C9022
:10D44800C8F810303A88012A23D10822CAF80020E7
:10D45800002C64D0E2680AB1A268F2B939F078FE0B
:10D468000C224B4B85E76FF01502009BC8F80C9017
:10D47800C8F81030524239F06BFE4549019B0A50FA
:10D48800002B87D1404629F073F983E76FF08502B6
:10D49800EBE7022A77D11822D8E7404629F069FB42
:10D4A800B042824628BFB246054657464FF0000BA9
:10D4B8008FB9B542C4F80CB003D9A26942F0200272
:10D4C800A2612269002A56D06069002836D00F2848
:10D4D8004FD8676132E0A2684FEACB0352F83B109D
:10D4E800029302EBCB0021B939F032FE1622284B09
:10D4F8003FE742684046BA4228BF3A46039229F0BD
:10D50800CEFA039A08B16922B5E7BA42ECD8A16805
:10D51800029BBF1A19444A600BF1010BC8E7404649
:10D5280029F027FB864228BF064605463246404674
:10D538000299B24629F0B3FA0028E4D1019BE3B975
:10D54800404629F015F9189B13F0200F0CBF5046E0
:10D55800284621E70F44073121F007061036164404
:10D568008642B6D821F007010A4411680029F1D192
:10D57800AFE71044F9E76261E0E7009BC8F80C9058
:10D58800C8F81030DFE7862275E700BF7EF7FFFF97
:10D598000C0000002DE9F04F17461E464FF0FF32F1
:10D5A8004FF0FF338FB0CDE90A23B0F886300C4630
:10D5B800D9070546DDF8608040F1B880C3F3410320
:10D5C800022B40F0B58018F0400F02D1836D9A0706
:10D5D8001ED500220023CDE90A23002E46D0DDE91E
:10D5E8000A23CDE90C2308F48073CDE9077601936B
:10D5F800002C3FD0002F3DD1E3688BB96FF01500A8
:10D60800434239F0A5FD4B4A4FF0FF3613502DE049
:10D6180013F00503E1D104210AAA01F055FEDCE765
:10D62800A3681A6807925A685F60D4F80CA0099238
:10D638000026DDE90C23374604A839F07FFADDE936
:10D648000423CDE90223089B7BB3AB6D13F00400E0
:10D6580013D068684042002820EAE076D0DB18F052
:10D66800020F03D13146284628F0F2FE30460FB0AB
:10D67800BDE8F08F4FF0000ADAE7DB07EBD4DDE90D
:10D688000CB95BEA090312D1C4B94346284608AA73
:10D6980007A927F076FCC31950EA030744D15BEACF
:10D6A800090918D0019B002B38D13846D3E7284602
:10D6B8000CA927F052FD0028E6DACCE743462846B5
:10D6C80009AA07A927F05DFC074450EA070305D11A
:10D6D8005BEA090302D16FF00A0091E7A268F30040
:10D6E80002EBC602516801445160A26852F8361034
:10D6F800014407910899091A089109990029D1D17B
:10D7080001365645D1D00833E660D018D258436860
:10D718000792099341600AB1002BCFD1DDE90223BA
:10D728000CA839F02FFA8EE71F46BBE7092368E7F4
:10D73800802366E70C000000F0B585B01C46DDE9E3
:10D748000A67134602B3B0F88620C2F38112022A90
:10D7580008D10A46CDE9016700210094FFF7C4FD0E
:10D7680005B0F0BD012A07D10A4600210A9405B088
:10D77800BDE8F040FFF70EBF39F0EAFC8622034B04
:10D788001A504FF0FF30EBE71046E9E70C000000B5
:10D79800F0B5B0F8864085B0C4F3811491B18E68B5
:10D7A800CEB100231D46CF680436AF4217D1022CF4
:10D7B8001AD10C1D02940C68CDE900240022FFF751
:10D7C80093FD06E0162339F0C3FC0B4A13504FF0C3
:10D7D800FF3005B0F0BD0C23F5E78623F3E756F8D4
:10D7E80035C001356344E0E7012CF6D100920022F0
:10D7F800FFF7D0FEEDE700BF0C00000038B50629A2
:10D8080014461A46049B41D005DC002943D001295F
:10D818000BD06D234CE02929FBD1122C4FD0432C7F
:10D828003FD0102CF5D10F2109E00F2C2CD00CDCA7
:10D83800032C1CD0042C14D0022CEAD1092101F0AD
:10D8480043FD00281BDA434232E0262C19D0272C4E
:10D85800DFD11B68042B2AD1B0F88630C3F3C2038A
:10D8680003E01B68042B22D14368136007E0B0F87B
:10D878008610C1F381111B68042B18D11160002098
:10D8880038BDB0F88410F6E70A21D8E7012CC0D1DA
:10D898006FF07A00F4E7022C05D0212C05D0012C7A
:10D8A800B7D10821CBE71021C9E70D21C7E7162317
:10D8B80039F04EFC034A13504FF0FF30E0E70E21D9
:10D8C800BDE700BF0C00000070B50E46062E1946D5
:10D8D8000546049B5CD005DC002E5ED0012E0DD0E1
:10D8E8006D232FE0292EFBD11A2A0ED06BDC102ACB
:10D8F8006ED0122AF4D10A460E211CE00F2A2CD031
:10D9080005DC022A15D00D2AEAD1002020E0192AC8
:10D91800E6D1B0F88620C2F3C2000138012810D839
:10D9280013B1B1B10878D8B922F40062A5F88620FD
:10D93800EBE70A46092101F06DFC0028E5DA4342CD
:10D9480000E06A2339F004FC234A13504FF0FF30FB
:10D9580070BD1623F6E71323F4E70A460A21EAE71F
:10D96800082BF6D1084601F02BF8031E01DA5B42BA
:10D97800E8E700F045FD0028EDD0B5F8863043F41F
:10D988000063A5F8863000F07DFF85F88800BCE7C5
:10D99800012AA5D16FF07A00DAE7212A10D006DC37
:10D9A800012A12D0022A9BD10A461021C3E7A2F10C
:10D9B8002304012C94D8BDE870401A46FFF7B2B989
:10D9C8000A460D21B7E7432A8AD10A460821B2E759
:10D9D8000A460F21AFE700BF0C00000013B503464D
:10D9E8001446084669B162B1B3F88620D1050AD455
:10D9F800802339F0ADFB124A13504FF0FF3002B0CC
:10DA080010BD1623F5E7C2F38111012903D1C2F332
:10DA18004102022AECD11A8D012AF2D1ADF8002078
:10DA28005A8DDB6AADF8022022686946082A28BFA9
:10DA38000822019339F060FA082300202360DEE70A
:10DA48000C000000F0B51546028C0E46012A4FF076
:10DA5800000485B023D1436ACDE90244EBB1082321
:10DA680001AA0DEB0301019328F002FD031E07DA5A
:10DA78005B4239F06DFB0D4A13504FF0FF300AE05E
:10DA8800019F2A683046BA4228BF3A4602A939F0AF
:10DA980033FA20462F6005B0F0BD1623E9E739F0C8
:10DAA80057FB1622014B1A50E7E700BF0C00000095
:10DAB800014B1860704700BF2C18012000487047C0
:10DAC8000CB004002DE9F843036807461B680E46AE
:10DAD8009D68002D00F0B380EB69002B00F0B28048
